{
	"data": {
		"bytecode": {
			"linkReferences": {},
			"object": "60c060405234801561000f575f80fd5b506040516158a33803806158a3833981810160405281019061003191906104c6565b6040518060400160405280600a81526020017f4265617265644d696e74000000000000000000000000000000000000000000008152506040518060400160405280600381526020017f424d54000000000000000000000000000000000000000000000000000000000081525081600390816100ac9190610750565b5080600490816100bc9190610750565b50505060016005819055505f60065f6101000a81548160ff0219169083151502179055505f73ffffffffffffffffffffffffffffffffffffffff168373ffffffffffffffffffffffffffffffffffffffff160361014e576040517f08c379a000000000000000000000000000000000000000000000000000000000815260040161014590610879565b60405180910390fd5b5f73ffffffffffffffffffffffffffffffffffffffff168273ffffffffffffffffffffffffffffffffffffffff16036101bc576040517f08c379a00000000000000000000000000000000000000000000000000000000081526004016101b390610879565b60405180910390fd5b5f73ffffffffffffffffffffffffffffffffffffffff168173ffffffffffffffffffffffffffffffffffffffff160361022a576040517f08c379a000000000000000000000000000000000000000000000000000000000815260040161022190610879565b60405180910390fd5b61023c5f801b8261030760201b60201c565b5061026d7fa49807205ce4d355092ef5a8a18f56e8913cf4a201fbe287825b095693c217758261030760201b60201c565b506b036ccfbb244887eea40000006009819055506716345785d8a00000600a819055508273ffffffffffffffffffffffffffffffffffffffff1660808173ffffffffffffffffffffffffffffffffffffffff16815250508173ffffffffffffffffffffffffffffffffffffffff1660a08173ffffffffffffffffffffffffffffffffffffffff168152505042600d81905550505050610897565b5f61031883836103fd60201b60201c565b6103f357600160075f8581526020019081526020015f205f015f8473ffffffffffffffffffffffffffffffffffffffff1673ffffffffffffffffffffffffffffffffffffffff1681526020019081526020015f205f6101000a81548160ff02191690831515021790555061039061046160201b60201c565b73ffffffffffffffffffffffffffffffffffffffff168273ffffffffffffffffffffffffffffffffffffffff16847f2f8788117e7eff1d82e926ec794901d17c78024a50270940304540a733656f0d60405160405180910390a4600190506103f7565b5f90505b92915050565b5f60075f8481526020019081526020015f205f015f8373ffffffffffffffffffffffffffffffffffffffff1673ffffffffffffffffffffffffffffffffffffffff1681526020019081526020015f205f9054906101000a900460ff16905092915050565b5f33905090565b5f80fd5b5f73ffffffffffffffffffffffffffffffffffffffff82169050919050565b5f6104958261046c565b9050919050565b6104a58161048b565b81146104af575f80fd5b50565b5f815190506104c08161049c565b92915050565b5f805f606084860312156104dd576104dc610468565b5b5f6104ea868287016104b2565b93505060206104fb868287016104b2565b925050604061050c868287016104b2565b9150509250925092565b5f81519050919050565b7f4e487b71000000000000000000000000000000000000000000000000000000005f52604160045260245ffd5b7f4e487b71000000000000000000000000000000000000000000000000000000005f52602260045260245ffd5b5f600282049050600182168061059157607f821691505b6020821081036105a4576105a361054d565b5b50919050565b5f819050815f5260205f209050919050565b5f6020601f8301049050919050565b5f82821b905092915050565b5f600883026106067fffffffffffffffffffffffffffffffffffffffffffffffffffffffffffffffff826105cb565b61061086836105cb565b95508019841693508086168417925050509392505050565b5f819050919050565b5f819050919050565b5f61065461064f61064a84610628565b610631565b610628565b9050919050565b5f819050919050565b61066d8361063a565b6106816106798261065b565b8484546105d7565b825550505050565b5f90565b610695610689565b6106a0818484610664565b505050565b5b818110156106c3576106b85f8261068d565b6001810190506106a6565b5050565b601f821115610708576106d9816105aa565b6106e2846105bc565b810160208510156106f1578190505b6107056106fd856105bc565b8301826106a5565b50505b505050565b5f82821c905092915050565b5f6107285f198460080261070d565b1980831691505092915050565b5f6107408383610719565b9150826002028217905092915050565b61075982610516565b67ffffffffffffffff81111561077257610771610520565b5b61077c825461057a565b6107878282856106c7565b5f60209050601f8311600181146107b8575f84156107a6578287015190505b6107b08582610735565b865550610817565b601f1984166107c6866105aa565b5f5b828110156107ed578489015182556001820191506020850194506020810190506107c8565b8683101561080a5784890151610806601f891682610719565b8355505b6001600288020188555050505b505050505050565b5f82825260208201905092915050565b7f496e76616c6964416464726573730000000000000000000000000000000000005f82015250565b5f610863600e8361081f565b915061086e8261082f565b602082019050919050565b5f6020820190508181035f83015261089081610857565b9050919050565b60805160a051614fc86108db5f395f81816115300152612fa101525f81816102d3015281816112de01528181612d6501528181612e070152612fde0152614fc85ff3fe6080604052600436106102cc575f3560e01c80637146bd0811610174578063a9059cbb116100db578063d547741f11610094578063e4849b321161006e578063e4849b3214610b77578063eac697c914610b9f578063f3f4370314610bc9578063f5b541a614610c0557610361565b8063d547741f14610afd578063db2e21bc14610b25578063dd62ed3e14610b3b57610361565b8063a9059cbb146109f1578063b6628a4d14610a2d578063be32b3f814610a57578063c2d0c2ff14610a7f578063c816841b14610aa9578063d439390c14610ad357610361565b8063902d55a51161012d578063902d55a51461090357806391d148541461092d57806395d89b4114610969578063a217fddf14610993578063a6f2ae3a146109bd578063a82b4d43146109c757610361565b80637146bd0814610809578063735de9f71461083357806375b238fc1461085d5780637850d118146108875780638bdb2afa1461089d5780638e81c731146108c757610361565b80632f2ff15d1161023357806352b86d2b116101ec5780635d279f70116101c65780635d279f701461072b57806369fcd4ac1461076757806370a08231146107a357806370db45d7146107df57610361565b806352b86d2b146106ad5780635c975abb146106d75780635d2022491461070157610361565b80632f2ff15d146105b7578063313ce567146105df578063322d210014610609578063343ee3b71461064557806336568abe1461066f578063476343ee1461069757610361565b806318160ddd1161028557806318160ddd14610485578063200e0ac8146104af57806323b872dd146104d9578063248a9ca31461051557806327f0bfd6146105515780632c678c641461058d57610361565b806301ffc9a714610365578063027fb5b1146103a157806306fdde03146103cb5780630905f560146103f5578063095ea7b31461041f578063150ee8831461045b57610361565b36610361577f000000000000000000000000000000000000000000000000000000000000000073ffffffffffffffffffffffffffffffffffffffff163373ffffffffffffffffffffffffffffffffffffffff160361035f576040517f08c379a0000000000000000000000000000000000000000000000000000000008152600401610356906138bc565b60405180910390fd5b005b5f80fd5b348015610370575f80fd5b5061038b60048036038101906103869190613933565b610c2f565b6040516103989190613978565b60405180910390f35b3480156103ac575f80fd5b506103b5610ca8565b6040516103c291906139a9565b60405180910390f35b3480156103d6575f80fd5b506103df610cb4565b6040516103ec9190613a22565b60405180910390f35b348015610400575f80fd5b50610409610d44565b6040516104169190613978565b60405180910390f35b34801561042a575f80fd5b5061044560048036038101906104409190613ac6565b610d57565b6040516104529190613978565b60405180910390f35b348015610466575f80fd5b5061046f610d79565b60405161047c91906139a9565b60405180910390f35b348015610490575f80fd5b50610499610d89565b6040516104a691906139a9565b60405180910390f35b3480156104ba575f80fd5b506104c3610d92565b6040516104d091906139a9565b60405180910390f35b3480156104e4575f80fd5b506104ff60048036038101906104fa9190613b04565b610d97565b60405161050c9190613978565b60405180910390f35b348015610520575f80fd5b5061053b60048036038101906105369190613b87565b610dc5565b6040516105489190613bc1565b60405180910390f35b34801561055c575f80fd5b5061057760048036038101906105729190613bda565b610de2565b60405161058491906139a9565b60405180910390f35b348015610598575f80fd5b506105a1610df7565b6040516105ae9190613978565b60405180910390f35b3480156105c2575f80fd5b506105dd60048036038101906105d89190613c05565b610e09565b005b3480156105ea575f80fd5b506105f3610e2b565b6040516106009190613c5e565b60405180910390f35b348015610614575f80fd5b5061062f600480360381019061062a9190613c77565b610e33565b60405161063c91906139a9565b60405180910390f35b348015610650575f80fd5b50610659610fa8565b60405161066691906139a9565b60405180910390f35b34801561067a575f80fd5b5061069560048036038101906106909190613c05565b610fae565b005b3480156106a2575f80fd5b506106ab611029565b005b3480156106b8575f80fd5b506106c16111b0565b6040516106ce91906139a9565b60405180910390f35b3480156106e2575f80fd5b506106eb6111b6565b6040516106f89190613978565b60405180910390f35b34801561070c575f80fd5b506107156111cb565b60405161072291906139a9565b60405180910390f35b348015610736575f80fd5b50610751600480360381019061074c9190613bda565b6111d1565b60405161075e91906139a9565b60405180910390f35b348015610772575f80fd5b5061078d60048036038101906107889190613c77565b6111e6565b60405161079a91906139a9565b60405180910390f35b3480156107ae575f80fd5b506107c960048036038101906107c49190613bda565b611285565b6040516107d691906139a9565b60405180910390f35b3480156107ea575f80fd5b506107f36112ca565b60405161080091906139a9565b60405180910390f35b348015610814575f80fd5b5061081d6112cf565b60405161082a91906139a9565b60405180910390f35b34801561083e575f80fd5b506108476112dc565b6040516108549190613cfd565b60405180910390f35b348015610868575f80fd5b50610871611300565b60405161087e9190613bc1565b60405180910390f35b348015610892575f80fd5b5061089b611324565b005b3480156108a8575f80fd5b506108b161152e565b6040516108be9190613d36565b60405180910390f35b3480156108d2575f80fd5b506108ed60048036038101906108e89190613d4f565b611552565b6040516108fa91906139a9565b60405180910390f35b34801561090e575f80fd5b50610917611573565b60405161092491906139a9565b60405180910390f35b348015610938575f80fd5b50610953600480360381019061094e9190613c05565b611583565b6040516109609190613978565b60405180910390f35b348015610974575f80fd5b5061097d6115e7565b60405161098a9190613a22565b60405180910390f35b34801561099e575f80fd5b506109a7611677565b6040516109b49190613bc1565b60405180910390f35b6109c561167d565b005b3480156109d2575f80fd5b506109db611c78565b6040516109e891906139a9565b60405180910390f35b3480156109fc575f80fd5b50610a176004803603810190610a129190613ac6565b611c84565b604051610a249190613978565b60405180910390f35b348015610a38575f80fd5b50610a41611ca6565b604051610a4e91906139a9565b60405180910390f35b348015610a62575f80fd5b50610a7d6004803603810190610a789190613db7565b611cb6565b005b348015610a8a575f80fd5b50610a93611d1a565b604051610aa091906139a9565b60405180910390f35b348015610ab4575f80fd5b50610abd611d1f565b604051610aca9190613df1565b60405180910390f35b348015610ade575f80fd5b50610ae7611d44565b604051610af491906139a9565b60405180910390f35b348015610b08575f80fd5b50610b236004803603810190610b1e9190613c05565b611d4f565b005b348015610b30575f80fd5b50610b39611d71565b005b348015610b46575f80fd5b50610b616004803603810190610b5c9190613e0a565b611f54565b604051610b6e91906139a9565b60405180910390f35b348015610b82575f80fd5b50610b9d6004803603810190610b989190613c77565b611fd6565b005b348015610baa575f80fd5b50610bb361249e565b604051610bc091906139a9565b60405180910390f35b348015610bd4575f80fd5b50610bef6004803603810190610bea9190613bda565b6124a4565b604051610bfc91906139a9565b60405180910390f35b348015610c10575f80fd5b50610c196124ea565b604051610c269190613bc1565b60405180910390f35b5f7f7965db0b000000000000000000000000000000000000000000000000000000007bffffffffffffffffffffffffffffffffffffffffffffffffffffffff1916827bffffffffffffffffffffffffffffffffffffffffffffffffffffffff19161480610ca15750610ca08261250e565b5b9050919050565b6716345785d8a0000081565b606060038054610cc390613e75565b80601f0160208091040260200160405190810160405280929190818152602001828054610cef90613e75565b8015610d3a5780601f10610d1157610100808354040283529160200191610d3a565b820191905f5260205f20905b815481529060010190602001808311610d1d57829003601f168201915b5050505050905090565b600c60019054906101000a900460ff1681565b5f80610d61612577565b9050610d6e81858561257e565b600191505092915050565b6b02955cf10bd668bde07c000081565b5f600254905090565b601e81565b5f80610da1612577565b9050610dae858285612590565b610db9858585612622565b60019150509392505050565b5f60075f8381526020019081526020015f20600101549050919050565b600f602052805f5260405f205f915090505481565b600c5f9054906101000a900460ff1681565b610e1282610dc5565b610e1b81612712565b610e258383612726565b50505050565b5f6012905090565b5f808211610e76576040517f08c379a0000000000000000000000000000000000000000000000000000000008152600401610e6d90613f15565b60405180910390fd5b5f60095411610eba576040517f08c379a0000000000000000000000000000000000000000000000000000000008152600401610eb190613f7d565b60405180910390fd5b5f82600a54610ec99190613fc8565b90505f670de0b6b3a76400006002610ee2600a54612810565b610eeb85612810565b610ef59190613ffb565b610eff919061415d565b600954610f0c91906141a7565b610f169190614215565b90505f8111610f5a576040517f08c379a0000000000000000000000000000000000000000000000000000000008152600401610f519061428f565b60405180910390fd5b6009548110610f9e576040517f08c379a0000000000000000000000000000000000000000000000000000000008152600401610f95906142f7565b60405180910390fd5b8092505050919050565b60095481565b610fb6612577565b73ffffffffffffffffffffffffffffffffffffffff168173ffffffffffffffffffffffffffffffffffffffff161461101a576040517f6697b23200000000000000000000000000000000000000000000000000000000815260040160405180910390fd5b6110248282612942565b505050565b611031612a2c565b7fa49807205ce4d355092ef5a8a18f56e8913cf4a201fbe287825b095693c2177561105b81612712565b600c5f9054906101000a900460ff166110a9576040517f08c379a00000000000000000000000000000000000000000000000000000000081526004016110a09061435f565b60405180910390fd5b670214e8348c4f00004710156110f4576040517f08c379a00000000000000000000000000000000000000000000000000000000081526004016110eb906143c7565b60405180910390fd5b5f3373ffffffffffffffffffffffffffffffffffffffff16670214e8348c4f000060405161112190614412565b5f6040518083038185875af1925050503d805f811461115b576040519150601f19603f3d011682016040523d82523d5f602084013e611160565b606091505b50509050806111a4576040517f08c379a000000000000000000000000000000000000000000000000000000000815260040161119b90614470565b60405180910390fd5b50506111ae612a72565b565b600a5481565b5f60065f9054906101000a900460ff16905090565b600b5481565b600e602052805f5260405f205f915090505481565b5f808211611229576040517f08c379a0000000000000000000000000000000000000000000000000000000008152600401611220906144fe565b60405180910390fd5b5f826009546112389190613fc8565b90505f670de0b6b3a764000061124f600954612810565b61125884612810565b6112629190613ffb565b600a5461126f91906141a7565b6112799190614215565b90508092505050919050565b5f805f8373ffffffffffffffffffffffffffffffffffffffff1673ffffffffffffffffffffffffffffffffffffffff1681526020019081526020015f20549050919050565b600a81565b6802b5e3af16b188000081565b7f000000000000000000000000000000000000000000000000000000000000000081565b7fa49807205ce4d355092ef5a8a18f56e8913cf4a201fbe287825b095693c2177581565b61132c612a2c565b5f60085f3373ffffffffffffffffffffffffffffffffffffffff1673ffffffffffffffffffffffffffffffffffffffff1681526020019081526020015f205490505f81036113a6576040517f6868774400000000000000000000000000000000000000000000000000000000815260040160405180910390fd5b804710156113e9576040517f08c379a00000000000000000000000000000000000000000000000000000000081526004016113e090614566565b60405180910390fd5b5f60085f3373ffffffffffffffffffffffffffffffffffffffff1673ffffffffffffffffffffffffffffffffffffffff1681526020019081526020015f20819055505f3373ffffffffffffffffffffffffffffffffffffffff168260405161145090614412565b5f6040518083038185875af1925050503d805f811461148a576040519150601f19603f3d011682016040523d82523d5f602084013e61148f565b606091505b5050905080156114d4576040517f08c379a00000000000000000000000000000000000000000000000000000000081526004016114cb906145ce565b60405180910390fd5b3373ffffffffffffffffffffffffffffffffffffffff167f7084f5476618d8e60b11ef0d7d3f06914655adb8793e28ff7f018d4c76d505d58360405161151a91906139a9565b60405180910390a2505061152c612a72565b565b7f000000000000000000000000000000000000000000000000000000000000000081565b5f8160646115609190614215565b8361156b91906141a7565b905092915050565b6ba18f07d736b90be55000000081565b5f60075f8481526020019081526020015f205f015f8373ffffffffffffffffffffffffffffffffffffffff1673ffffffffffffffffffffffffffffffffffffffff1681526020019081526020015f205f9054906101000a900460ff16905092915050565b6060600480546115f690613e75565b80601f016020809104026020016040519081016040528092919081815260200182805461162290613e75565b801561166d5780601f106116445761010080835404028352916020019161166d565b820191905f5260205f20905b81548152906001019060200180831161165057829003601f168201915b5050505050905090565b5f801b81565b611685612a2c565b61168d612a7c565b600c5f9054906101000a900460ff16156116dc576040517f08c379a00000000000000000000000000000000000000000000000000000000081526004016116d390614636565b60405180910390fd5b33601e600f5f8373ffffffffffffffffffffffffffffffffffffffff1673ffffffffffffffffffffffffffffffffffffffff1681526020019081526020015f2054426117289190613ffb565b10158061177257506003600e5f8373ffffffffffffffffffffffffffffffffffffffff1673ffffffffffffffffffffffffffffffffffffffff1681526020019081526020015f2054105b6117b1576040517f08c379a00000000000000000000000000000000000000000000000000000000081526004016117a89061469e565b60405180910390fd5b601e600f5f8373ffffffffffffffffffffffffffffffffffffffff1673ffffffffffffffffffffffffffffffffffffffff1681526020019081526020015f2054426117fc9190613ffb565b10611849576001600e5f8373ffffffffffffffffffffffffffffffffffffffff1673ffffffffffffffffffffffffffffffffffffffff1681526020019081526020015f20819055506118d5565b6001600e5f8373ffffffffffffffffffffffffffffffffffffffff1673ffffffffffffffffffffffffffffffffffffffff1681526020019081526020015f20546118939190613fc8565b600e5f8373ffffffffffffffffffffffffffffffffffffffff1673ffffffffffffffffffffffffffffffffffffffff1681526020019081526020015f20819055505b42600f5f8373ffffffffffffffffffffffffffffffffffffffff1673ffffffffffffffffffffffffffffffffffffffff1681526020019081526020015f2081905550662386f26fc10000341015611961576040517f08c379a000000000000000000000000000000000000000000000000000000000815260040161195890614706565b60405180910390fd5b6802b5e3af16b18800003411156119ad576040517f08c379a00000000000000000000000000000000000000000000000000000000081526004016119a49061476e565b60405180910390fd5b5f6119b734610e33565b90505f81116119fb576040517f08c379a00000000000000000000000000000000000000000000000000000000081526004016119f2906147d6565b60405180910390fd5b5f6003600954611a0b9190614215565b905080821115611a50576040517f08c379a0000000000000000000000000000000000000000000000000000000008152600401611a479061483e565b60405180910390fd5b600a600954611a5f9190614215565b82611a6a9190613fc8565b6009541015611aae576040517f08c379a0000000000000000000000000000000000000000000000000000000008152600401611aa5906142f7565b60405180910390fd5b6ba18f07d736b90be55000000082611ac4610d89565b611ace9190613fc8565b1115611b0f576040517f08c379a0000000000000000000000000000000000000000000000000000000008152600401611b06906148a6565b60405180910390fd5b5f611b1c34600a54611552565b9050600a811115611b62576040517f08c379a0000000000000000000000000000000000000000000000000000000008152600401611b599061490e565b60405180910390fd5b34600a54611b709190613fc8565b600a8190555082600954611b849190613ffb565b60098190555034600b54611b989190613fc8565b600b819055505f6b02955cf10bd668bde07c000084611bb5610d89565b611bbf9190613fc8565b10159050611bcd3385612abd565b3373ffffffffffffffffffffffffffffffffffffffff167f8fafebcaf9d154343dad25669bfa277f4fbacd7ac6b0c4fed522580e040a0f333486604051611c1592919061492c565b60405180910390a27f645aa9c724799dce7df512bb35a464fa2f9dbaca82fe22e62b3eeec7f7142f2f600954600a54604051611c5292919061492c565b60405180910390a18015611c6957611c68612b3c565b5b5050505050611c76612a72565b565b670214e8348c4f000081565b5f80611c8e612577565b9050611c9b818585612622565b600191505092915050565b6b036ccfbb244887eea400000081565b7fa49807205ce4d355092ef5a8a18f56e8913cf4a201fbe287825b095693c21775611ce081612712565b81600c60016101000a81548160ff0219169083151502179055508115611d0d57611d0861314e565b611d16565b611d156131b0565b5b5050565b600381565b60105f9054906101000a900473ffffffffffffffffffffffffffffffffffffffff1681565b662386f26fc1000081565b611d5882610dc5565b611d6181612712565b611d6b8383612942565b50505050565b611d79612a2c565b7fa49807205ce4d355092ef5a8a18f56e8913cf4a201fbe287825b095693c21775611da381612712565b600c60019054906101000a900460ff16611df2576040517f08c379a0000000000000000000000000000000000000000000000000000000008152600401611de99061499d565b60405180910390fd5b5f4790505f8111611e38576040517f08c379a0000000000000000000000000000000000000000000000000000000008152600401611e2f90614a05565b60405180910390fd5b5f81905080600b54611e4a9190613ffb565b600b819055505f3373ffffffffffffffffffffffffffffffffffffffff1682604051611e7590614412565b5f6040518083038185875af1925050503d805f8114611eaf576040519150601f19603f3d011682016040523d82523d5f602084013e611eb4565b606091505b5050905080611ef8576040517f08c379a0000000000000000000000000000000000000000000000000000000008152600401611eef90614470565b60405180910390fd5b3373ffffffffffffffffffffffffffffffffffffffff167f5fafa99d0643513820be26656b45130b01e1c03062e1266bf36f88cbd3bd969583604051611f3e91906139a9565b60405180910390a250505050611f52612a72565b565b5f60015f8473ffffffffffffffffffffffffffffffffffffffff1673ffffffffffffffffffffffffffffffffffffffff1681526020019081526020015f205f8373ffffffffffffffffffffffffffffffffffffffff1673ffffffffffffffffffffffffffffffffffffffff1681526020019081526020015f2054905092915050565b611fde612a2c565b611fe6612a7c565b600c5f9054906101000a900460ff1615612035576040517f08c379a000000000000000000000000000000000000000000000000000000000815260040161202c90614636565b60405180910390fd5b33601e600f5f8373ffffffffffffffffffffffffffffffffffffffff1673ffffffffffffffffffffffffffffffffffffffff1681526020019081526020015f2054426120819190613ffb565b1015806120cb57506003600e5f8373ffffffffffffffffffffffffffffffffffffffff1673ffffffffffffffffffffffffffffffffffffffff1681526020019081526020015f2054105b61210a576040517f08c379a00000000000000000000000000000000000000000000000000000000081526004016121019061469e565b60405180910390fd5b601e600f5f8373ffffffffffffffffffffffffffffffffffffffff1673ffffffffffffffffffffffffffffffffffffffff1681526020019081526020015f2054426121559190613ffb565b106121a2576001600e5f8373ffffffffffffffffffffffffffffffffffffffff1673ffffffffffffffffffffffffffffffffffffffff1681526020019081526020015f208190555061222e565b6001600e5f8373ffffffffffffffffffffffffffffffffffffffff1673ffffffffffffffffffffffffffffffffffffffff1681526020019081526020015f20546121ec9190613fc8565b600e5f8373ffffffffffffffffffffffffffffffffffffffff1673ffffffffffffffffffffffffffffffffffffffff1681526020019081526020015f20819055505b42600f5f8373ffffffffffffffffffffffffffffffffffffffff1673ffffffffffffffffffffffffffffffffffffffff1681526020019081526020015f20819055505f82036122a9576040517f2c5211c600000000000000000000000000000000000000000000000000000000815260040160405180910390fd5b816122b333611285565b10156122eb576040517ff4d678b800000000000000000000000000000000000000000000000000000000815260040160405180910390fd5b5f6122f5836111e6565b90505f8103612330576040517f2c5211c600000000000000000000000000000000000000000000000000000000815260040160405180910390fd5b804710612369576040517ff4d678b800000000000000000000000000000000000000000000000000000000815260040160405180910390fd5b5f61237682600a54611552565b9050600a8111156123b3576040517f68ac2abd00000000000000000000000000000000000000000000000000000000815260040160405180910390fd5b6123bd3385613211565b836009546123cb9190613fc8565b60098190555081600a546123df9190613ffb565b600a8190555081600b546123f39190613ffb565b600b819055506124033383613290565b3373ffffffffffffffffffffffffffffffffffffffff167f2dcf9433d75db0d8b1c172641f85e319ffe4ad22e108a95d1847ceb906e5195d858460405161244b92919061492c565b60405180910390a27f645aa9c724799dce7df512bb35a464fa2f9dbaca82fe22e62b3eeec7f7142f2f600954600a5460405161248892919061492c565b60405180910390a150505061249b612a72565b50565b600d5481565b5f60085f8373ffffffffffffffffffffffffffffffffffffffff1673ffffffffffffffffffffffffffffffffffffffff1681526020019081526020015f20549050919050565b7f97667070c54ef182b0f5858b034beac1b6f3089aa2d3188bb1e8929f4fa9b92981565b5f7f01ffc9a7000000000000000000000000000000000000000000000000000000007bffffffffffffffffffffffffffffffffffffffffffffffffffffffff1916827bffffffffffffffffffffffffffffffffffffffffffffffffffffffff1916149050919050565b5f33905090565b61258b83838360016133d1565b505050565b5f61259b8484611f54565b90507fffffffffffffffffffffffffffffffffffffffffffffffffffffffffffffffff811461261c578181101561260d578281836040517ffb8f41b200000000000000000000000000000000000000000000000000000000815260040161260493929190614a23565b60405180910390fd5b61261b84848484035f6133d1565b5b50505050565b5f73ffffffffffffffffffffffffffffffffffffffff168373ffffffffffffffffffffffffffffffffffffffff1603612692575f6040517f96c6fd1e0000000000000000000000000000000000000000000000000000000081526004016126899190613df1565b60405180910390fd5b5f73ffffffffffffffffffffffffffffffffffffffff168273ffffffffffffffffffffffffffffffffffffffff1603612702575f6040517fec442f050000000000000000000000000000000000000000000000000000000081526004016126f99190613df1565b60405180910390fd5b61270d8383836135a0565b505050565b6127238161271e612577565b6135b8565b50565b5f6127318383611583565b61280657600160075f8581526020019081526020015f205f015f8473ffffffffffffffffffffffffffffffffffffffff1673ffffffffffffffffffffffffffffffffffffffff1681526020019081526020015f205f6101000a81548160ff0219169083151502179055506127a3612577565b73ffffffffffffffffffffffffffffffffffffffff168273ffffffffffffffffffffffffffffffffffffffff16847f2f8788117e7eff1d82e926ec794901d17c78024a50270940304540a733656f0d60405160405180910390a46001905061280a565b5f90505b92915050565b5f808211612853576040517f08c379a000000000000000000000000000000000000000000000000000000000815260040161284a90614aa2565b60405180910390fd5b5f80670de0b6b3a764000090505f8490505b6002811061288757600181901c905081836128809190613fc8565b9250612865565b5f82846128949190614215565b6001901b83876128a491906141a7565b6128ae9190614215565b90505f5b6005811015612935578382836128c891906141a7565b6128d29190614215565b91508360026128e191906141a7565b8210612928576002826128f49190614215565b91506001816129039190613fc8565b600261290f9190614ac0565b8461291a9190614215565b856129259190613fc8565b94505b80806001019150506128b2565b5083945050505050919050565b5f61294d8383611583565b15612a22575f60075f8581526020019081526020015f205f015f8473ffffffffffffffffffffffffffffffffffffffff1673ffffffffffffffffffffffffffffffffffffffff1681526020019081526020015f205f6101000a81548160ff0219169083151502179055506129bf612577565b73ffffffffffffffffffffffffffffffffffffffff168273ffffffffffffffffffffffffffffffffffffffff16847ff6391f5c32d9c69d2a47ea670b442974b53935d1edc7fd64eb21e047a839171b60405160405180910390a460019050612a26565b5f90505b92915050565b600260055403612a68576040517f3ee5aeb500000000000000000000000000000000000000000000000000000000815260040160405180910390fd5b6002600581905550565b6001600581905550565b612a846111b6565b15612abb576040517fd93c066500000000000000000000000000000000000000000000000000000000815260040160405180910390fd5b565b5f73ffffffffffffffffffffffffffffffffffffffff168273ffffffffffffffffffffffffffffffffffffffff1603612b2d575f6040517fec442f05000000000000000000000000000000000000000000000000000000008152600401612b249190613df1565b60405180910390fd5b612b385f83836135a0565b5050565b600c5f9054906101000a900460ff1615612b8b576040517f08c379a0000000000000000000000000000000000000000000000000000000008152600401612b8290614b54565b60405180910390fd5b6b02955cf10bd668bde07c0000612ba0610d89565b1015612be1576040517f08c379a0000000000000000000000000000000000000000000000000000000008152600401612bd890614bbc565b60405180910390fd5b5f60095411612c25576040517f08c379a0000000000000000000000000000000000000000000000000000000008152600401612c1c90614c24565b60405180910390fd5b6001600c5f6101000a81548160ff0219169083151502179055505f670214e8348c4f000047612c549190613ffb565b90505f670de0b6b3a764000090505f60095482600a54612c7491906141a7565b612c7e9190614215565b90505f8111612cc2576040517f08c379a0000000000000000000000000000000000000000000000000000000008152600401612cb990614c8c565b60405180910390fd5b5f818385612cd091906141a7565b612cda9190614215565b90505f8111612d1e576040517f08c379a0000000000000000000000000000000000000000000000000000000008152600401612d1590614cf4565b60405180910390fd5b5f81612d28610d89565b6ba18f07d736b90be550000000612d3f9190613ffb565b612d499190613ffb565b9050612d553083612abd565b612d5f3082613211565b612d8a307f00000000000000000000000000000000000000000000000000000000000000008461257e565b5f3073ffffffffffffffffffffffffffffffffffffffff166370a08231306040518263ffffffff1660e01b8152600401612dc49190613df1565b602060405180830381865afa158015612ddf573d5f803e3d5ffd5b505050506040513d601f19601f82011682018060405250810190612e039190614d26565b90507f000000000000000000000000000000000000000000000000000000000000000073ffffffffffffffffffffffffffffffffffffffff1663f305d719873086878b33426040518863ffffffff1660e01b8152600401612e6996959493929190614d51565b60606040518083038185885af193505050508015612ea557506040513d601f19601f82011682018060405250810190612ea29190614db0565b60015b612ee4576040517f08c379a0000000000000000000000000000000000000000000000000000000008152600401612edb90614e4a565b60405180910390fd5b833073ffffffffffffffffffffffffffffffffffffffff166370a08231306040518263ffffffff1660e01b8152600401612f1e9190613df1565b602060405180830381865afa158015612f39573d5f803e3d5ffd5b505050506040513d601f19601f82011682018060405250810190612f5d9190614d26565b1115612f9e576040517f08c379a0000000000000000000000000000000000000000000000000000000008152600401612f9590614eb2565b60405180910390fd5b5f7f000000000000000000000000000000000000000000000000000000000000000073ffffffffffffffffffffffffffffffffffffffff1663e6a43905307f000000000000000000000000000000000000000000000000000000000000000073ffffffffffffffffffffffffffffffffffffffff1663ad5c46486040518163ffffffff1660e01b8152600401602060405180830381865afa158015613045573d5f803e3d5ffd5b505050506040513d601f19601f820116820180604052508101906130699190614ee4565b6040518363ffffffff1660e01b8152600401613086929190614f0f565b602060405180830381865afa1580156130a1573d5f803e3d5ffd5b505050506040513d601f19601f820116820180604052508101906130c59190614ee4565b90508060105f6101000a81548173ffffffffffffffffffffffffffffffffffffffff021916908373ffffffffffffffffffffffffffffffffffffffff1602179055507fac424901bd1f8e5385fe5a264b1567e68253b82ca4ba36c2a82b6c439ec94b1283858360405161313a93929190614f36565b60405180910390a150505050505050505050565b613156612a7c565b600160065f6101000a81548160ff0219169083151502179055507f62e78cea01bee320cd4e420270b5ea74000d11b0c9f74754ebdbfc544b05a258613199612577565b6040516131a69190613df1565b60405180910390a1565b6131b8613609565b5f60065f6101000a81548160ff0219169083151502179055507f5db9ee0a495bf2e6ff9c91a7834c1ba4fdd244a5e8aa4e537bd38aeae4b073aa6131fa612577565b6040516132079190613df1565b60405180910390a1565b5f73ffffffffffffffffffffffffffffffffffffffff168273ffffffffffffffffffffffffffffffffffffffff1603613281575f6040517f96c6fd1e0000000000000000000000000000000000000000000000000000000081526004016132789190613df1565b60405180910390fd5b61328c825f836135a0565b5050565b5f73ffffffffffffffffffffffffffffffffffffffff168273ffffffffffffffffffffffffffffffffffffffff16146132f5576040517fe6c4247b00000000000000000000000000000000000000000000000000000000815260040160405180910390fd5b8060085f8473ffffffffffffffffffffffffffffffffffffffff1673ffffffffffffffffffffffffffffffffffffffff1681526020019081526020015f205461333e9190613fc8565b60085f8473ffffffffffffffffffffffffffffffffffffffff1673ffffffffffffffffffffffffffffffffffffffff1681526020019081526020015f20819055508173ffffffffffffffffffffffffffffffffffffffff167f1eac8a3fac20cbc0ab386e1c2f193255a774cea3c8b271d31509bf1ec731618d826040516133c591906139a9565b60405180910390a25050565b5f73ffffffffffffffffffffffffffffffffffffffff168473ffffffffffffffffffffffffffffffffffffffff1603613441575f6040517fe602df050000000000000000000000000000000000000000000000000000000081526004016134389190613df1565b60405180910390fd5b5f73ffffffffffffffffffffffffffffffffffffffff168373ffffffffffffffffffffffffffffffffffffffff16036134b1575f6040517f94280d620000000000000000000000000000000000000000000000000000000081526004016134a89190613df1565b60405180910390fd5b8160015f8673ffffffffffffffffffffffffffffffffffffffff1673ffffffffffffffffffffffffffffffffffffffff1681526020019081526020015f205f8573ffffffffffffffffffffffffffffffffffffffff1673ffffffffffffffffffffffffffffffffffffffff1681526020019081526020015f2081905550801561359a578273ffffffffffffffffffffffffffffffffffffffff168473ffffffffffffffffffffffffffffffffffffffff167f8c5be1e5ebec7d5bd14f71427d1e84f3dd0314c0f7b2291e5b200ac8c7c3b9258460405161359191906139a9565b60405180910390a35b50505050565b6135a8612a7c565b6135b3838383613649565b505050565b6135c28282611583565b6136055780826040517fe2517d3f0000000000000000000000000000000000000000000000000000000081526004016135fc929190614f6b565b60405180910390fd5b5050565b6136116111b6565b613647576040517f8dfc202b00000000000000000000000000000000000000000000000000000000815260040160405180910390fd5b565b5f73ffffffffffffffffffffffffffffffffffffffff168373ffffffffffffffffffffffffffffffffffffffff1603613699578060025f82825461368d9190613fc8565b92505081905550613767565b5f805f8573ffffffffffffffffffffffffffffffffffffffff1673ffffffffffffffffffffffffffffffffffffffff1681526020019081526020015f2054905081811015613722578381836040517fe450d38c00000000000000000000000000000000000000000000000000000000815260040161371993929190614a23565b60405180910390fd5b8181035f808673ffffffffffffffffffffffffffffffffffffffff1673ffffffffffffffffffffffffffffffffffffffff1681526020019081526020015f2081905550505b5f73ffffffffffffffffffffffffffffffffffffffff168273ffffffffffffffffffffffffffffffffffffffff16036137ae578060025f82825403925050819055506137f8565b805f808473ffffffffffffffffffffffffffffffffffffffff1673ffffffffffffffffffffffffffffffffffffffff1681526020019081526020015f205f82825401925050819055505b8173ffffffffffffffffffffffffffffffffffffffff168373ffffffffffffffffffffffffffffffffffffffff167fddf252ad1be2c89b69c2b068fc378daa952ba7f163c4a11628f55a4df523b3ef8360405161385591906139a9565b60405180910390a3505050565b5f82825260208201905092915050565b7f4f6e6c7920726f757465722063616e2073656e642045544800000000000000005f82015250565b5f6138a6601883613862565b91506138b182613872565b602082019050919050565b5f6020820190508181035f8301526138d38161389a565b9050919050565b5f80fd5b5f7fffffffff0000000000000000000000000000000000000000000000000000000082169050919050565b613912816138de565b811461391c575f80fd5b50565b5f8135905061392d81613909565b92915050565b5f60208284031215613948576139476138da565b5b5f6139558482850161391f565b91505092915050565b5f8115159050919050565b6139728161395e565b82525050565b5f60208201905061398b5f830184613969565b92915050565b5f819050919050565b6139a381613991565b82525050565b5f6020820190506139bc5f83018461399a565b92915050565b5f81519050919050565b8281835e5f83830152505050565b5f601f19601f8301169050919050565b5f6139f4826139c2565b6139fe8185613862565b9350613a0e8185602086016139cc565b613a17816139da565b840191505092915050565b5f6020820190508181035f830152613a3a81846139ea565b905092915050565b5f73ffffffffffffffffffffffffffffffffffffffff82169050919050565b5f613a6b82613a42565b9050919050565b613a7b81613a61565b8114613a85575f80fd5b50565b5f81359050613a9681613a72565b92915050565b613aa581613991565b8114613aaf575f80fd5b50565b5f81359050613ac081613a9c565b92915050565b5f8060408385031215613adc57613adb6138da565b5b5f613ae985828601613a88565b9250506020613afa85828601613ab2565b9150509250929050565b5f805f60608486031215613b1b57613b1a6138da565b5b5f613b2886828701613a88565b9350506020613b3986828701613a88565b9250506040613b4a86828701613ab2565b9150509250925092565b5f819050919050565b613b6681613b54565b8114613b70575f80fd5b50565b5f81359050613b8181613b5d565b92915050565b5f60208284031215613b9c57613b9b6138da565b5b5f613ba984828501613b73565b91505092915050565b613bbb81613b54565b82525050565b5f602082019050613bd45f830184613bb2565b92915050565b5f60208284031215613bef57613bee6138da565b5b5f613bfc84828501613a88565b91505092915050565b5f8060408385031215613c1b57613c1a6138da565b5b5f613c2885828601613b73565b9250506020613c3985828601613a88565b9150509250929050565b5f60ff82169050919050565b613c5881613c43565b82525050565b5f602082019050613c715f830184613c4f565b92915050565b5f60208284031215613c8c57613c8b6138da565b5b5f613c9984828501613ab2565b91505092915050565b5f819050919050565b5f613cc5613cc0613cbb84613a42565b613ca2565b613a42565b9050919050565b5f613cd682613cab565b9050919050565b5f613ce782613ccc565b9050919050565b613cf781613cdd565b82525050565b5f602082019050613d105f830184613cee565b92915050565b5f613d2082613ccc565b9050919050565b613d3081613d16565b82525050565b5f602082019050613d495f830184613d27565b92915050565b5f8060408385031215613d6557613d646138da565b5b5f613d7285828601613ab2565b9250506020613d8385828601613ab2565b9150509250929050565b613d968161395e565b8114613da0575f80fd5b50565b5f81359050613db181613d8d565b92915050565b5f60208284031215613dcc57613dcb6138da565b5b5f613dd984828501613da3565b91505092915050565b613deb81613a61565b82525050565b5f602082019050613e045f830184613de2565b92915050565b5f8060408385031215613e2057613e1f6138da565b5b5f613e2d85828601613a88565b9250506020613e3e85828601613a88565b9150509250929050565b7f4e487b71000000000000000000000000000000000000000000000000000000005f52602260045260245ffd5b5f6002820490506001821680613e8c57607f821691505b602082108103613e9f57613e9e613e48565b5b50919050565b7f45544820616d6f756e74206d7573742062652067726561746572207468616e205f8201527f7a65726f00000000000000000000000000000000000000000000000000000000602082015250565b5f613eff602483613862565b9150613f0a82613ea5565b604082019050919050565b5f6020820190508181035f830152613f2c81613ef3565b9050919050565b7f496e73756666696369656e7420746f6b656e20726573657276650000000000005f82015250565b5f613f67601a83613862565b9150613f7282613f33565b602082019050919050565b5f6020820190508181035f830152613f9481613f5b565b9050919050565b7f4e487b71000000000000000000000000000000000000000000000000000000005f52601160045260245ffd5b5f613fd282613991565b9150613fdd83613991565b9250828201905080821115613ff557613ff4613f9b565b5b92915050565b5f61400582613991565b915061401083613991565b925082820390508181111561402857614027613f9b565b5b92915050565b5f8160011c9050919050565b5f808291508390505b60018511156140835780860481111561405f5761405e613f9b565b5b600185161561406e5780820291505b808102905061407c8561402e565b9450614043565b94509492505050565b5f8261409b5760019050614156565b816140a8575f9050614156565b81600181146140be57600281146140c8576140f7565b6001915050614156565b60ff8411156140da576140d9613f9b565b5b8360020a9150848211156140f1576140f0613f9b565b5b50614156565b5060208310610133831016604e8410600b841016171561412c5782820a90508381111561412757614126613f9b565b5b614156565b614139848484600161403a565b925090508184048111156141505761414f613f9b565b5b81810290505b9392505050565b5f61416782613991565b915061417283613c43565b925061419f7fffffffffffffffffffffffffffffffffffffffffffffffffffffffffffffffff848461408c565b905092915050565b5f6141b182613991565b91506141bc83613991565b92508282026141ca81613991565b915082820484148315176141e1576141e0613f9b565b5b5092915050565b7f4e487b71000000000000000000000000000000000000000000000000000000005f52601260045260245ffd5b5f61421f82613991565b915061422a83613991565b92508261423a576142396141e8565b5b828204905092915050565b7f546f6b656e20707572636861736520616d6f756e7420746f6f206c6f770000005f82015250565b5f614279601d83613862565b915061428482614245565b602082019050919050565b5f6020820190508181035f8301526142a68161426d565b9050919050565b7f4e6f7420656e6f75676820746f6b656e7320696e2072657365727665000000005f82015250565b5f6142e1601c83613862565b91506142ec826142ad565b602082019050919050565b5f6020820190508181035f83015261430e816142d5565b9050919050565b7f4e6f744d696772617465640000000000000000000000000000000000000000005f82015250565b5f614349600b83613862565b915061435482614315565b602082019050919050565b5f6020820190508181035f8301526143768161433d565b9050919050565b7f496e73756666696369656e7442616c616e6365000000000000000000000000005f82015250565b5f6143b1601383613862565b91506143bc8261437d565b602082019050919050565b5f6020820190508181035f8301526143de816143a5565b9050919050565b5f81905092915050565b50565b5f6143fd5f836143e5565b9150614408826143ef565b5f82019050919050565b5f61441c826143f2565b9150819050919050565b7f5472616e736665724661696c65640000000000000000000000000000000000005f82015250565b5f61445a600e83613862565b915061446582614426565b602082019050919050565b5f6020820190508181035f8301526144878161444e565b9050919050565b7f546f6b656e20616d6f756e74206d7573742062652067726561746572207468615f8201527f6e207a65726f0000000000000000000000000000000000000000000000000000602082015250565b5f6144e8602683613862565b91506144f38261448e565b604082019050919050565b5f6020820190508181035f830152614515816144dc565b9050919050565b7f496e73756666696369656e7420636f6e74726163742062616c616e63650000005f82015250565b5f614550601d83613862565b915061455b8261451c565b602082019050919050565b5f6020820190508181035f83015261457d81614544565b9050919050565b7f455448207472616e73666572206661696c6564000000000000000000000000005f82015250565b5f6145b8601383613862565b91506145c382614584565b602082019050919050565b5f6020820190508181035f8301526145e5816145ac565b9050919050565b7f416c72656164794d6967726174656400000000000000000000000000000000005f82015250565b5f614620600f83613862565b915061462b826145ec565b602082019050919050565b5f6020820190508181035f83015261464d81614614565b9050919050565b7f4578636565646564526174654c696d69740000000000000000000000000000005f82015250565b5f614688601183613862565b915061469382614654565b602082019050919050565b5f6020820190508181035f8301526146b58161467c565b9050919050565b7f416d6f756e7420746f6f204c6f770000000000000000000000000000000000005f82015250565b5f6146f0600e83613862565b91506146fb826146bc565b602082019050919050565b5f6020820190508181035f83015261471d816146e4565b9050919050565b7f416d6f756e742065786365656473206c696d69740000000000000000000000005f82015250565b5f614758601483613862565b915061476382614724565b602082019050919050565b5f6020820190508181035f8301526147858161474c565b9050919050565b7f496e76616c6964416d6f756e74000000000000000000000000000000000000005f82015250565b5f6147c0600d83613862565b91506147cb8261478c565b602082019050919050565b5f6020820190508181035f8301526147ed816147b4565b9050919050565b7f5075726368617365206578636565647320616c6c6f776564206c696d697400005f82015250565b5f614828601e83613862565b9150614833826147f4565b602082019050919050565b5f6020820190508181035f8301526148558161481c565b9050919050565b7f416d6f756e74206578636565647320746f74616c737570706c790000000000005f82015250565b5f614890601a83613862565b915061489b8261485c565b602082019050919050565b5f6020820190508181035f8301526148bd81614884565b9050919050565b7f416d6f756e74206578636565647320707269636520496d6170637400000000005f82015250565b5f6148f8601b83613862565b9150614903826148c4565b602082019050919050565b5f6020820190508181035f830152614925816148ec565b9050919050565b5f60408201905061493f5f83018561399a565b61494c602083018461399a565b9392505050565b7f456d657267656e6379206d6f6465206e6f7420616374697665000000000000005f82015250565b5f614987601983613862565b915061499282614953565b602082019050919050565b5f6020820190508181035f8301526149b48161497b565b9050919050565b7f4e6f2045544820746f20776974686472617700000000000000000000000000005f82015250565b5f6149ef601283613862565b91506149fa826149bb565b602082019050919050565b5f6020820190508181035f830152614a1c816149e3565b9050919050565b5f606082019050614a365f830186613de2565b614a43602083018561399a565b614a50604083018461399a565b949350505050565b7f6c6f6742617365323a20556e646566696e656420666f72207a65726f000000005f82015250565b5f614a8c601c83613862565b9150614a9782614a58565b602082019050919050565b5f6020820190508181035f830152614ab981614a80565b9050919050565b5f614aca82613991565b9150614ad583613991565b9250614b027fffffffffffffffffffffffffffffffffffffffffffffffffffffffffffffffff848461408c565b905092915050565b7f416c72656164794d6967726174656428290000000000000000000000000000005f82015250565b5f614b3e601183613862565b9150614b4982614b0a565b602082019050919050565b5f6020820190508181035f830152614b6b81614b32565b9050919050565b7f4d6967726174696f6e546872657368486f6c644e6f744d6574282900000000005f82015250565b5f614ba6601b83613862565b9150614bb182614b72565b602082019050919050565b5f6020820190508181035f830152614bd381614b9a565b9050919050565b7f5a65726f20746f6b656e207265736572766500000000000000000000000000005f82015250565b5f614c0e601283613862565b9150614c1982614bda565b602082019050919050565b5f6020820190508181035f830152614c3b81614c02565b9050919050565b7f496e76616c6964207072696365000000000000000000000000000000000000005f82015250565b5f614c76600d83613862565b9150614c8182614c42565b602082019050919050565b5f6020820190508181035f830152614ca381614c6a565b9050919050565b7f496e76616c6964206d6967726174696f6e20616d6f756e7400000000000000005f82015250565b5f614cde601883613862565b9150614ce982614caa565b602082019050919050565b5f6020820190508181035f830152614d0b81614cd2565b9050919050565b5f81519050614d2081613a9c565b92915050565b5f60208284031215614d3b57614d3a6138da565b5b5f614d4884828501614d12565b91505092915050565b5f60c082019050614d645f830189613de2565b614d71602083018861399a565b614d7e604083018761399a565b614d8b606083018661399a565b614d986080830185613de2565b614da560a083018461399a565b979650505050505050565b5f805f60608486031215614dc757614dc66138da565b5b5f614dd486828701614d12565b9350506020614de586828701614d12565b9250506040614df686828701614d12565b9150509250925092565b7f4d6967726174696f6e206661696c6564000000000000000000000000000000005f82015250565b5f614e34601083613862565b9150614e3f82614e00565b602082019050919050565b5f6020820190508181035f830152614e6181614e28565b9050919050565b7f546f6b656e2062616c616e6365206d616e6970756c61746564000000000000005f82015250565b5f614e9c601983613862565b9150614ea782614e68565b602082019050919050565b5f6020820190508181035f830152614ec981614e90565b9050919050565b5f81519050614ede81613a72565b92915050565b5f60208284031215614ef957614ef86138da565b5b5f614f0684828501614ed0565b91505092915050565b5f604082019050614f225f830185613de2565b614f2f6020830184613de2565b9392505050565b5f606082019050614f495f83018661399a565b614f56602083018561399a565b614f636040830184613de2565b949350505050565b5f604082019050614f7e5f830185613de2565b614f8b6020830184613bb2565b939250505056fea26469706673582212205ca16b38fcc0c8630f4c2532cce98a39d5782ac9830e631c914e70431a949e4064736f6c634300081a0033",
			"opcodes": "PUSH1 0xC0 PUSH1 0x40 MSTORE CALLVALUE DUP1 ISZERO PUSH2 0xF JUMPI PUSH0 DUP1 REVERT JUMPDEST POP PUSH1 0x40 MLOAD PUSH2 0x58A3 CODESIZE SUB DUP1 PUSH2 0x58A3 DUP4 CODECOPY DUP2 DUP2 ADD PUSH1 0x40 MSTORE DUP2 ADD SWAP1 PUSH2 0x31 SWAP2 SWAP1 PUSH2 0x4C6 JUMP JUMPDEST PUSH1 0x40 MLOAD DUP1 PUSH1 0x40 ADD PUSH1 0x40 MSTORE DUP1 PUSH1 0xA DUP2 MSTORE PUSH1 0x20 ADD PUSH32 0x4265617265644D696E7400000000000000000000000000000000000000000000 DUP2 MSTORE POP PUSH1 0x40 MLOAD DUP1 PUSH1 0x40 ADD PUSH1 0x40 MSTORE DUP1 PUSH1 0x3 DUP2 MSTORE PUSH1 0x20 ADD PUSH32 0x424D540000000000000000000000000000000000000000000000000000000000 DUP2 MSTORE POP DUP2 PUSH1 0x3 SWAP1 DUP2 PUSH2 0xAC SWAP2 SWAP1 PUSH2 0x750 JUMP JUMPDEST POP DUP1 PUSH1 0x4 SWAP1 DUP2 PUSH2 0xBC SWAP2 SWAP1 PUSH2 0x750 JUMP JUMPDEST POP POP POP PUSH1 0x1 PUSH1 0x5 DUP2 SWAP1 SSTORE POP PUSH0 PUSH1 0x6 PUSH0 PUSH2 0x100 EXP DUP2 SLOAD DUP2 PUSH1 0xFF MUL NOT AND SWAP1 DUP4 ISZERO ISZERO MUL OR SWAP1 SSTORE POP PUSH0 PUSH20 0xFFFFFFFFFFFFFFFFFFFFFFFFFFFFFFFFFFFFFFFF AND DUP4 PUSH20 0xFFFFFFFFFFFFFFFFFFFFFFFFFFFFFFFFFFFFFFFF AND SUB PUSH2 0x14E JUMPI PUSH1 0x40 MLOAD PUSH32 0x8C379A000000000000000000000000000000000000000000000000000000000 DUP2 MSTORE PUSH1 0x4 ADD PUSH2 0x145 SWAP1 PUSH2 0x879 JUMP JUMPDEST PUSH1 0x40 MLOAD DUP1 SWAP2 SUB SWAP1 REVERT JUMPDEST PUSH0 PUSH20 0xFFFFFFFFFFFFFFFFFFFFFFFFFFFFFFFFFFFFFFFF AND DUP3 PUSH20 0xFFFFFFFFFFFFFFFFFFFFFFFFFFFFFFFFFFFFFFFF AND SUB PUSH2 0x1BC JUMPI PUSH1 0x40 MLOAD PUSH32 0x8C379A000000000000000000000000000000000000000000000000000000000 DUP2 MSTORE PUSH1 0x4 ADD PUSH2 0x1B3 SWAP1 PUSH2 0x879 JUMP JUMPDEST PUSH1 0x40 MLOAD DUP1 SWAP2 SUB SWAP1 REVERT JUMPDEST PUSH0 PUSH20 0xFFFFFFFFFFFFFFFFFFFFFFFFFFFFFFFFFFFFFFFF AND DUP2 PUSH20 0xFFFFFFFFFFFFFFFFFFFFFFFFFFFFFFFFFFFFFFFF AND SUB PUSH2 0x22A JUMPI PUSH1 0x40 MLOAD PUSH32 0x8C379A000000000000000000000000000000000000000000000000000000000 DUP2 MSTORE PUSH1 0x4 ADD PUSH2 0x221 SWAP1 PUSH2 0x879 JUMP JUMPDEST PUSH1 0x40 MLOAD DUP1 SWAP2 SUB SWAP1 REVERT JUMPDEST PUSH2 0x23C PUSH0 DUP1 SHL DUP3 PUSH2 0x307 PUSH1 0x20 SHL PUSH1 0x20 SHR JUMP JUMPDEST POP PUSH2 0x26D PUSH32 0xA49807205CE4D355092EF5A8A18F56E8913CF4A201FBE287825B095693C21775 DUP3 PUSH2 0x307 PUSH1 0x20 SHL PUSH1 0x20 SHR JUMP JUMPDEST POP PUSH12 0x36CCFBB244887EEA4000000 PUSH1 0x9 DUP2 SWAP1 SSTORE POP PUSH8 0x16345785D8A00000 PUSH1 0xA DUP2 SWAP1 SSTORE POP DUP3 PUSH20 0xFFFFFFFFFFFFFFFFFFFFFFFFFFFFFFFFFFFFFFFF AND PUSH1 0x80 DUP2 PUSH20 0xFFFFFFFFFFFFFFFFFFFFFFFFFFFFFFFFFFFFFFFF AND DUP2 MSTORE POP POP DUP2 PUSH20 0xFFFFFFFFFFFFFFFFFFFFFFFFFFFFFFFFFFFFFFFF AND PUSH1 0xA0 DUP2 PUSH20 0xFFFFFFFFFFFFFFFFFFFFFFFFFFFFFFFFFFFFFFFF AND DUP2 MSTORE POP POP TIMESTAMP PUSH1 0xD DUP2 SWAP1 SSTORE POP POP POP POP PUSH2 0x897 JUMP JUMPDEST PUSH0 PUSH2 0x318 DUP4 DUP4 PUSH2 0x3FD PUSH1 0x20 SHL PUSH1 0x20 SHR JUMP JUMPDEST PUSH2 0x3F3 JUMPI PUSH1 0x1 PUSH1 0x7 PUSH0 DUP6 DUP2 MSTORE PUSH1 0x20 ADD SWAP1 DUP2 MSTORE PUSH1 0x20 ADD PUSH0 KECCAK256 PUSH0 ADD PUSH0 DUP5 PUSH20 0xFFFFFFFFFFFFFFFFFFFFFFFFFFFFFFFFFFFFFFFF AND PUSH20 0xFFFFFFFFFFFFFFFFFFFFFFFFFFFFFFFFFFFFFFFF AND DUP2 MSTORE PUSH1 0x20 ADD SWAP1 DUP2 MSTORE PUSH1 0x20 ADD PUSH0 KECCAK256 PUSH0 PUSH2 0x100 EXP DUP2 SLOAD DUP2 PUSH1 0xFF MUL NOT AND SWAP1 DUP4 ISZERO ISZERO MUL OR SWAP1 SSTORE POP PUSH2 0x390 PUSH2 0x461 PUSH1 0x20 SHL PUSH1 0x20 SHR JUMP JUMPDEST PUSH20 0xFFFFFFFFFFFFFFFFFFFFFFFFFFFFFFFFFFFFFFFF AND DUP3 PUSH20 0xFFFFFFFFFFFFFFFFFFFFFFFFFFFFFFFFFFFFFFFF AND DUP5 PUSH32 0x2F8788117E7EFF1D82E926EC794901D17C78024A50270940304540A733656F0D PUSH1 0x40 MLOAD PUSH1 0x40 MLOAD DUP1 SWAP2 SUB SWAP1 LOG4 PUSH1 0x1 SWAP1 POP PUSH2 0x3F7 JUMP JUMPDEST PUSH0 SWAP1 POP JUMPDEST SWAP3 SWAP2 POP POP JUMP JUMPDEST PUSH0 PUSH1 0x7 PUSH0 DUP5 DUP2 MSTORE PUSH1 0x20 ADD SWAP1 DUP2 MSTORE PUSH1 0x20 ADD PUSH0 KECCAK256 PUSH0 ADD PUSH0 DUP4 PUSH20 0xFFFFFFFFFFFFFFFFFFFFFFFFFFFFFFFFFFFFFFFF AND PUSH20 0xFFFFFFFFFFFFFFFFFFFFFFFFFFFFFFFFFFFFFFFF AND DUP2 MSTORE PUSH1 0x20 ADD SWAP1 DUP2 MSTORE PUSH1 0x20 ADD PUSH0 KECCAK256 PUSH0 SWAP1 SLOAD SWAP1 PUSH2 0x100 EXP SWAP1 DIV PUSH1 0xFF AND SWAP1 POP SWAP3 SWAP2 POP POP JUMP JUMPDEST PUSH0 CALLER SWAP1 POP SWAP1 JUMP JUMPDEST PUSH0 DUP1 REVERT JUMPDEST PUSH0 PUSH20 0xFFFFFFFFFFFFFFFFFFFFFFFFFFFFFFFFFFFFFFFF DUP3 AND SWAP1 POP SWAP2 SWAP1 POP JUMP JUMPDEST PUSH0 PUSH2 0x495 DUP3 PUSH2 0x46C JUMP JUMPDEST SWAP1 POP SWAP2 SWAP1 POP JUMP JUMPDEST PUSH2 0x4A5 DUP2 PUSH2 0x48B JUMP JUMPDEST DUP2 EQ PUSH2 0x4AF JUMPI PUSH0 DUP1 REVERT JUMPDEST POP JUMP JUMPDEST PUSH0 DUP2 MLOAD SWAP1 POP PUSH2 0x4C0 DUP2 PUSH2 0x49C JUMP JUMPDEST SWAP3 SWAP2 POP POP JUMP JUMPDEST PUSH0 DUP1 PUSH0 PUSH1 0x60 DUP5 DUP7 SUB SLT ISZERO PUSH2 0x4DD JUMPI PUSH2 0x4DC PUSH2 0x468 JUMP JUMPDEST JUMPDEST PUSH0 PUSH2 0x4EA DUP7 DUP3 DUP8 ADD PUSH2 0x4B2 JUMP JUMPDEST SWAP4 POP POP PUSH1 0x20 PUSH2 0x4FB DUP7 DUP3 DUP8 ADD PUSH2 0x4B2 JUMP JUMPDEST SWAP3 POP POP PUSH1 0x40 PUSH2 0x50C DUP7 DUP3 DUP8 ADD PUSH2 0x4B2 JUMP JUMPDEST SWAP2 POP POP SWAP3 POP SWAP3 POP SWAP3 JUMP JUMPDEST PUSH0 DUP2 MLOAD SWAP1 POP SWAP2 SWAP1 POP JUMP JUMPDEST PUSH32 0x4E487B7100000000000000000000000000000000000000000000000000000000 PUSH0 MSTORE PUSH1 0x41 PUSH1 0x4 MSTORE PUSH1 0x24 PUSH0 REVERT JUMPDEST PUSH32 0x4E487B7100000000000000000000000000000000000000000000000000000000 PUSH0 MSTORE PUSH1 0x22 PUSH1 0x4 MSTORE PUSH1 0x24 PUSH0 REVERT JUMPDEST PUSH0 PUSH1 0x2 DUP3 DIV SWAP1 POP PUSH1 0x1 DUP3 AND DUP1 PUSH2 0x591 JUMPI PUSH1 0x7F DUP3 AND SWAP2 POP JUMPDEST PUSH1 0x20 DUP3 LT DUP2 SUB PUSH2 0x5A4 JUMPI PUSH2 0x5A3 PUSH2 0x54D JUMP JUMPDEST JUMPDEST POP SWAP2 SWAP1 POP JUMP JUMPDEST PUSH0 DUP2 SWAP1 POP DUP2 PUSH0 MSTORE PUSH1 0x20 PUSH0 KECCAK256 SWAP1 POP SWAP2 SWAP1 POP JUMP JUMPDEST PUSH0 PUSH1 0x20 PUSH1 0x1F DUP4 ADD DIV SWAP1 POP SWAP2 SWAP1 POP JUMP JUMPDEST PUSH0 DUP3 DUP3 SHL SWAP1 POP SWAP3 SWAP2 POP POP JUMP JUMPDEST PUSH0 PUSH1 0x8 DUP4 MUL PUSH2 0x606 PUSH32 0xFFFFFFFFFFFFFFFFFFFFFFFFFFFFFFFFFFFFFFFFFFFFFFFFFFFFFFFFFFFFFFFF DUP3 PUSH2 0x5CB JUMP JUMPDEST PUSH2 0x610 DUP7 DUP4 PUSH2 0x5CB JUMP JUMPDEST SWAP6 POP DUP1 NOT DUP5 AND SWAP4 POP DUP1 DUP7 AND DUP5 OR SWAP3 POP POP POP SWAP4 SWAP3 POP POP POP JUMP JUMPDEST PUSH0 DUP2 SWAP1 POP SWAP2 SWAP1 POP JUMP JUMPDEST PUSH0 DUP2 SWAP1 POP SWAP2 SWAP1 POP JUMP JUMPDEST PUSH0 PUSH2 0x654 PUSH2 0x64F PUSH2 0x64A DUP5 PUSH2 0x628 JUMP JUMPDEST PUSH2 0x631 JUMP JUMPDEST PUSH2 0x628 JUMP JUMPDEST SWAP1 POP SWAP2 SWAP1 POP JUMP JUMPDEST PUSH0 DUP2 SWAP1 POP SWAP2 SWAP1 POP JUMP JUMPDEST PUSH2 0x66D DUP4 PUSH2 0x63A JUMP JUMPDEST PUSH2 0x681 PUSH2 0x679 DUP3 PUSH2 0x65B JUMP JUMPDEST DUP5 DUP5 SLOAD PUSH2 0x5D7 JUMP JUMPDEST DUP3 SSTORE POP POP POP POP JUMP JUMPDEST PUSH0 SWAP1 JUMP JUMPDEST PUSH2 0x695 PUSH2 0x689 JUMP JUMPDEST PUSH2 0x6A0 DUP2 DUP5 DUP5 PUSH2 0x664 JUMP JUMPDEST POP POP POP JUMP JUMPDEST JUMPDEST DUP2 DUP2 LT ISZERO PUSH2 0x6C3 JUMPI PUSH2 0x6B8 PUSH0 DUP3 PUSH2 0x68D JUMP JUMPDEST PUSH1 0x1 DUP2 ADD SWAP1 POP PUSH2 0x6A6 JUMP JUMPDEST POP POP JUMP JUMPDEST PUSH1 0x1F DUP3 GT ISZERO PUSH2 0x708 JUMPI PUSH2 0x6D9 DUP2 PUSH2 0x5AA JUMP JUMPDEST PUSH2 0x6E2 DUP5 PUSH2 0x5BC JUMP JUMPDEST DUP2 ADD PUSH1 0x20 DUP6 LT ISZERO PUSH2 0x6F1 JUMPI DUP2 SWAP1 POP JUMPDEST PUSH2 0x705 PUSH2 0x6FD DUP6 PUSH2 0x5BC JUMP JUMPDEST DUP4 ADD DUP3 PUSH2 0x6A5 JUMP JUMPDEST POP POP JUMPDEST POP POP POP JUMP JUMPDEST PUSH0 DUP3 DUP3 SHR SWAP1 POP SWAP3 SWAP2 POP POP JUMP JUMPDEST PUSH0 PUSH2 0x728 PUSH0 NOT DUP5 PUSH1 0x8 MUL PUSH2 0x70D JUMP JUMPDEST NOT DUP1 DUP4 AND SWAP2 POP POP SWAP3 SWAP2 POP POP JUMP JUMPDEST PUSH0 PUSH2 0x740 DUP4 DUP4 PUSH2 0x719 JUMP JUMPDEST SWAP2 POP DUP3 PUSH1 0x2 MUL DUP3 OR SWAP1 POP SWAP3 SWAP2 POP POP JUMP JUMPDEST PUSH2 0x759 DUP3 PUSH2 0x516 JUMP JUMPDEST PUSH8 0xFFFFFFFFFFFFFFFF DUP2 GT ISZERO PUSH2 0x772 JUMPI PUSH2 0x771 PUSH2 0x520 JUMP JUMPDEST JUMPDEST PUSH2 0x77C DUP3 SLOAD PUSH2 0x57A JUMP JUMPDEST PUSH2 0x787 DUP3 DUP3 DUP6 PUSH2 0x6C7 JUMP JUMPDEST PUSH0 PUSH1 0x20 SWAP1 POP PUSH1 0x1F DUP4 GT PUSH1 0x1 DUP2 EQ PUSH2 0x7B8 JUMPI PUSH0 DUP5 ISZERO PUSH2 0x7A6 JUMPI DUP3 DUP8 ADD MLOAD SWAP1 POP JUMPDEST PUSH2 0x7B0 DUP6 DUP3 PUSH2 0x735 JUMP JUMPDEST DUP7 SSTORE POP PUSH2 0x817 JUMP JUMPDEST PUSH1 0x1F NOT DUP5 AND PUSH2 0x7C6 DUP7 PUSH2 0x5AA JUMP JUMPDEST PUSH0 JUMPDEST DUP3 DUP2 LT ISZERO PUSH2 0x7ED JUMPI DUP5 DUP10 ADD MLOAD DUP3 SSTORE PUSH1 0x1 DUP3 ADD SWAP2 POP PUSH1 0x20 DUP6 ADD SWAP5 POP PUSH1 0x20 DUP2 ADD SWAP1 POP PUSH2 0x7C8 JUMP JUMPDEST DUP7 DUP4 LT ISZERO PUSH2 0x80A JUMPI DUP5 DUP10 ADD MLOAD PUSH2 0x806 PUSH1 0x1F DUP10 AND DUP3 PUSH2 0x719 JUMP JUMPDEST DUP4 SSTORE POP JUMPDEST PUSH1 0x1 PUSH1 0x2 DUP9 MUL ADD DUP9 SSTORE POP POP POP JUMPDEST POP POP POP POP POP POP JUMP JUMPDEST PUSH0 DUP3 DUP3 MSTORE PUSH1 0x20 DUP3 ADD SWAP1 POP SWAP3 SWAP2 POP POP JUMP JUMPDEST PUSH32 0x496E76616C696441646472657373000000000000000000000000000000000000 PUSH0 DUP3 ADD MSTORE POP JUMP JUMPDEST PUSH0 PUSH2 0x863 PUSH1 0xE DUP4 PUSH2 0x81F JUMP JUMPDEST SWAP2 POP PUSH2 0x86E DUP3 PUSH2 0x82F JUMP JUMPDEST PUSH1 0x20 DUP3 ADD SWAP1 POP SWAP2 SWAP1 POP JUMP JUMPDEST PUSH0 PUSH1 0x20 DUP3 ADD SWAP1 POP DUP2 DUP2 SUB PUSH0 DUP4 ADD MSTORE PUSH2 0x890 DUP2 PUSH2 0x857 JUMP JUMPDEST SWAP1 POP SWAP2 SWAP1 POP JUMP JUMPDEST PUSH1 0x80 MLOAD PUSH1 0xA0 MLOAD PUSH2 0x4FC8 PUSH2 0x8DB PUSH0 CODECOPY PUSH0 DUP2 DUP2 PUSH2 0x1530 ADD MSTORE PUSH2 0x2FA1 ADD MSTORE PUSH0 DUP2 DUP2 PUSH2 0x2D3 ADD MSTORE DUP2 DUP2 PUSH2 0x12DE ADD MSTORE DUP2 DUP2 PUSH2 0x2D65 ADD MSTORE DUP2 DUP2 PUSH2 0x2E07 ADD MSTORE PUSH2 0x2FDE ADD MSTORE PUSH2 0x4FC8 PUSH0 RETURN INVALID PUSH1 0x80 PUSH1 0x40 MSTORE PUSH1 0x4 CALLDATASIZE LT PUSH2 0x2CC JUMPI PUSH0 CALLDATALOAD PUSH1 0xE0 SHR DUP1 PUSH4 0x7146BD08 GT PUSH2 0x174 JUMPI DUP1 PUSH4 0xA9059CBB GT PUSH2 0xDB JUMPI DUP1 PUSH4 0xD547741F GT PUSH2 0x94 JUMPI DUP1 PUSH4 0xE4849B32 GT PUSH2 0x6E JUMPI DUP1 PUSH4 0xE4849B32 EQ PUSH2 0xB77 JUMPI DUP1 PUSH4 0xEAC697C9 EQ PUSH2 0xB9F JUMPI DUP1 PUSH4 0xF3F43703 EQ PUSH2 0xBC9 JUMPI DUP1 PUSH4 0xF5B541A6 EQ PUSH2 0xC05 JUMPI PUSH2 0x361 JUMP JUMPDEST DUP1 PUSH4 0xD547741F EQ PUSH2 0xAFD JUMPI DUP1 PUSH4 0xDB2E21BC EQ PUSH2 0xB25 JUMPI DUP1 PUSH4 0xDD62ED3E EQ PUSH2 0xB3B JUMPI PUSH2 0x361 JUMP JUMPDEST DUP1 PUSH4 0xA9059CBB EQ PUSH2 0x9F1 JUMPI DUP1 PUSH4 0xB6628A4D EQ PUSH2 0xA2D JUMPI DUP1 PUSH4 0xBE32B3F8 EQ PUSH2 0xA57 JUMPI DUP1 PUSH4 0xC2D0C2FF EQ PUSH2 0xA7F JUMPI DUP1 PUSH4 0xC816841B EQ PUSH2 0xAA9 JUMPI DUP1 PUSH4 0xD439390C EQ PUSH2 0xAD3 JUMPI PUSH2 0x361 JUMP JUMPDEST DUP1 PUSH4 0x902D55A5 GT PUSH2 0x12D JUMPI DUP1 PUSH4 0x902D55A5 EQ PUSH2 0x903 JUMPI DUP1 PUSH4 0x91D14854 EQ PUSH2 0x92D JUMPI DUP1 PUSH4 0x95D89B41 EQ PUSH2 0x969 JUMPI DUP1 PUSH4 0xA217FDDF EQ PUSH2 0x993 JUMPI DUP1 PUSH4 0xA6F2AE3A EQ PUSH2 0x9BD JUMPI DUP1 PUSH4 0xA82B4D43 EQ PUSH2 0x9C7 JUMPI PUSH2 0x361 JUMP JUMPDEST DUP1 PUSH4 0x7146BD08 EQ PUSH2 0x809 JUMPI DUP1 PUSH4 0x735DE9F7 EQ PUSH2 0x833 JUMPI DUP1 PUSH4 0x75B238FC EQ PUSH2 0x85D JUMPI DUP1 PUSH4 0x7850D118 EQ PUSH2 0x887 JUMPI DUP1 PUSH4 0x8BDB2AFA EQ PUSH2 0x89D JUMPI DUP1 PUSH4 0x8E81C731 EQ PUSH2 0x8C7 JUMPI PUSH2 0x361 JUMP JUMPDEST DUP1 PUSH4 0x2F2FF15D GT PUSH2 0x233 JUMPI DUP1 PUSH4 0x52B86D2B GT PUSH2 0x1EC JUMPI DUP1 PUSH4 0x5D279F70 GT PUSH2 0x1C6 JUMPI DUP1 PUSH4 0x5D279F70 EQ PUSH2 0x72B JUMPI DUP1 PUSH4 0x69FCD4AC EQ PUSH2 0x767 JUMPI DUP1 PUSH4 0x70A08231 EQ PUSH2 0x7A3 JUMPI DUP1 PUSH4 0x70DB45D7 EQ PUSH2 0x7DF JUMPI PUSH2 0x361 JUMP JUMPDEST DUP1 PUSH4 0x52B86D2B EQ PUSH2 0x6AD JUMPI DUP1 PUSH4 0x5C975ABB EQ PUSH2 0x6D7 JUMPI DUP1 PUSH4 0x5D202249 EQ PUSH2 0x701 JUMPI PUSH2 0x361 JUMP JUMPDEST DUP1 PUSH4 0x2F2FF15D EQ PUSH2 0x5B7 JUMPI DUP1 PUSH4 0x313CE567 EQ PUSH2 0x5DF JUMPI DUP1 PUSH4 0x322D2100 EQ PUSH2 0x609 JUMPI DUP1 PUSH4 0x343EE3B7 EQ PUSH2 0x645 JUMPI DUP1 PUSH4 0x36568ABE EQ PUSH2 0x66F JUMPI DUP1 PUSH4 0x476343EE EQ PUSH2 0x697 JUMPI PUSH2 0x361 JUMP JUMPDEST DUP1 PUSH4 0x18160DDD GT PUSH2 0x285 JUMPI DUP1 PUSH4 0x18160DDD EQ PUSH2 0x485 JUMPI DUP1 PUSH4 0x200E0AC8 EQ PUSH2 0x4AF JUMPI DUP1 PUSH4 0x23B872DD EQ PUSH2 0x4D9 JUMPI DUP1 PUSH4 0x248A9CA3 EQ PUSH2 0x515 JUMPI DUP1 PUSH4 0x27F0BFD6 EQ PUSH2 0x551 JUMPI DUP1 PUSH4 0x2C678C64 EQ PUSH2 0x58D JUMPI PUSH2 0x361 JUMP JUMPDEST DUP1 PUSH4 0x1FFC9A7 EQ PUSH2 0x365 JUMPI DUP1 PUSH4 0x27FB5B1 EQ PUSH2 0x3A1 JUMPI DUP1 PUSH4 0x6FDDE03 EQ PUSH2 0x3CB JUMPI DUP1 PUSH4 0x905F560 EQ PUSH2 0x3F5 JUMPI DUP1 PUSH4 0x95EA7B3 EQ PUSH2 0x41F JUMPI DUP1 PUSH4 0x150EE883 EQ PUSH2 0x45B JUMPI PUSH2 0x361 JUMP JUMPDEST CALLDATASIZE PUSH2 0x361 JUMPI PUSH32 0x0 PUSH20 0xFFFFFFFFFFFFFFFFFFFFFFFFFFFFFFFFFFFFFFFF AND CALLER PUSH20 0xFFFFFFFFFFFFFFFFFFFFFFFFFFFFFFFFFFFFFFFF AND SUB PUSH2 0x35F JUMPI PUSH1 0x40 MLOAD PUSH32 0x8C379A000000000000000000000000000000000000000000000000000000000 DUP2 MSTORE PUSH1 0x4 ADD PUSH2 0x356 SWAP1 PUSH2 0x38BC JUMP JUMPDEST PUSH1 0x40 MLOAD DUP1 SWAP2 SUB SWAP1 REVERT JUMPDEST STOP JUMPDEST PUSH0 DUP1 REVERT JUMPDEST CALLVALUE DUP1 ISZERO PUSH2 0x370 JUMPI PUSH0 DUP1 REVERT JUMPDEST POP PUSH2 0x38B PUSH1 0x4 DUP1 CALLDATASIZE SUB DUP2 ADD SWAP1 PUSH2 0x386 SWAP2 SWAP1 PUSH2 0x3933 JUMP JUMPDEST PUSH2 0xC2F JUMP JUMPDEST PUSH1 0x40 MLOAD PUSH2 0x398 SWAP2 SWAP1 PUSH2 0x3978 JUMP JUMPDEST PUSH1 0x40 MLOAD DUP1 SWAP2 SUB SWAP1 RETURN JUMPDEST CALLVALUE DUP1 ISZERO PUSH2 0x3AC JUMPI PUSH0 DUP1 REVERT JUMPDEST POP PUSH2 0x3B5 PUSH2 0xCA8 JUMP JUMPDEST PUSH1 0x40 MLOAD PUSH2 0x3C2 SWAP2 SWAP1 PUSH2 0x39A9 JUMP JUMPDEST PUSH1 0x40 MLOAD DUP1 SWAP2 SUB SWAP1 RETURN JUMPDEST CALLVALUE DUP1 ISZERO PUSH2 0x3D6 JUMPI PUSH0 DUP1 REVERT JUMPDEST POP PUSH2 0x3DF PUSH2 0xCB4 JUMP JUMPDEST PUSH1 0x40 MLOAD PUSH2 0x3EC SWAP2 SWAP1 PUSH2 0x3A22 JUMP JUMPDEST PUSH1 0x40 MLOAD DUP1 SWAP2 SUB SWAP1 RETURN JUMPDEST CALLVALUE DUP1 ISZERO PUSH2 0x400 JUMPI PUSH0 DUP1 REVERT JUMPDEST POP PUSH2 0x409 PUSH2 0xD44 JUMP JUMPDEST PUSH1 0x40 MLOAD PUSH2 0x416 SWAP2 SWAP1 PUSH2 0x3978 JUMP JUMPDEST PUSH1 0x40 MLOAD DUP1 SWAP2 SUB SWAP1 RETURN JUMPDEST CALLVALUE DUP1 ISZERO PUSH2 0x42A JUMPI PUSH0 DUP1 REVERT JUMPDEST POP PUSH2 0x445 PUSH1 0x4 DUP1 CALLDATASIZE SUB DUP2 ADD SWAP1 PUSH2 0x440 SWAP2 SWAP1 PUSH2 0x3AC6 JUMP JUMPDEST PUSH2 0xD57 JUMP JUMPDEST PUSH1 0x40 MLOAD PUSH2 0x452 SWAP2 SWAP1 PUSH2 0x3978 JUMP JUMPDEST PUSH1 0x40 MLOAD DUP1 SWAP2 SUB SWAP1 RETURN JUMPDEST CALLVALUE DUP1 ISZERO PUSH2 0x466 JUMPI PUSH0 DUP1 REVERT JUMPDEST POP PUSH2 0x46F PUSH2 0xD79 JUMP JUMPDEST PUSH1 0x40 MLOAD PUSH2 0x47C SWAP2 SWAP1 PUSH2 0x39A9 JUMP JUMPDEST PUSH1 0x40 MLOAD DUP1 SWAP2 SUB SWAP1 RETURN JUMPDEST CALLVALUE DUP1 ISZERO PUSH2 0x490 JUMPI PUSH0 DUP1 REVERT JUMPDEST POP PUSH2 0x499 PUSH2 0xD89 JUMP JUMPDEST PUSH1 0x40 MLOAD PUSH2 0x4A6 SWAP2 SWAP1 PUSH2 0x39A9 JUMP JUMPDEST PUSH1 0x40 MLOAD DUP1 SWAP2 SUB SWAP1 RETURN JUMPDEST CALLVALUE DUP1 ISZERO PUSH2 0x4BA JUMPI PUSH0 DUP1 REVERT JUMPDEST POP PUSH2 0x4C3 PUSH2 0xD92 JUMP JUMPDEST PUSH1 0x40 MLOAD PUSH2 0x4D0 SWAP2 SWAP1 PUSH2 0x39A9 JUMP JUMPDEST PUSH1 0x40 MLOAD DUP1 SWAP2 SUB SWAP1 RETURN JUMPDEST CALLVALUE DUP1 ISZERO PUSH2 0x4E4 JUMPI PUSH0 DUP1 REVERT JUMPDEST POP PUSH2 0x4FF PUSH1 0x4 DUP1 CALLDATASIZE SUB DUP2 ADD SWAP1 PUSH2 0x4FA SWAP2 SWAP1 PUSH2 0x3B04 JUMP JUMPDEST PUSH2 0xD97 JUMP JUMPDEST PUSH1 0x40 MLOAD PUSH2 0x50C SWAP2 SWAP1 PUSH2 0x3978 JUMP JUMPDEST PUSH1 0x40 MLOAD DUP1 SWAP2 SUB SWAP1 RETURN JUMPDEST CALLVALUE DUP1 ISZERO PUSH2 0x520 JUMPI PUSH0 DUP1 REVERT JUMPDEST POP PUSH2 0x53B PUSH1 0x4 DUP1 CALLDATASIZE SUB DUP2 ADD SWAP1 PUSH2 0x536 SWAP2 SWAP1 PUSH2 0x3B87 JUMP JUMPDEST PUSH2 0xDC5 JUMP JUMPDEST PUSH1 0x40 MLOAD PUSH2 0x548 SWAP2 SWAP1 PUSH2 0x3BC1 JUMP JUMPDEST PUSH1 0x40 MLOAD DUP1 SWAP2 SUB SWAP1 RETURN JUMPDEST CALLVALUE DUP1 ISZERO PUSH2 0x55C JUMPI PUSH0 DUP1 REVERT JUMPDEST POP PUSH2 0x577 PUSH1 0x4 DUP1 CALLDATASIZE SUB DUP2 ADD SWAP1 PUSH2 0x572 SWAP2 SWAP1 PUSH2 0x3BDA JUMP JUMPDEST PUSH2 0xDE2 JUMP JUMPDEST PUSH1 0x40 MLOAD PUSH2 0x584 SWAP2 SWAP1 PUSH2 0x39A9 JUMP JUMPDEST PUSH1 0x40 MLOAD DUP1 SWAP2 SUB SWAP1 RETURN JUMPDEST CALLVALUE DUP1 ISZERO PUSH2 0x598 JUMPI PUSH0 DUP1 REVERT JUMPDEST POP PUSH2 0x5A1 PUSH2 0xDF7 JUMP JUMPDEST PUSH1 0x40 MLOAD PUSH2 0x5AE SWAP2 SWAP1 PUSH2 0x3978 JUMP JUMPDEST PUSH1 0x40 MLOAD DUP1 SWAP2 SUB SWAP1 RETURN JUMPDEST CALLVALUE DUP1 ISZERO PUSH2 0x5C2 JUMPI PUSH0 DUP1 REVERT JUMPDEST POP PUSH2 0x5DD PUSH1 0x4 DUP1 CALLDATASIZE SUB DUP2 ADD SWAP1 PUSH2 0x5D8 SWAP2 SWAP1 PUSH2 0x3C05 JUMP JUMPDEST PUSH2 0xE09 JUMP JUMPDEST STOP JUMPDEST CALLVALUE DUP1 ISZERO PUSH2 0x5EA JUMPI PUSH0 DUP1 REVERT JUMPDEST POP PUSH2 0x5F3 PUSH2 0xE2B JUMP JUMPDEST PUSH1 0x40 MLOAD PUSH2 0x600 SWAP2 SWAP1 PUSH2 0x3C5E JUMP JUMPDEST PUSH1 0x40 MLOAD DUP1 SWAP2 SUB SWAP1 RETURN JUMPDEST CALLVALUE DUP1 ISZERO PUSH2 0x614 JUMPI PUSH0 DUP1 REVERT JUMPDEST POP PUSH2 0x62F PUSH1 0x4 DUP1 CALLDATASIZE SUB DUP2 ADD SWAP1 PUSH2 0x62A SWAP2 SWAP1 PUSH2 0x3C77 JUMP JUMPDEST PUSH2 0xE33 JUMP JUMPDEST PUSH1 0x40 MLOAD PUSH2 0x63C SWAP2 SWAP1 PUSH2 0x39A9 JUMP JUMPDEST PUSH1 0x40 MLOAD DUP1 SWAP2 SUB SWAP1 RETURN JUMPDEST CALLVALUE DUP1 ISZERO PUSH2 0x650 JUMPI PUSH0 DUP1 REVERT JUMPDEST POP PUSH2 0x659 PUSH2 0xFA8 JUMP JUMPDEST PUSH1 0x40 MLOAD PUSH2 0x666 SWAP2 SWAP1 PUSH2 0x39A9 JUMP JUMPDEST PUSH1 0x40 MLOAD DUP1 SWAP2 SUB SWAP1 RETURN JUMPDEST CALLVALUE DUP1 ISZERO PUSH2 0x67A JUMPI PUSH0 DUP1 REVERT JUMPDEST POP PUSH2 0x695 PUSH1 0x4 DUP1 CALLDATASIZE SUB DUP2 ADD SWAP1 PUSH2 0x690 SWAP2 SWAP1 PUSH2 0x3C05 JUMP JUMPDEST PUSH2 0xFAE JUMP JUMPDEST STOP JUMPDEST CALLVALUE DUP1 ISZERO PUSH2 0x6A2 JUMPI PUSH0 DUP1 REVERT JUMPDEST POP PUSH2 0x6AB PUSH2 0x1029 JUMP JUMPDEST STOP JUMPDEST CALLVALUE DUP1 ISZERO PUSH2 0x6B8 JUMPI PUSH0 DUP1 REVERT JUMPDEST POP PUSH2 0x6C1 PUSH2 0x11B0 JUMP JUMPDEST PUSH1 0x40 MLOAD PUSH2 0x6CE SWAP2 SWAP1 PUSH2 0x39A9 JUMP JUMPDEST PUSH1 0x40 MLOAD DUP1 SWAP2 SUB SWAP1 RETURN JUMPDEST CALLVALUE DUP1 ISZERO PUSH2 0x6E2 JUMPI PUSH0 DUP1 REVERT JUMPDEST POP PUSH2 0x6EB PUSH2 0x11B6 JUMP JUMPDEST PUSH1 0x40 MLOAD PUSH2 0x6F8 SWAP2 SWAP1 PUSH2 0x3978 JUMP JUMPDEST PUSH1 0x40 MLOAD DUP1 SWAP2 SUB SWAP1 RETURN JUMPDEST CALLVALUE DUP1 ISZERO PUSH2 0x70C JUMPI PUSH0 DUP1 REVERT JUMPDEST POP PUSH2 0x715 PUSH2 0x11CB JUMP JUMPDEST PUSH1 0x40 MLOAD PUSH2 0x722 SWAP2 SWAP1 PUSH2 0x39A9 JUMP JUMPDEST PUSH1 0x40 MLOAD DUP1 SWAP2 SUB SWAP1 RETURN JUMPDEST CALLVALUE DUP1 ISZERO PUSH2 0x736 JUMPI PUSH0 DUP1 REVERT JUMPDEST POP PUSH2 0x751 PUSH1 0x4 DUP1 CALLDATASIZE SUB DUP2 ADD SWAP1 PUSH2 0x74C SWAP2 SWAP1 PUSH2 0x3BDA JUMP JUMPDEST PUSH2 0x11D1 JUMP JUMPDEST PUSH1 0x40 MLOAD PUSH2 0x75E SWAP2 SWAP1 PUSH2 0x39A9 JUMP JUMPDEST PUSH1 0x40 MLOAD DUP1 SWAP2 SUB SWAP1 RETURN JUMPDEST CALLVALUE DUP1 ISZERO PUSH2 0x772 JUMPI PUSH0 DUP1 REVERT JUMPDEST POP PUSH2 0x78D PUSH1 0x4 DUP1 CALLDATASIZE SUB DUP2 ADD SWAP1 PUSH2 0x788 SWAP2 SWAP1 PUSH2 0x3C77 JUMP JUMPDEST PUSH2 0x11E6 JUMP JUMPDEST PUSH1 0x40 MLOAD PUSH2 0x79A SWAP2 SWAP1 PUSH2 0x39A9 JUMP JUMPDEST PUSH1 0x40 MLOAD DUP1 SWAP2 SUB SWAP1 RETURN JUMPDEST CALLVALUE DUP1 ISZERO PUSH2 0x7AE JUMPI PUSH0 DUP1 REVERT JUMPDEST POP PUSH2 0x7C9 PUSH1 0x4 DUP1 CALLDATASIZE SUB DUP2 ADD SWAP1 PUSH2 0x7C4 SWAP2 SWAP1 PUSH2 0x3BDA JUMP JUMPDEST PUSH2 0x1285 JUMP JUMPDEST PUSH1 0x40 MLOAD PUSH2 0x7D6 SWAP2 SWAP1 PUSH2 0x39A9 JUMP JUMPDEST PUSH1 0x40 MLOAD DUP1 SWAP2 SUB SWAP1 RETURN JUMPDEST CALLVALUE DUP1 ISZERO PUSH2 0x7EA JUMPI PUSH0 DUP1 REVERT JUMPDEST POP PUSH2 0x7F3 PUSH2 0x12CA JUMP JUMPDEST PUSH1 0x40 MLOAD PUSH2 0x800 SWAP2 SWAP1 PUSH2 0x39A9 JUMP JUMPDEST PUSH1 0x40 MLOAD DUP1 SWAP2 SUB SWAP1 RETURN JUMPDEST CALLVALUE DUP1 ISZERO PUSH2 0x814 JUMPI PUSH0 DUP1 REVERT JUMPDEST POP PUSH2 0x81D PUSH2 0x12CF JUMP JUMPDEST PUSH1 0x40 MLOAD PUSH2 0x82A SWAP2 SWAP1 PUSH2 0x39A9 JUMP JUMPDEST PUSH1 0x40 MLOAD DUP1 SWAP2 SUB SWAP1 RETURN JUMPDEST CALLVALUE DUP1 ISZERO PUSH2 0x83E JUMPI PUSH0 DUP1 REVERT JUMPDEST POP PUSH2 0x847 PUSH2 0x12DC JUMP JUMPDEST PUSH1 0x40 MLOAD PUSH2 0x854 SWAP2 SWAP1 PUSH2 0x3CFD JUMP JUMPDEST PUSH1 0x40 MLOAD DUP1 SWAP2 SUB SWAP1 RETURN JUMPDEST CALLVALUE DUP1 ISZERO PUSH2 0x868 JUMPI PUSH0 DUP1 REVERT JUMPDEST POP PUSH2 0x871 PUSH2 0x1300 JUMP JUMPDEST PUSH1 0x40 MLOAD PUSH2 0x87E SWAP2 SWAP1 PUSH2 0x3BC1 JUMP JUMPDEST PUSH1 0x40 MLOAD DUP1 SWAP2 SUB SWAP1 RETURN JUMPDEST CALLVALUE DUP1 ISZERO PUSH2 0x892 JUMPI PUSH0 DUP1 REVERT JUMPDEST POP PUSH2 0x89B PUSH2 0x1324 JUMP JUMPDEST STOP JUMPDEST CALLVALUE DUP1 ISZERO PUSH2 0x8A8 JUMPI PUSH0 DUP1 REVERT JUMPDEST POP PUSH2 0x8B1 PUSH2 0x152E JUMP JUMPDEST PUSH1 0x40 MLOAD PUSH2 0x8BE SWAP2 SWAP1 PUSH2 0x3D36 JUMP JUMPDEST PUSH1 0x40 MLOAD DUP1 SWAP2 SUB SWAP1 RETURN JUMPDEST CALLVALUE DUP1 ISZERO PUSH2 0x8D2 JUMPI PUSH0 DUP1 REVERT JUMPDEST POP PUSH2 0x8ED PUSH1 0x4 DUP1 CALLDATASIZE SUB DUP2 ADD SWAP1 PUSH2 0x8E8 SWAP2 SWAP1 PUSH2 0x3D4F JUMP JUMPDEST PUSH2 0x1552 JUMP JUMPDEST PUSH1 0x40 MLOAD PUSH2 0x8FA SWAP2 SWAP1 PUSH2 0x39A9 JUMP JUMPDEST PUSH1 0x40 MLOAD DUP1 SWAP2 SUB SWAP1 RETURN JUMPDEST CALLVALUE DUP1 ISZERO PUSH2 0x90E JUMPI PUSH0 DUP1 REVERT JUMPDEST POP PUSH2 0x917 PUSH2 0x1573 JUMP JUMPDEST PUSH1 0x40 MLOAD PUSH2 0x924 SWAP2 SWAP1 PUSH2 0x39A9 JUMP JUMPDEST PUSH1 0x40 MLOAD DUP1 SWAP2 SUB SWAP1 RETURN JUMPDEST CALLVALUE DUP1 ISZERO PUSH2 0x938 JUMPI PUSH0 DUP1 REVERT JUMPDEST POP PUSH2 0x953 PUSH1 0x4 DUP1 CALLDATASIZE SUB DUP2 ADD SWAP1 PUSH2 0x94E SWAP2 SWAP1 PUSH2 0x3C05 JUMP JUMPDEST PUSH2 0x1583 JUMP JUMPDEST PUSH1 0x40 MLOAD PUSH2 0x960 SWAP2 SWAP1 PUSH2 0x3978 JUMP JUMPDEST PUSH1 0x40 MLOAD DUP1 SWAP2 SUB SWAP1 RETURN JUMPDEST CALLVALUE DUP1 ISZERO PUSH2 0x974 JUMPI PUSH0 DUP1 REVERT JUMPDEST POP PUSH2 0x97D PUSH2 0x15E7 JUMP JUMPDEST PUSH1 0x40 MLOAD PUSH2 0x98A SWAP2 SWAP1 PUSH2 0x3A22 JUMP JUMPDEST PUSH1 0x40 MLOAD DUP1 SWAP2 SUB SWAP1 RETURN JUMPDEST CALLVALUE DUP1 ISZERO PUSH2 0x99E JUMPI PUSH0 DUP1 REVERT JUMPDEST POP PUSH2 0x9A7 PUSH2 0x1677 JUMP JUMPDEST PUSH1 0x40 MLOAD PUSH2 0x9B4 SWAP2 SWAP1 PUSH2 0x3BC1 JUMP JUMPDEST PUSH1 0x40 MLOAD DUP1 SWAP2 SUB SWAP1 RETURN JUMPDEST PUSH2 0x9C5 PUSH2 0x167D JUMP JUMPDEST STOP JUMPDEST CALLVALUE DUP1 ISZERO PUSH2 0x9D2 JUMPI PUSH0 DUP1 REVERT JUMPDEST POP PUSH2 0x9DB PUSH2 0x1C78 JUMP JUMPDEST PUSH1 0x40 MLOAD PUSH2 0x9E8 SWAP2 SWAP1 PUSH2 0x39A9 JUMP JUMPDEST PUSH1 0x40 MLOAD DUP1 SWAP2 SUB SWAP1 RETURN JUMPDEST CALLVALUE DUP1 ISZERO PUSH2 0x9FC JUMPI PUSH0 DUP1 REVERT JUMPDEST POP PUSH2 0xA17 PUSH1 0x4 DUP1 CALLDATASIZE SUB DUP2 ADD SWAP1 PUSH2 0xA12 SWAP2 SWAP1 PUSH2 0x3AC6 JUMP JUMPDEST PUSH2 0x1C84 JUMP JUMPDEST PUSH1 0x40 MLOAD PUSH2 0xA24 SWAP2 SWAP1 PUSH2 0x3978 JUMP JUMPDEST PUSH1 0x40 MLOAD DUP1 SWAP2 SUB SWAP1 RETURN JUMPDEST CALLVALUE DUP1 ISZERO PUSH2 0xA38 JUMPI PUSH0 DUP1 REVERT JUMPDEST POP PUSH2 0xA41 PUSH2 0x1CA6 JUMP JUMPDEST PUSH1 0x40 MLOAD PUSH2 0xA4E SWAP2 SWAP1 PUSH2 0x39A9 JUMP JUMPDEST PUSH1 0x40 MLOAD DUP1 SWAP2 SUB SWAP1 RETURN JUMPDEST CALLVALUE DUP1 ISZERO PUSH2 0xA62 JUMPI PUSH0 DUP1 REVERT JUMPDEST POP PUSH2 0xA7D PUSH1 0x4 DUP1 CALLDATASIZE SUB DUP2 ADD SWAP1 PUSH2 0xA78 SWAP2 SWAP1 PUSH2 0x3DB7 JUMP JUMPDEST PUSH2 0x1CB6 JUMP JUMPDEST STOP JUMPDEST CALLVALUE DUP1 ISZERO PUSH2 0xA8A JUMPI PUSH0 DUP1 REVERT JUMPDEST POP PUSH2 0xA93 PUSH2 0x1D1A JUMP JUMPDEST PUSH1 0x40 MLOAD PUSH2 0xAA0 SWAP2 SWAP1 PUSH2 0x39A9 JUMP JUMPDEST PUSH1 0x40 MLOAD DUP1 SWAP2 SUB SWAP1 RETURN JUMPDEST CALLVALUE DUP1 ISZERO PUSH2 0xAB4 JUMPI PUSH0 DUP1 REVERT JUMPDEST POP PUSH2 0xABD PUSH2 0x1D1F JUMP JUMPDEST PUSH1 0x40 MLOAD PUSH2 0xACA SWAP2 SWAP1 PUSH2 0x3DF1 JUMP JUMPDEST PUSH1 0x40 MLOAD DUP1 SWAP2 SUB SWAP1 RETURN JUMPDEST CALLVALUE DUP1 ISZERO PUSH2 0xADE JUMPI PUSH0 DUP1 REVERT JUMPDEST POP PUSH2 0xAE7 PUSH2 0x1D44 JUMP JUMPDEST PUSH1 0x40 MLOAD PUSH2 0xAF4 SWAP2 SWAP1 PUSH2 0x39A9 JUMP JUMPDEST PUSH1 0x40 MLOAD DUP1 SWAP2 SUB SWAP1 RETURN JUMPDEST CALLVALUE DUP1 ISZERO PUSH2 0xB08 JUMPI PUSH0 DUP1 REVERT JUMPDEST POP PUSH2 0xB23 PUSH1 0x4 DUP1 CALLDATASIZE SUB DUP2 ADD SWAP1 PUSH2 0xB1E SWAP2 SWAP1 PUSH2 0x3C05 JUMP JUMPDEST PUSH2 0x1D4F JUMP JUMPDEST STOP JUMPDEST CALLVALUE DUP1 ISZERO PUSH2 0xB30 JUMPI PUSH0 DUP1 REVERT JUMPDEST POP PUSH2 0xB39 PUSH2 0x1D71 JUMP JUMPDEST STOP JUMPDEST CALLVALUE DUP1 ISZERO PUSH2 0xB46 JUMPI PUSH0 DUP1 REVERT JUMPDEST POP PUSH2 0xB61 PUSH1 0x4 DUP1 CALLDATASIZE SUB DUP2 ADD SWAP1 PUSH2 0xB5C SWAP2 SWAP1 PUSH2 0x3E0A JUMP JUMPDEST PUSH2 0x1F54 JUMP JUMPDEST PUSH1 0x40 MLOAD PUSH2 0xB6E SWAP2 SWAP1 PUSH2 0x39A9 JUMP JUMPDEST PUSH1 0x40 MLOAD DUP1 SWAP2 SUB SWAP1 RETURN JUMPDEST CALLVALUE DUP1 ISZERO PUSH2 0xB82 JUMPI PUSH0 DUP1 REVERT JUMPDEST POP PUSH2 0xB9D PUSH1 0x4 DUP1 CALLDATASIZE SUB DUP2 ADD SWAP1 PUSH2 0xB98 SWAP2 SWAP1 PUSH2 0x3C77 JUMP JUMPDEST PUSH2 0x1FD6 JUMP JUMPDEST STOP JUMPDEST CALLVALUE DUP1 ISZERO PUSH2 0xBAA JUMPI PUSH0 DUP1 REVERT JUMPDEST POP PUSH2 0xBB3 PUSH2 0x249E JUMP JUMPDEST PUSH1 0x40 MLOAD PUSH2 0xBC0 SWAP2 SWAP1 PUSH2 0x39A9 JUMP JUMPDEST PUSH1 0x40 MLOAD DUP1 SWAP2 SUB SWAP1 RETURN JUMPDEST CALLVALUE DUP1 ISZERO PUSH2 0xBD4 JUMPI PUSH0 DUP1 REVERT JUMPDEST POP PUSH2 0xBEF PUSH1 0x4 DUP1 CALLDATASIZE SUB DUP2 ADD SWAP1 PUSH2 0xBEA SWAP2 SWAP1 PUSH2 0x3BDA JUMP JUMPDEST PUSH2 0x24A4 JUMP JUMPDEST PUSH1 0x40 MLOAD PUSH2 0xBFC SWAP2 SWAP1 PUSH2 0x39A9 JUMP JUMPDEST PUSH1 0x40 MLOAD DUP1 SWAP2 SUB SWAP1 RETURN JUMPDEST CALLVALUE DUP1 ISZERO PUSH2 0xC10 JUMPI PUSH0 DUP1 REVERT JUMPDEST POP PUSH2 0xC19 PUSH2 0x24EA JUMP JUMPDEST PUSH1 0x40 MLOAD PUSH2 0xC26 SWAP2 SWAP1 PUSH2 0x3BC1 JUMP JUMPDEST PUSH1 0x40 MLOAD DUP1 SWAP2 SUB SWAP1 RETURN JUMPDEST PUSH0 PUSH32 0x7965DB0B00000000000000000000000000000000000000000000000000000000 PUSH28 0xFFFFFFFFFFFFFFFFFFFFFFFFFFFFFFFFFFFFFFFFFFFFFFFFFFFFFFFF NOT AND DUP3 PUSH28 0xFFFFFFFFFFFFFFFFFFFFFFFFFFFFFFFFFFFFFFFFFFFFFFFFFFFFFFFF NOT AND EQ DUP1 PUSH2 0xCA1 JUMPI POP PUSH2 0xCA0 DUP3 PUSH2 0x250E JUMP JUMPDEST JUMPDEST SWAP1 POP SWAP2 SWAP1 POP JUMP JUMPDEST PUSH8 0x16345785D8A00000 DUP2 JUMP JUMPDEST PUSH1 0x60 PUSH1 0x3 DUP1 SLOAD PUSH2 0xCC3 SWAP1 PUSH2 0x3E75 JUMP JUMPDEST DUP1 PUSH1 0x1F ADD PUSH1 0x20 DUP1 SWAP2 DIV MUL PUSH1 0x20 ADD PUSH1 0x40 MLOAD SWAP1 DUP2 ADD PUSH1 0x40 MSTORE DUP1 SWAP3 SWAP2 SWAP1 DUP2 DUP2 MSTORE PUSH1 0x20 ADD DUP3 DUP1 SLOAD PUSH2 0xCEF SWAP1 PUSH2 0x3E75 JUMP JUMPDEST DUP1 ISZERO PUSH2 0xD3A JUMPI DUP1 PUSH1 0x1F LT PUSH2 0xD11 JUMPI PUSH2 0x100 DUP1 DUP4 SLOAD DIV MUL DUP4 MSTORE SWAP2 PUSH1 0x20 ADD SWAP2 PUSH2 0xD3A JUMP JUMPDEST DUP3 ADD SWAP2 SWAP1 PUSH0 MSTORE PUSH1 0x20 PUSH0 KECCAK256 SWAP1 JUMPDEST DUP2 SLOAD DUP2 MSTORE SWAP1 PUSH1 0x1 ADD SWAP1 PUSH1 0x20 ADD DUP1 DUP4 GT PUSH2 0xD1D JUMPI DUP3 SWAP1 SUB PUSH1 0x1F AND DUP3 ADD SWAP2 JUMPDEST POP POP POP POP POP SWAP1 POP SWAP1 JUMP JUMPDEST PUSH1 0xC PUSH1 0x1 SWAP1 SLOAD SWAP1 PUSH2 0x100 EXP SWAP1 DIV PUSH1 0xFF AND DUP2 JUMP JUMPDEST PUSH0 DUP1 PUSH2 0xD61 PUSH2 0x2577 JUMP JUMPDEST SWAP1 POP PUSH2 0xD6E DUP2 DUP6 DUP6 PUSH2 0x257E JUMP JUMPDEST PUSH1 0x1 SWAP2 POP POP SWAP3 SWAP2 POP POP JUMP JUMPDEST PUSH12 0x2955CF10BD668BDE07C0000 DUP2 JUMP JUMPDEST PUSH0 PUSH1 0x2 SLOAD SWAP1 POP SWAP1 JUMP JUMPDEST PUSH1 0x1E DUP2 JUMP JUMPDEST PUSH0 DUP1 PUSH2 0xDA1 PUSH2 0x2577 JUMP JUMPDEST SWAP1 POP PUSH2 0xDAE DUP6 DUP3 DUP6 PUSH2 0x2590 JUMP JUMPDEST PUSH2 0xDB9 DUP6 DUP6 DUP6 PUSH2 0x2622 JUMP JUMPDEST PUSH1 0x1 SWAP2 POP POP SWAP4 SWAP3 POP POP POP JUMP JUMPDEST PUSH0 PUSH1 0x7 PUSH0 DUP4 DUP2 MSTORE PUSH1 0x20 ADD SWAP1 DUP2 MSTORE PUSH1 0x20 ADD PUSH0 KECCAK256 PUSH1 0x1 ADD SLOAD SWAP1 POP SWAP2 SWAP1 POP JUMP JUMPDEST PUSH1 0xF PUSH1 0x20 MSTORE DUP1 PUSH0 MSTORE PUSH1 0x40 PUSH0 KECCAK256 PUSH0 SWAP2 POP SWAP1 POP SLOAD DUP2 JUMP JUMPDEST PUSH1 0xC PUSH0 SWAP1 SLOAD SWAP1 PUSH2 0x100 EXP SWAP1 DIV PUSH1 0xFF AND DUP2 JUMP JUMPDEST PUSH2 0xE12 DUP3 PUSH2 0xDC5 JUMP JUMPDEST PUSH2 0xE1B DUP2 PUSH2 0x2712 JUMP JUMPDEST PUSH2 0xE25 DUP4 DUP4 PUSH2 0x2726 JUMP JUMPDEST POP POP POP POP JUMP JUMPDEST PUSH0 PUSH1 0x12 SWAP1 POP SWAP1 JUMP JUMPDEST PUSH0 DUP1 DUP3 GT PUSH2 0xE76 JUMPI PUSH1 0x40 MLOAD PUSH32 0x8C379A000000000000000000000000000000000000000000000000000000000 DUP2 MSTORE PUSH1 0x4 ADD PUSH2 0xE6D SWAP1 PUSH2 0x3F15 JUMP JUMPDEST PUSH1 0x40 MLOAD DUP1 SWAP2 SUB SWAP1 REVERT JUMPDEST PUSH0 PUSH1 0x9 SLOAD GT PUSH2 0xEBA JUMPI PUSH1 0x40 MLOAD PUSH32 0x8C379A000000000000000000000000000000000000000000000000000000000 DUP2 MSTORE PUSH1 0x4 ADD PUSH2 0xEB1 SWAP1 PUSH2 0x3F7D JUMP JUMPDEST PUSH1 0x40 MLOAD DUP1 SWAP2 SUB SWAP1 REVERT JUMPDEST PUSH0 DUP3 PUSH1 0xA SLOAD PUSH2 0xEC9 SWAP2 SWAP1 PUSH2 0x3FC8 JUMP JUMPDEST SWAP1 POP PUSH0 PUSH8 0xDE0B6B3A7640000 PUSH1 0x2 PUSH2 0xEE2 PUSH1 0xA SLOAD PUSH2 0x2810 JUMP JUMPDEST PUSH2 0xEEB DUP6 PUSH2 0x2810 JUMP JUMPDEST PUSH2 0xEF5 SWAP2 SWAP1 PUSH2 0x3FFB JUMP JUMPDEST PUSH2 0xEFF SWAP2 SWAP1 PUSH2 0x415D JUMP JUMPDEST PUSH1 0x9 SLOAD PUSH2 0xF0C SWAP2 SWAP1 PUSH2 0x41A7 JUMP JUMPDEST PUSH2 0xF16 SWAP2 SWAP1 PUSH2 0x4215 JUMP JUMPDEST SWAP1 POP PUSH0 DUP2 GT PUSH2 0xF5A JUMPI PUSH1 0x40 MLOAD PUSH32 0x8C379A000000000000000000000000000000000000000000000000000000000 DUP2 MSTORE PUSH1 0x4 ADD PUSH2 0xF51 SWAP1 PUSH2 0x428F JUMP JUMPDEST PUSH1 0x40 MLOAD DUP1 SWAP2 SUB SWAP1 REVERT JUMPDEST PUSH1 0x9 SLOAD DUP2 LT PUSH2 0xF9E JUMPI PUSH1 0x40 MLOAD PUSH32 0x8C379A000000000000000000000000000000000000000000000000000000000 DUP2 MSTORE PUSH1 0x4 ADD PUSH2 0xF95 SWAP1 PUSH2 0x42F7 JUMP JUMPDEST PUSH1 0x40 MLOAD DUP1 SWAP2 SUB SWAP1 REVERT JUMPDEST DUP1 SWAP3 POP POP POP SWAP2 SWAP1 POP JUMP JUMPDEST PUSH1 0x9 SLOAD DUP2 JUMP JUMPDEST PUSH2 0xFB6 PUSH2 0x2577 JUMP JUMPDEST PUSH20 0xFFFFFFFFFFFFFFFFFFFFFFFFFFFFFFFFFFFFFFFF AND DUP2 PUSH20 0xFFFFFFFFFFFFFFFFFFFFFFFFFFFFFFFFFFFFFFFF AND EQ PUSH2 0x101A JUMPI PUSH1 0x40 MLOAD PUSH32 0x6697B23200000000000000000000000000000000000000000000000000000000 DUP2 MSTORE PUSH1 0x4 ADD PUSH1 0x40 MLOAD DUP1 SWAP2 SUB SWAP1 REVERT JUMPDEST PUSH2 0x1024 DUP3 DUP3 PUSH2 0x2942 JUMP JUMPDEST POP POP POP JUMP JUMPDEST PUSH2 0x1031 PUSH2 0x2A2C JUMP JUMPDEST PUSH32 0xA49807205CE4D355092EF5A8A18F56E8913CF4A201FBE287825B095693C21775 PUSH2 0x105B DUP2 PUSH2 0x2712 JUMP JUMPDEST PUSH1 0xC PUSH0 SWAP1 SLOAD SWAP1 PUSH2 0x100 EXP SWAP1 DIV PUSH1 0xFF AND PUSH2 0x10A9 JUMPI PUSH1 0x40 MLOAD PUSH32 0x8C379A000000000000000000000000000000000000000000000000000000000 DUP2 MSTORE PUSH1 0x4 ADD PUSH2 0x10A0 SWAP1 PUSH2 0x435F JUMP JUMPDEST PUSH1 0x40 MLOAD DUP1 SWAP2 SUB SWAP1 REVERT JUMPDEST PUSH8 0x214E8348C4F0000 SELFBALANCE LT ISZERO PUSH2 0x10F4 JUMPI PUSH1 0x40 MLOAD PUSH32 0x8C379A000000000000000000000000000000000000000000000000000000000 DUP2 MSTORE PUSH1 0x4 ADD PUSH2 0x10EB SWAP1 PUSH2 0x43C7 JUMP JUMPDEST PUSH1 0x40 MLOAD DUP1 SWAP2 SUB SWAP1 REVERT JUMPDEST PUSH0 CALLER PUSH20 0xFFFFFFFFFFFFFFFFFFFFFFFFFFFFFFFFFFFFFFFF AND PUSH8 0x214E8348C4F0000 PUSH1 0x40 MLOAD PUSH2 0x1121 SWAP1 PUSH2 0x4412 JUMP JUMPDEST PUSH0 PUSH1 0x40 MLOAD DUP1 DUP4 SUB DUP2 DUP6 DUP8 GAS CALL SWAP3 POP POP POP RETURNDATASIZE DUP1 PUSH0 DUP2 EQ PUSH2 0x115B JUMPI PUSH1 0x40 MLOAD SWAP2 POP PUSH1 0x1F NOT PUSH1 0x3F RETURNDATASIZE ADD AND DUP3 ADD PUSH1 0x40 MSTORE RETURNDATASIZE DUP3 MSTORE RETURNDATASIZE PUSH0 PUSH1 0x20 DUP5 ADD RETURNDATACOPY PUSH2 0x1160 JUMP JUMPDEST PUSH1 0x60 SWAP2 POP JUMPDEST POP POP SWAP1 POP DUP1 PUSH2 0x11A4 JUMPI PUSH1 0x40 MLOAD PUSH32 0x8C379A000000000000000000000000000000000000000000000000000000000 DUP2 MSTORE PUSH1 0x4 ADD PUSH2 0x119B SWAP1 PUSH2 0x4470 JUMP JUMPDEST PUSH1 0x40 MLOAD DUP1 SWAP2 SUB SWAP1 REVERT JUMPDEST POP POP PUSH2 0x11AE PUSH2 0x2A72 JUMP JUMPDEST JUMP JUMPDEST PUSH1 0xA SLOAD DUP2 JUMP JUMPDEST PUSH0 PUSH1 0x6 PUSH0 SWAP1 SLOAD SWAP1 PUSH2 0x100 EXP SWAP1 DIV PUSH1 0xFF AND SWAP1 POP SWAP1 JUMP JUMPDEST PUSH1 0xB SLOAD DUP2 JUMP JUMPDEST PUSH1 0xE PUSH1 0x20 MSTORE DUP1 PUSH0 MSTORE PUSH1 0x40 PUSH0 KECCAK256 PUSH0 SWAP2 POP SWAP1 POP SLOAD DUP2 JUMP JUMPDEST PUSH0 DUP1 DUP3 GT PUSH2 0x1229 JUMPI PUSH1 0x40 MLOAD PUSH32 0x8C379A000000000000000000000000000000000000000000000000000000000 DUP2 MSTORE PUSH1 0x4 ADD PUSH2 0x1220 SWAP1 PUSH2 0x44FE JUMP JUMPDEST PUSH1 0x40 MLOAD DUP1 SWAP2 SUB SWAP1 REVERT JUMPDEST PUSH0 DUP3 PUSH1 0x9 SLOAD PUSH2 0x1238 SWAP2 SWAP1 PUSH2 0x3FC8 JUMP JUMPDEST SWAP1 POP PUSH0 PUSH8 0xDE0B6B3A7640000 PUSH2 0x124F PUSH1 0x9 SLOAD PUSH2 0x2810 JUMP JUMPDEST PUSH2 0x1258 DUP5 PUSH2 0x2810 JUMP JUMPDEST PUSH2 0x1262 SWAP2 SWAP1 PUSH2 0x3FFB JUMP JUMPDEST PUSH1 0xA SLOAD PUSH2 0x126F SWAP2 SWAP1 PUSH2 0x41A7 JUMP JUMPDEST PUSH2 0x1279 SWAP2 SWAP1 PUSH2 0x4215 JUMP JUMPDEST SWAP1 POP DUP1 SWAP3 POP POP POP SWAP2 SWAP1 POP JUMP JUMPDEST PUSH0 DUP1 PUSH0 DUP4 PUSH20 0xFFFFFFFFFFFFFFFFFFFFFFFFFFFFFFFFFFFFFFFF AND PUSH20 0xFFFFFFFFFFFFFFFFFFFFFFFFFFFFFFFFFFFFFFFF AND DUP2 MSTORE PUSH1 0x20 ADD SWAP1 DUP2 MSTORE PUSH1 0x20 ADD PUSH0 KECCAK256 SLOAD SWAP1 POP SWAP2 SWAP1 POP JUMP JUMPDEST PUSH1 0xA DUP2 JUMP JUMPDEST PUSH9 0x2B5E3AF16B1880000 DUP2 JUMP JUMPDEST PUSH32 0x0 DUP2 JUMP JUMPDEST PUSH32 0xA49807205CE4D355092EF5A8A18F56E8913CF4A201FBE287825B095693C21775 DUP2 JUMP JUMPDEST PUSH2 0x132C PUSH2 0x2A2C JUMP JUMPDEST PUSH0 PUSH1 0x8 PUSH0 CALLER PUSH20 0xFFFFFFFFFFFFFFFFFFFFFFFFFFFFFFFFFFFFFFFF AND PUSH20 0xFFFFFFFFFFFFFFFFFFFFFFFFFFFFFFFFFFFFFFFF AND DUP2 MSTORE PUSH1 0x20 ADD SWAP1 DUP2 MSTORE PUSH1 0x20 ADD PUSH0 KECCAK256 SLOAD SWAP1 POP PUSH0 DUP2 SUB PUSH2 0x13A6 JUMPI PUSH1 0x40 MLOAD PUSH32 0x6868774400000000000000000000000000000000000000000000000000000000 DUP2 MSTORE PUSH1 0x4 ADD PUSH1 0x40 MLOAD DUP1 SWAP2 SUB SWAP1 REVERT JUMPDEST DUP1 SELFBALANCE LT ISZERO PUSH2 0x13E9 JUMPI PUSH1 0x40 MLOAD PUSH32 0x8C379A000000000000000000000000000000000000000000000000000000000 DUP2 MSTORE PUSH1 0x4 ADD PUSH2 0x13E0 SWAP1 PUSH2 0x4566 JUMP JUMPDEST PUSH1 0x40 MLOAD DUP1 SWAP2 SUB SWAP1 REVERT JUMPDEST PUSH0 PUSH1 0x8 PUSH0 CALLER PUSH20 0xFFFFFFFFFFFFFFFFFFFFFFFFFFFFFFFFFFFFFFFF AND PUSH20 0xFFFFFFFFFFFFFFFFFFFFFFFFFFFFFFFFFFFFFFFF AND DUP2 MSTORE PUSH1 0x20 ADD SWAP1 DUP2 MSTORE PUSH1 0x20 ADD PUSH0 KECCAK256 DUP2 SWAP1 SSTORE POP PUSH0 CALLER PUSH20 0xFFFFFFFFFFFFFFFFFFFFFFFFFFFFFFFFFFFFFFFF AND DUP3 PUSH1 0x40 MLOAD PUSH2 0x1450 SWAP1 PUSH2 0x4412 JUMP JUMPDEST PUSH0 PUSH1 0x40 MLOAD DUP1 DUP4 SUB DUP2 DUP6 DUP8 GAS CALL SWAP3 POP POP POP RETURNDATASIZE DUP1 PUSH0 DUP2 EQ PUSH2 0x148A JUMPI PUSH1 0x40 MLOAD SWAP2 POP PUSH1 0x1F NOT PUSH1 0x3F RETURNDATASIZE ADD AND DUP3 ADD PUSH1 0x40 MSTORE RETURNDATASIZE DUP3 MSTORE RETURNDATASIZE PUSH0 PUSH1 0x20 DUP5 ADD RETURNDATACOPY PUSH2 0x148F JUMP JUMPDEST PUSH1 0x60 SWAP2 POP JUMPDEST POP POP SWAP1 POP DUP1 ISZERO PUSH2 0x14D4 JUMPI PUSH1 0x40 MLOAD PUSH32 0x8C379A000000000000000000000000000000000000000000000000000000000 DUP2 MSTORE PUSH1 0x4 ADD PUSH2 0x14CB SWAP1 PUSH2 0x45CE JUMP JUMPDEST PUSH1 0x40 MLOAD DUP1 SWAP2 SUB SWAP1 REVERT JUMPDEST CALLER PUSH20 0xFFFFFFFFFFFFFFFFFFFFFFFFFFFFFFFFFFFFFFFF AND PUSH32 0x7084F5476618D8E60B11EF0D7D3F06914655ADB8793E28FF7F018D4C76D505D5 DUP4 PUSH1 0x40 MLOAD PUSH2 0x151A SWAP2 SWAP1 PUSH2 0x39A9 JUMP JUMPDEST PUSH1 0x40 MLOAD DUP1 SWAP2 SUB SWAP1 LOG2 POP POP PUSH2 0x152C PUSH2 0x2A72 JUMP JUMPDEST JUMP JUMPDEST PUSH32 0x0 DUP2 JUMP JUMPDEST PUSH0 DUP2 PUSH1 0x64 PUSH2 0x1560 SWAP2 SWAP1 PUSH2 0x4215 JUMP JUMPDEST DUP4 PUSH2 0x156B SWAP2 SWAP1 PUSH2 0x41A7 JUMP JUMPDEST SWAP1 POP SWAP3 SWAP2 POP POP JUMP JUMPDEST PUSH12 0xA18F07D736B90BE550000000 DUP2 JUMP JUMPDEST PUSH0 PUSH1 0x7 PUSH0 DUP5 DUP2 MSTORE PUSH1 0x20 ADD SWAP1 DUP2 MSTORE PUSH1 0x20 ADD PUSH0 KECCAK256 PUSH0 ADD PUSH0 DUP4 PUSH20 0xFFFFFFFFFFFFFFFFFFFFFFFFFFFFFFFFFFFFFFFF AND PUSH20 0xFFFFFFFFFFFFFFFFFFFFFFFFFFFFFFFFFFFFFFFF AND DUP2 MSTORE PUSH1 0x20 ADD SWAP1 DUP2 MSTORE PUSH1 0x20 ADD PUSH0 KECCAK256 PUSH0 SWAP1 SLOAD SWAP1 PUSH2 0x100 EXP SWAP1 DIV PUSH1 0xFF AND SWAP1 POP SWAP3 SWAP2 POP POP JUMP JUMPDEST PUSH1 0x60 PUSH1 0x4 DUP1 SLOAD PUSH2 0x15F6 SWAP1 PUSH2 0x3E75 JUMP JUMPDEST DUP1 PUSH1 0x1F ADD PUSH1 0x20 DUP1 SWAP2 DIV MUL PUSH1 0x20 ADD PUSH1 0x40 MLOAD SWAP1 DUP2 ADD PUSH1 0x40 MSTORE DUP1 SWAP3 SWAP2 SWAP1 DUP2 DUP2 MSTORE PUSH1 0x20 ADD DUP3 DUP1 SLOAD PUSH2 0x1622 SWAP1 PUSH2 0x3E75 JUMP JUMPDEST DUP1 ISZERO PUSH2 0x166D JUMPI DUP1 PUSH1 0x1F LT PUSH2 0x1644 JUMPI PUSH2 0x100 DUP1 DUP4 SLOAD DIV MUL DUP4 MSTORE SWAP2 PUSH1 0x20 ADD SWAP2 PUSH2 0x166D JUMP JUMPDEST DUP3 ADD SWAP2 SWAP1 PUSH0 MSTORE PUSH1 0x20 PUSH0 KECCAK256 SWAP1 JUMPDEST DUP2 SLOAD DUP2 MSTORE SWAP1 PUSH1 0x1 ADD SWAP1 PUSH1 0x20 ADD DUP1 DUP4 GT PUSH2 0x1650 JUMPI DUP3 SWAP1 SUB PUSH1 0x1F AND DUP3 ADD SWAP2 JUMPDEST POP POP POP POP POP SWAP1 POP SWAP1 JUMP JUMPDEST PUSH0 DUP1 SHL DUP2 JUMP JUMPDEST PUSH2 0x1685 PUSH2 0x2A2C JUMP JUMPDEST PUSH2 0x168D PUSH2 0x2A7C JUMP JUMPDEST PUSH1 0xC PUSH0 SWAP1 SLOAD SWAP1 PUSH2 0x100 EXP SWAP1 DIV PUSH1 0xFF AND ISZERO PUSH2 0x16DC JUMPI PUSH1 0x40 MLOAD PUSH32 0x8C379A000000000000000000000000000000000000000000000000000000000 DUP2 MSTORE PUSH1 0x4 ADD PUSH2 0x16D3 SWAP1 PUSH2 0x4636 JUMP JUMPDEST PUSH1 0x40 MLOAD DUP1 SWAP2 SUB SWAP1 REVERT JUMPDEST CALLER PUSH1 0x1E PUSH1 0xF PUSH0 DUP4 PUSH20 0xFFFFFFFFFFFFFFFFFFFFFFFFFFFFFFFFFFFFFFFF AND PUSH20 0xFFFFFFFFFFFFFFFFFFFFFFFFFFFFFFFFFFFFFFFF AND DUP2 MSTORE PUSH1 0x20 ADD SWAP1 DUP2 MSTORE PUSH1 0x20 ADD PUSH0 KECCAK256 SLOAD TIMESTAMP PUSH2 0x1728 SWAP2 SWAP1 PUSH2 0x3FFB JUMP JUMPDEST LT ISZERO DUP1 PUSH2 0x1772 JUMPI POP PUSH1 0x3 PUSH1 0xE PUSH0 DUP4 PUSH20 0xFFFFFFFFFFFFFFFFFFFFFFFFFFFFFFFFFFFFFFFF AND PUSH20 0xFFFFFFFFFFFFFFFFFFFFFFFFFFFFFFFFFFFFFFFF AND DUP2 MSTORE PUSH1 0x20 ADD SWAP1 DUP2 MSTORE PUSH1 0x20 ADD PUSH0 KECCAK256 SLOAD LT JUMPDEST PUSH2 0x17B1 JUMPI PUSH1 0x40 MLOAD PUSH32 0x8C379A000000000000000000000000000000000000000000000000000000000 DUP2 MSTORE PUSH1 0x4 ADD PUSH2 0x17A8 SWAP1 PUSH2 0x469E JUMP JUMPDEST PUSH1 0x40 MLOAD DUP1 SWAP2 SUB SWAP1 REVERT JUMPDEST PUSH1 0x1E PUSH1 0xF PUSH0 DUP4 PUSH20 0xFFFFFFFFFFFFFFFFFFFFFFFFFFFFFFFFFFFFFFFF AND PUSH20 0xFFFFFFFFFFFFFFFFFFFFFFFFFFFFFFFFFFFFFFFF AND DUP2 MSTORE PUSH1 0x20 ADD SWAP1 DUP2 MSTORE PUSH1 0x20 ADD PUSH0 KECCAK256 SLOAD TIMESTAMP PUSH2 0x17FC SWAP2 SWAP1 PUSH2 0x3FFB JUMP JUMPDEST LT PUSH2 0x1849 JUMPI PUSH1 0x1 PUSH1 0xE PUSH0 DUP4 PUSH20 0xFFFFFFFFFFFFFFFFFFFFFFFFFFFFFFFFFFFFFFFF AND PUSH20 0xFFFFFFFFFFFFFFFFFFFFFFFFFFFFFFFFFFFFFFFF AND DUP2 MSTORE PUSH1 0x20 ADD SWAP1 DUP2 MSTORE PUSH1 0x20 ADD PUSH0 KECCAK256 DUP2 SWAP1 SSTORE POP PUSH2 0x18D5 JUMP JUMPDEST PUSH1 0x1 PUSH1 0xE PUSH0 DUP4 PUSH20 0xFFFFFFFFFFFFFFFFFFFFFFFFFFFFFFFFFFFFFFFF AND PUSH20 0xFFFFFFFFFFFFFFFFFFFFFFFFFFFFFFFFFFFFFFFF AND DUP2 MSTORE PUSH1 0x20 ADD SWAP1 DUP2 MSTORE PUSH1 0x20 ADD PUSH0 KECCAK256 SLOAD PUSH2 0x1893 SWAP2 SWAP1 PUSH2 0x3FC8 JUMP JUMPDEST PUSH1 0xE PUSH0 DUP4 PUSH20 0xFFFFFFFFFFFFFFFFFFFFFFFFFFFFFFFFFFFFFFFF AND PUSH20 0xFFFFFFFFFFFFFFFFFFFFFFFFFFFFFFFFFFFFFFFF AND DUP2 MSTORE PUSH1 0x20 ADD SWAP1 DUP2 MSTORE PUSH1 0x20 ADD PUSH0 KECCAK256 DUP2 SWAP1 SSTORE POP JUMPDEST TIMESTAMP PUSH1 0xF PUSH0 DUP4 PUSH20 0xFFFFFFFFFFFFFFFFFFFFFFFFFFFFFFFFFFFFFFFF AND PUSH20 0xFFFFFFFFFFFFFFFFFFFFFFFFFFFFFFFFFFFFFFFF AND DUP2 MSTORE PUSH1 0x20 ADD SWAP1 DUP2 MSTORE PUSH1 0x20 ADD PUSH0 KECCAK256 DUP2 SWAP1 SSTORE POP PUSH7 0x2386F26FC10000 CALLVALUE LT ISZERO PUSH2 0x1961 JUMPI PUSH1 0x40 MLOAD PUSH32 0x8C379A000000000000000000000000000000000000000000000000000000000 DUP2 MSTORE PUSH1 0x4 ADD PUSH2 0x1958 SWAP1 PUSH2 0x4706 JUMP JUMPDEST PUSH1 0x40 MLOAD DUP1 SWAP2 SUB SWAP1 REVERT JUMPDEST PUSH9 0x2B5E3AF16B1880000 CALLVALUE GT ISZERO PUSH2 0x19AD JUMPI PUSH1 0x40 MLOAD PUSH32 0x8C379A000000000000000000000000000000000000000000000000000000000 DUP2 MSTORE PUSH1 0x4 ADD PUSH2 0x19A4 SWAP1 PUSH2 0x476E JUMP JUMPDEST PUSH1 0x40 MLOAD DUP1 SWAP2 SUB SWAP1 REVERT JUMPDEST PUSH0 PUSH2 0x19B7 CALLVALUE PUSH2 0xE33 JUMP JUMPDEST SWAP1 POP PUSH0 DUP2 GT PUSH2 0x19FB JUMPI PUSH1 0x40 MLOAD PUSH32 0x8C379A000000000000000000000000000000000000000000000000000000000 DUP2 MSTORE PUSH1 0x4 ADD PUSH2 0x19F2 SWAP1 PUSH2 0x47D6 JUMP JUMPDEST PUSH1 0x40 MLOAD DUP1 SWAP2 SUB SWAP1 REVERT JUMPDEST PUSH0 PUSH1 0x3 PUSH1 0x9 SLOAD PUSH2 0x1A0B SWAP2 SWAP1 PUSH2 0x4215 JUMP JUMPDEST SWAP1 POP DUP1 DUP3 GT ISZERO PUSH2 0x1A50 JUMPI PUSH1 0x40 MLOAD PUSH32 0x8C379A000000000000000000000000000000000000000000000000000000000 DUP2 MSTORE PUSH1 0x4 ADD PUSH2 0x1A47 SWAP1 PUSH2 0x483E JUMP JUMPDEST PUSH1 0x40 MLOAD DUP1 SWAP2 SUB SWAP1 REVERT JUMPDEST PUSH1 0xA PUSH1 0x9 SLOAD PUSH2 0x1A5F SWAP2 SWAP1 PUSH2 0x4215 JUMP JUMPDEST DUP3 PUSH2 0x1A6A SWAP2 SWAP1 PUSH2 0x3FC8 JUMP JUMPDEST PUSH1 0x9 SLOAD LT ISZERO PUSH2 0x1AAE JUMPI PUSH1 0x40 MLOAD PUSH32 0x8C379A000000000000000000000000000000000000000000000000000000000 DUP2 MSTORE PUSH1 0x4 ADD PUSH2 0x1AA5 SWAP1 PUSH2 0x42F7 JUMP JUMPDEST PUSH1 0x40 MLOAD DUP1 SWAP2 SUB SWAP1 REVERT JUMPDEST PUSH12 0xA18F07D736B90BE550000000 DUP3 PUSH2 0x1AC4 PUSH2 0xD89 JUMP JUMPDEST PUSH2 0x1ACE SWAP2 SWAP1 PUSH2 0x3FC8 JUMP JUMPDEST GT ISZERO PUSH2 0x1B0F JUMPI PUSH1 0x40 MLOAD PUSH32 0x8C379A000000000000000000000000000000000000000000000000000000000 DUP2 MSTORE PUSH1 0x4 ADD PUSH2 0x1B06 SWAP1 PUSH2 0x48A6 JUMP JUMPDEST PUSH1 0x40 MLOAD DUP1 SWAP2 SUB SWAP1 REVERT JUMPDEST PUSH0 PUSH2 0x1B1C CALLVALUE PUSH1 0xA SLOAD PUSH2 0x1552 JUMP JUMPDEST SWAP1 POP PUSH1 0xA DUP2 GT ISZERO PUSH2 0x1B62 JUMPI PUSH1 0x40 MLOAD PUSH32 0x8C379A000000000000000000000000000000000000000000000000000000000 DUP2 MSTORE PUSH1 0x4 ADD PUSH2 0x1B59 SWAP1 PUSH2 0x490E JUMP JUMPDEST PUSH1 0x40 MLOAD DUP1 SWAP2 SUB SWAP1 REVERT JUMPDEST CALLVALUE PUSH1 0xA SLOAD PUSH2 0x1B70 SWAP2 SWAP1 PUSH2 0x3FC8 JUMP JUMPDEST PUSH1 0xA DUP2 SWAP1 SSTORE POP DUP3 PUSH1 0x9 SLOAD PUSH2 0x1B84 SWAP2 SWAP1 PUSH2 0x3FFB JUMP JUMPDEST PUSH1 0x9 DUP2 SWAP1 SSTORE POP CALLVALUE PUSH1 0xB SLOAD PUSH2 0x1B98 SWAP2 SWAP1 PUSH2 0x3FC8 JUMP JUMPDEST PUSH1 0xB DUP2 SWAP1 SSTORE POP PUSH0 PUSH12 0x2955CF10BD668BDE07C0000 DUP5 PUSH2 0x1BB5 PUSH2 0xD89 JUMP JUMPDEST PUSH2 0x1BBF SWAP2 SWAP1 PUSH2 0x3FC8 JUMP JUMPDEST LT ISZERO SWAP1 POP PUSH2 0x1BCD CALLER DUP6 PUSH2 0x2ABD JUMP JUMPDEST CALLER PUSH20 0xFFFFFFFFFFFFFFFFFFFFFFFFFFFFFFFFFFFFFFFF AND PUSH32 0x8FAFEBCAF9D154343DAD25669BFA277F4FBACD7AC6B0C4FED522580E040A0F33 CALLVALUE DUP7 PUSH1 0x40 MLOAD PUSH2 0x1C15 SWAP3 SWAP2 SWAP1 PUSH2 0x492C JUMP JUMPDEST PUSH1 0x40 MLOAD DUP1 SWAP2 SUB SWAP1 LOG2 PUSH32 0x645AA9C724799DCE7DF512BB35A464FA2F9DBACA82FE22E62B3EEEC7F7142F2F PUSH1 0x9 SLOAD PUSH1 0xA SLOAD PUSH1 0x40 MLOAD PUSH2 0x1C52 SWAP3 SWAP2 SWAP1 PUSH2 0x492C JUMP JUMPDEST PUSH1 0x40 MLOAD DUP1 SWAP2 SUB SWAP1 LOG1 DUP1 ISZERO PUSH2 0x1C69 JUMPI PUSH2 0x1C68 PUSH2 0x2B3C JUMP JUMPDEST JUMPDEST POP POP POP POP POP PUSH2 0x1C76 PUSH2 0x2A72 JUMP JUMPDEST JUMP JUMPDEST PUSH8 0x214E8348C4F0000 DUP2 JUMP JUMPDEST PUSH0 DUP1 PUSH2 0x1C8E PUSH2 0x2577 JUMP JUMPDEST SWAP1 POP PUSH2 0x1C9B DUP2 DUP6 DUP6 PUSH2 0x2622 JUMP JUMPDEST PUSH1 0x1 SWAP2 POP POP SWAP3 SWAP2 POP POP JUMP JUMPDEST PUSH12 0x36CCFBB244887EEA4000000 DUP2 JUMP JUMPDEST PUSH32 0xA49807205CE4D355092EF5A8A18F56E8913CF4A201FBE287825B095693C21775 PUSH2 0x1CE0 DUP2 PUSH2 0x2712 JUMP JUMPDEST DUP2 PUSH1 0xC PUSH1 0x1 PUSH2 0x100 EXP DUP2 SLOAD DUP2 PUSH1 0xFF MUL NOT AND SWAP1 DUP4 ISZERO ISZERO MUL OR SWAP1 SSTORE POP DUP2 ISZERO PUSH2 0x1D0D JUMPI PUSH2 0x1D08 PUSH2 0x314E JUMP JUMPDEST PUSH2 0x1D16 JUMP JUMPDEST PUSH2 0x1D15 PUSH2 0x31B0 JUMP JUMPDEST JUMPDEST POP POP JUMP JUMPDEST PUSH1 0x3 DUP2 JUMP JUMPDEST PUSH1 0x10 PUSH0 SWAP1 SLOAD SWAP1 PUSH2 0x100 EXP SWAP1 DIV PUSH20 0xFFFFFFFFFFFFFFFFFFFFFFFFFFFFFFFFFFFFFFFF AND DUP2 JUMP JUMPDEST PUSH7 0x2386F26FC10000 DUP2 JUMP JUMPDEST PUSH2 0x1D58 DUP3 PUSH2 0xDC5 JUMP JUMPDEST PUSH2 0x1D61 DUP2 PUSH2 0x2712 JUMP JUMPDEST PUSH2 0x1D6B DUP4 DUP4 PUSH2 0x2942 JUMP JUMPDEST POP POP POP POP JUMP JUMPDEST PUSH2 0x1D79 PUSH2 0x2A2C JUMP JUMPDEST PUSH32 0xA49807205CE4D355092EF5A8A18F56E8913CF4A201FBE287825B095693C21775 PUSH2 0x1DA3 DUP2 PUSH2 0x2712 JUMP JUMPDEST PUSH1 0xC PUSH1 0x1 SWAP1 SLOAD SWAP1 PUSH2 0x100 EXP SWAP1 DIV PUSH1 0xFF AND PUSH2 0x1DF2 JUMPI PUSH1 0x40 MLOAD PUSH32 0x8C379A000000000000000000000000000000000000000000000000000000000 DUP2 MSTORE PUSH1 0x4 ADD PUSH2 0x1DE9 SWAP1 PUSH2 0x499D JUMP JUMPDEST PUSH1 0x40 MLOAD DUP1 SWAP2 SUB SWAP1 REVERT JUMPDEST PUSH0 SELFBALANCE SWAP1 POP PUSH0 DUP2 GT PUSH2 0x1E38 JUMPI PUSH1 0x40 MLOAD PUSH32 0x8C379A000000000000000000000000000000000000000000000000000000000 DUP2 MSTORE PUSH1 0x4 ADD PUSH2 0x1E2F SWAP1 PUSH2 0x4A05 JUMP JUMPDEST PUSH1 0x40 MLOAD DUP1 SWAP2 SUB SWAP1 REVERT JUMPDEST PUSH0 DUP2 SWAP1 POP DUP1 PUSH1 0xB SLOAD PUSH2 0x1E4A SWAP2 SWAP1 PUSH2 0x3FFB JUMP JUMPDEST PUSH1 0xB DUP2 SWAP1 SSTORE POP PUSH0 CALLER PUSH20 0xFFFFFFFFFFFFFFFFFFFFFFFFFFFFFFFFFFFFFFFF AND DUP3 PUSH1 0x40 MLOAD PUSH2 0x1E75 SWAP1 PUSH2 0x4412 JUMP JUMPDEST PUSH0 PUSH1 0x40 MLOAD DUP1 DUP4 SUB DUP2 DUP6 DUP8 GAS CALL SWAP3 POP POP POP RETURNDATASIZE DUP1 PUSH0 DUP2 EQ PUSH2 0x1EAF JUMPI PUSH1 0x40 MLOAD SWAP2 POP PUSH1 0x1F NOT PUSH1 0x3F RETURNDATASIZE ADD AND DUP3 ADD PUSH1 0x40 MSTORE RETURNDATASIZE DUP3 MSTORE RETURNDATASIZE PUSH0 PUSH1 0x20 DUP5 ADD RETURNDATACOPY PUSH2 0x1EB4 JUMP JUMPDEST PUSH1 0x60 SWAP2 POP JUMPDEST POP POP SWAP1 POP DUP1 PUSH2 0x1EF8 JUMPI PUSH1 0x40 MLOAD PUSH32 0x8C379A000000000000000000000000000000000000000000000000000000000 DUP2 MSTORE PUSH1 0x4 ADD PUSH2 0x1EEF SWAP1 PUSH2 0x4470 JUMP JUMPDEST PUSH1 0x40 MLOAD DUP1 SWAP2 SUB SWAP1 REVERT JUMPDEST CALLER PUSH20 0xFFFFFFFFFFFFFFFFFFFFFFFFFFFFFFFFFFFFFFFF AND PUSH32 0x5FAFA99D0643513820BE26656B45130B01E1C03062E1266BF36F88CBD3BD9695 DUP4 PUSH1 0x40 MLOAD PUSH2 0x1F3E SWAP2 SWAP1 PUSH2 0x39A9 JUMP JUMPDEST PUSH1 0x40 MLOAD DUP1 SWAP2 SUB SWAP1 LOG2 POP POP POP POP PUSH2 0x1F52 PUSH2 0x2A72 JUMP JUMPDEST JUMP JUMPDEST PUSH0 PUSH1 0x1 PUSH0 DUP5 PUSH20 0xFFFFFFFFFFFFFFFFFFFFFFFFFFFFFFFFFFFFFFFF AND PUSH20 0xFFFFFFFFFFFFFFFFFFFFFFFFFFFFFFFFFFFFFFFF AND DUP2 MSTORE PUSH1 0x20 ADD SWAP1 DUP2 MSTORE PUSH1 0x20 ADD PUSH0 KECCAK256 PUSH0 DUP4 PUSH20 0xFFFFFFFFFFFFFFFFFFFFFFFFFFFFFFFFFFFFFFFF AND PUSH20 0xFFFFFFFFFFFFFFFFFFFFFFFFFFFFFFFFFFFFFFFF AND DUP2 MSTORE PUSH1 0x20 ADD SWAP1 DUP2 MSTORE PUSH1 0x20 ADD PUSH0 KECCAK256 SLOAD SWAP1 POP SWAP3 SWAP2 POP POP JUMP JUMPDEST PUSH2 0x1FDE PUSH2 0x2A2C JUMP JUMPDEST PUSH2 0x1FE6 PUSH2 0x2A7C JUMP JUMPDEST PUSH1 0xC PUSH0 SWAP1 SLOAD SWAP1 PUSH2 0x100 EXP SWAP1 DIV PUSH1 0xFF AND ISZERO PUSH2 0x2035 JUMPI PUSH1 0x40 MLOAD PUSH32 0x8C379A000000000000000000000000000000000000000000000000000000000 DUP2 MSTORE PUSH1 0x4 ADD PUSH2 0x202C SWAP1 PUSH2 0x4636 JUMP JUMPDEST PUSH1 0x40 MLOAD DUP1 SWAP2 SUB SWAP1 REVERT JUMPDEST CALLER PUSH1 0x1E PUSH1 0xF PUSH0 DUP4 PUSH20 0xFFFFFFFFFFFFFFFFFFFFFFFFFFFFFFFFFFFFFFFF AND PUSH20 0xFFFFFFFFFFFFFFFFFFFFFFFFFFFFFFFFFFFFFFFF AND DUP2 MSTORE PUSH1 0x20 ADD SWAP1 DUP2 MSTORE PUSH1 0x20 ADD PUSH0 KECCAK256 SLOAD TIMESTAMP PUSH2 0x2081 SWAP2 SWAP1 PUSH2 0x3FFB JUMP JUMPDEST LT ISZERO DUP1 PUSH2 0x20CB JUMPI POP PUSH1 0x3 PUSH1 0xE PUSH0 DUP4 PUSH20 0xFFFFFFFFFFFFFFFFFFFFFFFFFFFFFFFFFFFFFFFF AND PUSH20 0xFFFFFFFFFFFFFFFFFFFFFFFFFFFFFFFFFFFFFFFF AND DUP2 MSTORE PUSH1 0x20 ADD SWAP1 DUP2 MSTORE PUSH1 0x20 ADD PUSH0 KECCAK256 SLOAD LT JUMPDEST PUSH2 0x210A JUMPI PUSH1 0x40 MLOAD PUSH32 0x8C379A000000000000000000000000000000000000000000000000000000000 DUP2 MSTORE PUSH1 0x4 ADD PUSH2 0x2101 SWAP1 PUSH2 0x469E JUMP JUMPDEST PUSH1 0x40 MLOAD DUP1 SWAP2 SUB SWAP1 REVERT JUMPDEST PUSH1 0x1E PUSH1 0xF PUSH0 DUP4 PUSH20 0xFFFFFFFFFFFFFFFFFFFFFFFFFFFFFFFFFFFFFFFF AND PUSH20 0xFFFFFFFFFFFFFFFFFFFFFFFFFFFFFFFFFFFFFFFF AND DUP2 MSTORE PUSH1 0x20 ADD SWAP1 DUP2 MSTORE PUSH1 0x20 ADD PUSH0 KECCAK256 SLOAD TIMESTAMP PUSH2 0x2155 SWAP2 SWAP1 PUSH2 0x3FFB JUMP JUMPDEST LT PUSH2 0x21A2 JUMPI PUSH1 0x1 PUSH1 0xE PUSH0 DUP4 PUSH20 0xFFFFFFFFFFFFFFFFFFFFFFFFFFFFFFFFFFFFFFFF AND PUSH20 0xFFFFFFFFFFFFFFFFFFFFFFFFFFFFFFFFFFFFFFFF AND DUP2 MSTORE PUSH1 0x20 ADD SWAP1 DUP2 MSTORE PUSH1 0x20 ADD PUSH0 KECCAK256 DUP2 SWAP1 SSTORE POP PUSH2 0x222E JUMP JUMPDEST PUSH1 0x1 PUSH1 0xE PUSH0 DUP4 PUSH20 0xFFFFFFFFFFFFFFFFFFFFFFFFFFFFFFFFFFFFFFFF AND PUSH20 0xFFFFFFFFFFFFFFFFFFFFFFFFFFFFFFFFFFFFFFFF AND DUP2 MSTORE PUSH1 0x20 ADD SWAP1 DUP2 MSTORE PUSH1 0x20 ADD PUSH0 KECCAK256 SLOAD PUSH2 0x21EC SWAP2 SWAP1 PUSH2 0x3FC8 JUMP JUMPDEST PUSH1 0xE PUSH0 DUP4 PUSH20 0xFFFFFFFFFFFFFFFFFFFFFFFFFFFFFFFFFFFFFFFF AND PUSH20 0xFFFFFFFFFFFFFFFFFFFFFFFFFFFFFFFFFFFFFFFF AND DUP2 MSTORE PUSH1 0x20 ADD SWAP1 DUP2 MSTORE PUSH1 0x20 ADD PUSH0 KECCAK256 DUP2 SWAP1 SSTORE POP JUMPDEST TIMESTAMP PUSH1 0xF PUSH0 DUP4 PUSH20 0xFFFFFFFFFFFFFFFFFFFFFFFFFFFFFFFFFFFFFFFF AND PUSH20 0xFFFFFFFFFFFFFFFFFFFFFFFFFFFFFFFFFFFFFFFF AND DUP2 MSTORE PUSH1 0x20 ADD SWAP1 DUP2 MSTORE PUSH1 0x20 ADD PUSH0 KECCAK256 DUP2 SWAP1 SSTORE POP PUSH0 DUP3 SUB PUSH2 0x22A9 JUMPI PUSH1 0x40 MLOAD PUSH32 0x2C5211C600000000000000000000000000000000000000000000000000000000 DUP2 MSTORE PUSH1 0x4 ADD PUSH1 0x40 MLOAD DUP1 SWAP2 SUB SWAP1 REVERT JUMPDEST DUP2 PUSH2 0x22B3 CALLER PUSH2 0x1285 JUMP JUMPDEST LT ISZERO PUSH2 0x22EB JUMPI PUSH1 0x40 MLOAD PUSH32 0xF4D678B800000000000000000000000000000000000000000000000000000000 DUP2 MSTORE PUSH1 0x4 ADD PUSH1 0x40 MLOAD DUP1 SWAP2 SUB SWAP1 REVERT JUMPDEST PUSH0 PUSH2 0x22F5 DUP4 PUSH2 0x11E6 JUMP JUMPDEST SWAP1 POP PUSH0 DUP2 SUB PUSH2 0x2330 JUMPI PUSH1 0x40 MLOAD PUSH32 0x2C5211C600000000000000000000000000000000000000000000000000000000 DUP2 MSTORE PUSH1 0x4 ADD PUSH1 0x40 MLOAD DUP1 SWAP2 SUB SWAP1 REVERT JUMPDEST DUP1 SELFBALANCE LT PUSH2 0x2369 JUMPI PUSH1 0x40 MLOAD PUSH32 0xF4D678B800000000000000000000000000000000000000000000000000000000 DUP2 MSTORE PUSH1 0x4 ADD PUSH1 0x40 MLOAD DUP1 SWAP2 SUB SWAP1 REVERT JUMPDEST PUSH0 PUSH2 0x2376 DUP3 PUSH1 0xA SLOAD PUSH2 0x1552 JUMP JUMPDEST SWAP1 POP PUSH1 0xA DUP2 GT ISZERO PUSH2 0x23B3 JUMPI PUSH1 0x40 MLOAD PUSH32 0x68AC2ABD00000000000000000000000000000000000000000000000000000000 DUP2 MSTORE PUSH1 0x4 ADD PUSH1 0x40 MLOAD DUP1 SWAP2 SUB SWAP1 REVERT JUMPDEST PUSH2 0x23BD CALLER DUP6 PUSH2 0x3211 JUMP JUMPDEST DUP4 PUSH1 0x9 SLOAD PUSH2 0x23CB SWAP2 SWAP1 PUSH2 0x3FC8 JUMP JUMPDEST PUSH1 0x9 DUP2 SWAP1 SSTORE POP DUP2 PUSH1 0xA SLOAD PUSH2 0x23DF SWAP2 SWAP1 PUSH2 0x3FFB JUMP JUMPDEST PUSH1 0xA DUP2 SWAP1 SSTORE POP DUP2 PUSH1 0xB SLOAD PUSH2 0x23F3 SWAP2 SWAP1 PUSH2 0x3FFB JUMP JUMPDEST PUSH1 0xB DUP2 SWAP1 SSTORE POP PUSH2 0x2403 CALLER DUP4 PUSH2 0x3290 JUMP JUMPDEST CALLER PUSH20 0xFFFFFFFFFFFFFFFFFFFFFFFFFFFFFFFFFFFFFFFF AND PUSH32 0x2DCF9433D75DB0D8B1C172641F85E319FFE4AD22E108A95D1847CEB906E5195D DUP6 DUP5 PUSH1 0x40 MLOAD PUSH2 0x244B SWAP3 SWAP2 SWAP1 PUSH2 0x492C JUMP JUMPDEST PUSH1 0x40 MLOAD DUP1 SWAP2 SUB SWAP1 LOG2 PUSH32 0x645AA9C724799DCE7DF512BB35A464FA2F9DBACA82FE22E62B3EEEC7F7142F2F PUSH1 0x9 SLOAD PUSH1 0xA SLOAD PUSH1 0x40 MLOAD PUSH2 0x2488 SWAP3 SWAP2 SWAP1 PUSH2 0x492C JUMP JUMPDEST PUSH1 0x40 MLOAD DUP1 SWAP2 SUB SWAP1 LOG1 POP POP POP PUSH2 0x249B PUSH2 0x2A72 JUMP JUMPDEST POP JUMP JUMPDEST PUSH1 0xD SLOAD DUP2 JUMP JUMPDEST PUSH0 PUSH1 0x8 PUSH0 DUP4 PUSH20 0xFFFFFFFFFFFFFFFFFFFFFFFFFFFFFFFFFFFFFFFF AND PUSH20 0xFFFFFFFFFFFFFFFFFFFFFFFFFFFFFFFFFFFFFFFF AND DUP2 MSTORE PUSH1 0x20 ADD SWAP1 DUP2 MSTORE PUSH1 0x20 ADD PUSH0 KECCAK256 SLOAD SWAP1 POP SWAP2 SWAP1 POP JUMP JUMPDEST PUSH32 0x97667070C54EF182B0F5858B034BEAC1B6F3089AA2D3188BB1E8929F4FA9B929 DUP2 JUMP JUMPDEST PUSH0 PUSH32 0x1FFC9A700000000000000000000000000000000000000000000000000000000 PUSH28 0xFFFFFFFFFFFFFFFFFFFFFFFFFFFFFFFFFFFFFFFFFFFFFFFFFFFFFFFF NOT AND DUP3 PUSH28 0xFFFFFFFFFFFFFFFFFFFFFFFFFFFFFFFFFFFFFFFFFFFFFFFFFFFFFFFF NOT AND EQ SWAP1 POP SWAP2 SWAP1 POP JUMP JUMPDEST PUSH0 CALLER SWAP1 POP SWAP1 JUMP JUMPDEST PUSH2 0x258B DUP4 DUP4 DUP4 PUSH1 0x1 PUSH2 0x33D1 JUMP JUMPDEST POP POP POP JUMP JUMPDEST PUSH0 PUSH2 0x259B DUP5 DUP5 PUSH2 0x1F54 JUMP JUMPDEST SWAP1 POP PUSH32 0xFFFFFFFFFFFFFFFFFFFFFFFFFFFFFFFFFFFFFFFFFFFFFFFFFFFFFFFFFFFFFFFF DUP2 EQ PUSH2 0x261C JUMPI DUP2 DUP2 LT ISZERO PUSH2 0x260D JUMPI DUP3 DUP2 DUP4 PUSH1 0x40 MLOAD PUSH32 0xFB8F41B200000000000000000000000000000000000000000000000000000000 DUP2 MSTORE PUSH1 0x4 ADD PUSH2 0x2604 SWAP4 SWAP3 SWAP2 SWAP1 PUSH2 0x4A23 JUMP JUMPDEST PUSH1 0x40 MLOAD DUP1 SWAP2 SUB SWAP1 REVERT JUMPDEST PUSH2 0x261B DUP5 DUP5 DUP5 DUP5 SUB PUSH0 PUSH2 0x33D1 JUMP JUMPDEST JUMPDEST POP POP POP POP JUMP JUMPDEST PUSH0 PUSH20 0xFFFFFFFFFFFFFFFFFFFFFFFFFFFFFFFFFFFFFFFF AND DUP4 PUSH20 0xFFFFFFFFFFFFFFFFFFFFFFFFFFFFFFFFFFFFFFFF AND SUB PUSH2 0x2692 JUMPI PUSH0 PUSH1 0x40 MLOAD PUSH32 0x96C6FD1E00000000000000000000000000000000000000000000000000000000 DUP2 MSTORE PUSH1 0x4 ADD PUSH2 0x2689 SWAP2 SWAP1 PUSH2 0x3DF1 JUMP JUMPDEST PUSH1 0x40 MLOAD DUP1 SWAP2 SUB SWAP1 REVERT JUMPDEST PUSH0 PUSH20 0xFFFFFFFFFFFFFFFFFFFFFFFFFFFFFFFFFFFFFFFF AND DUP3 PUSH20 0xFFFFFFFFFFFFFFFFFFFFFFFFFFFFFFFFFFFFFFFF AND SUB PUSH2 0x2702 JUMPI PUSH0 PUSH1 0x40 MLOAD PUSH32 0xEC442F0500000000000000000000000000000000000000000000000000000000 DUP2 MSTORE PUSH1 0x4 ADD PUSH2 0x26F9 SWAP2 SWAP1 PUSH2 0x3DF1 JUMP JUMPDEST PUSH1 0x40 MLOAD DUP1 SWAP2 SUB SWAP1 REVERT JUMPDEST PUSH2 0x270D DUP4 DUP4 DUP4 PUSH2 0x35A0 JUMP JUMPDEST POP POP POP JUMP JUMPDEST PUSH2 0x2723 DUP2 PUSH2 0x271E PUSH2 0x2577 JUMP JUMPDEST PUSH2 0x35B8 JUMP JUMPDEST POP JUMP JUMPDEST PUSH0 PUSH2 0x2731 DUP4 DUP4 PUSH2 0x1583 JUMP JUMPDEST PUSH2 0x2806 JUMPI PUSH1 0x1 PUSH1 0x7 PUSH0 DUP6 DUP2 MSTORE PUSH1 0x20 ADD SWAP1 DUP2 MSTORE PUSH1 0x20 ADD PUSH0 KECCAK256 PUSH0 ADD PUSH0 DUP5 PUSH20 0xFFFFFFFFFFFFFFFFFFFFFFFFFFFFFFFFFFFFFFFF AND PUSH20 0xFFFFFFFFFFFFFFFFFFFFFFFFFFFFFFFFFFFFFFFF AND DUP2 MSTORE PUSH1 0x20 ADD SWAP1 DUP2 MSTORE PUSH1 0x20 ADD PUSH0 KECCAK256 PUSH0 PUSH2 0x100 EXP DUP2 SLOAD DUP2 PUSH1 0xFF MUL NOT AND SWAP1 DUP4 ISZERO ISZERO MUL OR SWAP1 SSTORE POP PUSH2 0x27A3 PUSH2 0x2577 JUMP JUMPDEST PUSH20 0xFFFFFFFFFFFFFFFFFFFFFFFFFFFFFFFFFFFFFFFF AND DUP3 PUSH20 0xFFFFFFFFFFFFFFFFFFFFFFFFFFFFFFFFFFFFFFFF AND DUP5 PUSH32 0x2F8788117E7EFF1D82E926EC794901D17C78024A50270940304540A733656F0D PUSH1 0x40 MLOAD PUSH1 0x40 MLOAD DUP1 SWAP2 SUB SWAP1 LOG4 PUSH1 0x1 SWAP1 POP PUSH2 0x280A JUMP JUMPDEST PUSH0 SWAP1 POP JUMPDEST SWAP3 SWAP2 POP POP JUMP JUMPDEST PUSH0 DUP1 DUP3 GT PUSH2 0x2853 JUMPI PUSH1 0x40 MLOAD PUSH32 0x8C379A000000000000000000000000000000000000000000000000000000000 DUP2 MSTORE PUSH1 0x4 ADD PUSH2 0x284A SWAP1 PUSH2 0x4AA2 JUMP JUMPDEST PUSH1 0x40 MLOAD DUP1 SWAP2 SUB SWAP1 REVERT JUMPDEST PUSH0 DUP1 PUSH8 0xDE0B6B3A7640000 SWAP1 POP PUSH0 DUP5 SWAP1 POP JUMPDEST PUSH1 0x2 DUP2 LT PUSH2 0x2887 JUMPI PUSH1 0x1 DUP2 SWAP1 SHR SWAP1 POP DUP2 DUP4 PUSH2 0x2880 SWAP2 SWAP1 PUSH2 0x3FC8 JUMP JUMPDEST SWAP3 POP PUSH2 0x2865 JUMP JUMPDEST PUSH0 DUP3 DUP5 PUSH2 0x2894 SWAP2 SWAP1 PUSH2 0x4215 JUMP JUMPDEST PUSH1 0x1 SWAP1 SHL DUP4 DUP8 PUSH2 0x28A4 SWAP2 SWAP1 PUSH2 0x41A7 JUMP JUMPDEST PUSH2 0x28AE SWAP2 SWAP1 PUSH2 0x4215 JUMP JUMPDEST SWAP1 POP PUSH0 JUMPDEST PUSH1 0x5 DUP2 LT ISZERO PUSH2 0x2935 JUMPI DUP4 DUP3 DUP4 PUSH2 0x28C8 SWAP2 SWAP1 PUSH2 0x41A7 JUMP JUMPDEST PUSH2 0x28D2 SWAP2 SWAP1 PUSH2 0x4215 JUMP JUMPDEST SWAP2 POP DUP4 PUSH1 0x2 PUSH2 0x28E1 SWAP2 SWAP1 PUSH2 0x41A7 JUMP JUMPDEST DUP3 LT PUSH2 0x2928 JUMPI PUSH1 0x2 DUP3 PUSH2 0x28F4 SWAP2 SWAP1 PUSH2 0x4215 JUMP JUMPDEST SWAP2 POP PUSH1 0x1 DUP2 PUSH2 0x2903 SWAP2 SWAP1 PUSH2 0x3FC8 JUMP JUMPDEST PUSH1 0x2 PUSH2 0x290F SWAP2 SWAP1 PUSH2 0x4AC0 JUMP JUMPDEST DUP5 PUSH2 0x291A SWAP2 SWAP1 PUSH2 0x4215 JUMP JUMPDEST DUP6 PUSH2 0x2925 SWAP2 SWAP1 PUSH2 0x3FC8 JUMP JUMPDEST SWAP5 POP JUMPDEST DUP1 DUP1 PUSH1 0x1 ADD SWAP2 POP POP PUSH2 0x28B2 JUMP JUMPDEST POP DUP4 SWAP5 POP POP POP POP POP SWAP2 SWAP1 POP JUMP JUMPDEST PUSH0 PUSH2 0x294D DUP4 DUP4 PUSH2 0x1583 JUMP JUMPDEST ISZERO PUSH2 0x2A22 JUMPI PUSH0 PUSH1 0x7 PUSH0 DUP6 DUP2 MSTORE PUSH1 0x20 ADD SWAP1 DUP2 MSTORE PUSH1 0x20 ADD PUSH0 KECCAK256 PUSH0 ADD PUSH0 DUP5 PUSH20 0xFFFFFFFFFFFFFFFFFFFFFFFFFFFFFFFFFFFFFFFF AND PUSH20 0xFFFFFFFFFFFFFFFFFFFFFFFFFFFFFFFFFFFFFFFF AND DUP2 MSTORE PUSH1 0x20 ADD SWAP1 DUP2 MSTORE PUSH1 0x20 ADD PUSH0 KECCAK256 PUSH0 PUSH2 0x100 EXP DUP2 SLOAD DUP2 PUSH1 0xFF MUL NOT AND SWAP1 DUP4 ISZERO ISZERO MUL OR SWAP1 SSTORE POP PUSH2 0x29BF PUSH2 0x2577 JUMP JUMPDEST PUSH20 0xFFFFFFFFFFFFFFFFFFFFFFFFFFFFFFFFFFFFFFFF AND DUP3 PUSH20 0xFFFFFFFFFFFFFFFFFFFFFFFFFFFFFFFFFFFFFFFF AND DUP5 PUSH32 0xF6391F5C32D9C69D2A47EA670B442974B53935D1EDC7FD64EB21E047A839171B PUSH1 0x40 MLOAD PUSH1 0x40 MLOAD DUP1 SWAP2 SUB SWAP1 LOG4 PUSH1 0x1 SWAP1 POP PUSH2 0x2A26 JUMP JUMPDEST PUSH0 SWAP1 POP JUMPDEST SWAP3 SWAP2 POP POP JUMP JUMPDEST PUSH1 0x2 PUSH1 0x5 SLOAD SUB PUSH2 0x2A68 JUMPI PUSH1 0x40 MLOAD PUSH32 0x3EE5AEB500000000000000000000000000000000000000000000000000000000 DUP2 MSTORE PUSH1 0x4 ADD PUSH1 0x40 MLOAD DUP1 SWAP2 SUB SWAP1 REVERT JUMPDEST PUSH1 0x2 PUSH1 0x5 DUP2 SWAP1 SSTORE POP JUMP JUMPDEST PUSH1 0x1 PUSH1 0x5 DUP2 SWAP1 SSTORE POP JUMP JUMPDEST PUSH2 0x2A84 PUSH2 0x11B6 JUMP JUMPDEST ISZERO PUSH2 0x2ABB JUMPI PUSH1 0x40 MLOAD PUSH32 0xD93C066500000000000000000000000000000000000000000000000000000000 DUP2 MSTORE PUSH1 0x4 ADD PUSH1 0x40 MLOAD DUP1 SWAP2 SUB SWAP1 REVERT JUMPDEST JUMP JUMPDEST PUSH0 PUSH20 0xFFFFFFFFFFFFFFFFFFFFFFFFFFFFFFFFFFFFFFFF AND DUP3 PUSH20 0xFFFFFFFFFFFFFFFFFFFFFFFFFFFFFFFFFFFFFFFF AND SUB PUSH2 0x2B2D JUMPI PUSH0 PUSH1 0x40 MLOAD PUSH32 0xEC442F0500000000000000000000000000000000000000000000000000000000 DUP2 MSTORE PUSH1 0x4 ADD PUSH2 0x2B24 SWAP2 SWAP1 PUSH2 0x3DF1 JUMP JUMPDEST PUSH1 0x40 MLOAD DUP1 SWAP2 SUB SWAP1 REVERT JUMPDEST PUSH2 0x2B38 PUSH0 DUP4 DUP4 PUSH2 0x35A0 JUMP JUMPDEST POP POP JUMP JUMPDEST PUSH1 0xC PUSH0 SWAP1 SLOAD SWAP1 PUSH2 0x100 EXP SWAP1 DIV PUSH1 0xFF AND ISZERO PUSH2 0x2B8B JUMPI PUSH1 0x40 MLOAD PUSH32 0x8C379A000000000000000000000000000000000000000000000000000000000 DUP2 MSTORE PUSH1 0x4 ADD PUSH2 0x2B82 SWAP1 PUSH2 0x4B54 JUMP JUMPDEST PUSH1 0x40 MLOAD DUP1 SWAP2 SUB SWAP1 REVERT JUMPDEST PUSH12 0x2955CF10BD668BDE07C0000 PUSH2 0x2BA0 PUSH2 0xD89 JUMP JUMPDEST LT ISZERO PUSH2 0x2BE1 JUMPI PUSH1 0x40 MLOAD PUSH32 0x8C379A000000000000000000000000000000000000000000000000000000000 DUP2 MSTORE PUSH1 0x4 ADD PUSH2 0x2BD8 SWAP1 PUSH2 0x4BBC JUMP JUMPDEST PUSH1 0x40 MLOAD DUP1 SWAP2 SUB SWAP1 REVERT JUMPDEST PUSH0 PUSH1 0x9 SLOAD GT PUSH2 0x2C25 JUMPI PUSH1 0x40 MLOAD PUSH32 0x8C379A000000000000000000000000000000000000000000000000000000000 DUP2 MSTORE PUSH1 0x4 ADD PUSH2 0x2C1C SWAP1 PUSH2 0x4C24 JUMP JUMPDEST PUSH1 0x40 MLOAD DUP1 SWAP2 SUB SWAP1 REVERT JUMPDEST PUSH1 0x1 PUSH1 0xC PUSH0 PUSH2 0x100 EXP DUP2 SLOAD DUP2 PUSH1 0xFF MUL NOT AND SWAP1 DUP4 ISZERO ISZERO MUL OR SWAP1 SSTORE POP PUSH0 PUSH8 0x214E8348C4F0000 SELFBALANCE PUSH2 0x2C54 SWAP2 SWAP1 PUSH2 0x3FFB JUMP JUMPDEST SWAP1 POP PUSH0 PUSH8 0xDE0B6B3A7640000 SWAP1 POP PUSH0 PUSH1 0x9 SLOAD DUP3 PUSH1 0xA SLOAD PUSH2 0x2C74 SWAP2 SWAP1 PUSH2 0x41A7 JUMP JUMPDEST PUSH2 0x2C7E SWAP2 SWAP1 PUSH2 0x4215 JUMP JUMPDEST SWAP1 POP PUSH0 DUP2 GT PUSH2 0x2CC2 JUMPI PUSH1 0x40 MLOAD PUSH32 0x8C379A000000000000000000000000000000000000000000000000000000000 DUP2 MSTORE PUSH1 0x4 ADD PUSH2 0x2CB9 SWAP1 PUSH2 0x4C8C JUMP JUMPDEST PUSH1 0x40 MLOAD DUP1 SWAP2 SUB SWAP1 REVERT JUMPDEST PUSH0 DUP2 DUP4 DUP6 PUSH2 0x2CD0 SWAP2 SWAP1 PUSH2 0x41A7 JUMP JUMPDEST PUSH2 0x2CDA SWAP2 SWAP1 PUSH2 0x4215 JUMP JUMPDEST SWAP1 POP PUSH0 DUP2 GT PUSH2 0x2D1E JUMPI PUSH1 0x40 MLOAD PUSH32 0x8C379A000000000000000000000000000000000000000000000000000000000 DUP2 MSTORE PUSH1 0x4 ADD PUSH2 0x2D15 SWAP1 PUSH2 0x4CF4 JUMP JUMPDEST PUSH1 0x40 MLOAD DUP1 SWAP2 SUB SWAP1 REVERT JUMPDEST PUSH0 DUP2 PUSH2 0x2D28 PUSH2 0xD89 JUMP JUMPDEST PUSH12 0xA18F07D736B90BE550000000 PUSH2 0x2D3F SWAP2 SWAP1 PUSH2 0x3FFB JUMP JUMPDEST PUSH2 0x2D49 SWAP2 SWAP1 PUSH2 0x3FFB JUMP JUMPDEST SWAP1 POP PUSH2 0x2D55 ADDRESS DUP4 PUSH2 0x2ABD JUMP JUMPDEST PUSH2 0x2D5F ADDRESS DUP3 PUSH2 0x3211 JUMP JUMPDEST PUSH2 0x2D8A ADDRESS PUSH32 0x0 DUP5 PUSH2 0x257E JUMP JUMPDEST PUSH0 ADDRESS PUSH20 0xFFFFFFFFFFFFFFFFFFFFFFFFFFFFFFFFFFFFFFFF AND PUSH4 0x70A08231 ADDRESS PUSH1 0x40 MLOAD DUP3 PUSH4 0xFFFFFFFF AND PUSH1 0xE0 SHL DUP2 MSTORE PUSH1 0x4 ADD PUSH2 0x2DC4 SWAP2 SWAP1 PUSH2 0x3DF1 JUMP JUMPDEST PUSH1 0x20 PUSH1 0x40 MLOAD DUP1 DUP4 SUB DUP2 DUP7 GAS STATICCALL ISZERO DUP1 ISZERO PUSH2 0x2DDF JUMPI RETURNDATASIZE PUSH0 DUP1 RETURNDATACOPY RETURNDATASIZE PUSH0 REVERT JUMPDEST POP POP POP POP PUSH1 0x40 MLOAD RETURNDATASIZE PUSH1 0x1F NOT PUSH1 0x1F DUP3 ADD AND DUP3 ADD DUP1 PUSH1 0x40 MSTORE POP DUP2 ADD SWAP1 PUSH2 0x2E03 SWAP2 SWAP1 PUSH2 0x4D26 JUMP JUMPDEST SWAP1 POP PUSH32 0x0 PUSH20 0xFFFFFFFFFFFFFFFFFFFFFFFFFFFFFFFFFFFFFFFF AND PUSH4 0xF305D719 DUP8 ADDRESS DUP7 DUP8 DUP12 CALLER TIMESTAMP PUSH1 0x40 MLOAD DUP9 PUSH4 0xFFFFFFFF AND PUSH1 0xE0 SHL DUP2 MSTORE PUSH1 0x4 ADD PUSH2 0x2E69 SWAP7 SWAP6 SWAP5 SWAP4 SWAP3 SWAP2 SWAP1 PUSH2 0x4D51 JUMP JUMPDEST PUSH1 0x60 PUSH1 0x40 MLOAD DUP1 DUP4 SUB DUP2 DUP6 DUP9 GAS CALL SWAP4 POP POP POP POP DUP1 ISZERO PUSH2 0x2EA5 JUMPI POP PUSH1 0x40 MLOAD RETURNDATASIZE PUSH1 0x1F NOT PUSH1 0x1F DUP3 ADD AND DUP3 ADD DUP1 PUSH1 0x40 MSTORE POP DUP2 ADD SWAP1 PUSH2 0x2EA2 SWAP2 SWAP1 PUSH2 0x4DB0 JUMP JUMPDEST PUSH1 0x1 JUMPDEST PUSH2 0x2EE4 JUMPI PUSH1 0x40 MLOAD PUSH32 0x8C379A000000000000000000000000000000000000000000000000000000000 DUP2 MSTORE PUSH1 0x4 ADD PUSH2 0x2EDB SWAP1 PUSH2 0x4E4A JUMP JUMPDEST PUSH1 0x40 MLOAD DUP1 SWAP2 SUB SWAP1 REVERT JUMPDEST DUP4 ADDRESS PUSH20 0xFFFFFFFFFFFFFFFFFFFFFFFFFFFFFFFFFFFFFFFF AND PUSH4 0x70A08231 ADDRESS PUSH1 0x40 MLOAD DUP3 PUSH4 0xFFFFFFFF AND PUSH1 0xE0 SHL DUP2 MSTORE PUSH1 0x4 ADD PUSH2 0x2F1E SWAP2 SWAP1 PUSH2 0x3DF1 JUMP JUMPDEST PUSH1 0x20 PUSH1 0x40 MLOAD DUP1 DUP4 SUB DUP2 DUP7 GAS STATICCALL ISZERO DUP1 ISZERO PUSH2 0x2F39 JUMPI RETURNDATASIZE PUSH0 DUP1 RETURNDATACOPY RETURNDATASIZE PUSH0 REVERT JUMPDEST POP POP POP POP PUSH1 0x40 MLOAD RETURNDATASIZE PUSH1 0x1F NOT PUSH1 0x1F DUP3 ADD AND DUP3 ADD DUP1 PUSH1 0x40 MSTORE POP DUP2 ADD SWAP1 PUSH2 0x2F5D SWAP2 SWAP1 PUSH2 0x4D26 JUMP JUMPDEST GT ISZERO PUSH2 0x2F9E JUMPI PUSH1 0x40 MLOAD PUSH32 0x8C379A000000000000000000000000000000000000000000000000000000000 DUP2 MSTORE PUSH1 0x4 ADD PUSH2 0x2F95 SWAP1 PUSH2 0x4EB2 JUMP JUMPDEST PUSH1 0x40 MLOAD DUP1 SWAP2 SUB SWAP1 REVERT JUMPDEST PUSH0 PUSH32 0x0 PUSH20 0xFFFFFFFFFFFFFFFFFFFFFFFFFFFFFFFFFFFFFFFF AND PUSH4 0xE6A43905 ADDRESS PUSH32 0x0 PUSH20 0xFFFFFFFFFFFFFFFFFFFFFFFFFFFFFFFFFFFFFFFF AND PUSH4 0xAD5C4648 PUSH1 0x40 MLOAD DUP2 PUSH4 0xFFFFFFFF AND PUSH1 0xE0 SHL DUP2 MSTORE PUSH1 0x4 ADD PUSH1 0x20 PUSH1 0x40 MLOAD DUP1 DUP4 SUB DUP2 DUP7 GAS STATICCALL ISZERO DUP1 ISZERO PUSH2 0x3045 JUMPI RETURNDATASIZE PUSH0 DUP1 RETURNDATACOPY RETURNDATASIZE PUSH0 REVERT JUMPDEST POP POP POP POP PUSH1 0x40 MLOAD RETURNDATASIZE PUSH1 0x1F NOT PUSH1 0x1F DUP3 ADD AND DUP3 ADD DUP1 PUSH1 0x40 MSTORE POP DUP2 ADD SWAP1 PUSH2 0x3069 SWAP2 SWAP1 PUSH2 0x4EE4 JUMP JUMPDEST PUSH1 0x40 MLOAD DUP4 PUSH4 0xFFFFFFFF AND PUSH1 0xE0 SHL DUP2 MSTORE PUSH1 0x4 ADD PUSH2 0x3086 SWAP3 SWAP2 SWAP1 PUSH2 0x4F0F JUMP JUMPDEST PUSH1 0x20 PUSH1 0x40 MLOAD DUP1 DUP4 SUB DUP2 DUP7 GAS STATICCALL ISZERO DUP1 ISZERO PUSH2 0x30A1 JUMPI RETURNDATASIZE PUSH0 DUP1 RETURNDATACOPY RETURNDATASIZE PUSH0 REVERT JUMPDEST POP POP POP POP PUSH1 0x40 MLOAD RETURNDATASIZE PUSH1 0x1F NOT PUSH1 0x1F DUP3 ADD AND DUP3 ADD DUP1 PUSH1 0x40 MSTORE POP DUP2 ADD SWAP1 PUSH2 0x30C5 SWAP2 SWAP1 PUSH2 0x4EE4 JUMP JUMPDEST SWAP1 POP DUP1 PUSH1 0x10 PUSH0 PUSH2 0x100 EXP DUP2 SLOAD DUP2 PUSH20 0xFFFFFFFFFFFFFFFFFFFFFFFFFFFFFFFFFFFFFFFF MUL NOT AND SWAP1 DUP4 PUSH20 0xFFFFFFFFFFFFFFFFFFFFFFFFFFFFFFFFFFFFFFFF AND MUL OR SWAP1 SSTORE POP PUSH32 0xAC424901BD1F8E5385FE5A264B1567E68253B82CA4BA36C2A82B6C439EC94B12 DUP4 DUP6 DUP4 PUSH1 0x40 MLOAD PUSH2 0x313A SWAP4 SWAP3 SWAP2 SWAP1 PUSH2 0x4F36 JUMP JUMPDEST PUSH1 0x40 MLOAD DUP1 SWAP2 SUB SWAP1 LOG1 POP POP POP POP POP POP POP POP POP POP JUMP JUMPDEST PUSH2 0x3156 PUSH2 0x2A7C JUMP JUMPDEST PUSH1 0x1 PUSH1 0x6 PUSH0 PUSH2 0x100 EXP DUP2 SLOAD DUP2 PUSH1 0xFF MUL NOT AND SWAP1 DUP4 ISZERO ISZERO MUL OR SWAP1 SSTORE POP PUSH32 0x62E78CEA01BEE320CD4E420270B5EA74000D11B0C9F74754EBDBFC544B05A258 PUSH2 0x3199 PUSH2 0x2577 JUMP JUMPDEST PUSH1 0x40 MLOAD PUSH2 0x31A6 SWAP2 SWAP1 PUSH2 0x3DF1 JUMP JUMPDEST PUSH1 0x40 MLOAD DUP1 SWAP2 SUB SWAP1 LOG1 JUMP JUMPDEST PUSH2 0x31B8 PUSH2 0x3609 JUMP JUMPDEST PUSH0 PUSH1 0x6 PUSH0 PUSH2 0x100 EXP DUP2 SLOAD DUP2 PUSH1 0xFF MUL NOT AND SWAP1 DUP4 ISZERO ISZERO MUL OR SWAP1 SSTORE POP PUSH32 0x5DB9EE0A495BF2E6FF9C91A7834C1BA4FDD244A5E8AA4E537BD38AEAE4B073AA PUSH2 0x31FA PUSH2 0x2577 JUMP JUMPDEST PUSH1 0x40 MLOAD PUSH2 0x3207 SWAP2 SWAP1 PUSH2 0x3DF1 JUMP JUMPDEST PUSH1 0x40 MLOAD DUP1 SWAP2 SUB SWAP1 LOG1 JUMP JUMPDEST PUSH0 PUSH20 0xFFFFFFFFFFFFFFFFFFFFFFFFFFFFFFFFFFFFFFFF AND DUP3 PUSH20 0xFFFFFFFFFFFFFFFFFFFFFFFFFFFFFFFFFFFFFFFF AND SUB PUSH2 0x3281 JUMPI PUSH0 PUSH1 0x40 MLOAD PUSH32 0x96C6FD1E00000000000000000000000000000000000000000000000000000000 DUP2 MSTORE PUSH1 0x4 ADD PUSH2 0x3278 SWAP2 SWAP1 PUSH2 0x3DF1 JUMP JUMPDEST PUSH1 0x40 MLOAD DUP1 SWAP2 SUB SWAP1 REVERT JUMPDEST PUSH2 0x328C DUP3 PUSH0 DUP4 PUSH2 0x35A0 JUMP JUMPDEST POP POP JUMP JUMPDEST PUSH0 PUSH20 0xFFFFFFFFFFFFFFFFFFFFFFFFFFFFFFFFFFFFFFFF AND DUP3 PUSH20 0xFFFFFFFFFFFFFFFFFFFFFFFFFFFFFFFFFFFFFFFF AND EQ PUSH2 0x32F5 JUMPI PUSH1 0x40 MLOAD PUSH32 0xE6C4247B00000000000000000000000000000000000000000000000000000000 DUP2 MSTORE PUSH1 0x4 ADD PUSH1 0x40 MLOAD DUP1 SWAP2 SUB SWAP1 REVERT JUMPDEST DUP1 PUSH1 0x8 PUSH0 DUP5 PUSH20 0xFFFFFFFFFFFFFFFFFFFFFFFFFFFFFFFFFFFFFFFF AND PUSH20 0xFFFFFFFFFFFFFFFFFFFFFFFFFFFFFFFFFFFFFFFF AND DUP2 MSTORE PUSH1 0x20 ADD SWAP1 DUP2 MSTORE PUSH1 0x20 ADD PUSH0 KECCAK256 SLOAD PUSH2 0x333E SWAP2 SWAP1 PUSH2 0x3FC8 JUMP JUMPDEST PUSH1 0x8 PUSH0 DUP5 PUSH20 0xFFFFFFFFFFFFFFFFFFFFFFFFFFFFFFFFFFFFFFFF AND PUSH20 0xFFFFFFFFFFFFFFFFFFFFFFFFFFFFFFFFFFFFFFFF AND DUP2 MSTORE PUSH1 0x20 ADD SWAP1 DUP2 MSTORE PUSH1 0x20 ADD PUSH0 KECCAK256 DUP2 SWAP1 SSTORE POP DUP2 PUSH20 0xFFFFFFFFFFFFFFFFFFFFFFFFFFFFFFFFFFFFFFFF AND PUSH32 0x1EAC8A3FAC20CBC0AB386E1C2F193255A774CEA3C8B271D31509BF1EC731618D DUP3 PUSH1 0x40 MLOAD PUSH2 0x33C5 SWAP2 SWAP1 PUSH2 0x39A9 JUMP JUMPDEST PUSH1 0x40 MLOAD DUP1 SWAP2 SUB SWAP1 LOG2 POP POP JUMP JUMPDEST PUSH0 PUSH20 0xFFFFFFFFFFFFFFFFFFFFFFFFFFFFFFFFFFFFFFFF AND DUP5 PUSH20 0xFFFFFFFFFFFFFFFFFFFFFFFFFFFFFFFFFFFFFFFF AND SUB PUSH2 0x3441 JUMPI PUSH0 PUSH1 0x40 MLOAD PUSH32 0xE602DF0500000000000000000000000000000000000000000000000000000000 DUP2 MSTORE PUSH1 0x4 ADD PUSH2 0x3438 SWAP2 SWAP1 PUSH2 0x3DF1 JUMP JUMPDEST PUSH1 0x40 MLOAD DUP1 SWAP2 SUB SWAP1 REVERT JUMPDEST PUSH0 PUSH20 0xFFFFFFFFFFFFFFFFFFFFFFFFFFFFFFFFFFFFFFFF AND DUP4 PUSH20 0xFFFFFFFFFFFFFFFFFFFFFFFFFFFFFFFFFFFFFFFF AND SUB PUSH2 0x34B1 JUMPI PUSH0 PUSH1 0x40 MLOAD PUSH32 0x94280D6200000000000000000000000000000000000000000000000000000000 DUP2 MSTORE PUSH1 0x4 ADD PUSH2 0x34A8 SWAP2 SWAP1 PUSH2 0x3DF1 JUMP JUMPDEST PUSH1 0x40 MLOAD DUP1 SWAP2 SUB SWAP1 REVERT JUMPDEST DUP2 PUSH1 0x1 PUSH0 DUP7 PUSH20 0xFFFFFFFFFFFFFFFFFFFFFFFFFFFFFFFFFFFFFFFF AND PUSH20 0xFFFFFFFFFFFFFFFFFFFFFFFFFFFFFFFFFFFFFFFF AND DUP2 MSTORE PUSH1 0x20 ADD SWAP1 DUP2 MSTORE PUSH1 0x20 ADD PUSH0 KECCAK256 PUSH0 DUP6 PUSH20 0xFFFFFFFFFFFFFFFFFFFFFFFFFFFFFFFFFFFFFFFF AND PUSH20 0xFFFFFFFFFFFFFFFFFFFFFFFFFFFFFFFFFFFFFFFF AND DUP2 MSTORE PUSH1 0x20 ADD SWAP1 DUP2 MSTORE PUSH1 0x20 ADD PUSH0 KECCAK256 DUP2 SWAP1 SSTORE POP DUP1 ISZERO PUSH2 0x359A JUMPI DUP3 PUSH20 0xFFFFFFFFFFFFFFFFFFFFFFFFFFFFFFFFFFFFFFFF AND DUP5 PUSH20 0xFFFFFFFFFFFFFFFFFFFFFFFFFFFFFFFFFFFFFFFF AND PUSH32 0x8C5BE1E5EBEC7D5BD14F71427D1E84F3DD0314C0F7B2291E5B200AC8C7C3B925 DUP5 PUSH1 0x40 MLOAD PUSH2 0x3591 SWAP2 SWAP1 PUSH2 0x39A9 JUMP JUMPDEST PUSH1 0x40 MLOAD DUP1 SWAP2 SUB SWAP1 LOG3 JUMPDEST POP POP POP POP JUMP JUMPDEST PUSH2 0x35A8 PUSH2 0x2A7C JUMP JUMPDEST PUSH2 0x35B3 DUP4 DUP4 DUP4 PUSH2 0x3649 JUMP JUMPDEST POP POP POP JUMP JUMPDEST PUSH2 0x35C2 DUP3 DUP3 PUSH2 0x1583 JUMP JUMPDEST PUSH2 0x3605 JUMPI DUP1 DUP3 PUSH1 0x40 MLOAD PUSH32 0xE2517D3F00000000000000000000000000000000000000000000000000000000 DUP2 MSTORE PUSH1 0x4 ADD PUSH2 0x35FC SWAP3 SWAP2 SWAP1 PUSH2 0x4F6B JUMP JUMPDEST PUSH1 0x40 MLOAD DUP1 SWAP2 SUB SWAP1 REVERT JUMPDEST POP POP JUMP JUMPDEST PUSH2 0x3611 PUSH2 0x11B6 JUMP JUMPDEST PUSH2 0x3647 JUMPI PUSH1 0x40 MLOAD PUSH32 0x8DFC202B00000000000000000000000000000000000000000000000000000000 DUP2 MSTORE PUSH1 0x4 ADD PUSH1 0x40 MLOAD DUP1 SWAP2 SUB SWAP1 REVERT JUMPDEST JUMP JUMPDEST PUSH0 PUSH20 0xFFFFFFFFFFFFFFFFFFFFFFFFFFFFFFFFFFFFFFFF AND DUP4 PUSH20 0xFFFFFFFFFFFFFFFFFFFFFFFFFFFFFFFFFFFFFFFF AND SUB PUSH2 0x3699 JUMPI DUP1 PUSH1 0x2 PUSH0 DUP3 DUP3 SLOAD PUSH2 0x368D SWAP2 SWAP1 PUSH2 0x3FC8 JUMP JUMPDEST SWAP3 POP POP DUP2 SWAP1 SSTORE POP PUSH2 0x3767 JUMP JUMPDEST PUSH0 DUP1 PUSH0 DUP6 PUSH20 0xFFFFFFFFFFFFFFFFFFFFFFFFFFFFFFFFFFFFFFFF AND PUSH20 0xFFFFFFFFFFFFFFFFFFFFFFFFFFFFFFFFFFFFFFFF AND DUP2 MSTORE PUSH1 0x20 ADD SWAP1 DUP2 MSTORE PUSH1 0x20 ADD PUSH0 KECCAK256 SLOAD SWAP1 POP DUP2 DUP2 LT ISZERO PUSH2 0x3722 JUMPI DUP4 DUP2 DUP4 PUSH1 0x40 MLOAD PUSH32 0xE450D38C00000000000000000000000000000000000000000000000000000000 DUP2 MSTORE PUSH1 0x4 ADD PUSH2 0x3719 SWAP4 SWAP3 SWAP2 SWAP1 PUSH2 0x4A23 JUMP JUMPDEST PUSH1 0x40 MLOAD DUP1 SWAP2 SUB SWAP1 REVERT JUMPDEST DUP2 DUP2 SUB PUSH0 DUP1 DUP7 PUSH20 0xFFFFFFFFFFFFFFFFFFFFFFFFFFFFFFFFFFFFFFFF AND PUSH20 0xFFFFFFFFFFFFFFFFFFFFFFFFFFFFFFFFFFFFFFFF AND DUP2 MSTORE PUSH1 0x20 ADD SWAP1 DUP2 MSTORE PUSH1 0x20 ADD PUSH0 KECCAK256 DUP2 SWAP1 SSTORE POP POP JUMPDEST PUSH0 PUSH20 0xFFFFFFFFFFFFFFFFFFFFFFFFFFFFFFFFFFFFFFFF AND DUP3 PUSH20 0xFFFFFFFFFFFFFFFFFFFFFFFFFFFFFFFFFFFFFFFF AND SUB PUSH2 0x37AE JUMPI DUP1 PUSH1 0x2 PUSH0 DUP3 DUP3 SLOAD SUB SWAP3 POP POP DUP2 SWAP1 SSTORE POP PUSH2 0x37F8 JUMP JUMPDEST DUP1 PUSH0 DUP1 DUP5 PUSH20 0xFFFFFFFFFFFFFFFFFFFFFFFFFFFFFFFFFFFFFFFF AND PUSH20 0xFFFFFFFFFFFFFFFFFFFFFFFFFFFFFFFFFFFFFFFF AND DUP2 MSTORE PUSH1 0x20 ADD SWAP1 DUP2 MSTORE PUSH1 0x20 ADD PUSH0 KECCAK256 PUSH0 DUP3 DUP3 SLOAD ADD SWAP3 POP POP DUP2 SWAP1 SSTORE POP JUMPDEST DUP2 PUSH20 0xFFFFFFFFFFFFFFFFFFFFFFFFFFFFFFFFFFFFFFFF AND DUP4 PUSH20 0xFFFFFFFFFFFFFFFFFFFFFFFFFFFFFFFFFFFFFFFF AND PUSH32 0xDDF252AD1BE2C89B69C2B068FC378DAA952BA7F163C4A11628F55A4DF523B3EF DUP4 PUSH1 0x40 MLOAD PUSH2 0x3855 SWAP2 SWAP1 PUSH2 0x39A9 JUMP JUMPDEST PUSH1 0x40 MLOAD DUP1 SWAP2 SUB SWAP1 LOG3 POP POP POP JUMP JUMPDEST PUSH0 DUP3 DUP3 MSTORE PUSH1 0x20 DUP3 ADD SWAP1 POP SWAP3 SWAP2 POP POP JUMP JUMPDEST PUSH32 0x4F6E6C7920726F757465722063616E2073656E64204554480000000000000000 PUSH0 DUP3 ADD MSTORE POP JUMP JUMPDEST PUSH0 PUSH2 0x38A6 PUSH1 0x18 DUP4 PUSH2 0x3862 JUMP JUMPDEST SWAP2 POP PUSH2 0x38B1 DUP3 PUSH2 0x3872 JUMP JUMPDEST PUSH1 0x20 DUP3 ADD SWAP1 POP SWAP2 SWAP1 POP JUMP JUMPDEST PUSH0 PUSH1 0x20 DUP3 ADD SWAP1 POP DUP2 DUP2 SUB PUSH0 DUP4 ADD MSTORE PUSH2 0x38D3 DUP2 PUSH2 0x389A JUMP JUMPDEST SWAP1 POP SWAP2 SWAP1 POP JUMP JUMPDEST PUSH0 DUP1 REVERT JUMPDEST PUSH0 PUSH32 0xFFFFFFFF00000000000000000000000000000000000000000000000000000000 DUP3 AND SWAP1 POP SWAP2 SWAP1 POP JUMP JUMPDEST PUSH2 0x3912 DUP2 PUSH2 0x38DE JUMP JUMPDEST DUP2 EQ PUSH2 0x391C JUMPI PUSH0 DUP1 REVERT JUMPDEST POP JUMP JUMPDEST PUSH0 DUP2 CALLDATALOAD SWAP1 POP PUSH2 0x392D DUP2 PUSH2 0x3909 JUMP JUMPDEST SWAP3 SWAP2 POP POP JUMP JUMPDEST PUSH0 PUSH1 0x20 DUP3 DUP5 SUB SLT ISZERO PUSH2 0x3948 JUMPI PUSH2 0x3947 PUSH2 0x38DA JUMP JUMPDEST JUMPDEST PUSH0 PUSH2 0x3955 DUP5 DUP3 DUP6 ADD PUSH2 0x391F JUMP JUMPDEST SWAP2 POP POP SWAP3 SWAP2 POP POP JUMP JUMPDEST PUSH0 DUP2 ISZERO ISZERO SWAP1 POP SWAP2 SWAP1 POP JUMP JUMPDEST PUSH2 0x3972 DUP2 PUSH2 0x395E JUMP JUMPDEST DUP3 MSTORE POP POP JUMP JUMPDEST PUSH0 PUSH1 0x20 DUP3 ADD SWAP1 POP PUSH2 0x398B PUSH0 DUP4 ADD DUP5 PUSH2 0x3969 JUMP JUMPDEST SWAP3 SWAP2 POP POP JUMP JUMPDEST PUSH0 DUP2 SWAP1 POP SWAP2 SWAP1 POP JUMP JUMPDEST PUSH2 0x39A3 DUP2 PUSH2 0x3991 JUMP JUMPDEST DUP3 MSTORE POP POP JUMP JUMPDEST PUSH0 PUSH1 0x20 DUP3 ADD SWAP1 POP PUSH2 0x39BC PUSH0 DUP4 ADD DUP5 PUSH2 0x399A JUMP JUMPDEST SWAP3 SWAP2 POP POP JUMP JUMPDEST PUSH0 DUP2 MLOAD SWAP1 POP SWAP2 SWAP1 POP JUMP JUMPDEST DUP3 DUP2 DUP4 MCOPY PUSH0 DUP4 DUP4 ADD MSTORE POP POP POP JUMP JUMPDEST PUSH0 PUSH1 0x1F NOT PUSH1 0x1F DUP4 ADD AND SWAP1 POP SWAP2 SWAP1 POP JUMP JUMPDEST PUSH0 PUSH2 0x39F4 DUP3 PUSH2 0x39C2 JUMP JUMPDEST PUSH2 0x39FE DUP2 DUP6 PUSH2 0x3862 JUMP JUMPDEST SWAP4 POP PUSH2 0x3A0E DUP2 DUP6 PUSH1 0x20 DUP7 ADD PUSH2 0x39CC JUMP JUMPDEST PUSH2 0x3A17 DUP2 PUSH2 0x39DA JUMP JUMPDEST DUP5 ADD SWAP2 POP POP SWAP3 SWAP2 POP POP JUMP JUMPDEST PUSH0 PUSH1 0x20 DUP3 ADD SWAP1 POP DUP2 DUP2 SUB PUSH0 DUP4 ADD MSTORE PUSH2 0x3A3A DUP2 DUP5 PUSH2 0x39EA JUMP JUMPDEST SWAP1 POP SWAP3 SWAP2 POP POP JUMP JUMPDEST PUSH0 PUSH20 0xFFFFFFFFFFFFFFFFFFFFFFFFFFFFFFFFFFFFFFFF DUP3 AND SWAP1 POP SWAP2 SWAP1 POP JUMP JUMPDEST PUSH0 PUSH2 0x3A6B DUP3 PUSH2 0x3A42 JUMP JUMPDEST SWAP1 POP SWAP2 SWAP1 POP JUMP JUMPDEST PUSH2 0x3A7B DUP2 PUSH2 0x3A61 JUMP JUMPDEST DUP2 EQ PUSH2 0x3A85 JUMPI PUSH0 DUP1 REVERT JUMPDEST POP JUMP JUMPDEST PUSH0 DUP2 CALLDATALOAD SWAP1 POP PUSH2 0x3A96 DUP2 PUSH2 0x3A72 JUMP JUMPDEST SWAP3 SWAP2 POP POP JUMP JUMPDEST PUSH2 0x3AA5 DUP2 PUSH2 0x3991 JUMP JUMPDEST DUP2 EQ PUSH2 0x3AAF JUMPI PUSH0 DUP1 REVERT JUMPDEST POP JUMP JUMPDEST PUSH0 DUP2 CALLDATALOAD SWAP1 POP PUSH2 0x3AC0 DUP2 PUSH2 0x3A9C JUMP JUMPDEST SWAP3 SWAP2 POP POP JUMP JUMPDEST PUSH0 DUP1 PUSH1 0x40 DUP4 DUP6 SUB SLT ISZERO PUSH2 0x3ADC JUMPI PUSH2 0x3ADB PUSH2 0x38DA JUMP JUMPDEST JUMPDEST PUSH0 PUSH2 0x3AE9 DUP6 DUP3 DUP7 ADD PUSH2 0x3A88 JUMP JUMPDEST SWAP3 POP POP PUSH1 0x20 PUSH2 0x3AFA DUP6 DUP3 DUP7 ADD PUSH2 0x3AB2 JUMP JUMPDEST SWAP2 POP POP SWAP3 POP SWAP3 SWAP1 POP JUMP JUMPDEST PUSH0 DUP1 PUSH0 PUSH1 0x60 DUP5 DUP7 SUB SLT ISZERO PUSH2 0x3B1B JUMPI PUSH2 0x3B1A PUSH2 0x38DA JUMP JUMPDEST JUMPDEST PUSH0 PUSH2 0x3B28 DUP7 DUP3 DUP8 ADD PUSH2 0x3A88 JUMP JUMPDEST SWAP4 POP POP PUSH1 0x20 PUSH2 0x3B39 DUP7 DUP3 DUP8 ADD PUSH2 0x3A88 JUMP JUMPDEST SWAP3 POP POP PUSH1 0x40 PUSH2 0x3B4A DUP7 DUP3 DUP8 ADD PUSH2 0x3AB2 JUMP JUMPDEST SWAP2 POP POP SWAP3 POP SWAP3 POP SWAP3 JUMP JUMPDEST PUSH0 DUP2 SWAP1 POP SWAP2 SWAP1 POP JUMP JUMPDEST PUSH2 0x3B66 DUP2 PUSH2 0x3B54 JUMP JUMPDEST DUP2 EQ PUSH2 0x3B70 JUMPI PUSH0 DUP1 REVERT JUMPDEST POP JUMP JUMPDEST PUSH0 DUP2 CALLDATALOAD SWAP1 POP PUSH2 0x3B81 DUP2 PUSH2 0x3B5D JUMP JUMPDEST SWAP3 SWAP2 POP POP JUMP JUMPDEST PUSH0 PUSH1 0x20 DUP3 DUP5 SUB SLT ISZERO PUSH2 0x3B9C JUMPI PUSH2 0x3B9B PUSH2 0x38DA JUMP JUMPDEST JUMPDEST PUSH0 PUSH2 0x3BA9 DUP5 DUP3 DUP6 ADD PUSH2 0x3B73 JUMP JUMPDEST SWAP2 POP POP SWAP3 SWAP2 POP POP JUMP JUMPDEST PUSH2 0x3BBB DUP2 PUSH2 0x3B54 JUMP JUMPDEST DUP3 MSTORE POP POP JUMP JUMPDEST PUSH0 PUSH1 0x20 DUP3 ADD SWAP1 POP PUSH2 0x3BD4 PUSH0 DUP4 ADD DUP5 PUSH2 0x3BB2 JUMP JUMPDEST SWAP3 SWAP2 POP POP JUMP JUMPDEST PUSH0 PUSH1 0x20 DUP3 DUP5 SUB SLT ISZERO PUSH2 0x3BEF JUMPI PUSH2 0x3BEE PUSH2 0x38DA JUMP JUMPDEST JUMPDEST PUSH0 PUSH2 0x3BFC DUP5 DUP3 DUP6 ADD PUSH2 0x3A88 JUMP JUMPDEST SWAP2 POP POP SWAP3 SWAP2 POP POP JUMP JUMPDEST PUSH0 DUP1 PUSH1 0x40 DUP4 DUP6 SUB SLT ISZERO PUSH2 0x3C1B JUMPI PUSH2 0x3C1A PUSH2 0x38DA JUMP JUMPDEST JUMPDEST PUSH0 PUSH2 0x3C28 DUP6 DUP3 DUP7 ADD PUSH2 0x3B73 JUMP JUMPDEST SWAP3 POP POP PUSH1 0x20 PUSH2 0x3C39 DUP6 DUP3 DUP7 ADD PUSH2 0x3A88 JUMP JUMPDEST SWAP2 POP POP SWAP3 POP SWAP3 SWAP1 POP JUMP JUMPDEST PUSH0 PUSH1 0xFF DUP3 AND SWAP1 POP SWAP2 SWAP1 POP JUMP JUMPDEST PUSH2 0x3C58 DUP2 PUSH2 0x3C43 JUMP JUMPDEST DUP3 MSTORE POP POP JUMP JUMPDEST PUSH0 PUSH1 0x20 DUP3 ADD SWAP1 POP PUSH2 0x3C71 PUSH0 DUP4 ADD DUP5 PUSH2 0x3C4F JUMP JUMPDEST SWAP3 SWAP2 POP POP JUMP JUMPDEST PUSH0 PUSH1 0x20 DUP3 DUP5 SUB SLT ISZERO PUSH2 0x3C8C JUMPI PUSH2 0x3C8B PUSH2 0x38DA JUMP JUMPDEST JUMPDEST PUSH0 PUSH2 0x3C99 DUP5 DUP3 DUP6 ADD PUSH2 0x3AB2 JUMP JUMPDEST SWAP2 POP POP SWAP3 SWAP2 POP POP JUMP JUMPDEST PUSH0 DUP2 SWAP1 POP SWAP2 SWAP1 POP JUMP JUMPDEST PUSH0 PUSH2 0x3CC5 PUSH2 0x3CC0 PUSH2 0x3CBB DUP5 PUSH2 0x3A42 JUMP JUMPDEST PUSH2 0x3CA2 JUMP JUMPDEST PUSH2 0x3A42 JUMP JUMPDEST SWAP1 POP SWAP2 SWAP1 POP JUMP JUMPDEST PUSH0 PUSH2 0x3CD6 DUP3 PUSH2 0x3CAB JUMP JUMPDEST SWAP1 POP SWAP2 SWAP1 POP JUMP JUMPDEST PUSH0 PUSH2 0x3CE7 DUP3 PUSH2 0x3CCC JUMP JUMPDEST SWAP1 POP SWAP2 SWAP1 POP JUMP JUMPDEST PUSH2 0x3CF7 DUP2 PUSH2 0x3CDD JUMP JUMPDEST DUP3 MSTORE POP POP JUMP JUMPDEST PUSH0 PUSH1 0x20 DUP3 ADD SWAP1 POP PUSH2 0x3D10 PUSH0 DUP4 ADD DUP5 PUSH2 0x3CEE JUMP JUMPDEST SWAP3 SWAP2 POP POP JUMP JUMPDEST PUSH0 PUSH2 0x3D20 DUP3 PUSH2 0x3CCC JUMP JUMPDEST SWAP1 POP SWAP2 SWAP1 POP JUMP JUMPDEST PUSH2 0x3D30 DUP2 PUSH2 0x3D16 JUMP JUMPDEST DUP3 MSTORE POP POP JUMP JUMPDEST PUSH0 PUSH1 0x20 DUP3 ADD SWAP1 POP PUSH2 0x3D49 PUSH0 DUP4 ADD DUP5 PUSH2 0x3D27 JUMP JUMPDEST SWAP3 SWAP2 POP POP JUMP JUMPDEST PUSH0 DUP1 PUSH1 0x40 DUP4 DUP6 SUB SLT ISZERO PUSH2 0x3D65 JUMPI PUSH2 0x3D64 PUSH2 0x38DA JUMP JUMPDEST JUMPDEST PUSH0 PUSH2 0x3D72 DUP6 DUP3 DUP7 ADD PUSH2 0x3AB2 JUMP JUMPDEST SWAP3 POP POP PUSH1 0x20 PUSH2 0x3D83 DUP6 DUP3 DUP7 ADD PUSH2 0x3AB2 JUMP JUMPDEST SWAP2 POP POP SWAP3 POP SWAP3 SWAP1 POP JUMP JUMPDEST PUSH2 0x3D96 DUP2 PUSH2 0x395E JUMP JUMPDEST DUP2 EQ PUSH2 0x3DA0 JUMPI PUSH0 DUP1 REVERT JUMPDEST POP JUMP JUMPDEST PUSH0 DUP2 CALLDATALOAD SWAP1 POP PUSH2 0x3DB1 DUP2 PUSH2 0x3D8D JUMP JUMPDEST SWAP3 SWAP2 POP POP JUMP JUMPDEST PUSH0 PUSH1 0x20 DUP3 DUP5 SUB SLT ISZERO PUSH2 0x3DCC JUMPI PUSH2 0x3DCB PUSH2 0x38DA JUMP JUMPDEST JUMPDEST PUSH0 PUSH2 0x3DD9 DUP5 DUP3 DUP6 ADD PUSH2 0x3DA3 JUMP JUMPDEST SWAP2 POP POP SWAP3 SWAP2 POP POP JUMP JUMPDEST PUSH2 0x3DEB DUP2 PUSH2 0x3A61 JUMP JUMPDEST DUP3 MSTORE POP POP JUMP JUMPDEST PUSH0 PUSH1 0x20 DUP3 ADD SWAP1 POP PUSH2 0x3E04 PUSH0 DUP4 ADD DUP5 PUSH2 0x3DE2 JUMP JUMPDEST SWAP3 SWAP2 POP POP JUMP JUMPDEST PUSH0 DUP1 PUSH1 0x40 DUP4 DUP6 SUB SLT ISZERO PUSH2 0x3E20 JUMPI PUSH2 0x3E1F PUSH2 0x38DA JUMP JUMPDEST JUMPDEST PUSH0 PUSH2 0x3E2D DUP6 DUP3 DUP7 ADD PUSH2 0x3A88 JUMP JUMPDEST SWAP3 POP POP PUSH1 0x20 PUSH2 0x3E3E DUP6 DUP3 DUP7 ADD PUSH2 0x3A88 JUMP JUMPDEST SWAP2 POP POP SWAP3 POP SWAP3 SWAP1 POP JUMP JUMPDEST PUSH32 0x4E487B7100000000000000000000000000000000000000000000000000000000 PUSH0 MSTORE PUSH1 0x22 PUSH1 0x4 MSTORE PUSH1 0x24 PUSH0 REVERT JUMPDEST PUSH0 PUSH1 0x2 DUP3 DIV SWAP1 POP PUSH1 0x1 DUP3 AND DUP1 PUSH2 0x3E8C JUMPI PUSH1 0x7F DUP3 AND SWAP2 POP JUMPDEST PUSH1 0x20 DUP3 LT DUP2 SUB PUSH2 0x3E9F JUMPI PUSH2 0x3E9E PUSH2 0x3E48 JUMP JUMPDEST JUMPDEST POP SWAP2 SWAP1 POP JUMP JUMPDEST PUSH32 0x45544820616D6F756E74206D7573742062652067726561746572207468616E20 PUSH0 DUP3 ADD MSTORE PUSH32 0x7A65726F00000000000000000000000000000000000000000000000000000000 PUSH1 0x20 DUP3 ADD MSTORE POP JUMP JUMPDEST PUSH0 PUSH2 0x3EFF PUSH1 0x24 DUP4 PUSH2 0x3862 JUMP JUMPDEST SWAP2 POP PUSH2 0x3F0A DUP3 PUSH2 0x3EA5 JUMP JUMPDEST PUSH1 0x40 DUP3 ADD SWAP1 POP SWAP2 SWAP1 POP JUMP JUMPDEST PUSH0 PUSH1 0x20 DUP3 ADD SWAP1 POP DUP2 DUP2 SUB PUSH0 DUP4 ADD MSTORE PUSH2 0x3F2C DUP2 PUSH2 0x3EF3 JUMP JUMPDEST SWAP1 POP SWAP2 SWAP1 POP JUMP JUMPDEST PUSH32 0x496E73756666696369656E7420746F6B656E2072657365727665000000000000 PUSH0 DUP3 ADD MSTORE POP JUMP JUMPDEST PUSH0 PUSH2 0x3F67 PUSH1 0x1A DUP4 PUSH2 0x3862 JUMP JUMPDEST SWAP2 POP PUSH2 0x3F72 DUP3 PUSH2 0x3F33 JUMP JUMPDEST PUSH1 0x20 DUP3 ADD SWAP1 POP SWAP2 SWAP1 POP JUMP JUMPDEST PUSH0 PUSH1 0x20 DUP3 ADD SWAP1 POP DUP2 DUP2 SUB PUSH0 DUP4 ADD MSTORE PUSH2 0x3F94 DUP2 PUSH2 0x3F5B JUMP JUMPDEST SWAP1 POP SWAP2 SWAP1 POP JUMP JUMPDEST PUSH32 0x4E487B7100000000000000000000000000000000000000000000000000000000 PUSH0 MSTORE PUSH1 0x11 PUSH1 0x4 MSTORE PUSH1 0x24 PUSH0 REVERT JUMPDEST PUSH0 PUSH2 0x3FD2 DUP3 PUSH2 0x3991 JUMP JUMPDEST SWAP2 POP PUSH2 0x3FDD DUP4 PUSH2 0x3991 JUMP JUMPDEST SWAP3 POP DUP3 DUP3 ADD SWAP1 POP DUP1 DUP3 GT ISZERO PUSH2 0x3FF5 JUMPI PUSH2 0x3FF4 PUSH2 0x3F9B JUMP JUMPDEST JUMPDEST SWAP3 SWAP2 POP POP JUMP JUMPDEST PUSH0 PUSH2 0x4005 DUP3 PUSH2 0x3991 JUMP JUMPDEST SWAP2 POP PUSH2 0x4010 DUP4 PUSH2 0x3991 JUMP JUMPDEST SWAP3 POP DUP3 DUP3 SUB SWAP1 POP DUP2 DUP2 GT ISZERO PUSH2 0x4028 JUMPI PUSH2 0x4027 PUSH2 0x3F9B JUMP JUMPDEST JUMPDEST SWAP3 SWAP2 POP POP JUMP JUMPDEST PUSH0 DUP2 PUSH1 0x1 SHR SWAP1 POP SWAP2 SWAP1 POP JUMP JUMPDEST PUSH0 DUP1 DUP3 SWAP2 POP DUP4 SWAP1 POP JUMPDEST PUSH1 0x1 DUP6 GT ISZERO PUSH2 0x4083 JUMPI DUP1 DUP7 DIV DUP2 GT ISZERO PUSH2 0x405F JUMPI PUSH2 0x405E PUSH2 0x3F9B JUMP JUMPDEST JUMPDEST PUSH1 0x1 DUP6 AND ISZERO PUSH2 0x406E JUMPI DUP1 DUP3 MUL SWAP2 POP JUMPDEST DUP1 DUP2 MUL SWAP1 POP PUSH2 0x407C DUP6 PUSH2 0x402E JUMP JUMPDEST SWAP5 POP PUSH2 0x4043 JUMP JUMPDEST SWAP5 POP SWAP5 SWAP3 POP POP POP JUMP JUMPDEST PUSH0 DUP3 PUSH2 0x409B JUMPI PUSH1 0x1 SWAP1 POP PUSH2 0x4156 JUMP JUMPDEST DUP2 PUSH2 0x40A8 JUMPI PUSH0 SWAP1 POP PUSH2 0x4156 JUMP JUMPDEST DUP2 PUSH1 0x1 DUP2 EQ PUSH2 0x40BE JUMPI PUSH1 0x2 DUP2 EQ PUSH2 0x40C8 JUMPI PUSH2 0x40F7 JUMP JUMPDEST PUSH1 0x1 SWAP2 POP POP PUSH2 0x4156 JUMP JUMPDEST PUSH1 0xFF DUP5 GT ISZERO PUSH2 0x40DA JUMPI PUSH2 0x40D9 PUSH2 0x3F9B JUMP JUMPDEST JUMPDEST DUP4 PUSH1 0x2 EXP SWAP2 POP DUP5 DUP3 GT ISZERO PUSH2 0x40F1 JUMPI PUSH2 0x40F0 PUSH2 0x3F9B JUMP JUMPDEST JUMPDEST POP PUSH2 0x4156 JUMP JUMPDEST POP PUSH1 0x20 DUP4 LT PUSH2 0x133 DUP4 LT AND PUSH1 0x4E DUP5 LT PUSH1 0xB DUP5 LT AND OR ISZERO PUSH2 0x412C JUMPI DUP3 DUP3 EXP SWAP1 POP DUP4 DUP2 GT ISZERO PUSH2 0x4127 JUMPI PUSH2 0x4126 PUSH2 0x3F9B JUMP JUMPDEST JUMPDEST PUSH2 0x4156 JUMP JUMPDEST PUSH2 0x4139 DUP5 DUP5 DUP5 PUSH1 0x1 PUSH2 0x403A JUMP JUMPDEST SWAP3 POP SWAP1 POP DUP2 DUP5 DIV DUP2 GT ISZERO PUSH2 0x4150 JUMPI PUSH2 0x414F PUSH2 0x3F9B JUMP JUMPDEST JUMPDEST DUP2 DUP2 MUL SWAP1 POP JUMPDEST SWAP4 SWAP3 POP POP POP JUMP JUMPDEST PUSH0 PUSH2 0x4167 DUP3 PUSH2 0x3991 JUMP JUMPDEST SWAP2 POP PUSH2 0x4172 DUP4 PUSH2 0x3C43 JUMP JUMPDEST SWAP3 POP PUSH2 0x419F PUSH32 0xFFFFFFFFFFFFFFFFFFFFFFFFFFFFFFFFFFFFFFFFFFFFFFFFFFFFFFFFFFFFFFFF DUP5 DUP5 PUSH2 0x408C JUMP JUMPDEST SWAP1 POP SWAP3 SWAP2 POP POP JUMP JUMPDEST PUSH0 PUSH2 0x41B1 DUP3 PUSH2 0x3991 JUMP JUMPDEST SWAP2 POP PUSH2 0x41BC DUP4 PUSH2 0x3991 JUMP JUMPDEST SWAP3 POP DUP3 DUP3 MUL PUSH2 0x41CA DUP2 PUSH2 0x3991 JUMP JUMPDEST SWAP2 POP DUP3 DUP3 DIV DUP5 EQ DUP4 ISZERO OR PUSH2 0x41E1 JUMPI PUSH2 0x41E0 PUSH2 0x3F9B JUMP JUMPDEST JUMPDEST POP SWAP3 SWAP2 POP POP JUMP JUMPDEST PUSH32 0x4E487B7100000000000000000000000000000000000000000000000000000000 PUSH0 MSTORE PUSH1 0x12 PUSH1 0x4 MSTORE PUSH1 0x24 PUSH0 REVERT JUMPDEST PUSH0 PUSH2 0x421F DUP3 PUSH2 0x3991 JUMP JUMPDEST SWAP2 POP PUSH2 0x422A DUP4 PUSH2 0x3991 JUMP JUMPDEST SWAP3 POP DUP3 PUSH2 0x423A JUMPI PUSH2 0x4239 PUSH2 0x41E8 JUMP JUMPDEST JUMPDEST DUP3 DUP3 DIV SWAP1 POP SWAP3 SWAP2 POP POP JUMP JUMPDEST PUSH32 0x546F6B656E20707572636861736520616D6F756E7420746F6F206C6F77000000 PUSH0 DUP3 ADD MSTORE POP JUMP JUMPDEST PUSH0 PUSH2 0x4279 PUSH1 0x1D DUP4 PUSH2 0x3862 JUMP JUMPDEST SWAP2 POP PUSH2 0x4284 DUP3 PUSH2 0x4245 JUMP JUMPDEST PUSH1 0x20 DUP3 ADD SWAP1 POP SWAP2 SWAP1 POP JUMP JUMPDEST PUSH0 PUSH1 0x20 DUP3 ADD SWAP1 POP DUP2 DUP2 SUB PUSH0 DUP4 ADD MSTORE PUSH2 0x42A6 DUP2 PUSH2 0x426D JUMP JUMPDEST SWAP1 POP SWAP2 SWAP1 POP JUMP JUMPDEST PUSH32 0x4E6F7420656E6F75676820746F6B656E7320696E207265736572766500000000 PUSH0 DUP3 ADD MSTORE POP JUMP JUMPDEST PUSH0 PUSH2 0x42E1 PUSH1 0x1C DUP4 PUSH2 0x3862 JUMP JUMPDEST SWAP2 POP PUSH2 0x42EC DUP3 PUSH2 0x42AD JUMP JUMPDEST PUSH1 0x20 DUP3 ADD SWAP1 POP SWAP2 SWAP1 POP JUMP JUMPDEST PUSH0 PUSH1 0x20 DUP3 ADD SWAP1 POP DUP2 DUP2 SUB PUSH0 DUP4 ADD MSTORE PUSH2 0x430E DUP2 PUSH2 0x42D5 JUMP JUMPDEST SWAP1 POP SWAP2 SWAP1 POP JUMP JUMPDEST PUSH32 0x4E6F744D69677261746564000000000000000000000000000000000000000000 PUSH0 DUP3 ADD MSTORE POP JUMP JUMPDEST PUSH0 PUSH2 0x4349 PUSH1 0xB DUP4 PUSH2 0x3862 JUMP JUMPDEST SWAP2 POP PUSH2 0x4354 DUP3 PUSH2 0x4315 JUMP JUMPDEST PUSH1 0x20 DUP3 ADD SWAP1 POP SWAP2 SWAP1 POP JUMP JUMPDEST PUSH0 PUSH1 0x20 DUP3 ADD SWAP1 POP DUP2 DUP2 SUB PUSH0 DUP4 ADD MSTORE PUSH2 0x4376 DUP2 PUSH2 0x433D JUMP JUMPDEST SWAP1 POP SWAP2 SWAP1 POP JUMP JUMPDEST PUSH32 0x496E73756666696369656E7442616C616E636500000000000000000000000000 PUSH0 DUP3 ADD MSTORE POP JUMP JUMPDEST PUSH0 PUSH2 0x43B1 PUSH1 0x13 DUP4 PUSH2 0x3862 JUMP JUMPDEST SWAP2 POP PUSH2 0x43BC DUP3 PUSH2 0x437D JUMP JUMPDEST PUSH1 0x20 DUP3 ADD SWAP1 POP SWAP2 SWAP1 POP JUMP JUMPDEST PUSH0 PUSH1 0x20 DUP3 ADD SWAP1 POP DUP2 DUP2 SUB PUSH0 DUP4 ADD MSTORE PUSH2 0x43DE DUP2 PUSH2 0x43A5 JUMP JUMPDEST SWAP1 POP SWAP2 SWAP1 POP JUMP JUMPDEST PUSH0 DUP2 SWAP1 POP SWAP3 SWAP2 POP POP JUMP JUMPDEST POP JUMP JUMPDEST PUSH0 PUSH2 0x43FD PUSH0 DUP4 PUSH2 0x43E5 JUMP JUMPDEST SWAP2 POP PUSH2 0x4408 DUP3 PUSH2 0x43EF JUMP JUMPDEST PUSH0 DUP3 ADD SWAP1 POP SWAP2 SWAP1 POP JUMP JUMPDEST PUSH0 PUSH2 0x441C DUP3 PUSH2 0x43F2 JUMP JUMPDEST SWAP2 POP DUP2 SWAP1 POP SWAP2 SWAP1 POP JUMP JUMPDEST PUSH32 0x5472616E736665724661696C6564000000000000000000000000000000000000 PUSH0 DUP3 ADD MSTORE POP JUMP JUMPDEST PUSH0 PUSH2 0x445A PUSH1 0xE DUP4 PUSH2 0x3862 JUMP JUMPDEST SWAP2 POP PUSH2 0x4465 DUP3 PUSH2 0x4426 JUMP JUMPDEST PUSH1 0x20 DUP3 ADD SWAP1 POP SWAP2 SWAP1 POP JUMP JUMPDEST PUSH0 PUSH1 0x20 DUP3 ADD SWAP1 POP DUP2 DUP2 SUB PUSH0 DUP4 ADD MSTORE PUSH2 0x4487 DUP2 PUSH2 0x444E JUMP JUMPDEST SWAP1 POP SWAP2 SWAP1 POP JUMP JUMPDEST PUSH32 0x546F6B656E20616D6F756E74206D757374206265206772656174657220746861 PUSH0 DUP3 ADD MSTORE PUSH32 0x6E207A65726F0000000000000000000000000000000000000000000000000000 PUSH1 0x20 DUP3 ADD MSTORE POP JUMP JUMPDEST PUSH0 PUSH2 0x44E8 PUSH1 0x26 DUP4 PUSH2 0x3862 JUMP JUMPDEST SWAP2 POP PUSH2 0x44F3 DUP3 PUSH2 0x448E JUMP JUMPDEST PUSH1 0x40 DUP3 ADD SWAP1 POP SWAP2 SWAP1 POP JUMP JUMPDEST PUSH0 PUSH1 0x20 DUP3 ADD SWAP1 POP DUP2 DUP2 SUB PUSH0 DUP4 ADD MSTORE PUSH2 0x4515 DUP2 PUSH2 0x44DC JUMP JUMPDEST SWAP1 POP SWAP2 SWAP1 POP JUMP JUMPDEST PUSH32 0x496E73756666696369656E7420636F6E74726163742062616C616E6365000000 PUSH0 DUP3 ADD MSTORE POP JUMP JUMPDEST PUSH0 PUSH2 0x4550 PUSH1 0x1D DUP4 PUSH2 0x3862 JUMP JUMPDEST SWAP2 POP PUSH2 0x455B DUP3 PUSH2 0x451C JUMP JUMPDEST PUSH1 0x20 DUP3 ADD SWAP1 POP SWAP2 SWAP1 POP JUMP JUMPDEST PUSH0 PUSH1 0x20 DUP3 ADD SWAP1 POP DUP2 DUP2 SUB PUSH0 DUP4 ADD MSTORE PUSH2 0x457D DUP2 PUSH2 0x4544 JUMP JUMPDEST SWAP1 POP SWAP2 SWAP1 POP JUMP JUMPDEST PUSH32 0x455448207472616E73666572206661696C656400000000000000000000000000 PUSH0 DUP3 ADD MSTORE POP JUMP JUMPDEST PUSH0 PUSH2 0x45B8 PUSH1 0x13 DUP4 PUSH2 0x3862 JUMP JUMPDEST SWAP2 POP PUSH2 0x45C3 DUP3 PUSH2 0x4584 JUMP JUMPDEST PUSH1 0x20 DUP3 ADD SWAP1 POP SWAP2 SWAP1 POP JUMP JUMPDEST PUSH0 PUSH1 0x20 DUP3 ADD SWAP1 POP DUP2 DUP2 SUB PUSH0 DUP4 ADD MSTORE PUSH2 0x45E5 DUP2 PUSH2 0x45AC JUMP JUMPDEST SWAP1 POP SWAP2 SWAP1 POP JUMP JUMPDEST PUSH32 0x416C72656164794D696772617465640000000000000000000000000000000000 PUSH0 DUP3 ADD MSTORE POP JUMP JUMPDEST PUSH0 PUSH2 0x4620 PUSH1 0xF DUP4 PUSH2 0x3862 JUMP JUMPDEST SWAP2 POP PUSH2 0x462B DUP3 PUSH2 0x45EC JUMP JUMPDEST PUSH1 0x20 DUP3 ADD SWAP1 POP SWAP2 SWAP1 POP JUMP JUMPDEST PUSH0 PUSH1 0x20 DUP3 ADD SWAP1 POP DUP2 DUP2 SUB PUSH0 DUP4 ADD MSTORE PUSH2 0x464D DUP2 PUSH2 0x4614 JUMP JUMPDEST SWAP1 POP SWAP2 SWAP1 POP JUMP JUMPDEST PUSH32 0x4578636565646564526174654C696D6974000000000000000000000000000000 PUSH0 DUP3 ADD MSTORE POP JUMP JUMPDEST PUSH0 PUSH2 0x4688 PUSH1 0x11 DUP4 PUSH2 0x3862 JUMP JUMPDEST SWAP2 POP PUSH2 0x4693 DUP3 PUSH2 0x4654 JUMP JUMPDEST PUSH1 0x20 DUP3 ADD SWAP1 POP SWAP2 SWAP1 POP JUMP JUMPDEST PUSH0 PUSH1 0x20 DUP3 ADD SWAP1 POP DUP2 DUP2 SUB PUSH0 DUP4 ADD MSTORE PUSH2 0x46B5 DUP2 PUSH2 0x467C JUMP JUMPDEST SWAP1 POP SWAP2 SWAP1 POP JUMP JUMPDEST PUSH32 0x416D6F756E7420746F6F204C6F77000000000000000000000000000000000000 PUSH0 DUP3 ADD MSTORE POP JUMP JUMPDEST PUSH0 PUSH2 0x46F0 PUSH1 0xE DUP4 PUSH2 0x3862 JUMP JUMPDEST SWAP2 POP PUSH2 0x46FB DUP3 PUSH2 0x46BC JUMP JUMPDEST PUSH1 0x20 DUP3 ADD SWAP1 POP SWAP2 SWAP1 POP JUMP JUMPDEST PUSH0 PUSH1 0x20 DUP3 ADD SWAP1 POP DUP2 DUP2 SUB PUSH0 DUP4 ADD MSTORE PUSH2 0x471D DUP2 PUSH2 0x46E4 JUMP JUMPDEST SWAP1 POP SWAP2 SWAP1 POP JUMP JUMPDEST PUSH32 0x416D6F756E742065786365656473206C696D6974000000000000000000000000 PUSH0 DUP3 ADD MSTORE POP JUMP JUMPDEST PUSH0 PUSH2 0x4758 PUSH1 0x14 DUP4 PUSH2 0x3862 JUMP JUMPDEST SWAP2 POP PUSH2 0x4763 DUP3 PUSH2 0x4724 JUMP JUMPDEST PUSH1 0x20 DUP3 ADD SWAP1 POP SWAP2 SWAP1 POP JUMP JUMPDEST PUSH0 PUSH1 0x20 DUP3 ADD SWAP1 POP DUP2 DUP2 SUB PUSH0 DUP4 ADD MSTORE PUSH2 0x4785 DUP2 PUSH2 0x474C JUMP JUMPDEST SWAP1 POP SWAP2 SWAP1 POP JUMP JUMPDEST PUSH32 0x496E76616C6964416D6F756E7400000000000000000000000000000000000000 PUSH0 DUP3 ADD MSTORE POP JUMP JUMPDEST PUSH0 PUSH2 0x47C0 PUSH1 0xD DUP4 PUSH2 0x3862 JUMP JUMPDEST SWAP2 POP PUSH2 0x47CB DUP3 PUSH2 0x478C JUMP JUMPDEST PUSH1 0x20 DUP3 ADD SWAP1 POP SWAP2 SWAP1 POP JUMP JUMPDEST PUSH0 PUSH1 0x20 DUP3 ADD SWAP1 POP DUP2 DUP2 SUB PUSH0 DUP4 ADD MSTORE PUSH2 0x47ED DUP2 PUSH2 0x47B4 JUMP JUMPDEST SWAP1 POP SWAP2 SWAP1 POP JUMP JUMPDEST PUSH32 0x5075726368617365206578636565647320616C6C6F776564206C696D69740000 PUSH0 DUP3 ADD MSTORE POP JUMP JUMPDEST PUSH0 PUSH2 0x4828 PUSH1 0x1E DUP4 PUSH2 0x3862 JUMP JUMPDEST SWAP2 POP PUSH2 0x4833 DUP3 PUSH2 0x47F4 JUMP JUMPDEST PUSH1 0x20 DUP3 ADD SWAP1 POP SWAP2 SWAP1 POP JUMP JUMPDEST PUSH0 PUSH1 0x20 DUP3 ADD SWAP1 POP DUP2 DUP2 SUB PUSH0 DUP4 ADD MSTORE PUSH2 0x4855 DUP2 PUSH2 0x481C JUMP JUMPDEST SWAP1 POP SWAP2 SWAP1 POP JUMP JUMPDEST PUSH32 0x416D6F756E74206578636565647320746F74616C737570706C79000000000000 PUSH0 DUP3 ADD MSTORE POP JUMP JUMPDEST PUSH0 PUSH2 0x4890 PUSH1 0x1A DUP4 PUSH2 0x3862 JUMP JUMPDEST SWAP2 POP PUSH2 0x489B DUP3 PUSH2 0x485C JUMP JUMPDEST PUSH1 0x20 DUP3 ADD SWAP1 POP SWAP2 SWAP1 POP JUMP JUMPDEST PUSH0 PUSH1 0x20 DUP3 ADD SWAP1 POP DUP2 DUP2 SUB PUSH0 DUP4 ADD MSTORE PUSH2 0x48BD DUP2 PUSH2 0x4884 JUMP JUMPDEST SWAP1 POP SWAP2 SWAP1 POP JUMP JUMPDEST PUSH32 0x416D6F756E74206578636565647320707269636520496D617063740000000000 PUSH0 DUP3 ADD MSTORE POP JUMP JUMPDEST PUSH0 PUSH2 0x48F8 PUSH1 0x1B DUP4 PUSH2 0x3862 JUMP JUMPDEST SWAP2 POP PUSH2 0x4903 DUP3 PUSH2 0x48C4 JUMP JUMPDEST PUSH1 0x20 DUP3 ADD SWAP1 POP SWAP2 SWAP1 POP JUMP JUMPDEST PUSH0 PUSH1 0x20 DUP3 ADD SWAP1 POP DUP2 DUP2 SUB PUSH0 DUP4 ADD MSTORE PUSH2 0x4925 DUP2 PUSH2 0x48EC JUMP JUMPDEST SWAP1 POP SWAP2 SWAP1 POP JUMP JUMPDEST PUSH0 PUSH1 0x40 DUP3 ADD SWAP1 POP PUSH2 0x493F PUSH0 DUP4 ADD DUP6 PUSH2 0x399A JUMP JUMPDEST PUSH2 0x494C PUSH1 0x20 DUP4 ADD DUP5 PUSH2 0x399A JUMP JUMPDEST SWAP4 SWAP3 POP POP POP JUMP JUMPDEST PUSH32 0x456D657267656E6379206D6F6465206E6F742061637469766500000000000000 PUSH0 DUP3 ADD MSTORE POP JUMP JUMPDEST PUSH0 PUSH2 0x4987 PUSH1 0x19 DUP4 PUSH2 0x3862 JUMP JUMPDEST SWAP2 POP PUSH2 0x4992 DUP3 PUSH2 0x4953 JUMP JUMPDEST PUSH1 0x20 DUP3 ADD SWAP1 POP SWAP2 SWAP1 POP JUMP JUMPDEST PUSH0 PUSH1 0x20 DUP3 ADD SWAP1 POP DUP2 DUP2 SUB PUSH0 DUP4 ADD MSTORE PUSH2 0x49B4 DUP2 PUSH2 0x497B JUMP JUMPDEST SWAP1 POP SWAP2 SWAP1 POP JUMP JUMPDEST PUSH32 0x4E6F2045544820746F2077697468647261770000000000000000000000000000 PUSH0 DUP3 ADD MSTORE POP JUMP JUMPDEST PUSH0 PUSH2 0x49EF PUSH1 0x12 DUP4 PUSH2 0x3862 JUMP JUMPDEST SWAP2 POP PUSH2 0x49FA DUP3 PUSH2 0x49BB JUMP JUMPDEST PUSH1 0x20 DUP3 ADD SWAP1 POP SWAP2 SWAP1 POP JUMP JUMPDEST PUSH0 PUSH1 0x20 DUP3 ADD SWAP1 POP DUP2 DUP2 SUB PUSH0 DUP4 ADD MSTORE PUSH2 0x4A1C DUP2 PUSH2 0x49E3 JUMP JUMPDEST SWAP1 POP SWAP2 SWAP1 POP JUMP JUMPDEST PUSH0 PUSH1 0x60 DUP3 ADD SWAP1 POP PUSH2 0x4A36 PUSH0 DUP4 ADD DUP7 PUSH2 0x3DE2 JUMP JUMPDEST PUSH2 0x4A43 PUSH1 0x20 DUP4 ADD DUP6 PUSH2 0x399A JUMP JUMPDEST PUSH2 0x4A50 PUSH1 0x40 DUP4 ADD DUP5 PUSH2 0x399A JUMP JUMPDEST SWAP5 SWAP4 POP POP POP POP JUMP JUMPDEST PUSH32 0x6C6F6742617365323A20556E646566696E656420666F72207A65726F00000000 PUSH0 DUP3 ADD MSTORE POP JUMP JUMPDEST PUSH0 PUSH2 0x4A8C PUSH1 0x1C DUP4 PUSH2 0x3862 JUMP JUMPDEST SWAP2 POP PUSH2 0x4A97 DUP3 PUSH2 0x4A58 JUMP JUMPDEST PUSH1 0x20 DUP3 ADD SWAP1 POP SWAP2 SWAP1 POP JUMP JUMPDEST PUSH0 PUSH1 0x20 DUP3 ADD SWAP1 POP DUP2 DUP2 SUB PUSH0 DUP4 ADD MSTORE PUSH2 0x4AB9 DUP2 PUSH2 0x4A80 JUMP JUMPDEST SWAP1 POP SWAP2 SWAP1 POP JUMP JUMPDEST PUSH0 PUSH2 0x4ACA DUP3 PUSH2 0x3991 JUMP JUMPDEST SWAP2 POP PUSH2 0x4AD5 DUP4 PUSH2 0x3991 JUMP JUMPDEST SWAP3 POP PUSH2 0x4B02 PUSH32 0xFFFFFFFFFFFFFFFFFFFFFFFFFFFFFFFFFFFFFFFFFFFFFFFFFFFFFFFFFFFFFFFF DUP5 DUP5 PUSH2 0x408C JUMP JUMPDEST SWAP1 POP SWAP3 SWAP2 POP POP JUMP JUMPDEST PUSH32 0x416C72656164794D696772617465642829000000000000000000000000000000 PUSH0 DUP3 ADD MSTORE POP JUMP JUMPDEST PUSH0 PUSH2 0x4B3E PUSH1 0x11 DUP4 PUSH2 0x3862 JUMP JUMPDEST SWAP2 POP PUSH2 0x4B49 DUP3 PUSH2 0x4B0A JUMP JUMPDEST PUSH1 0x20 DUP3 ADD SWAP1 POP SWAP2 SWAP1 POP JUMP JUMPDEST PUSH0 PUSH1 0x20 DUP3 ADD SWAP1 POP DUP2 DUP2 SUB PUSH0 DUP4 ADD MSTORE PUSH2 0x4B6B DUP2 PUSH2 0x4B32 JUMP JUMPDEST SWAP1 POP SWAP2 SWAP1 POP JUMP JUMPDEST PUSH32 0x4D6967726174696F6E546872657368486F6C644E6F744D657428290000000000 PUSH0 DUP3 ADD MSTORE POP JUMP JUMPDEST PUSH0 PUSH2 0x4BA6 PUSH1 0x1B DUP4 PUSH2 0x3862 JUMP JUMPDEST SWAP2 POP PUSH2 0x4BB1 DUP3 PUSH2 0x4B72 JUMP JUMPDEST PUSH1 0x20 DUP3 ADD SWAP1 POP SWAP2 SWAP1 POP JUMP JUMPDEST PUSH0 PUSH1 0x20 DUP3 ADD SWAP1 POP DUP2 DUP2 SUB PUSH0 DUP4 ADD MSTORE PUSH2 0x4BD3 DUP2 PUSH2 0x4B9A JUMP JUMPDEST SWAP1 POP SWAP2 SWAP1 POP JUMP JUMPDEST PUSH32 0x5A65726F20746F6B656E20726573657276650000000000000000000000000000 PUSH0 DUP3 ADD MSTORE POP JUMP JUMPDEST PUSH0 PUSH2 0x4C0E PUSH1 0x12 DUP4 PUSH2 0x3862 JUMP JUMPDEST SWAP2 POP PUSH2 0x4C19 DUP3 PUSH2 0x4BDA JUMP JUMPDEST PUSH1 0x20 DUP3 ADD SWAP1 POP SWAP2 SWAP1 POP JUMP JUMPDEST PUSH0 PUSH1 0x20 DUP3 ADD SWAP1 POP DUP2 DUP2 SUB PUSH0 DUP4 ADD MSTORE PUSH2 0x4C3B DUP2 PUSH2 0x4C02 JUMP JUMPDEST SWAP1 POP SWAP2 SWAP1 POP JUMP JUMPDEST PUSH32 0x496E76616C696420707269636500000000000000000000000000000000000000 PUSH0 DUP3 ADD MSTORE POP JUMP JUMPDEST PUSH0 PUSH2 0x4C76 PUSH1 0xD DUP4 PUSH2 0x3862 JUMP JUMPDEST SWAP2 POP PUSH2 0x4C81 DUP3 PUSH2 0x4C42 JUMP JUMPDEST PUSH1 0x20 DUP3 ADD SWAP1 POP SWAP2 SWAP1 POP JUMP JUMPDEST PUSH0 PUSH1 0x20 DUP3 ADD SWAP1 POP DUP2 DUP2 SUB PUSH0 DUP4 ADD MSTORE PUSH2 0x4CA3 DUP2 PUSH2 0x4C6A JUMP JUMPDEST SWAP1 POP SWAP2 SWAP1 POP JUMP JUMPDEST PUSH32 0x496E76616C6964206D6967726174696F6E20616D6F756E740000000000000000 PUSH0 DUP3 ADD MSTORE POP JUMP JUMPDEST PUSH0 PUSH2 0x4CDE PUSH1 0x18 DUP4 PUSH2 0x3862 JUMP JUMPDEST SWAP2 POP PUSH2 0x4CE9 DUP3 PUSH2 0x4CAA JUMP JUMPDEST PUSH1 0x20 DUP3 ADD SWAP1 POP SWAP2 SWAP1 POP JUMP JUMPDEST PUSH0 PUSH1 0x20 DUP3 ADD SWAP1 POP DUP2 DUP2 SUB PUSH0 DUP4 ADD MSTORE PUSH2 0x4D0B DUP2 PUSH2 0x4CD2 JUMP JUMPDEST SWAP1 POP SWAP2 SWAP1 POP JUMP JUMPDEST PUSH0 DUP2 MLOAD SWAP1 POP PUSH2 0x4D20 DUP2 PUSH2 0x3A9C JUMP JUMPDEST SWAP3 SWAP2 POP POP JUMP JUMPDEST PUSH0 PUSH1 0x20 DUP3 DUP5 SUB SLT ISZERO PUSH2 0x4D3B JUMPI PUSH2 0x4D3A PUSH2 0x38DA JUMP JUMPDEST JUMPDEST PUSH0 PUSH2 0x4D48 DUP5 DUP3 DUP6 ADD PUSH2 0x4D12 JUMP JUMPDEST SWAP2 POP POP SWAP3 SWAP2 POP POP JUMP JUMPDEST PUSH0 PUSH1 0xC0 DUP3 ADD SWAP1 POP PUSH2 0x4D64 PUSH0 DUP4 ADD DUP10 PUSH2 0x3DE2 JUMP JUMPDEST PUSH2 0x4D71 PUSH1 0x20 DUP4 ADD DUP9 PUSH2 0x399A JUMP JUMPDEST PUSH2 0x4D7E PUSH1 0x40 DUP4 ADD DUP8 PUSH2 0x399A JUMP JUMPDEST PUSH2 0x4D8B PUSH1 0x60 DUP4 ADD DUP7 PUSH2 0x399A JUMP JUMPDEST PUSH2 0x4D98 PUSH1 0x80 DUP4 ADD DUP6 PUSH2 0x3DE2 JUMP JUMPDEST PUSH2 0x4DA5 PUSH1 0xA0 DUP4 ADD DUP5 PUSH2 0x399A JUMP JUMPDEST SWAP8 SWAP7 POP POP POP POP POP POP POP JUMP JUMPDEST PUSH0 DUP1 PUSH0 PUSH1 0x60 DUP5 DUP7 SUB SLT ISZERO PUSH2 0x4DC7 JUMPI PUSH2 0x4DC6 PUSH2 0x38DA JUMP JUMPDEST JUMPDEST PUSH0 PUSH2 0x4DD4 DUP7 DUP3 DUP8 ADD PUSH2 0x4D12 JUMP JUMPDEST SWAP4 POP POP PUSH1 0x20 PUSH2 0x4DE5 DUP7 DUP3 DUP8 ADD PUSH2 0x4D12 JUMP JUMPDEST SWAP3 POP POP PUSH1 0x40 PUSH2 0x4DF6 DUP7 DUP3 DUP8 ADD PUSH2 0x4D12 JUMP JUMPDEST SWAP2 POP POP SWAP3 POP SWAP3 POP SWAP3 JUMP JUMPDEST PUSH32 0x4D6967726174696F6E206661696C656400000000000000000000000000000000 PUSH0 DUP3 ADD MSTORE POP JUMP JUMPDEST PUSH0 PUSH2 0x4E34 PUSH1 0x10 DUP4 PUSH2 0x3862 JUMP JUMPDEST SWAP2 POP PUSH2 0x4E3F DUP3 PUSH2 0x4E00 JUMP JUMPDEST PUSH1 0x20 DUP3 ADD SWAP1 POP SWAP2 SWAP1 POP JUMP JUMPDEST PUSH0 PUSH1 0x20 DUP3 ADD SWAP1 POP DUP2 DUP2 SUB PUSH0 DUP4 ADD MSTORE PUSH2 0x4E61 DUP2 PUSH2 0x4E28 JUMP JUMPDEST SWAP1 POP SWAP2 SWAP1 POP JUMP JUMPDEST PUSH32 0x546F6B656E2062616C616E6365206D616E6970756C6174656400000000000000 PUSH0 DUP3 ADD MSTORE POP JUMP JUMPDEST PUSH0 PUSH2 0x4E9C PUSH1 0x19 DUP4 PUSH2 0x3862 JUMP JUMPDEST SWAP2 POP PUSH2 0x4EA7 DUP3 PUSH2 0x4E68 JUMP JUMPDEST PUSH1 0x20 DUP3 ADD SWAP1 POP SWAP2 SWAP1 POP JUMP JUMPDEST PUSH0 PUSH1 0x20 DUP3 ADD SWAP1 POP DUP2 DUP2 SUB PUSH0 DUP4 ADD MSTORE PUSH2 0x4EC9 DUP2 PUSH2 0x4E90 JUMP JUMPDEST SWAP1 POP SWAP2 SWAP1 POP JUMP JUMPDEST PUSH0 DUP2 MLOAD SWAP1 POP PUSH2 0x4EDE DUP2 PUSH2 0x3A72 JUMP JUMPDEST SWAP3 SWAP2 POP POP JUMP JUMPDEST PUSH0 PUSH1 0x20 DUP3 DUP5 SUB SLT ISZERO PUSH2 0x4EF9 JUMPI PUSH2 0x4EF8 PUSH2 0x38DA JUMP JUMPDEST JUMPDEST PUSH0 PUSH2 0x4F06 DUP5 DUP3 DUP6 ADD PUSH2 0x4ED0 JUMP JUMPDEST SWAP2 POP POP SWAP3 SWAP2 POP POP JUMP JUMPDEST PUSH0 PUSH1 0x40 DUP3 ADD SWAP1 POP PUSH2 0x4F22 PUSH0 DUP4 ADD DUP6 PUSH2 0x3DE2 JUMP JUMPDEST PUSH2 0x4F2F PUSH1 0x20 DUP4 ADD DUP5 PUSH2 0x3DE2 JUMP JUMPDEST SWAP4 SWAP3 POP POP POP JUMP JUMPDEST PUSH0 PUSH1 0x60 DUP3 ADD SWAP1 POP PUSH2 0x4F49 PUSH0 DUP4 ADD DUP7 PUSH2 0x399A JUMP JUMPDEST PUSH2 0x4F56 PUSH1 0x20 DUP4 ADD DUP6 PUSH2 0x399A JUMP JUMPDEST PUSH2 0x4F63 PUSH1 0x40 DUP4 ADD DUP5 PUSH2 0x3DE2 JUMP JUMPDEST SWAP5 SWAP4 POP POP POP POP JUMP JUMPDEST PUSH0 PUSH1 0x40 DUP3 ADD SWAP1 POP PUSH2 0x4F7E PUSH0 DUP4 ADD DUP6 PUSH2 0x3DE2 JUMP JUMPDEST PUSH2 0x4F8B PUSH1 0x20 DUP4 ADD DUP5 PUSH2 0x3BB2 JUMP JUMPDEST SWAP4 SWAP3 POP POP POP JUMP INVALID LOG2 PUSH5 0x6970667358 0x22 SLT KECCAK256 TLOAD LOG1 PUSH12 0x38FCC0C8630F4C2532CCE98A CODECOPY 0xD5 PUSH25 0x2AC9830E631C914E70431A949E4064736F6C634300081A0033 "
		},
		"gasEstimates": {
			"creation": {
				"codeDepositCost": "4084800",
				"executionCost": "infinite",
				"totalCost": "infinite"
			},
			"external": {
				"ADMIN_ROLE()": "415",
				"DEFAULT_ADMIN_ROLE()": "441",
				"INITIAL_VIRTUAL_ETH_RESERVE()": "394",
				"INITIAL_VIRTUAL_TOKEN_RESERVE()": "392",
				"MAX_ACTIONS_IN_INTERVAL()": "436",
				"MAX_PURCHASE()": "371",
				"MIGRATION_FEE()": "480",
				"MIGRATION_THRESHOLD()": "482",
				"MIN_PURCHASE()": "480",
				"OPERATOR_ROLE()": "457",
				"PRICE_IMPACT_LIMIT()": "458",
				"RATE_LIMIT_INTERVAL()": "393",
				"TOTAL_SUPPLY()": "370",
				"actionCounter(address)": "2869",
				"allowance(address,address)": "infinite",
				"approve(address,uint256)": "infinite",
				"balanceOf(address)": "2940",
				"buy()": "infinite",
				"calculatePriceImpact(uint256,uint256)": "infinite",
				"calculatePurchaseReturn(uint256)": "infinite",
				"calculateSaleReturn(uint256)": "infinite",
				"decimals()": "406",
				"emergencyMode()": "2630",
				"emergencyWithdraw()": "infinite",
				"getRoleAdmin(bytes32)": "infinite",
				"grantRole(bytes32,address)": "infinite",
				"hasRole(bytes32,address)": "3189",
				"lastActionTime(address)": "2936",
				"lastActionTimestamp()": "2513",
				"migrated()": "2622",
				"name()": "infinite",
				"paused()": "2563",
				"pendingWithdrawals(address)": "2939",
				"renounceRole(bytes32,address)": "infinite",
				"revokeRole(bytes32,address)": "infinite",
				"sell(uint256)": "infinite",
				"setEmergencyMode(bool)": "infinite",
				"supportsInterface(bytes4)": "764",
				"symbol()": "infinite",
				"totalCollectedETH()": "2537",
				"totalSupply()": "2478",
				"transfer(address,uint256)": "infinite",
				"transferFrom(address,address,uint256)": "infinite",
				"uniswapFactory()": "infinite",
				"uniswapPair()": "2641",
				"uniswapRouter()": "infinite",
				"virtualEthReserve()": "2493",
				"virtualTokenReserve()": "2537",
				"withdrawFees()": "infinite",
				"withdrawPendingPayments()": "infinite"
			},
			"internal": {
				"_queueWithdrawal(address,uint256)": "infinite",
				"_update(address,address,uint256)": "infinite",
				"logBase2(uint256)": "infinite",
				"migrateToUniswap()": "infinite"
			}
		},
		"methodIdentifiers": {
			"ADMIN_ROLE()": "75b238fc",
			"DEFAULT_ADMIN_ROLE()": "a217fddf",
			"INITIAL_VIRTUAL_ETH_RESERVE()": "027fb5b1",
			"INITIAL_VIRTUAL_TOKEN_RESERVE()": "b6628a4d",
			"MAX_ACTIONS_IN_INTERVAL()": "c2d0c2ff",
			"MAX_PURCHASE()": "7146bd08",
			"MIGRATION_FEE()": "a82b4d43",
			"MIGRATION_THRESHOLD()": "150ee883",
			"MIN_PURCHASE()": "d439390c",
			"OPERATOR_ROLE()": "f5b541a6",
			"PRICE_IMPACT_LIMIT()": "70db45d7",
			"RATE_LIMIT_INTERVAL()": "200e0ac8",
			"TOTAL_SUPPLY()": "902d55a5",
			"actionCounter(address)": "5d279f70",
			"allowance(address,address)": "dd62ed3e",
			"approve(address,uint256)": "095ea7b3",
			"balanceOf(address)": "70a08231",
			"buy()": "a6f2ae3a",
			"calculatePriceImpact(uint256,uint256)": "8e81c731",
			"calculatePurchaseReturn(uint256)": "322d2100",
			"calculateSaleReturn(uint256)": "69fcd4ac",
			"decimals()": "313ce567",
			"emergencyMode()": "0905f560",
			"emergencyWithdraw()": "db2e21bc",
			"getRoleAdmin(bytes32)": "248a9ca3",
			"grantRole(bytes32,address)": "2f2ff15d",
			"hasRole(bytes32,address)": "91d14854",
			"lastActionTime(address)": "27f0bfd6",
			"lastActionTimestamp()": "eac697c9",
			"migrated()": "2c678c64",
			"name()": "06fdde03",
			"paused()": "5c975abb",
			"pendingWithdrawals(address)": "f3f43703",
			"renounceRole(bytes32,address)": "36568abe",
			"revokeRole(bytes32,address)": "d547741f",
			"sell(uint256)": "e4849b32",
			"setEmergencyMode(bool)": "be32b3f8",
			"supportsInterface(bytes4)": "01ffc9a7",
			"symbol()": "95d89b41",
			"totalCollectedETH()": "5d202249",
			"totalSupply()": "18160ddd",
			"transfer(address,uint256)": "a9059cbb",
			"transferFrom(address,address,uint256)": "23b872dd",
			"uniswapFactory()": "8bdb2afa",
			"uniswapPair()": "c816841b",
			"uniswapRouter()": "735de9f7",
			"virtualEthReserve()": "52b86d2b",
			"virtualTokenReserve()": "343ee3b7",
			"withdrawFees()": "476343ee",
			"withdrawPendingPayments()": "7850d118"
		}
	},
	"abi": [
		{
			"inputs": [
				{
					"internalType": "address",
					"name": "_router",
					"type": "address"
				},
				{
					"internalType": "address",
					"name": "_factory",
					"type": "address"
				},
				{
					"internalType": "address",
					"name": "_admin",
					"type": "address"
				}
			],
			"stateMutability": "nonpayable",
			"type": "constructor"
		},
		{
			"inputs": [],
			"name": "AccessControlBadConfirmation",
			"type": "error"
		},
		{
			"inputs": [
				{
					"internalType": "address",
					"name": "account",
					"type": "address"
				},
				{
					"internalType": "bytes32",
					"name": "neededRole",
					"type": "bytes32"
				}
			],
			"name": "AccessControlUnauthorizedAccount",
			"type": "error"
		},
		{
			"inputs": [],
			"name": "AlreadyMigrated",
			"type": "error"
		},
		{
			"inputs": [
				{
					"internalType": "address",
					"name": "spender",
					"type": "address"
				},
				{
					"internalType": "uint256",
					"name": "allowance",
					"type": "uint256"
				},
				{
					"internalType": "uint256",
					"name": "needed",
					"type": "uint256"
				}
			],
			"name": "ERC20InsufficientAllowance",
			"type": "error"
		},
		{
			"inputs": [
				{
					"internalType": "address",
					"name": "sender",
					"type": "address"
				},
				{
					"internalType": "uint256",
					"name": "balance",
					"type": "uint256"
				},
				{
					"internalType": "uint256",
					"name": "needed",
					"type": "uint256"
				}
			],
			"name": "ERC20InsufficientBalance",
			"type": "error"
		},
		{
			"inputs": [
				{
					"internalType": "address",
					"name": "approver",
					"type": "address"
				}
			],
			"name": "ERC20InvalidApprover",
			"type": "error"
		},
		{
			"inputs": [
				{
					"internalType": "address",
					"name": "receiver",
					"type": "address"
				}
			],
			"name": "ERC20InvalidReceiver",
			"type": "error"
		},
		{
			"inputs": [
				{
					"internalType": "address",
					"name": "sender",
					"type": "address"
				}
			],
			"name": "ERC20InvalidSender",
			"type": "error"
		},
		{
			"inputs": [
				{
					"internalType": "address",
					"name": "spender",
					"type": "address"
				}
			],
			"name": "ERC20InvalidSpender",
			"type": "error"
		},
		{
			"inputs": [],
			"name": "EnforcedPause",
			"type": "error"
		},
		{
			"inputs": [],
			"name": "ExceededRateLimit",
			"type": "error"
		},
		{
			"inputs": [],
			"name": "ExceedsPriceImpact",
			"type": "error"
		},
		{
			"inputs": [],
			"name": "ExceedsTotalSupply",
			"type": "error"
		},
		{
			"inputs": [],
			"name": "ExpectedPause",
			"type": "error"
		},
		{
			"inputs": [],
			"name": "InsufficientBalance",
			"type": "error"
		},
		{
			"inputs": [],
			"name": "InvalidAddress",
			"type": "error"
		},
		{
			"inputs": [],
			"name": "InvalidAmount",
			"type": "error"
		},
		{
			"inputs": [],
			"name": "MigrationThreshHoldNotMet",
			"type": "error"
		},
		{
			"inputs": [],
			"name": "NoPendingPayments",
			"type": "error"
		},
		{
			"inputs": [],
			"name": "NotAuthorized",
			"type": "error"
		},
		{
			"inputs": [],
			"name": "NotMigrated",
			"type": "error"
		},
		{
			"inputs": [],
			"name": "ReentrancyGuardReentrantCall",
			"type": "error"
		},
		{
			"inputs": [],
			"name": "TransferFailed",
			"type": "error"
		},
		{
			"anonymous": false,
			"inputs": [
				{
					"indexed": true,
					"internalType": "address",
					"name": "owner",
					"type": "address"
				},
				{
					"indexed": true,
					"internalType": "address",
					"name": "spender",
					"type": "address"
				},
				{
					"indexed": false,
					"internalType": "uint256",
					"name": "value",
					"type": "uint256"
				}
			],
			"name": "Approval",
			"type": "event"
		},
		{
			"anonymous": false,
			"inputs": [
				{
					"indexed": true,
					"internalType": "address",
					"name": "caller",
					"type": "address"
				},
				{
					"indexed": false,
					"internalType": "uint256",
					"name": "ethAmount",
					"type": "uint256"
				}
			],
			"name": "EmergencyWithdraw",
			"type": "event"
		},
		{
			"anonymous": false,
			"inputs": [
				{
					"indexed": false,
					"internalType": "uint256",
					"name": "ethAmount",
					"type": "uint256"
				},
				{
					"indexed": false,
					"internalType": "uint256",
					"name": "tokenAmount",
					"type": "uint256"
				},
				{
					"indexed": false,
					"internalType": "address",
					"name": "uniswapPair",
					"type": "address"
				}
			],
			"name": "MigrationExecuted",
			"type": "event"
		},
		{
			"anonymous": false,
			"inputs": [
				{
					"indexed": false,
					"internalType": "address",
					"name": "account",
					"type": "address"
				}
			],
			"name": "Paused",
			"type": "event"
		},
		{
			"anonymous": false,
			"inputs": [
				{
					"indexed": true,
					"internalType": "bytes32",
					"name": "role",
					"type": "bytes32"
				},
				{
					"indexed": true,
					"internalType": "bytes32",
					"name": "previousAdminRole",
					"type": "bytes32"
				},
				{
					"indexed": true,
					"internalType": "bytes32",
					"name": "newAdminRole",
					"type": "bytes32"
				}
			],
			"name": "RoleAdminChanged",
			"type": "event"
		},
		{
			"anonymous": false,
			"inputs": [
				{
					"indexed": true,
					"internalType": "bytes32",
					"name": "role",
					"type": "bytes32"
				},
				{
					"indexed": true,
					"internalType": "address",
					"name": "account",
					"type": "address"
				},
				{
					"indexed": true,
					"internalType": "address",
					"name": "sender",
					"type": "address"
				}
			],
			"name": "RoleGranted",
			"type": "event"
		},
		{
			"anonymous": false,
			"inputs": [
				{
					"indexed": true,
					"internalType": "bytes32",
					"name": "role",
					"type": "bytes32"
				},
				{
					"indexed": true,
					"internalType": "address",
					"name": "account",
					"type": "address"
				},
				{
					"indexed": true,
					"internalType": "address",
					"name": "sender",
					"type": "address"
				}
			],
			"name": "RoleRevoked",
			"type": "event"
		},
		{
			"anonymous": false,
			"inputs": [
				{
					"indexed": true,
					"internalType": "address",
					"name": "buyer",
					"type": "address"
				},
				{
					"indexed": false,
					"internalType": "uint256",
					"name": "ethAmount",
					"type": "uint256"
				},
				{
					"indexed": false,
					"internalType": "uint256",
					"name": "tokenAmount",
					"type": "uint256"
				}
			],
			"name": "TokensPurchased",
			"type": "event"
		},
		{
			"anonymous": false,
			"inputs": [
				{
					"indexed": true,
					"internalType": "address",
					"name": "seller",
					"type": "address"
				},
				{
					"indexed": false,
					"internalType": "uint256",
					"name": "tokenAmount",
					"type": "uint256"
				},
				{
					"indexed": false,
					"internalType": "uint256",
					"name": "ethAmount",
					"type": "uint256"
				}
			],
			"name": "TokensSold",
			"type": "event"
		},
		{
			"anonymous": false,
			"inputs": [
				{
					"indexed": true,
					"internalType": "address",
					"name": "from",
					"type": "address"
				},
				{
					"indexed": true,
					"internalType": "address",
					"name": "to",
					"type": "address"
				},
				{
					"indexed": false,
					"internalType": "uint256",
					"name": "value",
					"type": "uint256"
				}
			],
			"name": "Transfer",
			"type": "event"
		},
		{
			"anonymous": false,
			"inputs": [
				{
					"indexed": false,
					"internalType": "address",
					"name": "account",
					"type": "address"
				}
			],
			"name": "Unpaused",
			"type": "event"
		},
		{
			"anonymous": false,
			"inputs": [
				{
					"indexed": false,
					"internalType": "uint256",
					"name": "virtualTokenReserve",
					"type": "uint256"
				},
				{
					"indexed": false,
					"internalType": "uint256",
					"name": "virtualEthReserve",
					"type": "uint256"
				}
			],
			"name": "VirtualReservesUpdated",
			"type": "event"
		},
		{
			"anonymous": false,
			"inputs": [
				{
					"indexed": true,
					"internalType": "address",
					"name": "payee",
					"type": "address"
				},
				{
					"indexed": false,
					"internalType": "uint256",
					"name": "amount",
					"type": "uint256"
				}
			],
			"name": "WithdrawalQueued",
			"type": "event"
		},
		{
			"anonymous": false,
			"inputs": [
				{
					"indexed": true,
					"internalType": "address",
					"name": "payee",
					"type": "address"
				},
				{
					"indexed": false,
					"internalType": "uint256",
					"name": "amount",
					"type": "uint256"
				}
			],
			"name": "Withdrawn",
			"type": "event"
		},
		{
			"inputs": [],
			"name": "ADMIN_ROLE",
			"outputs": [
				{
					"internalType": "bytes32",
					"name": "",
					"type": "bytes32"
				}
			],
			"stateMutability": "view",
			"type": "function"
		},
		{
			"inputs": [],
			"name": "DEFAULT_ADMIN_ROLE",
			"outputs": [
				{
					"internalType": "bytes32",
					"name": "",
					"type": "bytes32"
				}
			],
			"stateMutability": "view",
			"type": "function"
		},
		{
			"inputs": [],
			"name": "INITIAL_VIRTUAL_ETH_RESERVE",
			"outputs": [
				{
					"internalType": "uint256",
					"name": "",
					"type": "uint256"
				}
			],
			"stateMutability": "view",
			"type": "function"
		},
		{
			"inputs": [],
			"name": "INITIAL_VIRTUAL_TOKEN_RESERVE",
			"outputs": [
				{
					"internalType": "uint256",
					"name": "",
					"type": "uint256"
				}
			],
			"stateMutability": "view",
			"type": "function"
		},
		{
			"inputs": [],
			"name": "MAX_ACTIONS_IN_INTERVAL",
			"outputs": [
				{
					"internalType": "uint256",
					"name": "",
					"type": "uint256"
				}
			],
			"stateMutability": "view",
			"type": "function"
		},
		{
			"inputs": [],
			"name": "MAX_PURCHASE",
			"outputs": [
				{
					"internalType": "uint256",
					"name": "",
					"type": "uint256"
				}
			],
			"stateMutability": "view",
			"type": "function"
		},
		{
			"inputs": [],
			"name": "MIGRATION_FEE",
			"outputs": [
				{
					"internalType": "uint256",
					"name": "",
					"type": "uint256"
				}
			],
			"stateMutability": "view",
			"type": "function"
		},
		{
			"inputs": [],
			"name": "MIGRATION_THRESHOLD",
			"outputs": [
				{
					"internalType": "uint256",
					"name": "",
					"type": "uint256"
				}
			],
			"stateMutability": "view",
			"type": "function"
		},
		{
			"inputs": [],
			"name": "MIN_PURCHASE",
			"outputs": [
				{
					"internalType": "uint256",
					"name": "",
					"type": "uint256"
				}
			],
			"stateMutability": "view",
			"type": "function"
		},
		{
			"inputs": [],
			"name": "OPERATOR_ROLE",
			"outputs": [
				{
					"internalType": "bytes32",
					"name": "",
					"type": "bytes32"
				}
			],
			"stateMutability": "view",
			"type": "function"
		},
		{
			"inputs": [],
			"name": "PRICE_IMPACT_LIMIT",
			"outputs": [
				{
					"internalType": "uint256",
					"name": "",
					"type": "uint256"
				}
			],
			"stateMutability": "view",
			"type": "function"
		},
		{
			"inputs": [],
			"name": "RATE_LIMIT_INTERVAL",
			"outputs": [
				{
					"internalType": "uint256",
					"name": "",
					"type": "uint256"
				}
			],
			"stateMutability": "view",
			"type": "function"
		},
		{
			"inputs": [],
			"name": "TOTAL_SUPPLY",
			"outputs": [
				{
					"internalType": "uint256",
					"name": "",
					"type": "uint256"
				}
			],
			"stateMutability": "view",
			"type": "function"
		},
		{
			"inputs": [
				{
					"internalType": "address",
					"name": "",
					"type": "address"
				}
			],
			"name": "actionCounter",
			"outputs": [
				{
					"internalType": "uint256",
					"name": "",
					"type": "uint256"
				}
			],
			"stateMutability": "view",
			"type": "function"
		},
		{
			"inputs": [
				{
					"internalType": "address",
					"name": "owner",
					"type": "address"
				},
				{
					"internalType": "address",
					"name": "spender",
					"type": "address"
				}
			],
			"name": "allowance",
			"outputs": [
				{
					"internalType": "uint256",
					"name": "",
					"type": "uint256"
				}
			],
			"stateMutability": "view",
			"type": "function"
		},
		{
			"inputs": [
				{
					"internalType": "address",
					"name": "spender",
					"type": "address"
				},
				{
					"internalType": "uint256",
					"name": "value",
					"type": "uint256"
				}
			],
			"name": "approve",
			"outputs": [
				{
					"internalType": "bool",
					"name": "",
					"type": "bool"
				}
			],
			"stateMutability": "nonpayable",
			"type": "function"
		},
		{
			"inputs": [
				{
					"internalType": "address",
					"name": "account",
					"type": "address"
				}
			],
			"name": "balanceOf",
			"outputs": [
				{
					"internalType": "uint256",
					"name": "",
					"type": "uint256"
				}
			],
			"stateMutability": "view",
			"type": "function"
		},
		{
			"inputs": [],
			"name": "buy",
			"outputs": [],
			"stateMutability": "payable",
			"type": "function"
		},
		{
			"inputs": [
				{
					"internalType": "uint256",
					"name": "tradeSize",
					"type": "uint256"
				},
				{
					"internalType": "uint256",
					"name": "currentReserve",
					"type": "uint256"
				}
			],
			"name": "calculatePriceImpact",
			"outputs": [
				{
					"internalType": "uint256",
					"name": "",
					"type": "uint256"
				}
			],
			"stateMutability": "pure",
			"type": "function"
		},
		{
			"inputs": [
				{
					"internalType": "uint256",
					"name": "ethAmount",
					"type": "uint256"
				}
			],
			"name": "calculatePurchaseReturn",
			"outputs": [
				{
					"internalType": "uint256",
					"name": "",
					"type": "uint256"
				}
			],
			"stateMutability": "view",
			"type": "function"
		},
		{
			"inputs": [
				{
					"internalType": "uint256",
					"name": "tokenAmount",
					"type": "uint256"
				}
			],
			"name": "calculateSaleReturn",
			"outputs": [
				{
					"internalType": "uint256",
					"name": "",
					"type": "uint256"
				}
			],
			"stateMutability": "view",
			"type": "function"
		},
		{
			"inputs": [],
			"name": "decimals",
			"outputs": [
				{
					"internalType": "uint8",
					"name": "",
					"type": "uint8"
				}
			],
			"stateMutability": "view",
			"type": "function"
		},
		{
			"inputs": [],
			"name": "emergencyMode",
			"outputs": [
				{
					"internalType": "bool",
					"name": "",
					"type": "bool"
				}
			],
			"stateMutability": "view",
			"type": "function"
		},
		{
			"inputs": [],
			"name": "emergencyWithdraw",
			"outputs": [],
			"stateMutability": "nonpayable",
			"type": "function"
		},
		{
			"inputs": [
				{
					"internalType": "bytes32",
					"name": "role",
					"type": "bytes32"
				}
			],
			"name": "getRoleAdmin",
			"outputs": [
				{
					"internalType": "bytes32",
					"name": "",
					"type": "bytes32"
				}
			],
			"stateMutability": "view",
			"type": "function"
		},
		{
			"inputs": [
				{
					"internalType": "bytes32",
					"name": "role",
					"type": "bytes32"
				},
				{
					"internalType": "address",
					"name": "account",
					"type": "address"
				}
			],
			"name": "grantRole",
			"outputs": [],
			"stateMutability": "nonpayable",
			"type": "function"
		},
		{
			"inputs": [
				{
					"internalType": "bytes32",
					"name": "role",
					"type": "bytes32"
				},
				{
					"internalType": "address",
					"name": "account",
					"type": "address"
				}
			],
			"name": "hasRole",
			"outputs": [
				{
					"internalType": "bool",
					"name": "",
					"type": "bool"
				}
			],
			"stateMutability": "view",
			"type": "function"
		},
		{
			"inputs": [
				{
					"internalType": "address",
					"name": "",
					"type": "address"
				}
			],
			"name": "lastActionTime",
			"outputs": [
				{
					"internalType": "uint256",
					"name": "",
					"type": "uint256"
				}
			],
			"stateMutability": "view",
			"type": "function"
		},
		{
			"inputs": [],
			"name": "lastActionTimestamp",
			"outputs": [
				{
					"internalType": "uint256",
					"name": "",
					"type": "uint256"
				}
			],
			"stateMutability": "view",
			"type": "function"
		},
		{
			"inputs": [],
			"name": "migrated",
			"outputs": [
				{
					"internalType": "bool",
					"name": "",
					"type": "bool"
				}
			],
			"stateMutability": "view",
			"type": "function"
		},
		{
			"inputs": [],
			"name": "name",
			"outputs": [
				{
					"internalType": "string",
					"name": "",
					"type": "string"
				}
			],
			"stateMutability": "view",
			"type": "function"
		},
		{
			"inputs": [],
			"name": "paused",
			"outputs": [
				{
					"internalType": "bool",
					"name": "",
					"type": "bool"
				}
			],
			"stateMutability": "view",
			"type": "function"
		},
		{
			"inputs": [
				{
					"internalType": "address",
					"name": "payee",
					"type": "address"
				}
			],
			"name": "pendingWithdrawals",
			"outputs": [
				{
					"internalType": "uint256",
					"name": "",
					"type": "uint256"
				}
			],
			"stateMutability": "view",
			"type": "function"
		},
		{
			"inputs": [
				{
					"internalType": "bytes32",
					"name": "role",
					"type": "bytes32"
				},
				{
					"internalType": "address",
					"name": "callerConfirmation",
					"type": "address"
				}
			],
			"name": "renounceRole",
			"outputs": [],
			"stateMutability": "nonpayable",
			"type": "function"
		},
		{
			"inputs": [
				{
					"internalType": "bytes32",
					"name": "role",
					"type": "bytes32"
				},
				{
					"internalType": "address",
					"name": "account",
					"type": "address"
				}
			],
			"name": "revokeRole",
			"outputs": [],
			"stateMutability": "nonpayable",
			"type": "function"
		},
		{
			"inputs": [
				{
					"internalType": "uint256",
					"name": "tokenAmount",
					"type": "uint256"
				}
			],
			"name": "sell",
			"outputs": [],
			"stateMutability": "nonpayable",
			"type": "function"
		},
		{
			"inputs": [
				{
					"internalType": "bool",
					"name": "_emergencyMode",
					"type": "bool"
				}
			],
			"name": "setEmergencyMode",
			"outputs": [],
			"stateMutability": "nonpayable",
			"type": "function"
		},
		{
			"inputs": [
				{
					"internalType": "bytes4",
					"name": "interfaceId",
					"type": "bytes4"
				}
			],
			"name": "supportsInterface",
			"outputs": [
				{
					"internalType": "bool",
					"name": "",
					"type": "bool"
				}
			],
			"stateMutability": "view",
			"type": "function"
		},
		{
			"inputs": [],
			"name": "symbol",
			"outputs": [
				{
					"internalType": "string",
					"name": "",
					"type": "string"
				}
			],
			"stateMutability": "view",
			"type": "function"
		},
		{
			"inputs": [],
			"name": "totalCollectedETH",
			"outputs": [
				{
					"internalType": "uint256",
					"name": "",
					"type": "uint256"
				}
			],
			"stateMutability": "view",
			"type": "function"
		},
		{
			"inputs": [],
			"name": "totalSupply",
			"outputs": [
				{
					"internalType": "uint256",
					"name": "",
					"type": "uint256"
				}
			],
			"stateMutability": "view",
			"type": "function"
		},
		{
			"inputs": [
				{
					"internalType": "address",
					"name": "to",
					"type": "address"
				},
				{
					"internalType": "uint256",
					"name": "value",
					"type": "uint256"
				}
			],
			"name": "transfer",
			"outputs": [
				{
					"internalType": "bool",
					"name": "",
					"type": "bool"
				}
			],
			"stateMutability": "nonpayable",
			"type": "function"
		},
		{
			"inputs": [
				{
					"internalType": "address",
					"name": "from",
					"type": "address"
				},
				{
					"internalType": "address",
					"name": "to",
					"type": "address"
				},
				{
					"internalType": "uint256",
					"name": "value",
					"type": "uint256"
				}
			],
			"name": "transferFrom",
			"outputs": [
				{
					"internalType": "bool",
					"name": "",
					"type": "bool"
				}
			],
			"stateMutability": "nonpayable",
			"type": "function"
		},
		{
			"inputs": [],
			"name": "uniswapFactory",
			"outputs": [
				{
					"internalType": "contract IUniswapV2Factory",
					"name": "",
					"type": "address"
				}
			],
			"stateMutability": "view",
			"type": "function"
		},
		{
			"inputs": [],
			"name": "uniswapPair",
			"outputs": [
				{
					"internalType": "address",
					"name": "",
					"type": "address"
				}
			],
			"stateMutability": "view",
			"type": "function"
		},
		{
			"inputs": [],
			"name": "uniswapRouter",
			"outputs": [
				{
					"internalType": "contract IUniswapV2Router02",
					"name": "",
					"type": "address"
				}
			],
			"stateMutability": "view",
			"type": "function"
		},
		{
			"inputs": [],
			"name": "virtualEthReserve",
			"outputs": [
				{
					"internalType": "uint256",
					"name": "",
					"type": "uint256"
				}
			],
			"stateMutability": "view",
			"type": "function"
		},
		{
			"inputs": [],
			"name": "virtualTokenReserve",
			"outputs": [
				{
					"internalType": "uint256",
					"name": "",
					"type": "uint256"
				}
			],
			"stateMutability": "view",
			"type": "function"
		},
		{
			"inputs": [],
			"name": "withdrawFees",
			"outputs": [],
			"stateMutability": "nonpayable",
			"type": "function"
		},
		{
			"inputs": [],
			"name": "withdrawPendingPayments",
			"outputs": [],
			"stateMutability": "nonpayable",
			"type": "function"
		},
		{
			"stateMutability": "payable",
			"type": "receive"
		}
	]
}