{
	"data": {
		"bytecode": {
			"linkReferences": {},
			"object": "60c0604052600a600855604051615eed380380615eed833981810160405281019061002a919061054c565b6040518060400160405280600a81526020017f4265617265644d696e74000000000000000000000000000000000000000000008152506040518060400160405280600381526020017f424d54000000000000000000000000000000000000000000000000000000000081525081600390816100a591906107d6565b5080600490816100b591906107d6565b50505060016005819055505f60065f6101000a81548160ff0219169083151502179055505f73ffffffffffffffffffffffffffffffffffffffff168373ffffffffffffffffffffffffffffffffffffffff1603610147576040517f08c379a000000000000000000000000000000000000000000000000000000000815260040161013e906108ff565b60405180910390fd5b5f73ffffffffffffffffffffffffffffffffffffffff168273ffffffffffffffffffffffffffffffffffffffff16036101b5576040517f08c379a00000000000000000000000000000000000000000000000000000000081526004016101ac906108ff565b60405180910390fd5b5f73ffffffffffffffffffffffffffffffffffffffff168173ffffffffffffffffffffffffffffffffffffffff1603610223576040517f08c379a000000000000000000000000000000000000000000000000000000000815260040161021a906108ff565b60405180910390fd5b68022b1c8c1227a0000034101561026f576040517f08c379a000000000000000000000000000000000000000000000000000000000815260040161026690610967565b60405180910390fd5b6102815f801b8261038d60201b60201c565b506102b27fa49807205ce4d355092ef5a8a18f56e8913cf4a201fbe287825b095693c217758261038d60201b60201c565b5080601a5f6101000a81548173ffffffffffffffffffffffffffffffffffffffff021916908373ffffffffffffffffffffffffffffffffffffffff1602179055506b32154cabad1fc3b00c000000600a8190555068022b1c8c1227a00000600b819055508273ffffffffffffffffffffffffffffffffffffffff1660808173ffffffffffffffffffffffffffffffffffffffff16815250508173ffffffffffffffffffffffffffffffffffffffff1660a08173ffffffffffffffffffffffffffffffffffffffff168152505042600f81905550505050610985565b5f61039e838361048360201b60201c565b61047957600160075f8581526020019081526020015f205f015f8473ffffffffffffffffffffffffffffffffffffffff1673ffffffffffffffffffffffffffffffffffffffff1681526020019081526020015f205f6101000a81548160ff0219169083151502179055506104166104e760201b60201c565b73ffffffffffffffffffffffffffffffffffffffff168273ffffffffffffffffffffffffffffffffffffffff16847f2f8788117e7eff1d82e926ec794901d17c78024a50270940304540a733656f0d60405160405180910390a46001905061047d565b5f90505b92915050565b5f60075f8481526020019081526020015f205f015f8373ffffffffffffffffffffffffffffffffffffffff1673ffffffffffffffffffffffffffffffffffffffff1681526020019081526020015f205f9054906101000a900460ff16905092915050565b5f33905090565b5f80fd5b5f73ffffffffffffffffffffffffffffffffffffffff82169050919050565b5f61051b826104f2565b9050919050565b61052b81610511565b8114610535575f80fd5b50565b5f8151905061054681610522565b92915050565b5f805f60608486031215610563576105626104ee565b5b5f61057086828701610538565b935050602061058186828701610538565b925050604061059286828701610538565b9150509250925092565b5f81519050919050565b7f4e487b71000000000000000000000000000000000000000000000000000000005f52604160045260245ffd5b7f4e487b71000000000000000000000000000000000000000000000000000000005f52602260045260245ffd5b5f600282049050600182168061061757607f821691505b60208210810361062a576106296105d3565b5b50919050565b5f819050815f5260205f209050919050565b5f6020601f8301049050919050565b5f82821b905092915050565b5f6008830261068c7fffffffffffffffffffffffffffffffffffffffffffffffffffffffffffffffff82610651565b6106968683610651565b95508019841693508086168417925050509392505050565b5f819050919050565b5f819050919050565b5f6106da6106d56106d0846106ae565b6106b7565b6106ae565b9050919050565b5f819050919050565b6106f3836106c0565b6107076106ff826106e1565b84845461065d565b825550505050565b5f90565b61071b61070f565b6107268184846106ea565b505050565b5b818110156107495761073e5f82610713565b60018101905061072c565b5050565b601f82111561078e5761075f81610630565b61076884610642565b81016020851015610777578190505b61078b61078385610642565b83018261072b565b50505b505050565b5f82821c905092915050565b5f6107ae5f1984600802610793565b1980831691505092915050565b5f6107c6838361079f565b9150826002028217905092915050565b6107df8261059c565b67ffffffffffffffff8111156107f8576107f76105a6565b5b6108028254610600565b61080d82828561074d565b5f60209050601f83116001811461083e575f841561082c578287015190505b61083685826107bb565b86555061089d565b601f19841661084c86610630565b5f5b828110156108735784890151825560018201915060208501945060208101905061084e565b86831015610890578489015161088c601f89168261079f565b8355505b6001600288020188555050505b505050505050565b5f82825260208201905092915050565b7f496e76616c6964416464726573730000000000000000000000000000000000005f82015250565b5f6108e9600e836108a5565b91506108f4826108b5565b602082019050919050565b5f6020820190508181035f830152610916816108dd565b9050919050565b7f496e73756666696369656e7420696e697469616c2045544800000000000000005f82015250565b5f6109516018836108a5565b915061095c8261091d565b602082019050919050565b5f6020820190508181035f83015261097e81610945565b9050919050565b60805160a05161552b6109c25f395f81816119c1015261362001525f818161163b015281816133e401528181613486015261365d015261552b5ff3fe608060405260043610610384575f3560e01c80637146bd08116101d0578063a82b4d4311610101578063d547741f1161009f578063eac697c91161006e578063eac697c914610d01578063f3f4370314610d2b578063f5b541a614610d67578063feefc72014610d915761038b565b8063d547741f14610c5f578063db2e21bc14610c87578063dd62ed3e14610c9d578063e4849b3214610cd95761038b565b8063be32b3f8116100db578063be32b3f814610bb9578063c2d0c2ff14610be1578063c816841b14610c0b578063d439390c14610c355761038b565b8063a82b4d4314610b29578063a9059cbb14610b53578063b6628a4d14610b8f5761038b565b80638bdb2afa1161016e57806391d148541161014857806391d1485414610a8f57806395d89b4114610acb578063a217fddf14610af5578063a6f2ae3a14610b1f5761038b565b80638bdb2afa146109ff5780638e81c73114610a29578063902d55a514610a655761038b565b806375b238fc116101aa57806375b238fc1461096d5780637622266314610997578063764a75c3146109bf5780637850d118146109e95761038b565b80637146bd08146108ef578063728e9ecc14610919578063735de9f7146109435761038b565b8063313ce567116102b557806349c1ca42116102535780635d279f70116102225780635d279f701461081157806369fcd4ac1461084d57806370a082311461088957806370db45d7146108c55761038b565b806349c1ca421461076b57806352b86d2b146107935780635c975abb146107bd5780635d202249146107e75761038b565b806336568abe1161028f57806336568abe146106c35780634202d214146106eb578063476343ee1461072757806348f617f11461073d5761038b565b8063313ce56714610633578063322d21001461065d578063343ee3b7146106995761038b565b8063200e0ac81161032257806327f0bfd6116102fc57806327f0bfd61461057b5780632c678c64146105b75780632f2ff15d146105e15780632fc52849146106095761038b565b8063200e0ac8146104d957806323b872dd14610503578063248a9ca31461053f5761038b565b80630905f5601161035e5780630905f5601461041f578063095ea7b314610449578063150ee8831461048557806318160ddd146104af5761038b565b806301ffc9a71461038f578063027fb5b1146103cb57806306fdde03146103f55761038b565b3661038b57005b5f80fd5b34801561039a575f80fd5b506103b560048036038101906103b09190613f3a565b610dbf565b6040516103c29190613f7f565b60405180910390f35b3480156103d6575f80fd5b506103df610e38565b6040516103ec9190613fb0565b60405180910390f35b348015610400575f80fd5b50610409610e45565b6040516104169190614039565b60405180910390f35b34801561042a575f80fd5b50610433610ed5565b6040516104409190613f7f565b60405180910390f35b348015610454575f80fd5b5061046f600480360381019061046a91906140dd565b610ee8565b60405161047c9190613f7f565b60405180910390f35b348015610490575f80fd5b50610499610f0a565b6040516104a69190613fb0565b60405180910390f35b3480156104ba575f80fd5b506104c3610f1a565b6040516104d09190613fb0565b60405180910390f35b3480156104e4575f80fd5b506104ed610f23565b6040516104fa9190613fb0565b60405180910390f35b34801561050e575f80fd5b506105296004803603810190610524919061411b565b610f29565b6040516105369190613f7f565b60405180910390f35b34801561054a575f80fd5b506105656004803603810190610560919061419e565b610f57565b60405161057291906141d8565b60405180910390f35b348015610586575f80fd5b506105a1600480360381019061059c91906141f1565b610f74565b6040516105ae9190613fb0565b60405180910390f35b3480156105c2575f80fd5b506105cb610f89565b6040516105d89190613f7f565b60405180910390f35b3480156105ec575f80fd5b506106076004803603810190610602919061421c565b610f9b565b005b348015610614575f80fd5b5061061d610fbd565b60405161062a9190613fb0565b60405180910390f35b34801561063e575f80fd5b50610647610fc2565b6040516106549190614275565b60405180910390f35b348015610668575f80fd5b50610683600480360381019061067e919061428e565b610fca565b6040516106909190613fb0565b60405180910390f35b3480156106a4575f80fd5b506106ad6111a8565b6040516106ba9190613fb0565b60405180910390f35b3480156106ce575f80fd5b506106e960048036038101906106e4919061421c565b6111ae565b005b3480156106f6575f80fd5b50610711600480360381019061070c91906141f1565b611229565b60405161071e9190613f7f565b60405180910390f35b348015610732575f80fd5b5061073b611246565b005b348015610748575f80fd5b506107516113cd565b6040516107629594939291906142b9565b60405180910390f35b348015610776575f80fd5b50610791600480360381019061078c919061428e565b611400565b005b34801561079e575f80fd5b506107a76114b5565b6040516107b49190613fb0565b60405180910390f35b3480156107c8575f80fd5b506107d16114bb565b6040516107de9190613f7f565b60405180910390f35b3480156107f2575f80fd5b506107fb6114d0565b6040516108089190613fb0565b60405180910390f35b34801561081c575f80fd5b50610837600480360381019061083291906141f1565b6114d6565b6040516108449190613fb0565b60405180910390f35b348015610858575f80fd5b50610873600480360381019061086e919061428e565b6114eb565b6040516108809190613fb0565b60405180910390f35b348015610894575f80fd5b506108af60048036038101906108aa91906141f1565b6115db565b6040516108bc9190613fb0565b60405180910390f35b3480156108d0575f80fd5b506108d9611620565b6040516108e69190613fb0565b60405180910390f35b3480156108fa575f80fd5b50610903611626565b6040516109109190613fb0565b60405180910390f35b348015610924575f80fd5b5061092d611633565b60405161093a9190613fb0565b60405180910390f35b34801561094e575f80fd5b50610957611639565b6040516109649190614365565b60405180910390f35b348015610978575f80fd5b5061098161165d565b60405161098e91906141d8565b60405180910390f35b3480156109a2575f80fd5b506109bd60048036038101906109b8919061437e565b611681565b005b3480156109ca575f80fd5b506109d361179a565b6040516109e091906143cb565b60405180910390f35b3480156109f4575f80fd5b506109fd6117bf565b005b348015610a0a575f80fd5b50610a136119bf565b604051610a209190614404565b60405180910390f35b348015610a34575f80fd5b50610a4f6004803603810190610a4a919061437e565b6119e3565b604051610a5c9190613fb0565b60405180910390f35b348015610a70575f80fd5b50610a79611a04565b604051610a869190613fb0565b60405180910390f35b348015610a9a575f80fd5b50610ab56004803603810190610ab0919061421c565b611a14565b604051610ac29190613f7f565b60405180910390f35b348015610ad6575f80fd5b50610adf611a78565b604051610aec9190614039565b60405180910390f35b348015610b00575f80fd5b50610b09611b08565b604051610b1691906141d8565b60405180910390f35b610b27611b0e565b005b348015610b34575f80fd5b50610b3d612278565b604051610b4a9190613fb0565b60405180910390f35b348015610b5e575f80fd5b50610b796004803603810190610b7491906140dd565b612284565b604051610b869190613f7f565b60405180910390f35b348015610b9a575f80fd5b50610ba36122a6565b604051610bb09190613fb0565b60405180910390f35b348015610bc4575f80fd5b50610bdf6004803603810190610bda9190614447565b6122b6565b005b348015610bec575f80fd5b50610bf561231a565b604051610c029190613fb0565b60405180910390f35b348015610c16575f80fd5b50610c1f61231f565b604051610c2c91906143cb565b60405180910390f35b348015610c40575f80fd5b50610c49612344565b604051610c569190613fb0565b60405180910390f35b348015610c6a575f80fd5b50610c856004803603810190610c80919061421c565b61234f565b005b348015610c92575f80fd5b50610c9b612371565b005b348015610ca8575f80fd5b50610cc36004803603810190610cbe9190614472565b612554565b604051610cd09190613fb0565b60405180910390f35b348015610ce4575f80fd5b50610cff6004803603810190610cfa919061428e565b6125d6565b005b348015610d0c575f80fd5b50610d15612a91565b604051610d229190613fb0565b60405180910390f35b348015610d36575f80fd5b50610d516004803603810190610d4c91906141f1565b612a97565b604051610d5e9190613fb0565b60405180910390f35b348015610d72575f80fd5b50610d7b612add565b604051610d8891906141d8565b60405180910390f35b348015610d9c575f80fd5b50610da5612b01565b604051610db69594939291906142b9565b60405180910390f35b5f7f7965db0b000000000000000000000000000000000000000000000000000000007bffffffffffffffffffffffffffffffffffffffffffffffffffffffff1916827bffffffffffffffffffffffffffffffffffffffffffffffffffffffff19161480610e315750610e3082612b24565b5b9050919050565b68022b1c8c1227a0000081565b606060038054610e54906144dd565b80601f0160208091040260200160405190810160405280929190818152602001828054610e80906144dd565b8015610ecb5780601f10610ea257610100808354040283529160200191610ecb565b820191905f5260205f20905b815481529060010190602001808311610eae57829003601f168201915b5050505050905090565b600e60019054906101000a900460ff1681565b5f80610ef2612b8d565b9050610eff818585612b94565b600191505092915050565b6b50221445e1cc6c4ce000000081565b5f600254905090565b61012c81565b5f80610f33612b8d565b9050610f40858285612ba6565b610f4b858585612c38565b60019150509392505050565b5f60075f8381526020019081526020015f20600101549050919050565b6011602052805f5260405f205f915090505481565b600e5f9054906101000a900460ff1681565b610fa482610f57565b610fad81612d28565b610fb78383612d3c565b50505050565b606481565b5f6012905090565b5f80821161100d576040517f08c379a00000000000000000000000000000000000000000000000000000000081526004016110049061457d565b60405180910390fd5b5f600a5411611051576040517f08c379a0000000000000000000000000000000000000000000000000000000008152600401611048906145e5565b60405180910390fd5b5f82600b546110609190614630565b90505f600b54600a54856110749190614663565b61107e91906146d1565b90505f600a60136002015461109391906146d1565b606461109f9190614630565b90505f6032600d5410156110cd576002600d546110bc9190614663565b60646110c89190614701565b6110cf565b5f5b90505f6127108284866110e29190614663565b6110ec9190614663565b6110f691906146d1565b90505f6064886111069190614663565b905080821015611114578091505b5f8211611156576040517f08c379a000000000000000000000000000000000000000000000000000000000815260040161114d9061477e565b60405180910390fd5b600a54821061119a576040517f08c379a0000000000000000000000000000000000000000000000000000000008152600401611191906147e6565b60405180910390fd5b819650505050505050919050565b600a5481565b6111b6612b8d565b73ffffffffffffffffffffffffffffffffffffffff168173ffffffffffffffffffffffffffffffffffffffff161461121a576040517f6697b23200000000000000000000000000000000000000000000000000000000815260040160405180910390fd5b6112248282612e26565b505050565b6012602052805f5260405f205f915054906101000a900460ff1681565b61124e612f10565b7fa49807205ce4d355092ef5a8a18f56e8913cf4a201fbe287825b095693c2177561127881612d28565b600e5f9054906101000a900460ff166112c6576040517f08c379a00000000000000000000000000000000000000000000000000000000081526004016112bd9061484e565b60405180910390fd5b670214e8348c4f0000471015611311576040517f08c379a0000000000000000000000000000000000000000000000000000000008152600401611308906148b6565b60405180910390fd5b5f3373ffffffffffffffffffffffffffffffffffffffff16670214e8348c4f000060405161133e90614901565b5f6040518083038185875af1925050503d805f8114611378576040519150601f19603f3d011682016040523d82523d5f602084013e61137d565b606091505b50509050806113c1576040517f08c379a00000000000000000000000000000000000000000000000000000000081526004016113b89061495f565b60405180910390fd5b50506113cb612f56565b565b5f805f805f60135f0154601360010154601360020154601360030154601360040154945094509450945094509091929394565b7fa49807205ce4d355092ef5a8a18f56e8913cf4a201fbe287825b095693c2177561142a81612d28565b606482111561146e576040517f08c379a0000000000000000000000000000000000000000000000000000000008152600401611465906149c7565b60405180910390fd5b816013600301819055507f590c994b56546a5d3880bffd741ebdf332e0184cd096a50e121518ba4ca5ae9d42836040516114a99291906149e5565b60405180910390a15050565b600b5481565b5f60065f9054906101000a900460ff16905090565b600c5481565b6010602052805f5260405f205f915090505481565b5f80821161152e576040517f08c379a000000000000000000000000000000000000000000000000000000000815260040161152590614a56565b60405180910390fd5b5f600a5411611572576040517f08c379a0000000000000000000000000000000000000000000000000000000008152600401611569906145e5565b60405180910390fd5b5f600a54600b54846115849190614663565b61158e91906146d1565b90505f683635c9adc5dea00000678ac7230489e80000856115af9190614663565b6115b991906146d1565b9050808210806115c857505f82145b156115d1578091505b8192505050919050565b5f805f8373ffffffffffffffffffffffffffffffffffffffff1673ffffffffffffffffffffffffffffffffffffffff1681526020019081526020015f20549050919050565b60085481565b6802b5e3af16b188000081565b600d5481565b7f000000000000000000000000000000000000000000000000000000000000000081565b7fa49807205ce4d355092ef5a8a18f56e8913cf4a201fbe287825b095693c2177581565b601a5f9054906101000a900473ffffffffffffffffffffffffffffffffffffffff1673ffffffffffffffffffffffffffffffffffffffff163373ffffffffffffffffffffffffffffffffffffffff1614611710576040517f08c379a000000000000000000000000000000000000000000000000000000000815260040161170790614abe565b60405180910390fd5b6014821115611754576040517f08c379a000000000000000000000000000000000000000000000000000000000815260040161174b90614b26565b60405180910390fd5b816008819055507f6ac799f672711c1e1e236df18f26a07a76cb09a3a84245dab0008c2b8987094b42838360405161178e93929190614b44565b60405180910390a15050565b601a5f9054906101000a900473ffffffffffffffffffffffffffffffffffffffff1681565b6117c7612f10565b5f60095f3373ffffffffffffffffffffffffffffffffffffffff1673ffffffffffffffffffffffffffffffffffffffff1681526020019081526020015f205490505f8103611841576040517f6868774400000000000000000000000000000000000000000000000000000000815260040160405180910390fd5b80471015611884576040517f08c379a000000000000000000000000000000000000000000000000000000000815260040161187b90614bc3565b60405180910390fd5b5f60095f3373ffffffffffffffffffffffffffffffffffffffff1673ffffffffffffffffffffffffffffffffffffffff1681526020019081526020015f20819055505f3373ffffffffffffffffffffffffffffffffffffffff16826040516118eb90614901565b5f6040518083038185875af1925050503d805f8114611925576040519150601f19603f3d011682016040523d82523d5f602084013e61192a565b606091505b5050905080611965576040517f90b8ec1800000000000000000000000000000000000000000000000000000000815260040160405180910390fd5b3373ffffffffffffffffffffffffffffffffffffffff167f7084f5476618d8e60b11ef0d7d3f06914655adb8793e28ff7f018d4c76d505d5836040516119ab9190613fb0565b60405180910390a250506119bd612f56565b565b7f000000000000000000000000000000000000000000000000000000000000000081565b5f8160646119f191906146d1565b836119fc9190614663565b905092915050565b6b642a99575a3f87601800000081565b5f60075f8481526020019081526020015f205f015f8373ffffffffffffffffffffffffffffffffffffffff1673ffffffffffffffffffffffffffffffffffffffff1681526020019081526020015f205f9054906101000a900460ff16905092915050565b606060048054611a87906144dd565b80601f0160208091040260200160405190810160405280929190818152602001828054611ab3906144dd565b8015611afe5780601f10611ad557610100808354040283529160200191611afe565b820191905f5260205f20905b815481529060010190602001808311611ae157829003601f168201915b5050505050905090565b5f801b81565b611b16612f10565b611b1e612f60565b600e5f9054906101000a900460ff1615611b6d576040517f08c379a0000000000000000000000000000000000000000000000000000000008152600401611b6490614c2b565b60405180910390fd5b3361012c60115f8373ffffffffffffffffffffffffffffffffffffffff1673ffffffffffffffffffffffffffffffffffffffff1681526020019081526020015f205442611bba9190614701565b101580611c045750600560105f8373ffffffffffffffffffffffffffffffffffffffff1673ffffffffffffffffffffffffffffffffffffffff1681526020019081526020015f2054105b611c43576040517f08c379a0000000000000000000000000000000000000000000000000000000008152600401611c3a90614c93565b60405180910390fd5b61012c60115f8373ffffffffffffffffffffffffffffffffffffffff1673ffffffffffffffffffffffffffffffffffffffff1681526020019081526020015f205442611c8f9190614701565b10611cdc57600160105f8373ffffffffffffffffffffffffffffffffffffffff1673ffffffffffffffffffffffffffffffffffffffff1681526020019081526020015f2081905550611d68565b600160105f8373ffffffffffffffffffffffffffffffffffffffff1673ffffffffffffffffffffffffffffffffffffffff1681526020019081526020015f2054611d269190614630565b60105f8373ffffffffffffffffffffffffffffffffffffffff1673ffffffffffffffffffffffffffffffffffffffff1681526020019081526020015f20819055505b4260115f8373ffffffffffffffffffffffffffffffffffffffff1673ffffffffffffffffffffffffffffffffffffffff1681526020019081526020015f2081905550662386f26fc10000341015611df4576040517f08c379a0000000000000000000000000000000000000000000000000000000008152600401611deb90614cfb565b60405180910390fd5b6802b5e3af16b1880000341115611e40576040517f08c379a0000000000000000000000000000000000000000000000000000000008152600401611e3790614d63565b60405180910390fd5b6064600d541080611e97575060125f3373ffffffffffffffffffffffffffffffffffffffff1673ffffffffffffffffffffffffffffffffffffffff1681526020019081526020015f205f9054906101000a900460ff165b611ed6576040517f08c379a0000000000000000000000000000000000000000000000000000000008152600401611ecd90614dcb565b60405180910390fd5b5f611ee034610fca565b90505f8111611f24576040517f08c379a0000000000000000000000000000000000000000000000000000000008152600401611f1b90614a56565b60405180910390fd5b5f6001600d54611f349190614630565b600a54611f4191906146d1565b905080821115611f86576040517f08c379a0000000000000000000000000000000000000000000000000000000008152600401611f7d90614e33565b60405180910390fd5b5f6014600a54611f9691906146d1565b90508083611fa49190614630565b600a541015611fe8576040517f08c379a0000000000000000000000000000000000000000000000000000000008152600401611fdf906147e6565b60405180910390fd5b6b642a99575a3f87601800000083611ffe610f1a565b6120089190614630565b1115612049576040517f08c379a000000000000000000000000000000000000000000000000000000000815260040161204090614e9b565b60405180910390fd5b5f61205634600b546119e3565b905060085481111561209d576040517f08c379a000000000000000000000000000000000000000000000000000000000815260040161209490614f03565b60405180910390fd5b34600b546120ab9190614630565b600b8190555083600a546120bf9190614701565b600a8190555034600c546120d39190614630565b600c8190555060125f3373ffffffffffffffffffffffffffffffffffffffff1673ffffffffffffffffffffffffffffffffffffffff1681526020019081526020015f205f9054906101000a900460ff1661219457600160125f3373ffffffffffffffffffffffffffffffffffffffff1673ffffffffffffffffffffffffffffffffffffffff1681526020019081526020015f205f6101000a81548160ff021916908315150217905550600d5f81548092919061218e90614f21565b91905055505b5f6b50221445e1cc6c4ce0000000856121ab610f1a565b6121b59190614630565b101590506121c33386612fa1565b6121cc33613020565b3373ffffffffffffffffffffffffffffffffffffffff167f8fafebcaf9d154343dad25669bfa277f4fbacd7ac6b0c4fed522580e040a0f3334876040516122149291906149e5565b60405180910390a27f645aa9c724799dce7df512bb35a464fa2f9dbaca82fe22e62b3eeec7f7142f2f600a54600b546040516122519291906149e5565b60405180910390a18015612268576122676131bb565b5b505050505050612276612f56565b565b670214e8348c4f000081565b5f8061228e612b8d565b905061229b818585612c38565b600191505092915050565b6b32154cabad1fc3b00c00000081565b7fa49807205ce4d355092ef5a8a18f56e8913cf4a201fbe287825b095693c217756122e081612d28565b81600e60016101000a81548160ff021916908315150217905550811561230d576123086137cd565b612316565b61231561382f565b5b5050565b600581565b601b5f9054906101000a900473ffffffffffffffffffffffffffffffffffffffff1681565b662386f26fc1000081565b61235882610f57565b61236181612d28565b61236b8383612e26565b50505050565b612379612f10565b7fa49807205ce4d355092ef5a8a18f56e8913cf4a201fbe287825b095693c217756123a381612d28565b600e60019054906101000a900460ff166123f2576040517f08c379a00000000000000000000000000000000000000000000000000000000081526004016123e990614fb2565b60405180910390fd5b5f4790505f8111612438576040517f08c379a000000000000000000000000000000000000000000000000000000000815260040161242f9061501a565b60405180910390fd5b5f81905080600c5461244a9190614701565b600c819055505f3373ffffffffffffffffffffffffffffffffffffffff168260405161247590614901565b5f6040518083038185875af1925050503d805f81146124af576040519150601f19603f3d011682016040523d82523d5f602084013e6124b4565b606091505b50509050806124f8576040517f08c379a00000000000000000000000000000000000000000000000000000000081526004016124ef9061495f565b60405180910390fd5b3373ffffffffffffffffffffffffffffffffffffffff167f5fafa99d0643513820be26656b45130b01e1c03062e1266bf36f88cbd3bd96958360405161253e9190613fb0565b60405180910390a250505050612552612f56565b565b5f60015f8473ffffffffffffffffffffffffffffffffffffffff1673ffffffffffffffffffffffffffffffffffffffff1681526020019081526020015f205f8373ffffffffffffffffffffffffffffffffffffffff1673ffffffffffffffffffffffffffffffffffffffff1681526020019081526020015f2054905092915050565b6125de612f10565b6125e6612f60565b600e5f9054906101000a900460ff1615612635576040517f08c379a000000000000000000000000000000000000000000000000000000000815260040161262c90614c2b565b60405180910390fd5b3361012c60115f8373ffffffffffffffffffffffffffffffffffffffff1673ffffffffffffffffffffffffffffffffffffffff1681526020019081526020015f2054426126829190614701565b1015806126cc5750600560105f8373ffffffffffffffffffffffffffffffffffffffff1673ffffffffffffffffffffffffffffffffffffffff1681526020019081526020015f2054105b61270b576040517f08c379a000000000000000000000000000000000000000000000000000000000815260040161270290614c93565b60405180910390fd5b61012c60115f8373ffffffffffffffffffffffffffffffffffffffff1673ffffffffffffffffffffffffffffffffffffffff1681526020019081526020015f2054426127579190614701565b106127a457600160105f8373ffffffffffffffffffffffffffffffffffffffff1673ffffffffffffffffffffffffffffffffffffffff1681526020019081526020015f2081905550612830565b600160105f8373ffffffffffffffffffffffffffffffffffffffff1673ffffffffffffffffffffffffffffffffffffffff1681526020019081526020015f20546127ee9190614630565b60105f8373ffffffffffffffffffffffffffffffffffffffff1673ffffffffffffffffffffffffffffffffffffffff1681526020019081526020015f20819055505b4260115f8373ffffffffffffffffffffffffffffffffffffffff1673ffffffffffffffffffffffffffffffffffffffff1681526020019081526020015f20819055505f82116128b4576040517f08c379a00000000000000000000000000000000000000000000000000000000081526004016128ab90614a56565b60405180910390fd5b816128be336115db565b10156128ff576040517f08c379a00000000000000000000000000000000000000000000000000000000081526004016128f6906148b6565b60405180910390fd5b5f612909836114eb565b90505f811161294d576040517f08c379a000000000000000000000000000000000000000000000000000000000815260040161294490614a56565b60405180910390fd5b80600b541015801561295f5750804710155b61299e576040517f08c379a0000000000000000000000000000000000000000000000000000000008152600401612995906148b6565b60405180910390fd5b6129a83384613890565b82600a546129b69190614630565b600a8190555080600b546129ca9190614701565b600b8190555080600c546129de9190614701565b600c819055506129ee338261390f565b6129f733613020565b3373ffffffffffffffffffffffffffffffffffffffff167f2dcf9433d75db0d8b1c172641f85e319ffe4ad22e108a95d1847ceb906e5195d8483604051612a3f9291906149e5565b60405180910390a27f645aa9c724799dce7df512bb35a464fa2f9dbaca82fe22e62b3eeec7f7142f2f600a54600b54604051612a7c9291906149e5565b60405180910390a15050612a8e612f56565b50565b600f5481565b5f60095f8373ffffffffffffffffffffffffffffffffffffffff1673ffffffffffffffffffffffffffffffffffffffff1681526020019081526020015f20549050919050565b7f97667070c54ef182b0f5858b034beac1b6f3089aa2d3188bb1e8929f4fa9b92981565b6013805f0154908060010154908060020154908060030154908060040154905085565b5f7f01ffc9a7000000000000000000000000000000000000000000000000000000007bffffffffffffffffffffffffffffffffffffffffffffffffffffffff1916827bffffffffffffffffffffffffffffffffffffffffffffffffffffffff1916149050919050565b5f33905090565b612ba18383836001613a50565b505050565b5f612bb18484612554565b90507fffffffffffffffffffffffffffffffffffffffffffffffffffffffffffffffff8114612c325781811015612c23578281836040517ffb8f41b2000000000000000000000000000000000000000000000000000000008152600401612c1a93929190615038565b60405180910390fd5b612c3184848484035f613a50565b5b50505050565b5f73ffffffffffffffffffffffffffffffffffffffff168373ffffffffffffffffffffffffffffffffffffffff1603612ca8575f6040517f96c6fd1e000000000000000000000000000000000000000000000000000000008152600401612c9f91906143cb565b60405180910390fd5b5f73ffffffffffffffffffffffffffffffffffffffff168273ffffffffffffffffffffffffffffffffffffffff1603612d18575f6040517fec442f05000000000000000000000000000000000000000000000000000000008152600401612d0f91906143cb565b60405180910390fd5b612d23838383613c1f565b505050565b612d3981612d34612b8d565b613c37565b50565b5f612d478383611a14565b612e1c57600160075f8581526020019081526020015f205f015f8473ffffffffffffffffffffffffffffffffffffffff1673ffffffffffffffffffffffffffffffffffffffff1681526020019081526020015f205f6101000a81548160ff021916908315150217905550612db9612b8d565b73ffffffffffffffffffffffffffffffffffffffff168273ffffffffffffffffffffffffffffffffffffffff16847f2f8788117e7eff1d82e926ec794901d17c78024a50270940304540a733656f0d60405160405180910390a460019050612e20565b5f90505b92915050565b5f612e318383611a14565b15612f06575f60075f8581526020019081526020015f205f015f8473ffffffffffffffffffffffffffffffffffffffff1673ffffffffffffffffffffffffffffffffffffffff1681526020019081526020015f205f6101000a81548160ff021916908315150217905550612ea3612b8d565b73ffffffffffffffffffffffffffffffffffffffff168273ffffffffffffffffffffffffffffffffffffffff16847ff6391f5c32d9c69d2a47ea670b442974b53935d1edc7fd64eb21e047a839171b60405160405180910390a460019050612f0a565b5f90505b92915050565b600260055403612f4c576040517f3ee5aeb500000000000000000000000000000000000000000000000000000000815260040160405180910390fd5b6002600581905550565b6001600581905550565b612f686114bb565b15612f9f576040517fd93c066500000000000000000000000000000000000000000000000000000000815260040160405180910390fd5b565b5f73ffffffffffffffffffffffffffffffffffffffff168273ffffffffffffffffffffffffffffffffffffffff1603613011575f6040517fec442f0500000000000000000000000000000000000000000000000000000000815260040161300891906143cb565b60405180910390fd5b61301c5f8383613c1f565b5050565b60185f8273ffffffffffffffffffffffffffffffffffffffff1673ffffffffffffffffffffffffffffffffffffffff1681526020019081526020015f205f9054906101000a900460ff166130dd5760135f015f81548092919061308290614f21565b9190505550600160185f8373ffffffffffffffffffffffffffffffffffffffff1673ffffffffffffffffffffffffffffffffffffffff1681526020019081526020015f205f6101000a81548160ff0219169083151502179055505b60136001015f8154809291906130f290614f21565b91905055505f60195f8373ffffffffffffffffffffffffffffffffffffffff1673ffffffffffffffffffffffffffffffffffffffff1681526020019081526020015f2054426131419190614701565b90506201518081101561316b57600a60136002015f8282546131639190614630565b925050819055505b4260195f8473ffffffffffffffffffffffffffffffffffffffff1673ffffffffffffffffffffffffffffffffffffffff1681526020019081526020015f2081905550426013600401819055505050565b600e5f9054906101000a900460ff161561320a576040517f08c379a0000000000000000000000000000000000000000000000000000000008152600401613201906150b7565b60405180910390fd5b6b50221445e1cc6c4ce000000061321f610f1a565b1015613260576040517f08c379a00000000000000000000000000000000000000000000000000000000081526004016132579061511f565b60405180910390fd5b5f600a54116132a4576040517f08c379a000000000000000000000000000000000000000000000000000000000815260040161329b90615187565b60405180910390fd5b6001600e5f6101000a81548160ff0219169083151502179055505f670214e8348c4f0000476132d39190614701565b90505f670de0b6b3a764000090505f600a5482600b546132f39190614663565b6132fd91906146d1565b90505f8111613341576040517f08c379a0000000000000000000000000000000000000000000000000000000008152600401613338906151ef565b60405180910390fd5b5f81838561334f9190614663565b61335991906146d1565b90505f811161339d576040517f08c379a000000000000000000000000000000000000000000000000000000000815260040161339490615257565b60405180910390fd5b5f816133a7610f1a565b6b642a99575a3f8760180000006133be9190614701565b6133c89190614701565b90506133d43083612fa1565b6133de3082613890565b613409307f000000000000000000000000000000000000000000000000000000000000000084612b94565b5f3073ffffffffffffffffffffffffffffffffffffffff166370a08231306040518263ffffffff1660e01b815260040161344391906143cb565b602060405180830381865afa15801561345e573d5f803e3d5ffd5b505050506040513d601f19601f820116820180604052508101906134829190615289565b90507f000000000000000000000000000000000000000000000000000000000000000073ffffffffffffffffffffffffffffffffffffffff1663f305d719873086878b33426040518863ffffffff1660e01b81526004016134e8969594939291906152b4565b60606040518083038185885af19350505050801561352457506040513d601f19601f820116820180604052508101906135219190615313565b60015b613563576040517f08c379a000000000000000000000000000000000000000000000000000000000815260040161355a906153ad565b60405180910390fd5b833073ffffffffffffffffffffffffffffffffffffffff166370a08231306040518263ffffffff1660e01b815260040161359d91906143cb565b602060405180830381865afa1580156135b8573d5f803e3d5ffd5b505050506040513d601f19601f820116820180604052508101906135dc9190615289565b111561361d576040517f08c379a000000000000000000000000000000000000000000000000000000000815260040161361490615415565b60405180910390fd5b5f7f000000000000000000000000000000000000000000000000000000000000000073ffffffffffffffffffffffffffffffffffffffff1663e6a43905307f000000000000000000000000000000000000000000000000000000000000000073ffffffffffffffffffffffffffffffffffffffff1663ad5c46486040518163ffffffff1660e01b8152600401602060405180830381865afa1580156136c4573d5f803e3d5ffd5b505050506040513d601f19601f820116820180604052508101906136e89190615447565b6040518363ffffffff1660e01b8152600401613705929190615472565b602060405180830381865afa158015613720573d5f803e3d5ffd5b505050506040513d601f19601f820116820180604052508101906137449190615447565b905080601b5f6101000a81548173ffffffffffffffffffffffffffffffffffffffff021916908373ffffffffffffffffffffffffffffffffffffffff1602179055507fac424901bd1f8e5385fe5a264b1567e68253b82ca4ba36c2a82b6c439ec94b128385836040516137b993929190615499565b60405180910390a150505050505050505050565b6137d5612f60565b600160065f6101000a81548160ff0219169083151502179055507f62e78cea01bee320cd4e420270b5ea74000d11b0c9f74754ebdbfc544b05a258613818612b8d565b60405161382591906143cb565b60405180910390a1565b613837613c88565b5f60065f6101000a81548160ff0219169083151502179055507f5db9ee0a495bf2e6ff9c91a7834c1ba4fdd244a5e8aa4e537bd38aeae4b073aa613879612b8d565b60405161388691906143cb565b60405180910390a1565b5f73ffffffffffffffffffffffffffffffffffffffff168273ffffffffffffffffffffffffffffffffffffffff1603613900575f6040517f96c6fd1e0000000000000000000000000000000000000000000000000000000081526004016138f791906143cb565b60405180910390fd5b61390b825f83613c1f565b5050565b5f73ffffffffffffffffffffffffffffffffffffffff168273ffffffffffffffffffffffffffffffffffffffff1603613974576040517fe6c4247b00000000000000000000000000000000000000000000000000000000815260040160405180910390fd5b8060095f8473ffffffffffffffffffffffffffffffffffffffff1673ffffffffffffffffffffffffffffffffffffffff1681526020019081526020015f20546139bd9190614630565b60095f8473ffffffffffffffffffffffffffffffffffffffff1673ffffffffffffffffffffffffffffffffffffffff1681526020019081526020015f20819055508173ffffffffffffffffffffffffffffffffffffffff167f1eac8a3fac20cbc0ab386e1c2f193255a774cea3c8b271d31509bf1ec731618d82604051613a449190613fb0565b60405180910390a25050565b5f73ffffffffffffffffffffffffffffffffffffffff168473ffffffffffffffffffffffffffffffffffffffff1603613ac0575f6040517fe602df05000000000000000000000000000000000000000000000000000000008152600401613ab791906143cb565b60405180910390fd5b5f73ffffffffffffffffffffffffffffffffffffffff168373ffffffffffffffffffffffffffffffffffffffff1603613b30575f6040517f94280d62000000000000000000000000000000000000000000000000000000008152600401613b2791906143cb565b60405180910390fd5b8160015f8673ffffffffffffffffffffffffffffffffffffffff1673ffffffffffffffffffffffffffffffffffffffff1681526020019081526020015f205f8573ffffffffffffffffffffffffffffffffffffffff1673ffffffffffffffffffffffffffffffffffffffff1681526020019081526020015f20819055508015613c19578273ffffffffffffffffffffffffffffffffffffffff168473ffffffffffffffffffffffffffffffffffffffff167f8c5be1e5ebec7d5bd14f71427d1e84f3dd0314c0f7b2291e5b200ac8c7c3b92584604051613c109190613fb0565b60405180910390a35b50505050565b613c27612f60565b613c32838383613cc8565b505050565b613c418282611a14565b613c845780826040517fe2517d3f000000000000000000000000000000000000000000000000000000008152600401613c7b9291906154ce565b60405180910390fd5b5050565b613c906114bb565b613cc6576040517f8dfc202b00000000000000000000000000000000000000000000000000000000815260040160405180910390fd5b565b5f73ffffffffffffffffffffffffffffffffffffffff168373ffffffffffffffffffffffffffffffffffffffff1603613d18578060025f828254613d0c9190614630565b92505081905550613de6565b5f805f8573ffffffffffffffffffffffffffffffffffffffff1673ffffffffffffffffffffffffffffffffffffffff1681526020019081526020015f2054905081811015613da1578381836040517fe450d38c000000000000000000000000000000000000000000000000000000008152600401613d9893929190615038565b60405180910390fd5b8181035f808673ffffffffffffffffffffffffffffffffffffffff1673ffffffffffffffffffffffffffffffffffffffff1681526020019081526020015f2081905550505b5f73ffffffffffffffffffffffffffffffffffffffff168273ffffffffffffffffffffffffffffffffffffffff1603613e2d578060025f8282540392505081905550613e77565b805f808473ffffffffffffffffffffffffffffffffffffffff1673ffffffffffffffffffffffffffffffffffffffff1681526020019081526020015f205f82825401925050819055505b8173ffffffffffffffffffffffffffffffffffffffff168373ffffffffffffffffffffffffffffffffffffffff167fddf252ad1be2c89b69c2b068fc378daa952ba7f163c4a11628f55a4df523b3ef83604051613ed49190613fb0565b60405180910390a3505050565b5f80fd5b5f7fffffffff0000000000000000000000000000000000000000000000000000000082169050919050565b613f1981613ee5565b8114613f23575f80fd5b50565b5f81359050613f3481613f10565b92915050565b5f60208284031215613f4f57613f4e613ee1565b5b5f613f5c84828501613f26565b91505092915050565b5f8115159050919050565b613f7981613f65565b82525050565b5f602082019050613f925f830184613f70565b92915050565b5f819050919050565b613faa81613f98565b82525050565b5f602082019050613fc35f830184613fa1565b92915050565b5f81519050919050565b5f82825260208201905092915050565b8281835e5f83830152505050565b5f601f19601f8301169050919050565b5f61400b82613fc9565b6140158185613fd3565b9350614025818560208601613fe3565b61402e81613ff1565b840191505092915050565b5f6020820190508181035f8301526140518184614001565b905092915050565b5f73ffffffffffffffffffffffffffffffffffffffff82169050919050565b5f61408282614059565b9050919050565b61409281614078565b811461409c575f80fd5b50565b5f813590506140ad81614089565b92915050565b6140bc81613f98565b81146140c6575f80fd5b50565b5f813590506140d7816140b3565b92915050565b5f80604083850312156140f3576140f2613ee1565b5b5f6141008582860161409f565b9250506020614111858286016140c9565b9150509250929050565b5f805f6060848603121561413257614131613ee1565b5b5f61413f8682870161409f565b93505060206141508682870161409f565b9250506040614161868287016140c9565b9150509250925092565b5f819050919050565b61417d8161416b565b8114614187575f80fd5b50565b5f8135905061419881614174565b92915050565b5f602082840312156141b3576141b2613ee1565b5b5f6141c08482850161418a565b91505092915050565b6141d28161416b565b82525050565b5f6020820190506141eb5f8301846141c9565b92915050565b5f6020828403121561420657614205613ee1565b5b5f6142138482850161409f565b91505092915050565b5f806040838503121561423257614231613ee1565b5b5f61423f8582860161418a565b92505060206142508582860161409f565b9150509250929050565b5f60ff82169050919050565b61426f8161425a565b82525050565b5f6020820190506142885f830184614266565b92915050565b5f602082840312156142a3576142a2613ee1565b5b5f6142b0848285016140c9565b91505092915050565b5f60a0820190506142cc5f830188613fa1565b6142d96020830187613fa1565b6142e66040830186613fa1565b6142f36060830185613fa1565b6143006080830184613fa1565b9695505050505050565b5f819050919050565b5f61432d61432861432384614059565b61430a565b614059565b9050919050565b5f61433e82614313565b9050919050565b5f61434f82614334565b9050919050565b61435f81614345565b82525050565b5f6020820190506143785f830184614356565b92915050565b5f806040838503121561439457614393613ee1565b5b5f6143a1858286016140c9565b92505060206143b2858286016140c9565b9150509250929050565b6143c581614078565b82525050565b5f6020820190506143de5f8301846143bc565b92915050565b5f6143ee82614334565b9050919050565b6143fe816143e4565b82525050565b5f6020820190506144175f8301846143f5565b92915050565b61442681613f65565b8114614430575f80fd5b50565b5f813590506144418161441d565b92915050565b5f6020828403121561445c5761445b613ee1565b5b5f61446984828501614433565b91505092915050565b5f806040838503121561448857614487613ee1565b5b5f6144958582860161409f565b92505060206144a68582860161409f565b9150509250929050565b7f4e487b71000000000000000000000000000000000000000000000000000000005f52602260045260245ffd5b5f60028204905060018216806144f457607f821691505b602082108103614507576145066144b0565b5b50919050565b7f45544820616d6f756e74206d7573742062652067726561746572207468616e205f8201527f7a65726f00000000000000000000000000000000000000000000000000000000602082015250565b5f614567602483613fd3565b91506145728261450d565b604082019050919050565b5f6020820190508181035f8301526145948161455b565b9050919050565b7f496e73756666696369656e7420746f6b656e20726573657276650000000000005f82015250565b5f6145cf601a83613fd3565b91506145da8261459b565b602082019050919050565b5f6020820190508181035f8301526145fc816145c3565b9050919050565b7f4e487b71000000000000000000000000000000000000000000000000000000005f52601160045260245ffd5b5f61463a82613f98565b915061464583613f98565b925082820190508082111561465d5761465c614603565b5b92915050565b5f61466d82613f98565b915061467883613f98565b925082820261468681613f98565b9150828204841483151761469d5761469c614603565b5b5092915050565b7f4e487b71000000000000000000000000000000000000000000000000000000005f52601260045260245ffd5b5f6146db82613f98565b91506146e683613f98565b9250826146f6576146f56146a4565b5b828204905092915050565b5f61470b82613f98565b915061471683613f98565b925082820390508181111561472e5761472d614603565b5b92915050565b7f546f6b656e20707572636861736520616d6f756e7420746f6f206c6f770000005f82015250565b5f614768601d83613fd3565b915061477382614734565b602082019050919050565b5f6020820190508181035f8301526147958161475c565b9050919050565b7f4e6f7420656e6f75676820746f6b656e7320696e2072657365727665000000005f82015250565b5f6147d0601c83613fd3565b91506147db8261479c565b602082019050919050565b5f6020820190508181035f8301526147fd816147c4565b9050919050565b7f4e6f744d696772617465640000000000000000000000000000000000000000005f82015250565b5f614838600b83613fd3565b915061484382614804565b602082019050919050565b5f6020820190508181035f8301526148658161482c565b9050919050565b7f496e73756666696369656e7442616c616e6365000000000000000000000000005f82015250565b5f6148a0601383613fd3565b91506148ab8261486c565b602082019050919050565b5f6020820190508181035f8301526148cd81614894565b9050919050565b5f81905092915050565b50565b5f6148ec5f836148d4565b91506148f7826148de565b5f82019050919050565b5f61490b826148e1565b9150819050919050565b7f5472616e736665724661696c65640000000000000000000000000000000000005f82015250565b5f614949600e83613fd3565b915061495482614915565b602082019050919050565b5f6020820190508181035f8301526149768161493d565b9050919050565b7f53636f726520746f6f20686967680000000000000000000000000000000000005f82015250565b5f6149b1600e83613fd3565b91506149bc8261497d565b602082019050919050565b5f6020820190508181035f8301526149de816149a5565b9050919050565b5f6040820190506149f85f830185613fa1565b614a056020830184613fa1565b9392505050565b7f496e76616c6964416d6f756e74000000000000000000000000000000000000005f82015250565b5f614a40600d83613fd3565b9150614a4b82614a0c565b602082019050919050565b5f6020820190508181035f830152614a6d81614a34565b9050919050565b7f4e6f7420414920636f6e74726f6c6c65720000000000000000000000000000005f82015250565b5f614aa8601183613fd3565b9150614ab382614a74565b602082019050919050565b5f6020820190508181035f830152614ad581614a9c565b9050919050565b7f507269636520696d7061637420746f6f206869676800000000000000000000005f82015250565b5f614b10601583613fd3565b9150614b1b82614adc565b602082019050919050565b5f6020820190508181035f830152614b3d81614b04565b9050919050565b5f606082019050614b575f830186613fa1565b614b646020830185613fa1565b614b716040830184613fa1565b949350505050565b7f496e73756666696369656e7420636f6e74726163742062616c616e63650000005f82015250565b5f614bad601d83613fd3565b9150614bb882614b79565b602082019050919050565b5f6020820190508181035f830152614bda81614ba1565b9050919050565b7f416c72656164794d6967726174656400000000000000000000000000000000005f82015250565b5f614c15600f83613fd3565b9150614c2082614be1565b602082019050919050565b5f6020820190508181035f830152614c4281614c09565b9050919050565b7f4578636565646564526174654c696d69740000000000000000000000000000005f82015250565b5f614c7d601183613fd3565b9150614c8882614c49565b602082019050919050565b5f6020820190508181035f830152614caa81614c71565b9050919050565b7f416d6f756e7420746f6f204c6f770000000000000000000000000000000000005f82015250565b5f614ce5600e83613fd3565b9150614cf082614cb1565b602082019050919050565b5f6020820190508181035f830152614d1281614cd9565b9050919050565b7f416d6f756e742065786365656473206c696d69740000000000000000000000005f82015250565b5f614d4d601483613fd3565b9150614d5882614d19565b602082019050919050565b5f6020820190508181035f830152614d7a81614d41565b9050919050565b7f4d617820757365727320726561636865640000000000000000000000000000005f82015250565b5f614db5601183613fd3565b9150614dc082614d81565b602082019050919050565b5f6020820190508181035f830152614de281614da9565b9050919050565b7f5075726368617365206578636565647320616c6c6f776564206c696d697400005f82015250565b5f614e1d601e83613fd3565b9150614e2882614de9565b602082019050919050565b5f6020820190508181035f830152614e4a81614e11565b9050919050565b7f416d6f756e74206578636565647320746f74616c737570706c790000000000005f82015250565b5f614e85601a83613fd3565b9150614e9082614e51565b602082019050919050565b5f6020820190508181035f830152614eb281614e79565b9050919050565b7f416d6f756e74206578636565647320707269636520496d7061637400000000005f82015250565b5f614eed601b83613fd3565b9150614ef882614eb9565b602082019050919050565b5f6020820190508181035f830152614f1a81614ee1565b9050919050565b5f614f2b82613f98565b91507fffffffffffffffffffffffffffffffffffffffffffffffffffffffffffffffff8203614f5d57614f5c614603565b5b600182019050919050565b7f456d657267656e6379206d6f6465206e6f7420616374697665000000000000005f82015250565b5f614f9c601983613fd3565b9150614fa782614f68565b602082019050919050565b5f6020820190508181035f830152614fc981614f90565b9050919050565b7f4e6f2045544820746f20776974686472617700000000000000000000000000005f82015250565b5f615004601283613fd3565b915061500f82614fd0565b602082019050919050565b5f6020820190508181035f83015261503181614ff8565b9050919050565b5f60608201905061504b5f8301866143bc565b6150586020830185613fa1565b6150656040830184613fa1565b949350505050565b7f416c72656164794d6967726174656428290000000000000000000000000000005f82015250565b5f6150a1601183613fd3565b91506150ac8261506d565b602082019050919050565b5f6020820190508181035f8301526150ce81615095565b9050919050565b7f4d6967726174696f6e546872657368486f6c644e6f744d6574282900000000005f82015250565b5f615109601b83613fd3565b9150615114826150d5565b602082019050919050565b5f6020820190508181035f830152615136816150fd565b9050919050565b7f5a65726f20746f6b656e207265736572766500000000000000000000000000005f82015250565b5f615171601283613fd3565b915061517c8261513d565b602082019050919050565b5f6020820190508181035f83015261519e81615165565b9050919050565b7f496e76616c6964207072696365000000000000000000000000000000000000005f82015250565b5f6151d9600d83613fd3565b91506151e4826151a5565b602082019050919050565b5f6020820190508181035f830152615206816151cd565b9050919050565b7f496e76616c6964206d6967726174696f6e20616d6f756e7400000000000000005f82015250565b5f615241601883613fd3565b915061524c8261520d565b602082019050919050565b5f6020820190508181035f83015261526e81615235565b9050919050565b5f81519050615283816140b3565b92915050565b5f6020828403121561529e5761529d613ee1565b5b5f6152ab84828501615275565b91505092915050565b5f60c0820190506152c75f8301896143bc565b6152d46020830188613fa1565b6152e16040830187613fa1565b6152ee6060830186613fa1565b6152fb60808301856143bc565b61530860a0830184613fa1565b979650505050505050565b5f805f6060848603121561532a57615329613ee1565b5b5f61533786828701615275565b935050602061534886828701615275565b925050604061535986828701615275565b9150509250925092565b7f4d6967726174696f6e206661696c6564000000000000000000000000000000005f82015250565b5f615397601083613fd3565b91506153a282615363565b602082019050919050565b5f6020820190508181035f8301526153c48161538b565b9050919050565b7f546f6b656e2062616c616e6365206d616e6970756c61746564000000000000005f82015250565b5f6153ff601983613fd3565b915061540a826153cb565b602082019050919050565b5f6020820190508181035f83015261542c816153f3565b9050919050565b5f8151905061544181614089565b92915050565b5f6020828403121561545c5761545b613ee1565b5b5f61546984828501615433565b91505092915050565b5f6040820190506154855f8301856143bc565b61549260208301846143bc565b9392505050565b5f6060820190506154ac5f830186613fa1565b6154b96020830185613fa1565b6154c660408301846143bc565b949350505050565b5f6040820190506154e15f8301856143bc565b6154ee60208301846141c9565b939250505056fea26469706673582212207b9af225f4c0a5e9235731ea9f5909cc0af9b9a939812c9a4aebf0ae4059cef364736f6c634300081a0033",
			"opcodes": "PUSH1 0xC0 PUSH1 0x40 MSTORE PUSH1 0xA PUSH1 0x8 SSTORE PUSH1 0x40 MLOAD PUSH2 0x5EED CODESIZE SUB DUP1 PUSH2 0x5EED DUP4 CODECOPY DUP2 DUP2 ADD PUSH1 0x40 MSTORE DUP2 ADD SWAP1 PUSH2 0x2A SWAP2 SWAP1 PUSH2 0x54C JUMP JUMPDEST PUSH1 0x40 MLOAD DUP1 PUSH1 0x40 ADD PUSH1 0x40 MSTORE DUP1 PUSH1 0xA DUP2 MSTORE PUSH1 0x20 ADD PUSH32 0x4265617265644D696E7400000000000000000000000000000000000000000000 DUP2 MSTORE POP PUSH1 0x40 MLOAD DUP1 PUSH1 0x40 ADD PUSH1 0x40 MSTORE DUP1 PUSH1 0x3 DUP2 MSTORE PUSH1 0x20 ADD PUSH32 0x424D540000000000000000000000000000000000000000000000000000000000 DUP2 MSTORE POP DUP2 PUSH1 0x3 SWAP1 DUP2 PUSH2 0xA5 SWAP2 SWAP1 PUSH2 0x7D6 JUMP JUMPDEST POP DUP1 PUSH1 0x4 SWAP1 DUP2 PUSH2 0xB5 SWAP2 SWAP1 PUSH2 0x7D6 JUMP JUMPDEST POP POP POP PUSH1 0x1 PUSH1 0x5 DUP2 SWAP1 SSTORE POP PUSH0 PUSH1 0x6 PUSH0 PUSH2 0x100 EXP DUP2 SLOAD DUP2 PUSH1 0xFF MUL NOT AND SWAP1 DUP4 ISZERO ISZERO MUL OR SWAP1 SSTORE POP PUSH0 PUSH20 0xFFFFFFFFFFFFFFFFFFFFFFFFFFFFFFFFFFFFFFFF AND DUP4 PUSH20 0xFFFFFFFFFFFFFFFFFFFFFFFFFFFFFFFFFFFFFFFF AND SUB PUSH2 0x147 JUMPI PUSH1 0x40 MLOAD PUSH32 0x8C379A000000000000000000000000000000000000000000000000000000000 DUP2 MSTORE PUSH1 0x4 ADD PUSH2 0x13E SWAP1 PUSH2 0x8FF JUMP JUMPDEST PUSH1 0x40 MLOAD DUP1 SWAP2 SUB SWAP1 REVERT JUMPDEST PUSH0 PUSH20 0xFFFFFFFFFFFFFFFFFFFFFFFFFFFFFFFFFFFFFFFF AND DUP3 PUSH20 0xFFFFFFFFFFFFFFFFFFFFFFFFFFFFFFFFFFFFFFFF AND SUB PUSH2 0x1B5 JUMPI PUSH1 0x40 MLOAD PUSH32 0x8C379A000000000000000000000000000000000000000000000000000000000 DUP2 MSTORE PUSH1 0x4 ADD PUSH2 0x1AC SWAP1 PUSH2 0x8FF JUMP JUMPDEST PUSH1 0x40 MLOAD DUP1 SWAP2 SUB SWAP1 REVERT JUMPDEST PUSH0 PUSH20 0xFFFFFFFFFFFFFFFFFFFFFFFFFFFFFFFFFFFFFFFF AND DUP2 PUSH20 0xFFFFFFFFFFFFFFFFFFFFFFFFFFFFFFFFFFFFFFFF AND SUB PUSH2 0x223 JUMPI PUSH1 0x40 MLOAD PUSH32 0x8C379A000000000000000000000000000000000000000000000000000000000 DUP2 MSTORE PUSH1 0x4 ADD PUSH2 0x21A SWAP1 PUSH2 0x8FF JUMP JUMPDEST PUSH1 0x40 MLOAD DUP1 SWAP2 SUB SWAP1 REVERT JUMPDEST PUSH9 0x22B1C8C1227A00000 CALLVALUE LT ISZERO PUSH2 0x26F JUMPI PUSH1 0x40 MLOAD PUSH32 0x8C379A000000000000000000000000000000000000000000000000000000000 DUP2 MSTORE PUSH1 0x4 ADD PUSH2 0x266 SWAP1 PUSH2 0x967 JUMP JUMPDEST PUSH1 0x40 MLOAD DUP1 SWAP2 SUB SWAP1 REVERT JUMPDEST PUSH2 0x281 PUSH0 DUP1 SHL DUP3 PUSH2 0x38D PUSH1 0x20 SHL PUSH1 0x20 SHR JUMP JUMPDEST POP PUSH2 0x2B2 PUSH32 0xA49807205CE4D355092EF5A8A18F56E8913CF4A201FBE287825B095693C21775 DUP3 PUSH2 0x38D PUSH1 0x20 SHL PUSH1 0x20 SHR JUMP JUMPDEST POP DUP1 PUSH1 0x1A PUSH0 PUSH2 0x100 EXP DUP2 SLOAD DUP2 PUSH20 0xFFFFFFFFFFFFFFFFFFFFFFFFFFFFFFFFFFFFFFFF MUL NOT AND SWAP1 DUP4 PUSH20 0xFFFFFFFFFFFFFFFFFFFFFFFFFFFFFFFFFFFFFFFF AND MUL OR SWAP1 SSTORE POP PUSH12 0x32154CABAD1FC3B00C000000 PUSH1 0xA DUP2 SWAP1 SSTORE POP PUSH9 0x22B1C8C1227A00000 PUSH1 0xB DUP2 SWAP1 SSTORE POP DUP3 PUSH20 0xFFFFFFFFFFFFFFFFFFFFFFFFFFFFFFFFFFFFFFFF AND PUSH1 0x80 DUP2 PUSH20 0xFFFFFFFFFFFFFFFFFFFFFFFFFFFFFFFFFFFFFFFF AND DUP2 MSTORE POP POP DUP2 PUSH20 0xFFFFFFFFFFFFFFFFFFFFFFFFFFFFFFFFFFFFFFFF AND PUSH1 0xA0 DUP2 PUSH20 0xFFFFFFFFFFFFFFFFFFFFFFFFFFFFFFFFFFFFFFFF AND DUP2 MSTORE POP POP TIMESTAMP PUSH1 0xF DUP2 SWAP1 SSTORE POP POP POP POP PUSH2 0x985 JUMP JUMPDEST PUSH0 PUSH2 0x39E DUP4 DUP4 PUSH2 0x483 PUSH1 0x20 SHL PUSH1 0x20 SHR JUMP JUMPDEST PUSH2 0x479 JUMPI PUSH1 0x1 PUSH1 0x7 PUSH0 DUP6 DUP2 MSTORE PUSH1 0x20 ADD SWAP1 DUP2 MSTORE PUSH1 0x20 ADD PUSH0 KECCAK256 PUSH0 ADD PUSH0 DUP5 PUSH20 0xFFFFFFFFFFFFFFFFFFFFFFFFFFFFFFFFFFFFFFFF AND PUSH20 0xFFFFFFFFFFFFFFFFFFFFFFFFFFFFFFFFFFFFFFFF AND DUP2 MSTORE PUSH1 0x20 ADD SWAP1 DUP2 MSTORE PUSH1 0x20 ADD PUSH0 KECCAK256 PUSH0 PUSH2 0x100 EXP DUP2 SLOAD DUP2 PUSH1 0xFF MUL NOT AND SWAP1 DUP4 ISZERO ISZERO MUL OR SWAP1 SSTORE POP PUSH2 0x416 PUSH2 0x4E7 PUSH1 0x20 SHL PUSH1 0x20 SHR JUMP JUMPDEST PUSH20 0xFFFFFFFFFFFFFFFFFFFFFFFFFFFFFFFFFFFFFFFF AND DUP3 PUSH20 0xFFFFFFFFFFFFFFFFFFFFFFFFFFFFFFFFFFFFFFFF AND DUP5 PUSH32 0x2F8788117E7EFF1D82E926EC794901D17C78024A50270940304540A733656F0D PUSH1 0x40 MLOAD PUSH1 0x40 MLOAD DUP1 SWAP2 SUB SWAP1 LOG4 PUSH1 0x1 SWAP1 POP PUSH2 0x47D JUMP JUMPDEST PUSH0 SWAP1 POP JUMPDEST SWAP3 SWAP2 POP POP JUMP JUMPDEST PUSH0 PUSH1 0x7 PUSH0 DUP5 DUP2 MSTORE PUSH1 0x20 ADD SWAP1 DUP2 MSTORE PUSH1 0x20 ADD PUSH0 KECCAK256 PUSH0 ADD PUSH0 DUP4 PUSH20 0xFFFFFFFFFFFFFFFFFFFFFFFFFFFFFFFFFFFFFFFF AND PUSH20 0xFFFFFFFFFFFFFFFFFFFFFFFFFFFFFFFFFFFFFFFF AND DUP2 MSTORE PUSH1 0x20 ADD SWAP1 DUP2 MSTORE PUSH1 0x20 ADD PUSH0 KECCAK256 PUSH0 SWAP1 SLOAD SWAP1 PUSH2 0x100 EXP SWAP1 DIV PUSH1 0xFF AND SWAP1 POP SWAP3 SWAP2 POP POP JUMP JUMPDEST PUSH0 CALLER SWAP1 POP SWAP1 JUMP JUMPDEST PUSH0 DUP1 REVERT JUMPDEST PUSH0 PUSH20 0xFFFFFFFFFFFFFFFFFFFFFFFFFFFFFFFFFFFFFFFF DUP3 AND SWAP1 POP SWAP2 SWAP1 POP JUMP JUMPDEST PUSH0 PUSH2 0x51B DUP3 PUSH2 0x4F2 JUMP JUMPDEST SWAP1 POP SWAP2 SWAP1 POP JUMP JUMPDEST PUSH2 0x52B DUP2 PUSH2 0x511 JUMP JUMPDEST DUP2 EQ PUSH2 0x535 JUMPI PUSH0 DUP1 REVERT JUMPDEST POP JUMP JUMPDEST PUSH0 DUP2 MLOAD SWAP1 POP PUSH2 0x546 DUP2 PUSH2 0x522 JUMP JUMPDEST SWAP3 SWAP2 POP POP JUMP JUMPDEST PUSH0 DUP1 PUSH0 PUSH1 0x60 DUP5 DUP7 SUB SLT ISZERO PUSH2 0x563 JUMPI PUSH2 0x562 PUSH2 0x4EE JUMP JUMPDEST JUMPDEST PUSH0 PUSH2 0x570 DUP7 DUP3 DUP8 ADD PUSH2 0x538 JUMP JUMPDEST SWAP4 POP POP PUSH1 0x20 PUSH2 0x581 DUP7 DUP3 DUP8 ADD PUSH2 0x538 JUMP JUMPDEST SWAP3 POP POP PUSH1 0x40 PUSH2 0x592 DUP7 DUP3 DUP8 ADD PUSH2 0x538 JUMP JUMPDEST SWAP2 POP POP SWAP3 POP SWAP3 POP SWAP3 JUMP JUMPDEST PUSH0 DUP2 MLOAD SWAP1 POP SWAP2 SWAP1 POP JUMP JUMPDEST PUSH32 0x4E487B7100000000000000000000000000000000000000000000000000000000 PUSH0 MSTORE PUSH1 0x41 PUSH1 0x4 MSTORE PUSH1 0x24 PUSH0 REVERT JUMPDEST PUSH32 0x4E487B7100000000000000000000000000000000000000000000000000000000 PUSH0 MSTORE PUSH1 0x22 PUSH1 0x4 MSTORE PUSH1 0x24 PUSH0 REVERT JUMPDEST PUSH0 PUSH1 0x2 DUP3 DIV SWAP1 POP PUSH1 0x1 DUP3 AND DUP1 PUSH2 0x617 JUMPI PUSH1 0x7F DUP3 AND SWAP2 POP JUMPDEST PUSH1 0x20 DUP3 LT DUP2 SUB PUSH2 0x62A JUMPI PUSH2 0x629 PUSH2 0x5D3 JUMP JUMPDEST JUMPDEST POP SWAP2 SWAP1 POP JUMP JUMPDEST PUSH0 DUP2 SWAP1 POP DUP2 PUSH0 MSTORE PUSH1 0x20 PUSH0 KECCAK256 SWAP1 POP SWAP2 SWAP1 POP JUMP JUMPDEST PUSH0 PUSH1 0x20 PUSH1 0x1F DUP4 ADD DIV SWAP1 POP SWAP2 SWAP1 POP JUMP JUMPDEST PUSH0 DUP3 DUP3 SHL SWAP1 POP SWAP3 SWAP2 POP POP JUMP JUMPDEST PUSH0 PUSH1 0x8 DUP4 MUL PUSH2 0x68C PUSH32 0xFFFFFFFFFFFFFFFFFFFFFFFFFFFFFFFFFFFFFFFFFFFFFFFFFFFFFFFFFFFFFFFF DUP3 PUSH2 0x651 JUMP JUMPDEST PUSH2 0x696 DUP7 DUP4 PUSH2 0x651 JUMP JUMPDEST SWAP6 POP DUP1 NOT DUP5 AND SWAP4 POP DUP1 DUP7 AND DUP5 OR SWAP3 POP POP POP SWAP4 SWAP3 POP POP POP JUMP JUMPDEST PUSH0 DUP2 SWAP1 POP SWAP2 SWAP1 POP JUMP JUMPDEST PUSH0 DUP2 SWAP1 POP SWAP2 SWAP1 POP JUMP JUMPDEST PUSH0 PUSH2 0x6DA PUSH2 0x6D5 PUSH2 0x6D0 DUP5 PUSH2 0x6AE JUMP JUMPDEST PUSH2 0x6B7 JUMP JUMPDEST PUSH2 0x6AE JUMP JUMPDEST SWAP1 POP SWAP2 SWAP1 POP JUMP JUMPDEST PUSH0 DUP2 SWAP1 POP SWAP2 SWAP1 POP JUMP JUMPDEST PUSH2 0x6F3 DUP4 PUSH2 0x6C0 JUMP JUMPDEST PUSH2 0x707 PUSH2 0x6FF DUP3 PUSH2 0x6E1 JUMP JUMPDEST DUP5 DUP5 SLOAD PUSH2 0x65D JUMP JUMPDEST DUP3 SSTORE POP POP POP POP JUMP JUMPDEST PUSH0 SWAP1 JUMP JUMPDEST PUSH2 0x71B PUSH2 0x70F JUMP JUMPDEST PUSH2 0x726 DUP2 DUP5 DUP5 PUSH2 0x6EA JUMP JUMPDEST POP POP POP JUMP JUMPDEST JUMPDEST DUP2 DUP2 LT ISZERO PUSH2 0x749 JUMPI PUSH2 0x73E PUSH0 DUP3 PUSH2 0x713 JUMP JUMPDEST PUSH1 0x1 DUP2 ADD SWAP1 POP PUSH2 0x72C JUMP JUMPDEST POP POP JUMP JUMPDEST PUSH1 0x1F DUP3 GT ISZERO PUSH2 0x78E JUMPI PUSH2 0x75F DUP2 PUSH2 0x630 JUMP JUMPDEST PUSH2 0x768 DUP5 PUSH2 0x642 JUMP JUMPDEST DUP2 ADD PUSH1 0x20 DUP6 LT ISZERO PUSH2 0x777 JUMPI DUP2 SWAP1 POP JUMPDEST PUSH2 0x78B PUSH2 0x783 DUP6 PUSH2 0x642 JUMP JUMPDEST DUP4 ADD DUP3 PUSH2 0x72B JUMP JUMPDEST POP POP JUMPDEST POP POP POP JUMP JUMPDEST PUSH0 DUP3 DUP3 SHR SWAP1 POP SWAP3 SWAP2 POP POP JUMP JUMPDEST PUSH0 PUSH2 0x7AE PUSH0 NOT DUP5 PUSH1 0x8 MUL PUSH2 0x793 JUMP JUMPDEST NOT DUP1 DUP4 AND SWAP2 POP POP SWAP3 SWAP2 POP POP JUMP JUMPDEST PUSH0 PUSH2 0x7C6 DUP4 DUP4 PUSH2 0x79F JUMP JUMPDEST SWAP2 POP DUP3 PUSH1 0x2 MUL DUP3 OR SWAP1 POP SWAP3 SWAP2 POP POP JUMP JUMPDEST PUSH2 0x7DF DUP3 PUSH2 0x59C JUMP JUMPDEST PUSH8 0xFFFFFFFFFFFFFFFF DUP2 GT ISZERO PUSH2 0x7F8 JUMPI PUSH2 0x7F7 PUSH2 0x5A6 JUMP JUMPDEST JUMPDEST PUSH2 0x802 DUP3 SLOAD PUSH2 0x600 JUMP JUMPDEST PUSH2 0x80D DUP3 DUP3 DUP6 PUSH2 0x74D JUMP JUMPDEST PUSH0 PUSH1 0x20 SWAP1 POP PUSH1 0x1F DUP4 GT PUSH1 0x1 DUP2 EQ PUSH2 0x83E JUMPI PUSH0 DUP5 ISZERO PUSH2 0x82C JUMPI DUP3 DUP8 ADD MLOAD SWAP1 POP JUMPDEST PUSH2 0x836 DUP6 DUP3 PUSH2 0x7BB JUMP JUMPDEST DUP7 SSTORE POP PUSH2 0x89D JUMP JUMPDEST PUSH1 0x1F NOT DUP5 AND PUSH2 0x84C DUP7 PUSH2 0x630 JUMP JUMPDEST PUSH0 JUMPDEST DUP3 DUP2 LT ISZERO PUSH2 0x873 JUMPI DUP5 DUP10 ADD MLOAD DUP3 SSTORE PUSH1 0x1 DUP3 ADD SWAP2 POP PUSH1 0x20 DUP6 ADD SWAP5 POP PUSH1 0x20 DUP2 ADD SWAP1 POP PUSH2 0x84E JUMP JUMPDEST DUP7 DUP4 LT ISZERO PUSH2 0x890 JUMPI DUP5 DUP10 ADD MLOAD PUSH2 0x88C PUSH1 0x1F DUP10 AND DUP3 PUSH2 0x79F JUMP JUMPDEST DUP4 SSTORE POP JUMPDEST PUSH1 0x1 PUSH1 0x2 DUP9 MUL ADD DUP9 SSTORE POP POP POP JUMPDEST POP POP POP POP POP POP JUMP JUMPDEST PUSH0 DUP3 DUP3 MSTORE PUSH1 0x20 DUP3 ADD SWAP1 POP SWAP3 SWAP2 POP POP JUMP JUMPDEST PUSH32 0x496E76616C696441646472657373000000000000000000000000000000000000 PUSH0 DUP3 ADD MSTORE POP JUMP JUMPDEST PUSH0 PUSH2 0x8E9 PUSH1 0xE DUP4 PUSH2 0x8A5 JUMP JUMPDEST SWAP2 POP PUSH2 0x8F4 DUP3 PUSH2 0x8B5 JUMP JUMPDEST PUSH1 0x20 DUP3 ADD SWAP1 POP SWAP2 SWAP1 POP JUMP JUMPDEST PUSH0 PUSH1 0x20 DUP3 ADD SWAP1 POP DUP2 DUP2 SUB PUSH0 DUP4 ADD MSTORE PUSH2 0x916 DUP2 PUSH2 0x8DD JUMP JUMPDEST SWAP1 POP SWAP2 SWAP1 POP JUMP JUMPDEST PUSH32 0x496E73756666696369656E7420696E697469616C204554480000000000000000 PUSH0 DUP3 ADD MSTORE POP JUMP JUMPDEST PUSH0 PUSH2 0x951 PUSH1 0x18 DUP4 PUSH2 0x8A5 JUMP JUMPDEST SWAP2 POP PUSH2 0x95C DUP3 PUSH2 0x91D JUMP JUMPDEST PUSH1 0x20 DUP3 ADD SWAP1 POP SWAP2 SWAP1 POP JUMP JUMPDEST PUSH0 PUSH1 0x20 DUP3 ADD SWAP1 POP DUP2 DUP2 SUB PUSH0 DUP4 ADD MSTORE PUSH2 0x97E DUP2 PUSH2 0x945 JUMP JUMPDEST SWAP1 POP SWAP2 SWAP1 POP JUMP JUMPDEST PUSH1 0x80 MLOAD PUSH1 0xA0 MLOAD PUSH2 0x552B PUSH2 0x9C2 PUSH0 CODECOPY PUSH0 DUP2 DUP2 PUSH2 0x19C1 ADD MSTORE PUSH2 0x3620 ADD MSTORE PUSH0 DUP2 DUP2 PUSH2 0x163B ADD MSTORE DUP2 DUP2 PUSH2 0x33E4 ADD MSTORE DUP2 DUP2 PUSH2 0x3486 ADD MSTORE PUSH2 0x365D ADD MSTORE PUSH2 0x552B PUSH0 RETURN INVALID PUSH1 0x80 PUSH1 0x40 MSTORE PUSH1 0x4 CALLDATASIZE LT PUSH2 0x384 JUMPI PUSH0 CALLDATALOAD PUSH1 0xE0 SHR DUP1 PUSH4 0x7146BD08 GT PUSH2 0x1D0 JUMPI DUP1 PUSH4 0xA82B4D43 GT PUSH2 0x101 JUMPI DUP1 PUSH4 0xD547741F GT PUSH2 0x9F JUMPI DUP1 PUSH4 0xEAC697C9 GT PUSH2 0x6E JUMPI DUP1 PUSH4 0xEAC697C9 EQ PUSH2 0xD01 JUMPI DUP1 PUSH4 0xF3F43703 EQ PUSH2 0xD2B JUMPI DUP1 PUSH4 0xF5B541A6 EQ PUSH2 0xD67 JUMPI DUP1 PUSH4 0xFEEFC720 EQ PUSH2 0xD91 JUMPI PUSH2 0x38B JUMP JUMPDEST DUP1 PUSH4 0xD547741F EQ PUSH2 0xC5F JUMPI DUP1 PUSH4 0xDB2E21BC EQ PUSH2 0xC87 JUMPI DUP1 PUSH4 0xDD62ED3E EQ PUSH2 0xC9D JUMPI DUP1 PUSH4 0xE4849B32 EQ PUSH2 0xCD9 JUMPI PUSH2 0x38B JUMP JUMPDEST DUP1 PUSH4 0xBE32B3F8 GT PUSH2 0xDB JUMPI DUP1 PUSH4 0xBE32B3F8 EQ PUSH2 0xBB9 JUMPI DUP1 PUSH4 0xC2D0C2FF EQ PUSH2 0xBE1 JUMPI DUP1 PUSH4 0xC816841B EQ PUSH2 0xC0B JUMPI DUP1 PUSH4 0xD439390C EQ PUSH2 0xC35 JUMPI PUSH2 0x38B JUMP JUMPDEST DUP1 PUSH4 0xA82B4D43 EQ PUSH2 0xB29 JUMPI DUP1 PUSH4 0xA9059CBB EQ PUSH2 0xB53 JUMPI DUP1 PUSH4 0xB6628A4D EQ PUSH2 0xB8F JUMPI PUSH2 0x38B JUMP JUMPDEST DUP1 PUSH4 0x8BDB2AFA GT PUSH2 0x16E JUMPI DUP1 PUSH4 0x91D14854 GT PUSH2 0x148 JUMPI DUP1 PUSH4 0x91D14854 EQ PUSH2 0xA8F JUMPI DUP1 PUSH4 0x95D89B41 EQ PUSH2 0xACB JUMPI DUP1 PUSH4 0xA217FDDF EQ PUSH2 0xAF5 JUMPI DUP1 PUSH4 0xA6F2AE3A EQ PUSH2 0xB1F JUMPI PUSH2 0x38B JUMP JUMPDEST DUP1 PUSH4 0x8BDB2AFA EQ PUSH2 0x9FF JUMPI DUP1 PUSH4 0x8E81C731 EQ PUSH2 0xA29 JUMPI DUP1 PUSH4 0x902D55A5 EQ PUSH2 0xA65 JUMPI PUSH2 0x38B JUMP JUMPDEST DUP1 PUSH4 0x75B238FC GT PUSH2 0x1AA JUMPI DUP1 PUSH4 0x75B238FC EQ PUSH2 0x96D JUMPI DUP1 PUSH4 0x76222663 EQ PUSH2 0x997 JUMPI DUP1 PUSH4 0x764A75C3 EQ PUSH2 0x9BF JUMPI DUP1 PUSH4 0x7850D118 EQ PUSH2 0x9E9 JUMPI PUSH2 0x38B JUMP JUMPDEST DUP1 PUSH4 0x7146BD08 EQ PUSH2 0x8EF JUMPI DUP1 PUSH4 0x728E9ECC EQ PUSH2 0x919 JUMPI DUP1 PUSH4 0x735DE9F7 EQ PUSH2 0x943 JUMPI PUSH2 0x38B JUMP JUMPDEST DUP1 PUSH4 0x313CE567 GT PUSH2 0x2B5 JUMPI DUP1 PUSH4 0x49C1CA42 GT PUSH2 0x253 JUMPI DUP1 PUSH4 0x5D279F70 GT PUSH2 0x222 JUMPI DUP1 PUSH4 0x5D279F70 EQ PUSH2 0x811 JUMPI DUP1 PUSH4 0x69FCD4AC EQ PUSH2 0x84D JUMPI DUP1 PUSH4 0x70A08231 EQ PUSH2 0x889 JUMPI DUP1 PUSH4 0x70DB45D7 EQ PUSH2 0x8C5 JUMPI PUSH2 0x38B JUMP JUMPDEST DUP1 PUSH4 0x49C1CA42 EQ PUSH2 0x76B JUMPI DUP1 PUSH4 0x52B86D2B EQ PUSH2 0x793 JUMPI DUP1 PUSH4 0x5C975ABB EQ PUSH2 0x7BD JUMPI DUP1 PUSH4 0x5D202249 EQ PUSH2 0x7E7 JUMPI PUSH2 0x38B JUMP JUMPDEST DUP1 PUSH4 0x36568ABE GT PUSH2 0x28F JUMPI DUP1 PUSH4 0x36568ABE EQ PUSH2 0x6C3 JUMPI DUP1 PUSH4 0x4202D214 EQ PUSH2 0x6EB JUMPI DUP1 PUSH4 0x476343EE EQ PUSH2 0x727 JUMPI DUP1 PUSH4 0x48F617F1 EQ PUSH2 0x73D JUMPI PUSH2 0x38B JUMP JUMPDEST DUP1 PUSH4 0x313CE567 EQ PUSH2 0x633 JUMPI DUP1 PUSH4 0x322D2100 EQ PUSH2 0x65D JUMPI DUP1 PUSH4 0x343EE3B7 EQ PUSH2 0x699 JUMPI PUSH2 0x38B JUMP JUMPDEST DUP1 PUSH4 0x200E0AC8 GT PUSH2 0x322 JUMPI DUP1 PUSH4 0x27F0BFD6 GT PUSH2 0x2FC JUMPI DUP1 PUSH4 0x27F0BFD6 EQ PUSH2 0x57B JUMPI DUP1 PUSH4 0x2C678C64 EQ PUSH2 0x5B7 JUMPI DUP1 PUSH4 0x2F2FF15D EQ PUSH2 0x5E1 JUMPI DUP1 PUSH4 0x2FC52849 EQ PUSH2 0x609 JUMPI PUSH2 0x38B JUMP JUMPDEST DUP1 PUSH4 0x200E0AC8 EQ PUSH2 0x4D9 JUMPI DUP1 PUSH4 0x23B872DD EQ PUSH2 0x503 JUMPI DUP1 PUSH4 0x248A9CA3 EQ PUSH2 0x53F JUMPI PUSH2 0x38B JUMP JUMPDEST DUP1 PUSH4 0x905F560 GT PUSH2 0x35E JUMPI DUP1 PUSH4 0x905F560 EQ PUSH2 0x41F JUMPI DUP1 PUSH4 0x95EA7B3 EQ PUSH2 0x449 JUMPI DUP1 PUSH4 0x150EE883 EQ PUSH2 0x485 JUMPI DUP1 PUSH4 0x18160DDD EQ PUSH2 0x4AF JUMPI PUSH2 0x38B JUMP JUMPDEST DUP1 PUSH4 0x1FFC9A7 EQ PUSH2 0x38F JUMPI DUP1 PUSH4 0x27FB5B1 EQ PUSH2 0x3CB JUMPI DUP1 PUSH4 0x6FDDE03 EQ PUSH2 0x3F5 JUMPI PUSH2 0x38B JUMP JUMPDEST CALLDATASIZE PUSH2 0x38B JUMPI STOP JUMPDEST PUSH0 DUP1 REVERT JUMPDEST CALLVALUE DUP1 ISZERO PUSH2 0x39A JUMPI PUSH0 DUP1 REVERT JUMPDEST POP PUSH2 0x3B5 PUSH1 0x4 DUP1 CALLDATASIZE SUB DUP2 ADD SWAP1 PUSH2 0x3B0 SWAP2 SWAP1 PUSH2 0x3F3A JUMP JUMPDEST PUSH2 0xDBF JUMP JUMPDEST PUSH1 0x40 MLOAD PUSH2 0x3C2 SWAP2 SWAP1 PUSH2 0x3F7F JUMP JUMPDEST PUSH1 0x40 MLOAD DUP1 SWAP2 SUB SWAP1 RETURN JUMPDEST CALLVALUE DUP1 ISZERO PUSH2 0x3D6 JUMPI PUSH0 DUP1 REVERT JUMPDEST POP PUSH2 0x3DF PUSH2 0xE38 JUMP JUMPDEST PUSH1 0x40 MLOAD PUSH2 0x3EC SWAP2 SWAP1 PUSH2 0x3FB0 JUMP JUMPDEST PUSH1 0x40 MLOAD DUP1 SWAP2 SUB SWAP1 RETURN JUMPDEST CALLVALUE DUP1 ISZERO PUSH2 0x400 JUMPI PUSH0 DUP1 REVERT JUMPDEST POP PUSH2 0x409 PUSH2 0xE45 JUMP JUMPDEST PUSH1 0x40 MLOAD PUSH2 0x416 SWAP2 SWAP1 PUSH2 0x4039 JUMP JUMPDEST PUSH1 0x40 MLOAD DUP1 SWAP2 SUB SWAP1 RETURN JUMPDEST CALLVALUE DUP1 ISZERO PUSH2 0x42A JUMPI PUSH0 DUP1 REVERT JUMPDEST POP PUSH2 0x433 PUSH2 0xED5 JUMP JUMPDEST PUSH1 0x40 MLOAD PUSH2 0x440 SWAP2 SWAP1 PUSH2 0x3F7F JUMP JUMPDEST PUSH1 0x40 MLOAD DUP1 SWAP2 SUB SWAP1 RETURN JUMPDEST CALLVALUE DUP1 ISZERO PUSH2 0x454 JUMPI PUSH0 DUP1 REVERT JUMPDEST POP PUSH2 0x46F PUSH1 0x4 DUP1 CALLDATASIZE SUB DUP2 ADD SWAP1 PUSH2 0x46A SWAP2 SWAP1 PUSH2 0x40DD JUMP JUMPDEST PUSH2 0xEE8 JUMP JUMPDEST PUSH1 0x40 MLOAD PUSH2 0x47C SWAP2 SWAP1 PUSH2 0x3F7F JUMP JUMPDEST PUSH1 0x40 MLOAD DUP1 SWAP2 SUB SWAP1 RETURN JUMPDEST CALLVALUE DUP1 ISZERO PUSH2 0x490 JUMPI PUSH0 DUP1 REVERT JUMPDEST POP PUSH2 0x499 PUSH2 0xF0A JUMP JUMPDEST PUSH1 0x40 MLOAD PUSH2 0x4A6 SWAP2 SWAP1 PUSH2 0x3FB0 JUMP JUMPDEST PUSH1 0x40 MLOAD DUP1 SWAP2 SUB SWAP1 RETURN JUMPDEST CALLVALUE DUP1 ISZERO PUSH2 0x4BA JUMPI PUSH0 DUP1 REVERT JUMPDEST POP PUSH2 0x4C3 PUSH2 0xF1A JUMP JUMPDEST PUSH1 0x40 MLOAD PUSH2 0x4D0 SWAP2 SWAP1 PUSH2 0x3FB0 JUMP JUMPDEST PUSH1 0x40 MLOAD DUP1 SWAP2 SUB SWAP1 RETURN JUMPDEST CALLVALUE DUP1 ISZERO PUSH2 0x4E4 JUMPI PUSH0 DUP1 REVERT JUMPDEST POP PUSH2 0x4ED PUSH2 0xF23 JUMP JUMPDEST PUSH1 0x40 MLOAD PUSH2 0x4FA SWAP2 SWAP1 PUSH2 0x3FB0 JUMP JUMPDEST PUSH1 0x40 MLOAD DUP1 SWAP2 SUB SWAP1 RETURN JUMPDEST CALLVALUE DUP1 ISZERO PUSH2 0x50E JUMPI PUSH0 DUP1 REVERT JUMPDEST POP PUSH2 0x529 PUSH1 0x4 DUP1 CALLDATASIZE SUB DUP2 ADD SWAP1 PUSH2 0x524 SWAP2 SWAP1 PUSH2 0x411B JUMP JUMPDEST PUSH2 0xF29 JUMP JUMPDEST PUSH1 0x40 MLOAD PUSH2 0x536 SWAP2 SWAP1 PUSH2 0x3F7F JUMP JUMPDEST PUSH1 0x40 MLOAD DUP1 SWAP2 SUB SWAP1 RETURN JUMPDEST CALLVALUE DUP1 ISZERO PUSH2 0x54A JUMPI PUSH0 DUP1 REVERT JUMPDEST POP PUSH2 0x565 PUSH1 0x4 DUP1 CALLDATASIZE SUB DUP2 ADD SWAP1 PUSH2 0x560 SWAP2 SWAP1 PUSH2 0x419E JUMP JUMPDEST PUSH2 0xF57 JUMP JUMPDEST PUSH1 0x40 MLOAD PUSH2 0x572 SWAP2 SWAP1 PUSH2 0x41D8 JUMP JUMPDEST PUSH1 0x40 MLOAD DUP1 SWAP2 SUB SWAP1 RETURN JUMPDEST CALLVALUE DUP1 ISZERO PUSH2 0x586 JUMPI PUSH0 DUP1 REVERT JUMPDEST POP PUSH2 0x5A1 PUSH1 0x4 DUP1 CALLDATASIZE SUB DUP2 ADD SWAP1 PUSH2 0x59C SWAP2 SWAP1 PUSH2 0x41F1 JUMP JUMPDEST PUSH2 0xF74 JUMP JUMPDEST PUSH1 0x40 MLOAD PUSH2 0x5AE SWAP2 SWAP1 PUSH2 0x3FB0 JUMP JUMPDEST PUSH1 0x40 MLOAD DUP1 SWAP2 SUB SWAP1 RETURN JUMPDEST CALLVALUE DUP1 ISZERO PUSH2 0x5C2 JUMPI PUSH0 DUP1 REVERT JUMPDEST POP PUSH2 0x5CB PUSH2 0xF89 JUMP JUMPDEST PUSH1 0x40 MLOAD PUSH2 0x5D8 SWAP2 SWAP1 PUSH2 0x3F7F JUMP JUMPDEST PUSH1 0x40 MLOAD DUP1 SWAP2 SUB SWAP1 RETURN JUMPDEST CALLVALUE DUP1 ISZERO PUSH2 0x5EC JUMPI PUSH0 DUP1 REVERT JUMPDEST POP PUSH2 0x607 PUSH1 0x4 DUP1 CALLDATASIZE SUB DUP2 ADD SWAP1 PUSH2 0x602 SWAP2 SWAP1 PUSH2 0x421C JUMP JUMPDEST PUSH2 0xF9B JUMP JUMPDEST STOP JUMPDEST CALLVALUE DUP1 ISZERO PUSH2 0x614 JUMPI PUSH0 DUP1 REVERT JUMPDEST POP PUSH2 0x61D PUSH2 0xFBD JUMP JUMPDEST PUSH1 0x40 MLOAD PUSH2 0x62A SWAP2 SWAP1 PUSH2 0x3FB0 JUMP JUMPDEST PUSH1 0x40 MLOAD DUP1 SWAP2 SUB SWAP1 RETURN JUMPDEST CALLVALUE DUP1 ISZERO PUSH2 0x63E JUMPI PUSH0 DUP1 REVERT JUMPDEST POP PUSH2 0x647 PUSH2 0xFC2 JUMP JUMPDEST PUSH1 0x40 MLOAD PUSH2 0x654 SWAP2 SWAP1 PUSH2 0x4275 JUMP JUMPDEST PUSH1 0x40 MLOAD DUP1 SWAP2 SUB SWAP1 RETURN JUMPDEST CALLVALUE DUP1 ISZERO PUSH2 0x668 JUMPI PUSH0 DUP1 REVERT JUMPDEST POP PUSH2 0x683 PUSH1 0x4 DUP1 CALLDATASIZE SUB DUP2 ADD SWAP1 PUSH2 0x67E SWAP2 SWAP1 PUSH2 0x428E JUMP JUMPDEST PUSH2 0xFCA JUMP JUMPDEST PUSH1 0x40 MLOAD PUSH2 0x690 SWAP2 SWAP1 PUSH2 0x3FB0 JUMP JUMPDEST PUSH1 0x40 MLOAD DUP1 SWAP2 SUB SWAP1 RETURN JUMPDEST CALLVALUE DUP1 ISZERO PUSH2 0x6A4 JUMPI PUSH0 DUP1 REVERT JUMPDEST POP PUSH2 0x6AD PUSH2 0x11A8 JUMP JUMPDEST PUSH1 0x40 MLOAD PUSH2 0x6BA SWAP2 SWAP1 PUSH2 0x3FB0 JUMP JUMPDEST PUSH1 0x40 MLOAD DUP1 SWAP2 SUB SWAP1 RETURN JUMPDEST CALLVALUE DUP1 ISZERO PUSH2 0x6CE JUMPI PUSH0 DUP1 REVERT JUMPDEST POP PUSH2 0x6E9 PUSH1 0x4 DUP1 CALLDATASIZE SUB DUP2 ADD SWAP1 PUSH2 0x6E4 SWAP2 SWAP1 PUSH2 0x421C JUMP JUMPDEST PUSH2 0x11AE JUMP JUMPDEST STOP JUMPDEST CALLVALUE DUP1 ISZERO PUSH2 0x6F6 JUMPI PUSH0 DUP1 REVERT JUMPDEST POP PUSH2 0x711 PUSH1 0x4 DUP1 CALLDATASIZE SUB DUP2 ADD SWAP1 PUSH2 0x70C SWAP2 SWAP1 PUSH2 0x41F1 JUMP JUMPDEST PUSH2 0x1229 JUMP JUMPDEST PUSH1 0x40 MLOAD PUSH2 0x71E SWAP2 SWAP1 PUSH2 0x3F7F JUMP JUMPDEST PUSH1 0x40 MLOAD DUP1 SWAP2 SUB SWAP1 RETURN JUMPDEST CALLVALUE DUP1 ISZERO PUSH2 0x732 JUMPI PUSH0 DUP1 REVERT JUMPDEST POP PUSH2 0x73B PUSH2 0x1246 JUMP JUMPDEST STOP JUMPDEST CALLVALUE DUP1 ISZERO PUSH2 0x748 JUMPI PUSH0 DUP1 REVERT JUMPDEST POP PUSH2 0x751 PUSH2 0x13CD JUMP JUMPDEST PUSH1 0x40 MLOAD PUSH2 0x762 SWAP6 SWAP5 SWAP4 SWAP3 SWAP2 SWAP1 PUSH2 0x42B9 JUMP JUMPDEST PUSH1 0x40 MLOAD DUP1 SWAP2 SUB SWAP1 RETURN JUMPDEST CALLVALUE DUP1 ISZERO PUSH2 0x776 JUMPI PUSH0 DUP1 REVERT JUMPDEST POP PUSH2 0x791 PUSH1 0x4 DUP1 CALLDATASIZE SUB DUP2 ADD SWAP1 PUSH2 0x78C SWAP2 SWAP1 PUSH2 0x428E JUMP JUMPDEST PUSH2 0x1400 JUMP JUMPDEST STOP JUMPDEST CALLVALUE DUP1 ISZERO PUSH2 0x79E JUMPI PUSH0 DUP1 REVERT JUMPDEST POP PUSH2 0x7A7 PUSH2 0x14B5 JUMP JUMPDEST PUSH1 0x40 MLOAD PUSH2 0x7B4 SWAP2 SWAP1 PUSH2 0x3FB0 JUMP JUMPDEST PUSH1 0x40 MLOAD DUP1 SWAP2 SUB SWAP1 RETURN JUMPDEST CALLVALUE DUP1 ISZERO PUSH2 0x7C8 JUMPI PUSH0 DUP1 REVERT JUMPDEST POP PUSH2 0x7D1 PUSH2 0x14BB JUMP JUMPDEST PUSH1 0x40 MLOAD PUSH2 0x7DE SWAP2 SWAP1 PUSH2 0x3F7F JUMP JUMPDEST PUSH1 0x40 MLOAD DUP1 SWAP2 SUB SWAP1 RETURN JUMPDEST CALLVALUE DUP1 ISZERO PUSH2 0x7F2 JUMPI PUSH0 DUP1 REVERT JUMPDEST POP PUSH2 0x7FB PUSH2 0x14D0 JUMP JUMPDEST PUSH1 0x40 MLOAD PUSH2 0x808 SWAP2 SWAP1 PUSH2 0x3FB0 JUMP JUMPDEST PUSH1 0x40 MLOAD DUP1 SWAP2 SUB SWAP1 RETURN JUMPDEST CALLVALUE DUP1 ISZERO PUSH2 0x81C JUMPI PUSH0 DUP1 REVERT JUMPDEST POP PUSH2 0x837 PUSH1 0x4 DUP1 CALLDATASIZE SUB DUP2 ADD SWAP1 PUSH2 0x832 SWAP2 SWAP1 PUSH2 0x41F1 JUMP JUMPDEST PUSH2 0x14D6 JUMP JUMPDEST PUSH1 0x40 MLOAD PUSH2 0x844 SWAP2 SWAP1 PUSH2 0x3FB0 JUMP JUMPDEST PUSH1 0x40 MLOAD DUP1 SWAP2 SUB SWAP1 RETURN JUMPDEST CALLVALUE DUP1 ISZERO PUSH2 0x858 JUMPI PUSH0 DUP1 REVERT JUMPDEST POP PUSH2 0x873 PUSH1 0x4 DUP1 CALLDATASIZE SUB DUP2 ADD SWAP1 PUSH2 0x86E SWAP2 SWAP1 PUSH2 0x428E JUMP JUMPDEST PUSH2 0x14EB JUMP JUMPDEST PUSH1 0x40 MLOAD PUSH2 0x880 SWAP2 SWAP1 PUSH2 0x3FB0 JUMP JUMPDEST PUSH1 0x40 MLOAD DUP1 SWAP2 SUB SWAP1 RETURN JUMPDEST CALLVALUE DUP1 ISZERO PUSH2 0x894 JUMPI PUSH0 DUP1 REVERT JUMPDEST POP PUSH2 0x8AF PUSH1 0x4 DUP1 CALLDATASIZE SUB DUP2 ADD SWAP1 PUSH2 0x8AA SWAP2 SWAP1 PUSH2 0x41F1 JUMP JUMPDEST PUSH2 0x15DB JUMP JUMPDEST PUSH1 0x40 MLOAD PUSH2 0x8BC SWAP2 SWAP1 PUSH2 0x3FB0 JUMP JUMPDEST PUSH1 0x40 MLOAD DUP1 SWAP2 SUB SWAP1 RETURN JUMPDEST CALLVALUE DUP1 ISZERO PUSH2 0x8D0 JUMPI PUSH0 DUP1 REVERT JUMPDEST POP PUSH2 0x8D9 PUSH2 0x1620 JUMP JUMPDEST PUSH1 0x40 MLOAD PUSH2 0x8E6 SWAP2 SWAP1 PUSH2 0x3FB0 JUMP JUMPDEST PUSH1 0x40 MLOAD DUP1 SWAP2 SUB SWAP1 RETURN JUMPDEST CALLVALUE DUP1 ISZERO PUSH2 0x8FA JUMPI PUSH0 DUP1 REVERT JUMPDEST POP PUSH2 0x903 PUSH2 0x1626 JUMP JUMPDEST PUSH1 0x40 MLOAD PUSH2 0x910 SWAP2 SWAP1 PUSH2 0x3FB0 JUMP JUMPDEST PUSH1 0x40 MLOAD DUP1 SWAP2 SUB SWAP1 RETURN JUMPDEST CALLVALUE DUP1 ISZERO PUSH2 0x924 JUMPI PUSH0 DUP1 REVERT JUMPDEST POP PUSH2 0x92D PUSH2 0x1633 JUMP JUMPDEST PUSH1 0x40 MLOAD PUSH2 0x93A SWAP2 SWAP1 PUSH2 0x3FB0 JUMP JUMPDEST PUSH1 0x40 MLOAD DUP1 SWAP2 SUB SWAP1 RETURN JUMPDEST CALLVALUE DUP1 ISZERO PUSH2 0x94E JUMPI PUSH0 DUP1 REVERT JUMPDEST POP PUSH2 0x957 PUSH2 0x1639 JUMP JUMPDEST PUSH1 0x40 MLOAD PUSH2 0x964 SWAP2 SWAP1 PUSH2 0x4365 JUMP JUMPDEST PUSH1 0x40 MLOAD DUP1 SWAP2 SUB SWAP1 RETURN JUMPDEST CALLVALUE DUP1 ISZERO PUSH2 0x978 JUMPI PUSH0 DUP1 REVERT JUMPDEST POP PUSH2 0x981 PUSH2 0x165D JUMP JUMPDEST PUSH1 0x40 MLOAD PUSH2 0x98E SWAP2 SWAP1 PUSH2 0x41D8 JUMP JUMPDEST PUSH1 0x40 MLOAD DUP1 SWAP2 SUB SWAP1 RETURN JUMPDEST CALLVALUE DUP1 ISZERO PUSH2 0x9A2 JUMPI PUSH0 DUP1 REVERT JUMPDEST POP PUSH2 0x9BD PUSH1 0x4 DUP1 CALLDATASIZE SUB DUP2 ADD SWAP1 PUSH2 0x9B8 SWAP2 SWAP1 PUSH2 0x437E JUMP JUMPDEST PUSH2 0x1681 JUMP JUMPDEST STOP JUMPDEST CALLVALUE DUP1 ISZERO PUSH2 0x9CA JUMPI PUSH0 DUP1 REVERT JUMPDEST POP PUSH2 0x9D3 PUSH2 0x179A JUMP JUMPDEST PUSH1 0x40 MLOAD PUSH2 0x9E0 SWAP2 SWAP1 PUSH2 0x43CB JUMP JUMPDEST PUSH1 0x40 MLOAD DUP1 SWAP2 SUB SWAP1 RETURN JUMPDEST CALLVALUE DUP1 ISZERO PUSH2 0x9F4 JUMPI PUSH0 DUP1 REVERT JUMPDEST POP PUSH2 0x9FD PUSH2 0x17BF JUMP JUMPDEST STOP JUMPDEST CALLVALUE DUP1 ISZERO PUSH2 0xA0A JUMPI PUSH0 DUP1 REVERT JUMPDEST POP PUSH2 0xA13 PUSH2 0x19BF JUMP JUMPDEST PUSH1 0x40 MLOAD PUSH2 0xA20 SWAP2 SWAP1 PUSH2 0x4404 JUMP JUMPDEST PUSH1 0x40 MLOAD DUP1 SWAP2 SUB SWAP1 RETURN JUMPDEST CALLVALUE DUP1 ISZERO PUSH2 0xA34 JUMPI PUSH0 DUP1 REVERT JUMPDEST POP PUSH2 0xA4F PUSH1 0x4 DUP1 CALLDATASIZE SUB DUP2 ADD SWAP1 PUSH2 0xA4A SWAP2 SWAP1 PUSH2 0x437E JUMP JUMPDEST PUSH2 0x19E3 JUMP JUMPDEST PUSH1 0x40 MLOAD PUSH2 0xA5C SWAP2 SWAP1 PUSH2 0x3FB0 JUMP JUMPDEST PUSH1 0x40 MLOAD DUP1 SWAP2 SUB SWAP1 RETURN JUMPDEST CALLVALUE DUP1 ISZERO PUSH2 0xA70 JUMPI PUSH0 DUP1 REVERT JUMPDEST POP PUSH2 0xA79 PUSH2 0x1A04 JUMP JUMPDEST PUSH1 0x40 MLOAD PUSH2 0xA86 SWAP2 SWAP1 PUSH2 0x3FB0 JUMP JUMPDEST PUSH1 0x40 MLOAD DUP1 SWAP2 SUB SWAP1 RETURN JUMPDEST CALLVALUE DUP1 ISZERO PUSH2 0xA9A JUMPI PUSH0 DUP1 REVERT JUMPDEST POP PUSH2 0xAB5 PUSH1 0x4 DUP1 CALLDATASIZE SUB DUP2 ADD SWAP1 PUSH2 0xAB0 SWAP2 SWAP1 PUSH2 0x421C JUMP JUMPDEST PUSH2 0x1A14 JUMP JUMPDEST PUSH1 0x40 MLOAD PUSH2 0xAC2 SWAP2 SWAP1 PUSH2 0x3F7F JUMP JUMPDEST PUSH1 0x40 MLOAD DUP1 SWAP2 SUB SWAP1 RETURN JUMPDEST CALLVALUE DUP1 ISZERO PUSH2 0xAD6 JUMPI PUSH0 DUP1 REVERT JUMPDEST POP PUSH2 0xADF PUSH2 0x1A78 JUMP JUMPDEST PUSH1 0x40 MLOAD PUSH2 0xAEC SWAP2 SWAP1 PUSH2 0x4039 JUMP JUMPDEST PUSH1 0x40 MLOAD DUP1 SWAP2 SUB SWAP1 RETURN JUMPDEST CALLVALUE DUP1 ISZERO PUSH2 0xB00 JUMPI PUSH0 DUP1 REVERT JUMPDEST POP PUSH2 0xB09 PUSH2 0x1B08 JUMP JUMPDEST PUSH1 0x40 MLOAD PUSH2 0xB16 SWAP2 SWAP1 PUSH2 0x41D8 JUMP JUMPDEST PUSH1 0x40 MLOAD DUP1 SWAP2 SUB SWAP1 RETURN JUMPDEST PUSH2 0xB27 PUSH2 0x1B0E JUMP JUMPDEST STOP JUMPDEST CALLVALUE DUP1 ISZERO PUSH2 0xB34 JUMPI PUSH0 DUP1 REVERT JUMPDEST POP PUSH2 0xB3D PUSH2 0x2278 JUMP JUMPDEST PUSH1 0x40 MLOAD PUSH2 0xB4A SWAP2 SWAP1 PUSH2 0x3FB0 JUMP JUMPDEST PUSH1 0x40 MLOAD DUP1 SWAP2 SUB SWAP1 RETURN JUMPDEST CALLVALUE DUP1 ISZERO PUSH2 0xB5E JUMPI PUSH0 DUP1 REVERT JUMPDEST POP PUSH2 0xB79 PUSH1 0x4 DUP1 CALLDATASIZE SUB DUP2 ADD SWAP1 PUSH2 0xB74 SWAP2 SWAP1 PUSH2 0x40DD JUMP JUMPDEST PUSH2 0x2284 JUMP JUMPDEST PUSH1 0x40 MLOAD PUSH2 0xB86 SWAP2 SWAP1 PUSH2 0x3F7F JUMP JUMPDEST PUSH1 0x40 MLOAD DUP1 SWAP2 SUB SWAP1 RETURN JUMPDEST CALLVALUE DUP1 ISZERO PUSH2 0xB9A JUMPI PUSH0 DUP1 REVERT JUMPDEST POP PUSH2 0xBA3 PUSH2 0x22A6 JUMP JUMPDEST PUSH1 0x40 MLOAD PUSH2 0xBB0 SWAP2 SWAP1 PUSH2 0x3FB0 JUMP JUMPDEST PUSH1 0x40 MLOAD DUP1 SWAP2 SUB SWAP1 RETURN JUMPDEST CALLVALUE DUP1 ISZERO PUSH2 0xBC4 JUMPI PUSH0 DUP1 REVERT JUMPDEST POP PUSH2 0xBDF PUSH1 0x4 DUP1 CALLDATASIZE SUB DUP2 ADD SWAP1 PUSH2 0xBDA SWAP2 SWAP1 PUSH2 0x4447 JUMP JUMPDEST PUSH2 0x22B6 JUMP JUMPDEST STOP JUMPDEST CALLVALUE DUP1 ISZERO PUSH2 0xBEC JUMPI PUSH0 DUP1 REVERT JUMPDEST POP PUSH2 0xBF5 PUSH2 0x231A JUMP JUMPDEST PUSH1 0x40 MLOAD PUSH2 0xC02 SWAP2 SWAP1 PUSH2 0x3FB0 JUMP JUMPDEST PUSH1 0x40 MLOAD DUP1 SWAP2 SUB SWAP1 RETURN JUMPDEST CALLVALUE DUP1 ISZERO PUSH2 0xC16 JUMPI PUSH0 DUP1 REVERT JUMPDEST POP PUSH2 0xC1F PUSH2 0x231F JUMP JUMPDEST PUSH1 0x40 MLOAD PUSH2 0xC2C SWAP2 SWAP1 PUSH2 0x43CB JUMP JUMPDEST PUSH1 0x40 MLOAD DUP1 SWAP2 SUB SWAP1 RETURN JUMPDEST CALLVALUE DUP1 ISZERO PUSH2 0xC40 JUMPI PUSH0 DUP1 REVERT JUMPDEST POP PUSH2 0xC49 PUSH2 0x2344 JUMP JUMPDEST PUSH1 0x40 MLOAD PUSH2 0xC56 SWAP2 SWAP1 PUSH2 0x3FB0 JUMP JUMPDEST PUSH1 0x40 MLOAD DUP1 SWAP2 SUB SWAP1 RETURN JUMPDEST CALLVALUE DUP1 ISZERO PUSH2 0xC6A JUMPI PUSH0 DUP1 REVERT JUMPDEST POP PUSH2 0xC85 PUSH1 0x4 DUP1 CALLDATASIZE SUB DUP2 ADD SWAP1 PUSH2 0xC80 SWAP2 SWAP1 PUSH2 0x421C JUMP JUMPDEST PUSH2 0x234F JUMP JUMPDEST STOP JUMPDEST CALLVALUE DUP1 ISZERO PUSH2 0xC92 JUMPI PUSH0 DUP1 REVERT JUMPDEST POP PUSH2 0xC9B PUSH2 0x2371 JUMP JUMPDEST STOP JUMPDEST CALLVALUE DUP1 ISZERO PUSH2 0xCA8 JUMPI PUSH0 DUP1 REVERT JUMPDEST POP PUSH2 0xCC3 PUSH1 0x4 DUP1 CALLDATASIZE SUB DUP2 ADD SWAP1 PUSH2 0xCBE SWAP2 SWAP1 PUSH2 0x4472 JUMP JUMPDEST PUSH2 0x2554 JUMP JUMPDEST PUSH1 0x40 MLOAD PUSH2 0xCD0 SWAP2 SWAP1 PUSH2 0x3FB0 JUMP JUMPDEST PUSH1 0x40 MLOAD DUP1 SWAP2 SUB SWAP1 RETURN JUMPDEST CALLVALUE DUP1 ISZERO PUSH2 0xCE4 JUMPI PUSH0 DUP1 REVERT JUMPDEST POP PUSH2 0xCFF PUSH1 0x4 DUP1 CALLDATASIZE SUB DUP2 ADD SWAP1 PUSH2 0xCFA SWAP2 SWAP1 PUSH2 0x428E JUMP JUMPDEST PUSH2 0x25D6 JUMP JUMPDEST STOP JUMPDEST CALLVALUE DUP1 ISZERO PUSH2 0xD0C JUMPI PUSH0 DUP1 REVERT JUMPDEST POP PUSH2 0xD15 PUSH2 0x2A91 JUMP JUMPDEST PUSH1 0x40 MLOAD PUSH2 0xD22 SWAP2 SWAP1 PUSH2 0x3FB0 JUMP JUMPDEST PUSH1 0x40 MLOAD DUP1 SWAP2 SUB SWAP1 RETURN JUMPDEST CALLVALUE DUP1 ISZERO PUSH2 0xD36 JUMPI PUSH0 DUP1 REVERT JUMPDEST POP PUSH2 0xD51 PUSH1 0x4 DUP1 CALLDATASIZE SUB DUP2 ADD SWAP1 PUSH2 0xD4C SWAP2 SWAP1 PUSH2 0x41F1 JUMP JUMPDEST PUSH2 0x2A97 JUMP JUMPDEST PUSH1 0x40 MLOAD PUSH2 0xD5E SWAP2 SWAP1 PUSH2 0x3FB0 JUMP JUMPDEST PUSH1 0x40 MLOAD DUP1 SWAP2 SUB SWAP1 RETURN JUMPDEST CALLVALUE DUP1 ISZERO PUSH2 0xD72 JUMPI PUSH0 DUP1 REVERT JUMPDEST POP PUSH2 0xD7B PUSH2 0x2ADD JUMP JUMPDEST PUSH1 0x40 MLOAD PUSH2 0xD88 SWAP2 SWAP1 PUSH2 0x41D8 JUMP JUMPDEST PUSH1 0x40 MLOAD DUP1 SWAP2 SUB SWAP1 RETURN JUMPDEST CALLVALUE DUP1 ISZERO PUSH2 0xD9C JUMPI PUSH0 DUP1 REVERT JUMPDEST POP PUSH2 0xDA5 PUSH2 0x2B01 JUMP JUMPDEST PUSH1 0x40 MLOAD PUSH2 0xDB6 SWAP6 SWAP5 SWAP4 SWAP3 SWAP2 SWAP1 PUSH2 0x42B9 JUMP JUMPDEST PUSH1 0x40 MLOAD DUP1 SWAP2 SUB SWAP1 RETURN JUMPDEST PUSH0 PUSH32 0x7965DB0B00000000000000000000000000000000000000000000000000000000 PUSH28 0xFFFFFFFFFFFFFFFFFFFFFFFFFFFFFFFFFFFFFFFFFFFFFFFFFFFFFFFF NOT AND DUP3 PUSH28 0xFFFFFFFFFFFFFFFFFFFFFFFFFFFFFFFFFFFFFFFFFFFFFFFFFFFFFFFF NOT AND EQ DUP1 PUSH2 0xE31 JUMPI POP PUSH2 0xE30 DUP3 PUSH2 0x2B24 JUMP JUMPDEST JUMPDEST SWAP1 POP SWAP2 SWAP1 POP JUMP JUMPDEST PUSH9 0x22B1C8C1227A00000 DUP2 JUMP JUMPDEST PUSH1 0x60 PUSH1 0x3 DUP1 SLOAD PUSH2 0xE54 SWAP1 PUSH2 0x44DD JUMP JUMPDEST DUP1 PUSH1 0x1F ADD PUSH1 0x20 DUP1 SWAP2 DIV MUL PUSH1 0x20 ADD PUSH1 0x40 MLOAD SWAP1 DUP2 ADD PUSH1 0x40 MSTORE DUP1 SWAP3 SWAP2 SWAP1 DUP2 DUP2 MSTORE PUSH1 0x20 ADD DUP3 DUP1 SLOAD PUSH2 0xE80 SWAP1 PUSH2 0x44DD JUMP JUMPDEST DUP1 ISZERO PUSH2 0xECB JUMPI DUP1 PUSH1 0x1F LT PUSH2 0xEA2 JUMPI PUSH2 0x100 DUP1 DUP4 SLOAD DIV MUL DUP4 MSTORE SWAP2 PUSH1 0x20 ADD SWAP2 PUSH2 0xECB JUMP JUMPDEST DUP3 ADD SWAP2 SWAP1 PUSH0 MSTORE PUSH1 0x20 PUSH0 KECCAK256 SWAP1 JUMPDEST DUP2 SLOAD DUP2 MSTORE SWAP1 PUSH1 0x1 ADD SWAP1 PUSH1 0x20 ADD DUP1 DUP4 GT PUSH2 0xEAE JUMPI DUP3 SWAP1 SUB PUSH1 0x1F AND DUP3 ADD SWAP2 JUMPDEST POP POP POP POP POP SWAP1 POP SWAP1 JUMP JUMPDEST PUSH1 0xE PUSH1 0x1 SWAP1 SLOAD SWAP1 PUSH2 0x100 EXP SWAP1 DIV PUSH1 0xFF AND DUP2 JUMP JUMPDEST PUSH0 DUP1 PUSH2 0xEF2 PUSH2 0x2B8D JUMP JUMPDEST SWAP1 POP PUSH2 0xEFF DUP2 DUP6 DUP6 PUSH2 0x2B94 JUMP JUMPDEST PUSH1 0x1 SWAP2 POP POP SWAP3 SWAP2 POP POP JUMP JUMPDEST PUSH12 0x50221445E1CC6C4CE0000000 DUP2 JUMP JUMPDEST PUSH0 PUSH1 0x2 SLOAD SWAP1 POP SWAP1 JUMP JUMPDEST PUSH2 0x12C DUP2 JUMP JUMPDEST PUSH0 DUP1 PUSH2 0xF33 PUSH2 0x2B8D JUMP JUMPDEST SWAP1 POP PUSH2 0xF40 DUP6 DUP3 DUP6 PUSH2 0x2BA6 JUMP JUMPDEST PUSH2 0xF4B DUP6 DUP6 DUP6 PUSH2 0x2C38 JUMP JUMPDEST PUSH1 0x1 SWAP2 POP POP SWAP4 SWAP3 POP POP POP JUMP JUMPDEST PUSH0 PUSH1 0x7 PUSH0 DUP4 DUP2 MSTORE PUSH1 0x20 ADD SWAP1 DUP2 MSTORE PUSH1 0x20 ADD PUSH0 KECCAK256 PUSH1 0x1 ADD SLOAD SWAP1 POP SWAP2 SWAP1 POP JUMP JUMPDEST PUSH1 0x11 PUSH1 0x20 MSTORE DUP1 PUSH0 MSTORE PUSH1 0x40 PUSH0 KECCAK256 PUSH0 SWAP2 POP SWAP1 POP SLOAD DUP2 JUMP JUMPDEST PUSH1 0xE PUSH0 SWAP1 SLOAD SWAP1 PUSH2 0x100 EXP SWAP1 DIV PUSH1 0xFF AND DUP2 JUMP JUMPDEST PUSH2 0xFA4 DUP3 PUSH2 0xF57 JUMP JUMPDEST PUSH2 0xFAD DUP2 PUSH2 0x2D28 JUMP JUMPDEST PUSH2 0xFB7 DUP4 DUP4 PUSH2 0x2D3C JUMP JUMPDEST POP POP POP POP JUMP JUMPDEST PUSH1 0x64 DUP2 JUMP JUMPDEST PUSH0 PUSH1 0x12 SWAP1 POP SWAP1 JUMP JUMPDEST PUSH0 DUP1 DUP3 GT PUSH2 0x100D JUMPI PUSH1 0x40 MLOAD PUSH32 0x8C379A000000000000000000000000000000000000000000000000000000000 DUP2 MSTORE PUSH1 0x4 ADD PUSH2 0x1004 SWAP1 PUSH2 0x457D JUMP JUMPDEST PUSH1 0x40 MLOAD DUP1 SWAP2 SUB SWAP1 REVERT JUMPDEST PUSH0 PUSH1 0xA SLOAD GT PUSH2 0x1051 JUMPI PUSH1 0x40 MLOAD PUSH32 0x8C379A000000000000000000000000000000000000000000000000000000000 DUP2 MSTORE PUSH1 0x4 ADD PUSH2 0x1048 SWAP1 PUSH2 0x45E5 JUMP JUMPDEST PUSH1 0x40 MLOAD DUP1 SWAP2 SUB SWAP1 REVERT JUMPDEST PUSH0 DUP3 PUSH1 0xB SLOAD PUSH2 0x1060 SWAP2 SWAP1 PUSH2 0x4630 JUMP JUMPDEST SWAP1 POP PUSH0 PUSH1 0xB SLOAD PUSH1 0xA SLOAD DUP6 PUSH2 0x1074 SWAP2 SWAP1 PUSH2 0x4663 JUMP JUMPDEST PUSH2 0x107E SWAP2 SWAP1 PUSH2 0x46D1 JUMP JUMPDEST SWAP1 POP PUSH0 PUSH1 0xA PUSH1 0x13 PUSH1 0x2 ADD SLOAD PUSH2 0x1093 SWAP2 SWAP1 PUSH2 0x46D1 JUMP JUMPDEST PUSH1 0x64 PUSH2 0x109F SWAP2 SWAP1 PUSH2 0x4630 JUMP JUMPDEST SWAP1 POP PUSH0 PUSH1 0x32 PUSH1 0xD SLOAD LT ISZERO PUSH2 0x10CD JUMPI PUSH1 0x2 PUSH1 0xD SLOAD PUSH2 0x10BC SWAP2 SWAP1 PUSH2 0x4663 JUMP JUMPDEST PUSH1 0x64 PUSH2 0x10C8 SWAP2 SWAP1 PUSH2 0x4701 JUMP JUMPDEST PUSH2 0x10CF JUMP JUMPDEST PUSH0 JUMPDEST SWAP1 POP PUSH0 PUSH2 0x2710 DUP3 DUP5 DUP7 PUSH2 0x10E2 SWAP2 SWAP1 PUSH2 0x4663 JUMP JUMPDEST PUSH2 0x10EC SWAP2 SWAP1 PUSH2 0x4663 JUMP JUMPDEST PUSH2 0x10F6 SWAP2 SWAP1 PUSH2 0x46D1 JUMP JUMPDEST SWAP1 POP PUSH0 PUSH1 0x64 DUP9 PUSH2 0x1106 SWAP2 SWAP1 PUSH2 0x4663 JUMP JUMPDEST SWAP1 POP DUP1 DUP3 LT ISZERO PUSH2 0x1114 JUMPI DUP1 SWAP2 POP JUMPDEST PUSH0 DUP3 GT PUSH2 0x1156 JUMPI PUSH1 0x40 MLOAD PUSH32 0x8C379A000000000000000000000000000000000000000000000000000000000 DUP2 MSTORE PUSH1 0x4 ADD PUSH2 0x114D SWAP1 PUSH2 0x477E JUMP JUMPDEST PUSH1 0x40 MLOAD DUP1 SWAP2 SUB SWAP1 REVERT JUMPDEST PUSH1 0xA SLOAD DUP3 LT PUSH2 0x119A JUMPI PUSH1 0x40 MLOAD PUSH32 0x8C379A000000000000000000000000000000000000000000000000000000000 DUP2 MSTORE PUSH1 0x4 ADD PUSH2 0x1191 SWAP1 PUSH2 0x47E6 JUMP JUMPDEST PUSH1 0x40 MLOAD DUP1 SWAP2 SUB SWAP1 REVERT JUMPDEST DUP2 SWAP7 POP POP POP POP POP POP POP SWAP2 SWAP1 POP JUMP JUMPDEST PUSH1 0xA SLOAD DUP2 JUMP JUMPDEST PUSH2 0x11B6 PUSH2 0x2B8D JUMP JUMPDEST PUSH20 0xFFFFFFFFFFFFFFFFFFFFFFFFFFFFFFFFFFFFFFFF AND DUP2 PUSH20 0xFFFFFFFFFFFFFFFFFFFFFFFFFFFFFFFFFFFFFFFF AND EQ PUSH2 0x121A JUMPI PUSH1 0x40 MLOAD PUSH32 0x6697B23200000000000000000000000000000000000000000000000000000000 DUP2 MSTORE PUSH1 0x4 ADD PUSH1 0x40 MLOAD DUP1 SWAP2 SUB SWAP1 REVERT JUMPDEST PUSH2 0x1224 DUP3 DUP3 PUSH2 0x2E26 JUMP JUMPDEST POP POP POP JUMP JUMPDEST PUSH1 0x12 PUSH1 0x20 MSTORE DUP1 PUSH0 MSTORE PUSH1 0x40 PUSH0 KECCAK256 PUSH0 SWAP2 POP SLOAD SWAP1 PUSH2 0x100 EXP SWAP1 DIV PUSH1 0xFF AND DUP2 JUMP JUMPDEST PUSH2 0x124E PUSH2 0x2F10 JUMP JUMPDEST PUSH32 0xA49807205CE4D355092EF5A8A18F56E8913CF4A201FBE287825B095693C21775 PUSH2 0x1278 DUP2 PUSH2 0x2D28 JUMP JUMPDEST PUSH1 0xE PUSH0 SWAP1 SLOAD SWAP1 PUSH2 0x100 EXP SWAP1 DIV PUSH1 0xFF AND PUSH2 0x12C6 JUMPI PUSH1 0x40 MLOAD PUSH32 0x8C379A000000000000000000000000000000000000000000000000000000000 DUP2 MSTORE PUSH1 0x4 ADD PUSH2 0x12BD SWAP1 PUSH2 0x484E JUMP JUMPDEST PUSH1 0x40 MLOAD DUP1 SWAP2 SUB SWAP1 REVERT JUMPDEST PUSH8 0x214E8348C4F0000 SELFBALANCE LT ISZERO PUSH2 0x1311 JUMPI PUSH1 0x40 MLOAD PUSH32 0x8C379A000000000000000000000000000000000000000000000000000000000 DUP2 MSTORE PUSH1 0x4 ADD PUSH2 0x1308 SWAP1 PUSH2 0x48B6 JUMP JUMPDEST PUSH1 0x40 MLOAD DUP1 SWAP2 SUB SWAP1 REVERT JUMPDEST PUSH0 CALLER PUSH20 0xFFFFFFFFFFFFFFFFFFFFFFFFFFFFFFFFFFFFFFFF AND PUSH8 0x214E8348C4F0000 PUSH1 0x40 MLOAD PUSH2 0x133E SWAP1 PUSH2 0x4901 JUMP JUMPDEST PUSH0 PUSH1 0x40 MLOAD DUP1 DUP4 SUB DUP2 DUP6 DUP8 GAS CALL SWAP3 POP POP POP RETURNDATASIZE DUP1 PUSH0 DUP2 EQ PUSH2 0x1378 JUMPI PUSH1 0x40 MLOAD SWAP2 POP PUSH1 0x1F NOT PUSH1 0x3F RETURNDATASIZE ADD AND DUP3 ADD PUSH1 0x40 MSTORE RETURNDATASIZE DUP3 MSTORE RETURNDATASIZE PUSH0 PUSH1 0x20 DUP5 ADD RETURNDATACOPY PUSH2 0x137D JUMP JUMPDEST PUSH1 0x60 SWAP2 POP JUMPDEST POP POP SWAP1 POP DUP1 PUSH2 0x13C1 JUMPI PUSH1 0x40 MLOAD PUSH32 0x8C379A000000000000000000000000000000000000000000000000000000000 DUP2 MSTORE PUSH1 0x4 ADD PUSH2 0x13B8 SWAP1 PUSH2 0x495F JUMP JUMPDEST PUSH1 0x40 MLOAD DUP1 SWAP2 SUB SWAP1 REVERT JUMPDEST POP POP PUSH2 0x13CB PUSH2 0x2F56 JUMP JUMPDEST JUMP JUMPDEST PUSH0 DUP1 PUSH0 DUP1 PUSH0 PUSH1 0x13 PUSH0 ADD SLOAD PUSH1 0x13 PUSH1 0x1 ADD SLOAD PUSH1 0x13 PUSH1 0x2 ADD SLOAD PUSH1 0x13 PUSH1 0x3 ADD SLOAD PUSH1 0x13 PUSH1 0x4 ADD SLOAD SWAP5 POP SWAP5 POP SWAP5 POP SWAP5 POP SWAP5 POP SWAP1 SWAP2 SWAP3 SWAP4 SWAP5 JUMP JUMPDEST PUSH32 0xA49807205CE4D355092EF5A8A18F56E8913CF4A201FBE287825B095693C21775 PUSH2 0x142A DUP2 PUSH2 0x2D28 JUMP JUMPDEST PUSH1 0x64 DUP3 GT ISZERO PUSH2 0x146E JUMPI PUSH1 0x40 MLOAD PUSH32 0x8C379A000000000000000000000000000000000000000000000000000000000 DUP2 MSTORE PUSH1 0x4 ADD PUSH2 0x1465 SWAP1 PUSH2 0x49C7 JUMP JUMPDEST PUSH1 0x40 MLOAD DUP1 SWAP2 SUB SWAP1 REVERT JUMPDEST DUP2 PUSH1 0x13 PUSH1 0x3 ADD DUP2 SWAP1 SSTORE POP PUSH32 0x590C994B56546A5D3880BFFD741EBDF332E0184CD096A50E121518BA4CA5AE9D TIMESTAMP DUP4 PUSH1 0x40 MLOAD PUSH2 0x14A9 SWAP3 SWAP2 SWAP1 PUSH2 0x49E5 JUMP JUMPDEST PUSH1 0x40 MLOAD DUP1 SWAP2 SUB SWAP1 LOG1 POP POP JUMP JUMPDEST PUSH1 0xB SLOAD DUP2 JUMP JUMPDEST PUSH0 PUSH1 0x6 PUSH0 SWAP1 SLOAD SWAP1 PUSH2 0x100 EXP SWAP1 DIV PUSH1 0xFF AND SWAP1 POP SWAP1 JUMP JUMPDEST PUSH1 0xC SLOAD DUP2 JUMP JUMPDEST PUSH1 0x10 PUSH1 0x20 MSTORE DUP1 PUSH0 MSTORE PUSH1 0x40 PUSH0 KECCAK256 PUSH0 SWAP2 POP SWAP1 POP SLOAD DUP2 JUMP JUMPDEST PUSH0 DUP1 DUP3 GT PUSH2 0x152E JUMPI PUSH1 0x40 MLOAD PUSH32 0x8C379A000000000000000000000000000000000000000000000000000000000 DUP2 MSTORE PUSH1 0x4 ADD PUSH2 0x1525 SWAP1 PUSH2 0x4A56 JUMP JUMPDEST PUSH1 0x40 MLOAD DUP1 SWAP2 SUB SWAP1 REVERT JUMPDEST PUSH0 PUSH1 0xA SLOAD GT PUSH2 0x1572 JUMPI PUSH1 0x40 MLOAD PUSH32 0x8C379A000000000000000000000000000000000000000000000000000000000 DUP2 MSTORE PUSH1 0x4 ADD PUSH2 0x1569 SWAP1 PUSH2 0x45E5 JUMP JUMPDEST PUSH1 0x40 MLOAD DUP1 SWAP2 SUB SWAP1 REVERT JUMPDEST PUSH0 PUSH1 0xA SLOAD PUSH1 0xB SLOAD DUP5 PUSH2 0x1584 SWAP2 SWAP1 PUSH2 0x4663 JUMP JUMPDEST PUSH2 0x158E SWAP2 SWAP1 PUSH2 0x46D1 JUMP JUMPDEST SWAP1 POP PUSH0 PUSH9 0x3635C9ADC5DEA00000 PUSH8 0x8AC7230489E80000 DUP6 PUSH2 0x15AF SWAP2 SWAP1 PUSH2 0x4663 JUMP JUMPDEST PUSH2 0x15B9 SWAP2 SWAP1 PUSH2 0x46D1 JUMP JUMPDEST SWAP1 POP DUP1 DUP3 LT DUP1 PUSH2 0x15C8 JUMPI POP PUSH0 DUP3 EQ JUMPDEST ISZERO PUSH2 0x15D1 JUMPI DUP1 SWAP2 POP JUMPDEST DUP2 SWAP3 POP POP POP SWAP2 SWAP1 POP JUMP JUMPDEST PUSH0 DUP1 PUSH0 DUP4 PUSH20 0xFFFFFFFFFFFFFFFFFFFFFFFFFFFFFFFFFFFFFFFF AND PUSH20 0xFFFFFFFFFFFFFFFFFFFFFFFFFFFFFFFFFFFFFFFF AND DUP2 MSTORE PUSH1 0x20 ADD SWAP1 DUP2 MSTORE PUSH1 0x20 ADD PUSH0 KECCAK256 SLOAD SWAP1 POP SWAP2 SWAP1 POP JUMP JUMPDEST PUSH1 0x8 SLOAD DUP2 JUMP JUMPDEST PUSH9 0x2B5E3AF16B1880000 DUP2 JUMP JUMPDEST PUSH1 0xD SLOAD DUP2 JUMP JUMPDEST PUSH32 0x0 DUP2 JUMP JUMPDEST PUSH32 0xA49807205CE4D355092EF5A8A18F56E8913CF4A201FBE287825B095693C21775 DUP2 JUMP JUMPDEST PUSH1 0x1A PUSH0 SWAP1 SLOAD SWAP1 PUSH2 0x100 EXP SWAP1 DIV PUSH20 0xFFFFFFFFFFFFFFFFFFFFFFFFFFFFFFFFFFFFFFFF AND PUSH20 0xFFFFFFFFFFFFFFFFFFFFFFFFFFFFFFFFFFFFFFFF AND CALLER PUSH20 0xFFFFFFFFFFFFFFFFFFFFFFFFFFFFFFFFFFFFFFFF AND EQ PUSH2 0x1710 JUMPI PUSH1 0x40 MLOAD PUSH32 0x8C379A000000000000000000000000000000000000000000000000000000000 DUP2 MSTORE PUSH1 0x4 ADD PUSH2 0x1707 SWAP1 PUSH2 0x4ABE JUMP JUMPDEST PUSH1 0x40 MLOAD DUP1 SWAP2 SUB SWAP1 REVERT JUMPDEST PUSH1 0x14 DUP3 GT ISZERO PUSH2 0x1754 JUMPI PUSH1 0x40 MLOAD PUSH32 0x8C379A000000000000000000000000000000000000000000000000000000000 DUP2 MSTORE PUSH1 0x4 ADD PUSH2 0x174B SWAP1 PUSH2 0x4B26 JUMP JUMPDEST PUSH1 0x40 MLOAD DUP1 SWAP2 SUB SWAP1 REVERT JUMPDEST DUP2 PUSH1 0x8 DUP2 SWAP1 SSTORE POP PUSH32 0x6AC799F672711C1E1E236DF18F26A07A76CB09A3A84245DAB0008C2B8987094B TIMESTAMP DUP4 DUP4 PUSH1 0x40 MLOAD PUSH2 0x178E SWAP4 SWAP3 SWAP2 SWAP1 PUSH2 0x4B44 JUMP JUMPDEST PUSH1 0x40 MLOAD DUP1 SWAP2 SUB SWAP1 LOG1 POP POP JUMP JUMPDEST PUSH1 0x1A PUSH0 SWAP1 SLOAD SWAP1 PUSH2 0x100 EXP SWAP1 DIV PUSH20 0xFFFFFFFFFFFFFFFFFFFFFFFFFFFFFFFFFFFFFFFF AND DUP2 JUMP JUMPDEST PUSH2 0x17C7 PUSH2 0x2F10 JUMP JUMPDEST PUSH0 PUSH1 0x9 PUSH0 CALLER PUSH20 0xFFFFFFFFFFFFFFFFFFFFFFFFFFFFFFFFFFFFFFFF AND PUSH20 0xFFFFFFFFFFFFFFFFFFFFFFFFFFFFFFFFFFFFFFFF AND DUP2 MSTORE PUSH1 0x20 ADD SWAP1 DUP2 MSTORE PUSH1 0x20 ADD PUSH0 KECCAK256 SLOAD SWAP1 POP PUSH0 DUP2 SUB PUSH2 0x1841 JUMPI PUSH1 0x40 MLOAD PUSH32 0x6868774400000000000000000000000000000000000000000000000000000000 DUP2 MSTORE PUSH1 0x4 ADD PUSH1 0x40 MLOAD DUP1 SWAP2 SUB SWAP1 REVERT JUMPDEST DUP1 SELFBALANCE LT ISZERO PUSH2 0x1884 JUMPI PUSH1 0x40 MLOAD PUSH32 0x8C379A000000000000000000000000000000000000000000000000000000000 DUP2 MSTORE PUSH1 0x4 ADD PUSH2 0x187B SWAP1 PUSH2 0x4BC3 JUMP JUMPDEST PUSH1 0x40 MLOAD DUP1 SWAP2 SUB SWAP1 REVERT JUMPDEST PUSH0 PUSH1 0x9 PUSH0 CALLER PUSH20 0xFFFFFFFFFFFFFFFFFFFFFFFFFFFFFFFFFFFFFFFF AND PUSH20 0xFFFFFFFFFFFFFFFFFFFFFFFFFFFFFFFFFFFFFFFF AND DUP2 MSTORE PUSH1 0x20 ADD SWAP1 DUP2 MSTORE PUSH1 0x20 ADD PUSH0 KECCAK256 DUP2 SWAP1 SSTORE POP PUSH0 CALLER PUSH20 0xFFFFFFFFFFFFFFFFFFFFFFFFFFFFFFFFFFFFFFFF AND DUP3 PUSH1 0x40 MLOAD PUSH2 0x18EB SWAP1 PUSH2 0x4901 JUMP JUMPDEST PUSH0 PUSH1 0x40 MLOAD DUP1 DUP4 SUB DUP2 DUP6 DUP8 GAS CALL SWAP3 POP POP POP RETURNDATASIZE DUP1 PUSH0 DUP2 EQ PUSH2 0x1925 JUMPI PUSH1 0x40 MLOAD SWAP2 POP PUSH1 0x1F NOT PUSH1 0x3F RETURNDATASIZE ADD AND DUP3 ADD PUSH1 0x40 MSTORE RETURNDATASIZE DUP3 MSTORE RETURNDATASIZE PUSH0 PUSH1 0x20 DUP5 ADD RETURNDATACOPY PUSH2 0x192A JUMP JUMPDEST PUSH1 0x60 SWAP2 POP JUMPDEST POP POP SWAP1 POP DUP1 PUSH2 0x1965 JUMPI PUSH1 0x40 MLOAD PUSH32 0x90B8EC1800000000000000000000000000000000000000000000000000000000 DUP2 MSTORE PUSH1 0x4 ADD PUSH1 0x40 MLOAD DUP1 SWAP2 SUB SWAP1 REVERT JUMPDEST CALLER PUSH20 0xFFFFFFFFFFFFFFFFFFFFFFFFFFFFFFFFFFFFFFFF AND PUSH32 0x7084F5476618D8E60B11EF0D7D3F06914655ADB8793E28FF7F018D4C76D505D5 DUP4 PUSH1 0x40 MLOAD PUSH2 0x19AB SWAP2 SWAP1 PUSH2 0x3FB0 JUMP JUMPDEST PUSH1 0x40 MLOAD DUP1 SWAP2 SUB SWAP1 LOG2 POP POP PUSH2 0x19BD PUSH2 0x2F56 JUMP JUMPDEST JUMP JUMPDEST PUSH32 0x0 DUP2 JUMP JUMPDEST PUSH0 DUP2 PUSH1 0x64 PUSH2 0x19F1 SWAP2 SWAP1 PUSH2 0x46D1 JUMP JUMPDEST DUP4 PUSH2 0x19FC SWAP2 SWAP1 PUSH2 0x4663 JUMP JUMPDEST SWAP1 POP SWAP3 SWAP2 POP POP JUMP JUMPDEST PUSH12 0x642A99575A3F876018000000 DUP2 JUMP JUMPDEST PUSH0 PUSH1 0x7 PUSH0 DUP5 DUP2 MSTORE PUSH1 0x20 ADD SWAP1 DUP2 MSTORE PUSH1 0x20 ADD PUSH0 KECCAK256 PUSH0 ADD PUSH0 DUP4 PUSH20 0xFFFFFFFFFFFFFFFFFFFFFFFFFFFFFFFFFFFFFFFF AND PUSH20 0xFFFFFFFFFFFFFFFFFFFFFFFFFFFFFFFFFFFFFFFF AND DUP2 MSTORE PUSH1 0x20 ADD SWAP1 DUP2 MSTORE PUSH1 0x20 ADD PUSH0 KECCAK256 PUSH0 SWAP1 SLOAD SWAP1 PUSH2 0x100 EXP SWAP1 DIV PUSH1 0xFF AND SWAP1 POP SWAP3 SWAP2 POP POP JUMP JUMPDEST PUSH1 0x60 PUSH1 0x4 DUP1 SLOAD PUSH2 0x1A87 SWAP1 PUSH2 0x44DD JUMP JUMPDEST DUP1 PUSH1 0x1F ADD PUSH1 0x20 DUP1 SWAP2 DIV MUL PUSH1 0x20 ADD PUSH1 0x40 MLOAD SWAP1 DUP2 ADD PUSH1 0x40 MSTORE DUP1 SWAP3 SWAP2 SWAP1 DUP2 DUP2 MSTORE PUSH1 0x20 ADD DUP3 DUP1 SLOAD PUSH2 0x1AB3 SWAP1 PUSH2 0x44DD JUMP JUMPDEST DUP1 ISZERO PUSH2 0x1AFE JUMPI DUP1 PUSH1 0x1F LT PUSH2 0x1AD5 JUMPI PUSH2 0x100 DUP1 DUP4 SLOAD DIV MUL DUP4 MSTORE SWAP2 PUSH1 0x20 ADD SWAP2 PUSH2 0x1AFE JUMP JUMPDEST DUP3 ADD SWAP2 SWAP1 PUSH0 MSTORE PUSH1 0x20 PUSH0 KECCAK256 SWAP1 JUMPDEST DUP2 SLOAD DUP2 MSTORE SWAP1 PUSH1 0x1 ADD SWAP1 PUSH1 0x20 ADD DUP1 DUP4 GT PUSH2 0x1AE1 JUMPI DUP3 SWAP1 SUB PUSH1 0x1F AND DUP3 ADD SWAP2 JUMPDEST POP POP POP POP POP SWAP1 POP SWAP1 JUMP JUMPDEST PUSH0 DUP1 SHL DUP2 JUMP JUMPDEST PUSH2 0x1B16 PUSH2 0x2F10 JUMP JUMPDEST PUSH2 0x1B1E PUSH2 0x2F60 JUMP JUMPDEST PUSH1 0xE PUSH0 SWAP1 SLOAD SWAP1 PUSH2 0x100 EXP SWAP1 DIV PUSH1 0xFF AND ISZERO PUSH2 0x1B6D JUMPI PUSH1 0x40 MLOAD PUSH32 0x8C379A000000000000000000000000000000000000000000000000000000000 DUP2 MSTORE PUSH1 0x4 ADD PUSH2 0x1B64 SWAP1 PUSH2 0x4C2B JUMP JUMPDEST PUSH1 0x40 MLOAD DUP1 SWAP2 SUB SWAP1 REVERT JUMPDEST CALLER PUSH2 0x12C PUSH1 0x11 PUSH0 DUP4 PUSH20 0xFFFFFFFFFFFFFFFFFFFFFFFFFFFFFFFFFFFFFFFF AND PUSH20 0xFFFFFFFFFFFFFFFFFFFFFFFFFFFFFFFFFFFFFFFF AND DUP2 MSTORE PUSH1 0x20 ADD SWAP1 DUP2 MSTORE PUSH1 0x20 ADD PUSH0 KECCAK256 SLOAD TIMESTAMP PUSH2 0x1BBA SWAP2 SWAP1 PUSH2 0x4701 JUMP JUMPDEST LT ISZERO DUP1 PUSH2 0x1C04 JUMPI POP PUSH1 0x5 PUSH1 0x10 PUSH0 DUP4 PUSH20 0xFFFFFFFFFFFFFFFFFFFFFFFFFFFFFFFFFFFFFFFF AND PUSH20 0xFFFFFFFFFFFFFFFFFFFFFFFFFFFFFFFFFFFFFFFF AND DUP2 MSTORE PUSH1 0x20 ADD SWAP1 DUP2 MSTORE PUSH1 0x20 ADD PUSH0 KECCAK256 SLOAD LT JUMPDEST PUSH2 0x1C43 JUMPI PUSH1 0x40 MLOAD PUSH32 0x8C379A000000000000000000000000000000000000000000000000000000000 DUP2 MSTORE PUSH1 0x4 ADD PUSH2 0x1C3A SWAP1 PUSH2 0x4C93 JUMP JUMPDEST PUSH1 0x40 MLOAD DUP1 SWAP2 SUB SWAP1 REVERT JUMPDEST PUSH2 0x12C PUSH1 0x11 PUSH0 DUP4 PUSH20 0xFFFFFFFFFFFFFFFFFFFFFFFFFFFFFFFFFFFFFFFF AND PUSH20 0xFFFFFFFFFFFFFFFFFFFFFFFFFFFFFFFFFFFFFFFF AND DUP2 MSTORE PUSH1 0x20 ADD SWAP1 DUP2 MSTORE PUSH1 0x20 ADD PUSH0 KECCAK256 SLOAD TIMESTAMP PUSH2 0x1C8F SWAP2 SWAP1 PUSH2 0x4701 JUMP JUMPDEST LT PUSH2 0x1CDC JUMPI PUSH1 0x1 PUSH1 0x10 PUSH0 DUP4 PUSH20 0xFFFFFFFFFFFFFFFFFFFFFFFFFFFFFFFFFFFFFFFF AND PUSH20 0xFFFFFFFFFFFFFFFFFFFFFFFFFFFFFFFFFFFFFFFF AND DUP2 MSTORE PUSH1 0x20 ADD SWAP1 DUP2 MSTORE PUSH1 0x20 ADD PUSH0 KECCAK256 DUP2 SWAP1 SSTORE POP PUSH2 0x1D68 JUMP JUMPDEST PUSH1 0x1 PUSH1 0x10 PUSH0 DUP4 PUSH20 0xFFFFFFFFFFFFFFFFFFFFFFFFFFFFFFFFFFFFFFFF AND PUSH20 0xFFFFFFFFFFFFFFFFFFFFFFFFFFFFFFFFFFFFFFFF AND DUP2 MSTORE PUSH1 0x20 ADD SWAP1 DUP2 MSTORE PUSH1 0x20 ADD PUSH0 KECCAK256 SLOAD PUSH2 0x1D26 SWAP2 SWAP1 PUSH2 0x4630 JUMP JUMPDEST PUSH1 0x10 PUSH0 DUP4 PUSH20 0xFFFFFFFFFFFFFFFFFFFFFFFFFFFFFFFFFFFFFFFF AND PUSH20 0xFFFFFFFFFFFFFFFFFFFFFFFFFFFFFFFFFFFFFFFF AND DUP2 MSTORE PUSH1 0x20 ADD SWAP1 DUP2 MSTORE PUSH1 0x20 ADD PUSH0 KECCAK256 DUP2 SWAP1 SSTORE POP JUMPDEST TIMESTAMP PUSH1 0x11 PUSH0 DUP4 PUSH20 0xFFFFFFFFFFFFFFFFFFFFFFFFFFFFFFFFFFFFFFFF AND PUSH20 0xFFFFFFFFFFFFFFFFFFFFFFFFFFFFFFFFFFFFFFFF AND DUP2 MSTORE PUSH1 0x20 ADD SWAP1 DUP2 MSTORE PUSH1 0x20 ADD PUSH0 KECCAK256 DUP2 SWAP1 SSTORE POP PUSH7 0x2386F26FC10000 CALLVALUE LT ISZERO PUSH2 0x1DF4 JUMPI PUSH1 0x40 MLOAD PUSH32 0x8C379A000000000000000000000000000000000000000000000000000000000 DUP2 MSTORE PUSH1 0x4 ADD PUSH2 0x1DEB SWAP1 PUSH2 0x4CFB JUMP JUMPDEST PUSH1 0x40 MLOAD DUP1 SWAP2 SUB SWAP1 REVERT JUMPDEST PUSH9 0x2B5E3AF16B1880000 CALLVALUE GT ISZERO PUSH2 0x1E40 JUMPI PUSH1 0x40 MLOAD PUSH32 0x8C379A000000000000000000000000000000000000000000000000000000000 DUP2 MSTORE PUSH1 0x4 ADD PUSH2 0x1E37 SWAP1 PUSH2 0x4D63 JUMP JUMPDEST PUSH1 0x40 MLOAD DUP1 SWAP2 SUB SWAP1 REVERT JUMPDEST PUSH1 0x64 PUSH1 0xD SLOAD LT DUP1 PUSH2 0x1E97 JUMPI POP PUSH1 0x12 PUSH0 CALLER PUSH20 0xFFFFFFFFFFFFFFFFFFFFFFFFFFFFFFFFFFFFFFFF AND PUSH20 0xFFFFFFFFFFFFFFFFFFFFFFFFFFFFFFFFFFFFFFFF AND DUP2 MSTORE PUSH1 0x20 ADD SWAP1 DUP2 MSTORE PUSH1 0x20 ADD PUSH0 KECCAK256 PUSH0 SWAP1 SLOAD SWAP1 PUSH2 0x100 EXP SWAP1 DIV PUSH1 0xFF AND JUMPDEST PUSH2 0x1ED6 JUMPI PUSH1 0x40 MLOAD PUSH32 0x8C379A000000000000000000000000000000000000000000000000000000000 DUP2 MSTORE PUSH1 0x4 ADD PUSH2 0x1ECD SWAP1 PUSH2 0x4DCB JUMP JUMPDEST PUSH1 0x40 MLOAD DUP1 SWAP2 SUB SWAP1 REVERT JUMPDEST PUSH0 PUSH2 0x1EE0 CALLVALUE PUSH2 0xFCA JUMP JUMPDEST SWAP1 POP PUSH0 DUP2 GT PUSH2 0x1F24 JUMPI PUSH1 0x40 MLOAD PUSH32 0x8C379A000000000000000000000000000000000000000000000000000000000 DUP2 MSTORE PUSH1 0x4 ADD PUSH2 0x1F1B SWAP1 PUSH2 0x4A56 JUMP JUMPDEST PUSH1 0x40 MLOAD DUP1 SWAP2 SUB SWAP1 REVERT JUMPDEST PUSH0 PUSH1 0x1 PUSH1 0xD SLOAD PUSH2 0x1F34 SWAP2 SWAP1 PUSH2 0x4630 JUMP JUMPDEST PUSH1 0xA SLOAD PUSH2 0x1F41 SWAP2 SWAP1 PUSH2 0x46D1 JUMP JUMPDEST SWAP1 POP DUP1 DUP3 GT ISZERO PUSH2 0x1F86 JUMPI PUSH1 0x40 MLOAD PUSH32 0x8C379A000000000000000000000000000000000000000000000000000000000 DUP2 MSTORE PUSH1 0x4 ADD PUSH2 0x1F7D SWAP1 PUSH2 0x4E33 JUMP JUMPDEST PUSH1 0x40 MLOAD DUP1 SWAP2 SUB SWAP1 REVERT JUMPDEST PUSH0 PUSH1 0x14 PUSH1 0xA SLOAD PUSH2 0x1F96 SWAP2 SWAP1 PUSH2 0x46D1 JUMP JUMPDEST SWAP1 POP DUP1 DUP4 PUSH2 0x1FA4 SWAP2 SWAP1 PUSH2 0x4630 JUMP JUMPDEST PUSH1 0xA SLOAD LT ISZERO PUSH2 0x1FE8 JUMPI PUSH1 0x40 MLOAD PUSH32 0x8C379A000000000000000000000000000000000000000000000000000000000 DUP2 MSTORE PUSH1 0x4 ADD PUSH2 0x1FDF SWAP1 PUSH2 0x47E6 JUMP JUMPDEST PUSH1 0x40 MLOAD DUP1 SWAP2 SUB SWAP1 REVERT JUMPDEST PUSH12 0x642A99575A3F876018000000 DUP4 PUSH2 0x1FFE PUSH2 0xF1A JUMP JUMPDEST PUSH2 0x2008 SWAP2 SWAP1 PUSH2 0x4630 JUMP JUMPDEST GT ISZERO PUSH2 0x2049 JUMPI PUSH1 0x40 MLOAD PUSH32 0x8C379A000000000000000000000000000000000000000000000000000000000 DUP2 MSTORE PUSH1 0x4 ADD PUSH2 0x2040 SWAP1 PUSH2 0x4E9B JUMP JUMPDEST PUSH1 0x40 MLOAD DUP1 SWAP2 SUB SWAP1 REVERT JUMPDEST PUSH0 PUSH2 0x2056 CALLVALUE PUSH1 0xB SLOAD PUSH2 0x19E3 JUMP JUMPDEST SWAP1 POP PUSH1 0x8 SLOAD DUP2 GT ISZERO PUSH2 0x209D JUMPI PUSH1 0x40 MLOAD PUSH32 0x8C379A000000000000000000000000000000000000000000000000000000000 DUP2 MSTORE PUSH1 0x4 ADD PUSH2 0x2094 SWAP1 PUSH2 0x4F03 JUMP JUMPDEST PUSH1 0x40 MLOAD DUP1 SWAP2 SUB SWAP1 REVERT JUMPDEST CALLVALUE PUSH1 0xB SLOAD PUSH2 0x20AB SWAP2 SWAP1 PUSH2 0x4630 JUMP JUMPDEST PUSH1 0xB DUP2 SWAP1 SSTORE POP DUP4 PUSH1 0xA SLOAD PUSH2 0x20BF SWAP2 SWAP1 PUSH2 0x4701 JUMP JUMPDEST PUSH1 0xA DUP2 SWAP1 SSTORE POP CALLVALUE PUSH1 0xC SLOAD PUSH2 0x20D3 SWAP2 SWAP1 PUSH2 0x4630 JUMP JUMPDEST PUSH1 0xC DUP2 SWAP1 SSTORE POP PUSH1 0x12 PUSH0 CALLER PUSH20 0xFFFFFFFFFFFFFFFFFFFFFFFFFFFFFFFFFFFFFFFF AND PUSH20 0xFFFFFFFFFFFFFFFFFFFFFFFFFFFFFFFFFFFFFFFF AND DUP2 MSTORE PUSH1 0x20 ADD SWAP1 DUP2 MSTORE PUSH1 0x20 ADD PUSH0 KECCAK256 PUSH0 SWAP1 SLOAD SWAP1 PUSH2 0x100 EXP SWAP1 DIV PUSH1 0xFF AND PUSH2 0x2194 JUMPI PUSH1 0x1 PUSH1 0x12 PUSH0 CALLER PUSH20 0xFFFFFFFFFFFFFFFFFFFFFFFFFFFFFFFFFFFFFFFF AND PUSH20 0xFFFFFFFFFFFFFFFFFFFFFFFFFFFFFFFFFFFFFFFF AND DUP2 MSTORE PUSH1 0x20 ADD SWAP1 DUP2 MSTORE PUSH1 0x20 ADD PUSH0 KECCAK256 PUSH0 PUSH2 0x100 EXP DUP2 SLOAD DUP2 PUSH1 0xFF MUL NOT AND SWAP1 DUP4 ISZERO ISZERO MUL OR SWAP1 SSTORE POP PUSH1 0xD PUSH0 DUP2 SLOAD DUP1 SWAP3 SWAP2 SWAP1 PUSH2 0x218E SWAP1 PUSH2 0x4F21 JUMP JUMPDEST SWAP2 SWAP1 POP SSTORE POP JUMPDEST PUSH0 PUSH12 0x50221445E1CC6C4CE0000000 DUP6 PUSH2 0x21AB PUSH2 0xF1A JUMP JUMPDEST PUSH2 0x21B5 SWAP2 SWAP1 PUSH2 0x4630 JUMP JUMPDEST LT ISZERO SWAP1 POP PUSH2 0x21C3 CALLER DUP7 PUSH2 0x2FA1 JUMP JUMPDEST PUSH2 0x21CC CALLER PUSH2 0x3020 JUMP JUMPDEST CALLER PUSH20 0xFFFFFFFFFFFFFFFFFFFFFFFFFFFFFFFFFFFFFFFF AND PUSH32 0x8FAFEBCAF9D154343DAD25669BFA277F4FBACD7AC6B0C4FED522580E040A0F33 CALLVALUE DUP8 PUSH1 0x40 MLOAD PUSH2 0x2214 SWAP3 SWAP2 SWAP1 PUSH2 0x49E5 JUMP JUMPDEST PUSH1 0x40 MLOAD DUP1 SWAP2 SUB SWAP1 LOG2 PUSH32 0x645AA9C724799DCE7DF512BB35A464FA2F9DBACA82FE22E62B3EEEC7F7142F2F PUSH1 0xA SLOAD PUSH1 0xB SLOAD PUSH1 0x40 MLOAD PUSH2 0x2251 SWAP3 SWAP2 SWAP1 PUSH2 0x49E5 JUMP JUMPDEST PUSH1 0x40 MLOAD DUP1 SWAP2 SUB SWAP1 LOG1 DUP1 ISZERO PUSH2 0x2268 JUMPI PUSH2 0x2267 PUSH2 0x31BB JUMP JUMPDEST JUMPDEST POP POP POP POP POP POP PUSH2 0x2276 PUSH2 0x2F56 JUMP JUMPDEST JUMP JUMPDEST PUSH8 0x214E8348C4F0000 DUP2 JUMP JUMPDEST PUSH0 DUP1 PUSH2 0x228E PUSH2 0x2B8D JUMP JUMPDEST SWAP1 POP PUSH2 0x229B DUP2 DUP6 DUP6 PUSH2 0x2C38 JUMP JUMPDEST PUSH1 0x1 SWAP2 POP POP SWAP3 SWAP2 POP POP JUMP JUMPDEST PUSH12 0x32154CABAD1FC3B00C000000 DUP2 JUMP JUMPDEST PUSH32 0xA49807205CE4D355092EF5A8A18F56E8913CF4A201FBE287825B095693C21775 PUSH2 0x22E0 DUP2 PUSH2 0x2D28 JUMP JUMPDEST DUP2 PUSH1 0xE PUSH1 0x1 PUSH2 0x100 EXP DUP2 SLOAD DUP2 PUSH1 0xFF MUL NOT AND SWAP1 DUP4 ISZERO ISZERO MUL OR SWAP1 SSTORE POP DUP2 ISZERO PUSH2 0x230D JUMPI PUSH2 0x2308 PUSH2 0x37CD JUMP JUMPDEST PUSH2 0x2316 JUMP JUMPDEST PUSH2 0x2315 PUSH2 0x382F JUMP JUMPDEST JUMPDEST POP POP JUMP JUMPDEST PUSH1 0x5 DUP2 JUMP JUMPDEST PUSH1 0x1B PUSH0 SWAP1 SLOAD SWAP1 PUSH2 0x100 EXP SWAP1 DIV PUSH20 0xFFFFFFFFFFFFFFFFFFFFFFFFFFFFFFFFFFFFFFFF AND DUP2 JUMP JUMPDEST PUSH7 0x2386F26FC10000 DUP2 JUMP JUMPDEST PUSH2 0x2358 DUP3 PUSH2 0xF57 JUMP JUMPDEST PUSH2 0x2361 DUP2 PUSH2 0x2D28 JUMP JUMPDEST PUSH2 0x236B DUP4 DUP4 PUSH2 0x2E26 JUMP JUMPDEST POP POP POP POP JUMP JUMPDEST PUSH2 0x2379 PUSH2 0x2F10 JUMP JUMPDEST PUSH32 0xA49807205CE4D355092EF5A8A18F56E8913CF4A201FBE287825B095693C21775 PUSH2 0x23A3 DUP2 PUSH2 0x2D28 JUMP JUMPDEST PUSH1 0xE PUSH1 0x1 SWAP1 SLOAD SWAP1 PUSH2 0x100 EXP SWAP1 DIV PUSH1 0xFF AND PUSH2 0x23F2 JUMPI PUSH1 0x40 MLOAD PUSH32 0x8C379A000000000000000000000000000000000000000000000000000000000 DUP2 MSTORE PUSH1 0x4 ADD PUSH2 0x23E9 SWAP1 PUSH2 0x4FB2 JUMP JUMPDEST PUSH1 0x40 MLOAD DUP1 SWAP2 SUB SWAP1 REVERT JUMPDEST PUSH0 SELFBALANCE SWAP1 POP PUSH0 DUP2 GT PUSH2 0x2438 JUMPI PUSH1 0x40 MLOAD PUSH32 0x8C379A000000000000000000000000000000000000000000000000000000000 DUP2 MSTORE PUSH1 0x4 ADD PUSH2 0x242F SWAP1 PUSH2 0x501A JUMP JUMPDEST PUSH1 0x40 MLOAD DUP1 SWAP2 SUB SWAP1 REVERT JUMPDEST PUSH0 DUP2 SWAP1 POP DUP1 PUSH1 0xC SLOAD PUSH2 0x244A SWAP2 SWAP1 PUSH2 0x4701 JUMP JUMPDEST PUSH1 0xC DUP2 SWAP1 SSTORE POP PUSH0 CALLER PUSH20 0xFFFFFFFFFFFFFFFFFFFFFFFFFFFFFFFFFFFFFFFF AND DUP3 PUSH1 0x40 MLOAD PUSH2 0x2475 SWAP1 PUSH2 0x4901 JUMP JUMPDEST PUSH0 PUSH1 0x40 MLOAD DUP1 DUP4 SUB DUP2 DUP6 DUP8 GAS CALL SWAP3 POP POP POP RETURNDATASIZE DUP1 PUSH0 DUP2 EQ PUSH2 0x24AF JUMPI PUSH1 0x40 MLOAD SWAP2 POP PUSH1 0x1F NOT PUSH1 0x3F RETURNDATASIZE ADD AND DUP3 ADD PUSH1 0x40 MSTORE RETURNDATASIZE DUP3 MSTORE RETURNDATASIZE PUSH0 PUSH1 0x20 DUP5 ADD RETURNDATACOPY PUSH2 0x24B4 JUMP JUMPDEST PUSH1 0x60 SWAP2 POP JUMPDEST POP POP SWAP1 POP DUP1 PUSH2 0x24F8 JUMPI PUSH1 0x40 MLOAD PUSH32 0x8C379A000000000000000000000000000000000000000000000000000000000 DUP2 MSTORE PUSH1 0x4 ADD PUSH2 0x24EF SWAP1 PUSH2 0x495F JUMP JUMPDEST PUSH1 0x40 MLOAD DUP1 SWAP2 SUB SWAP1 REVERT JUMPDEST CALLER PUSH20 0xFFFFFFFFFFFFFFFFFFFFFFFFFFFFFFFFFFFFFFFF AND PUSH32 0x5FAFA99D0643513820BE26656B45130B01E1C03062E1266BF36F88CBD3BD9695 DUP4 PUSH1 0x40 MLOAD PUSH2 0x253E SWAP2 SWAP1 PUSH2 0x3FB0 JUMP JUMPDEST PUSH1 0x40 MLOAD DUP1 SWAP2 SUB SWAP1 LOG2 POP POP POP POP PUSH2 0x2552 PUSH2 0x2F56 JUMP JUMPDEST JUMP JUMPDEST PUSH0 PUSH1 0x1 PUSH0 DUP5 PUSH20 0xFFFFFFFFFFFFFFFFFFFFFFFFFFFFFFFFFFFFFFFF AND PUSH20 0xFFFFFFFFFFFFFFFFFFFFFFFFFFFFFFFFFFFFFFFF AND DUP2 MSTORE PUSH1 0x20 ADD SWAP1 DUP2 MSTORE PUSH1 0x20 ADD PUSH0 KECCAK256 PUSH0 DUP4 PUSH20 0xFFFFFFFFFFFFFFFFFFFFFFFFFFFFFFFFFFFFFFFF AND PUSH20 0xFFFFFFFFFFFFFFFFFFFFFFFFFFFFFFFFFFFFFFFF AND DUP2 MSTORE PUSH1 0x20 ADD SWAP1 DUP2 MSTORE PUSH1 0x20 ADD PUSH0 KECCAK256 SLOAD SWAP1 POP SWAP3 SWAP2 POP POP JUMP JUMPDEST PUSH2 0x25DE PUSH2 0x2F10 JUMP JUMPDEST PUSH2 0x25E6 PUSH2 0x2F60 JUMP JUMPDEST PUSH1 0xE PUSH0 SWAP1 SLOAD SWAP1 PUSH2 0x100 EXP SWAP1 DIV PUSH1 0xFF AND ISZERO PUSH2 0x2635 JUMPI PUSH1 0x40 MLOAD PUSH32 0x8C379A000000000000000000000000000000000000000000000000000000000 DUP2 MSTORE PUSH1 0x4 ADD PUSH2 0x262C SWAP1 PUSH2 0x4C2B JUMP JUMPDEST PUSH1 0x40 MLOAD DUP1 SWAP2 SUB SWAP1 REVERT JUMPDEST CALLER PUSH2 0x12C PUSH1 0x11 PUSH0 DUP4 PUSH20 0xFFFFFFFFFFFFFFFFFFFFFFFFFFFFFFFFFFFFFFFF AND PUSH20 0xFFFFFFFFFFFFFFFFFFFFFFFFFFFFFFFFFFFFFFFF AND DUP2 MSTORE PUSH1 0x20 ADD SWAP1 DUP2 MSTORE PUSH1 0x20 ADD PUSH0 KECCAK256 SLOAD TIMESTAMP PUSH2 0x2682 SWAP2 SWAP1 PUSH2 0x4701 JUMP JUMPDEST LT ISZERO DUP1 PUSH2 0x26CC JUMPI POP PUSH1 0x5 PUSH1 0x10 PUSH0 DUP4 PUSH20 0xFFFFFFFFFFFFFFFFFFFFFFFFFFFFFFFFFFFFFFFF AND PUSH20 0xFFFFFFFFFFFFFFFFFFFFFFFFFFFFFFFFFFFFFFFF AND DUP2 MSTORE PUSH1 0x20 ADD SWAP1 DUP2 MSTORE PUSH1 0x20 ADD PUSH0 KECCAK256 SLOAD LT JUMPDEST PUSH2 0x270B JUMPI PUSH1 0x40 MLOAD PUSH32 0x8C379A000000000000000000000000000000000000000000000000000000000 DUP2 MSTORE PUSH1 0x4 ADD PUSH2 0x2702 SWAP1 PUSH2 0x4C93 JUMP JUMPDEST PUSH1 0x40 MLOAD DUP1 SWAP2 SUB SWAP1 REVERT JUMPDEST PUSH2 0x12C PUSH1 0x11 PUSH0 DUP4 PUSH20 0xFFFFFFFFFFFFFFFFFFFFFFFFFFFFFFFFFFFFFFFF AND PUSH20 0xFFFFFFFFFFFFFFFFFFFFFFFFFFFFFFFFFFFFFFFF AND DUP2 MSTORE PUSH1 0x20 ADD SWAP1 DUP2 MSTORE PUSH1 0x20 ADD PUSH0 KECCAK256 SLOAD TIMESTAMP PUSH2 0x2757 SWAP2 SWAP1 PUSH2 0x4701 JUMP JUMPDEST LT PUSH2 0x27A4 JUMPI PUSH1 0x1 PUSH1 0x10 PUSH0 DUP4 PUSH20 0xFFFFFFFFFFFFFFFFFFFFFFFFFFFFFFFFFFFFFFFF AND PUSH20 0xFFFFFFFFFFFFFFFFFFFFFFFFFFFFFFFFFFFFFFFF AND DUP2 MSTORE PUSH1 0x20 ADD SWAP1 DUP2 MSTORE PUSH1 0x20 ADD PUSH0 KECCAK256 DUP2 SWAP1 SSTORE POP PUSH2 0x2830 JUMP JUMPDEST PUSH1 0x1 PUSH1 0x10 PUSH0 DUP4 PUSH20 0xFFFFFFFFFFFFFFFFFFFFFFFFFFFFFFFFFFFFFFFF AND PUSH20 0xFFFFFFFFFFFFFFFFFFFFFFFFFFFFFFFFFFFFFFFF AND DUP2 MSTORE PUSH1 0x20 ADD SWAP1 DUP2 MSTORE PUSH1 0x20 ADD PUSH0 KECCAK256 SLOAD PUSH2 0x27EE SWAP2 SWAP1 PUSH2 0x4630 JUMP JUMPDEST PUSH1 0x10 PUSH0 DUP4 PUSH20 0xFFFFFFFFFFFFFFFFFFFFFFFFFFFFFFFFFFFFFFFF AND PUSH20 0xFFFFFFFFFFFFFFFFFFFFFFFFFFFFFFFFFFFFFFFF AND DUP2 MSTORE PUSH1 0x20 ADD SWAP1 DUP2 MSTORE PUSH1 0x20 ADD PUSH0 KECCAK256 DUP2 SWAP1 SSTORE POP JUMPDEST TIMESTAMP PUSH1 0x11 PUSH0 DUP4 PUSH20 0xFFFFFFFFFFFFFFFFFFFFFFFFFFFFFFFFFFFFFFFF AND PUSH20 0xFFFFFFFFFFFFFFFFFFFFFFFFFFFFFFFFFFFFFFFF AND DUP2 MSTORE PUSH1 0x20 ADD SWAP1 DUP2 MSTORE PUSH1 0x20 ADD PUSH0 KECCAK256 DUP2 SWAP1 SSTORE POP PUSH0 DUP3 GT PUSH2 0x28B4 JUMPI PUSH1 0x40 MLOAD PUSH32 0x8C379A000000000000000000000000000000000000000000000000000000000 DUP2 MSTORE PUSH1 0x4 ADD PUSH2 0x28AB SWAP1 PUSH2 0x4A56 JUMP JUMPDEST PUSH1 0x40 MLOAD DUP1 SWAP2 SUB SWAP1 REVERT JUMPDEST DUP2 PUSH2 0x28BE CALLER PUSH2 0x15DB JUMP JUMPDEST LT ISZERO PUSH2 0x28FF JUMPI PUSH1 0x40 MLOAD PUSH32 0x8C379A000000000000000000000000000000000000000000000000000000000 DUP2 MSTORE PUSH1 0x4 ADD PUSH2 0x28F6 SWAP1 PUSH2 0x48B6 JUMP JUMPDEST PUSH1 0x40 MLOAD DUP1 SWAP2 SUB SWAP1 REVERT JUMPDEST PUSH0 PUSH2 0x2909 DUP4 PUSH2 0x14EB JUMP JUMPDEST SWAP1 POP PUSH0 DUP2 GT PUSH2 0x294D JUMPI PUSH1 0x40 MLOAD PUSH32 0x8C379A000000000000000000000000000000000000000000000000000000000 DUP2 MSTORE PUSH1 0x4 ADD PUSH2 0x2944 SWAP1 PUSH2 0x4A56 JUMP JUMPDEST PUSH1 0x40 MLOAD DUP1 SWAP2 SUB SWAP1 REVERT JUMPDEST DUP1 PUSH1 0xB SLOAD LT ISZERO DUP1 ISZERO PUSH2 0x295F JUMPI POP DUP1 SELFBALANCE LT ISZERO JUMPDEST PUSH2 0x299E JUMPI PUSH1 0x40 MLOAD PUSH32 0x8C379A000000000000000000000000000000000000000000000000000000000 DUP2 MSTORE PUSH1 0x4 ADD PUSH2 0x2995 SWAP1 PUSH2 0x48B6 JUMP JUMPDEST PUSH1 0x40 MLOAD DUP1 SWAP2 SUB SWAP1 REVERT JUMPDEST PUSH2 0x29A8 CALLER DUP5 PUSH2 0x3890 JUMP JUMPDEST DUP3 PUSH1 0xA SLOAD PUSH2 0x29B6 SWAP2 SWAP1 PUSH2 0x4630 JUMP JUMPDEST PUSH1 0xA DUP2 SWAP1 SSTORE POP DUP1 PUSH1 0xB SLOAD PUSH2 0x29CA SWAP2 SWAP1 PUSH2 0x4701 JUMP JUMPDEST PUSH1 0xB DUP2 SWAP1 SSTORE POP DUP1 PUSH1 0xC SLOAD PUSH2 0x29DE SWAP2 SWAP1 PUSH2 0x4701 JUMP JUMPDEST PUSH1 0xC DUP2 SWAP1 SSTORE POP PUSH2 0x29EE CALLER DUP3 PUSH2 0x390F JUMP JUMPDEST PUSH2 0x29F7 CALLER PUSH2 0x3020 JUMP JUMPDEST CALLER PUSH20 0xFFFFFFFFFFFFFFFFFFFFFFFFFFFFFFFFFFFFFFFF AND PUSH32 0x2DCF9433D75DB0D8B1C172641F85E319FFE4AD22E108A95D1847CEB906E5195D DUP5 DUP4 PUSH1 0x40 MLOAD PUSH2 0x2A3F SWAP3 SWAP2 SWAP1 PUSH2 0x49E5 JUMP JUMPDEST PUSH1 0x40 MLOAD DUP1 SWAP2 SUB SWAP1 LOG2 PUSH32 0x645AA9C724799DCE7DF512BB35A464FA2F9DBACA82FE22E62B3EEEC7F7142F2F PUSH1 0xA SLOAD PUSH1 0xB SLOAD PUSH1 0x40 MLOAD PUSH2 0x2A7C SWAP3 SWAP2 SWAP1 PUSH2 0x49E5 JUMP JUMPDEST PUSH1 0x40 MLOAD DUP1 SWAP2 SUB SWAP1 LOG1 POP POP PUSH2 0x2A8E PUSH2 0x2F56 JUMP JUMPDEST POP JUMP JUMPDEST PUSH1 0xF SLOAD DUP2 JUMP JUMPDEST PUSH0 PUSH1 0x9 PUSH0 DUP4 PUSH20 0xFFFFFFFFFFFFFFFFFFFFFFFFFFFFFFFFFFFFFFFF AND PUSH20 0xFFFFFFFFFFFFFFFFFFFFFFFFFFFFFFFFFFFFFFFF AND DUP2 MSTORE PUSH1 0x20 ADD SWAP1 DUP2 MSTORE PUSH1 0x20 ADD PUSH0 KECCAK256 SLOAD SWAP1 POP SWAP2 SWAP1 POP JUMP JUMPDEST PUSH32 0x97667070C54EF182B0F5858B034BEAC1B6F3089AA2D3188BB1E8929F4FA9B929 DUP2 JUMP JUMPDEST PUSH1 0x13 DUP1 PUSH0 ADD SLOAD SWAP1 DUP1 PUSH1 0x1 ADD SLOAD SWAP1 DUP1 PUSH1 0x2 ADD SLOAD SWAP1 DUP1 PUSH1 0x3 ADD SLOAD SWAP1 DUP1 PUSH1 0x4 ADD SLOAD SWAP1 POP DUP6 JUMP JUMPDEST PUSH0 PUSH32 0x1FFC9A700000000000000000000000000000000000000000000000000000000 PUSH28 0xFFFFFFFFFFFFFFFFFFFFFFFFFFFFFFFFFFFFFFFFFFFFFFFFFFFFFFFF NOT AND DUP3 PUSH28 0xFFFFFFFFFFFFFFFFFFFFFFFFFFFFFFFFFFFFFFFFFFFFFFFFFFFFFFFF NOT AND EQ SWAP1 POP SWAP2 SWAP1 POP JUMP JUMPDEST PUSH0 CALLER SWAP1 POP SWAP1 JUMP JUMPDEST PUSH2 0x2BA1 DUP4 DUP4 DUP4 PUSH1 0x1 PUSH2 0x3A50 JUMP JUMPDEST POP POP POP JUMP JUMPDEST PUSH0 PUSH2 0x2BB1 DUP5 DUP5 PUSH2 0x2554 JUMP JUMPDEST SWAP1 POP PUSH32 0xFFFFFFFFFFFFFFFFFFFFFFFFFFFFFFFFFFFFFFFFFFFFFFFFFFFFFFFFFFFFFFFF DUP2 EQ PUSH2 0x2C32 JUMPI DUP2 DUP2 LT ISZERO PUSH2 0x2C23 JUMPI DUP3 DUP2 DUP4 PUSH1 0x40 MLOAD PUSH32 0xFB8F41B200000000000000000000000000000000000000000000000000000000 DUP2 MSTORE PUSH1 0x4 ADD PUSH2 0x2C1A SWAP4 SWAP3 SWAP2 SWAP1 PUSH2 0x5038 JUMP JUMPDEST PUSH1 0x40 MLOAD DUP1 SWAP2 SUB SWAP1 REVERT JUMPDEST PUSH2 0x2C31 DUP5 DUP5 DUP5 DUP5 SUB PUSH0 PUSH2 0x3A50 JUMP JUMPDEST JUMPDEST POP POP POP POP JUMP JUMPDEST PUSH0 PUSH20 0xFFFFFFFFFFFFFFFFFFFFFFFFFFFFFFFFFFFFFFFF AND DUP4 PUSH20 0xFFFFFFFFFFFFFFFFFFFFFFFFFFFFFFFFFFFFFFFF AND SUB PUSH2 0x2CA8 JUMPI PUSH0 PUSH1 0x40 MLOAD PUSH32 0x96C6FD1E00000000000000000000000000000000000000000000000000000000 DUP2 MSTORE PUSH1 0x4 ADD PUSH2 0x2C9F SWAP2 SWAP1 PUSH2 0x43CB JUMP JUMPDEST PUSH1 0x40 MLOAD DUP1 SWAP2 SUB SWAP1 REVERT JUMPDEST PUSH0 PUSH20 0xFFFFFFFFFFFFFFFFFFFFFFFFFFFFFFFFFFFFFFFF AND DUP3 PUSH20 0xFFFFFFFFFFFFFFFFFFFFFFFFFFFFFFFFFFFFFFFF AND SUB PUSH2 0x2D18 JUMPI PUSH0 PUSH1 0x40 MLOAD PUSH32 0xEC442F0500000000000000000000000000000000000000000000000000000000 DUP2 MSTORE PUSH1 0x4 ADD PUSH2 0x2D0F SWAP2 SWAP1 PUSH2 0x43CB JUMP JUMPDEST PUSH1 0x40 MLOAD DUP1 SWAP2 SUB SWAP1 REVERT JUMPDEST PUSH2 0x2D23 DUP4 DUP4 DUP4 PUSH2 0x3C1F JUMP JUMPDEST POP POP POP JUMP JUMPDEST PUSH2 0x2D39 DUP2 PUSH2 0x2D34 PUSH2 0x2B8D JUMP JUMPDEST PUSH2 0x3C37 JUMP JUMPDEST POP JUMP JUMPDEST PUSH0 PUSH2 0x2D47 DUP4 DUP4 PUSH2 0x1A14 JUMP JUMPDEST PUSH2 0x2E1C JUMPI PUSH1 0x1 PUSH1 0x7 PUSH0 DUP6 DUP2 MSTORE PUSH1 0x20 ADD SWAP1 DUP2 MSTORE PUSH1 0x20 ADD PUSH0 KECCAK256 PUSH0 ADD PUSH0 DUP5 PUSH20 0xFFFFFFFFFFFFFFFFFFFFFFFFFFFFFFFFFFFFFFFF AND PUSH20 0xFFFFFFFFFFFFFFFFFFFFFFFFFFFFFFFFFFFFFFFF AND DUP2 MSTORE PUSH1 0x20 ADD SWAP1 DUP2 MSTORE PUSH1 0x20 ADD PUSH0 KECCAK256 PUSH0 PUSH2 0x100 EXP DUP2 SLOAD DUP2 PUSH1 0xFF MUL NOT AND SWAP1 DUP4 ISZERO ISZERO MUL OR SWAP1 SSTORE POP PUSH2 0x2DB9 PUSH2 0x2B8D JUMP JUMPDEST PUSH20 0xFFFFFFFFFFFFFFFFFFFFFFFFFFFFFFFFFFFFFFFF AND DUP3 PUSH20 0xFFFFFFFFFFFFFFFFFFFFFFFFFFFFFFFFFFFFFFFF AND DUP5 PUSH32 0x2F8788117E7EFF1D82E926EC794901D17C78024A50270940304540A733656F0D PUSH1 0x40 MLOAD PUSH1 0x40 MLOAD DUP1 SWAP2 SUB SWAP1 LOG4 PUSH1 0x1 SWAP1 POP PUSH2 0x2E20 JUMP JUMPDEST PUSH0 SWAP1 POP JUMPDEST SWAP3 SWAP2 POP POP JUMP JUMPDEST PUSH0 PUSH2 0x2E31 DUP4 DUP4 PUSH2 0x1A14 JUMP JUMPDEST ISZERO PUSH2 0x2F06 JUMPI PUSH0 PUSH1 0x7 PUSH0 DUP6 DUP2 MSTORE PUSH1 0x20 ADD SWAP1 DUP2 MSTORE PUSH1 0x20 ADD PUSH0 KECCAK256 PUSH0 ADD PUSH0 DUP5 PUSH20 0xFFFFFFFFFFFFFFFFFFFFFFFFFFFFFFFFFFFFFFFF AND PUSH20 0xFFFFFFFFFFFFFFFFFFFFFFFFFFFFFFFFFFFFFFFF AND DUP2 MSTORE PUSH1 0x20 ADD SWAP1 DUP2 MSTORE PUSH1 0x20 ADD PUSH0 KECCAK256 PUSH0 PUSH2 0x100 EXP DUP2 SLOAD DUP2 PUSH1 0xFF MUL NOT AND SWAP1 DUP4 ISZERO ISZERO MUL OR SWAP1 SSTORE POP PUSH2 0x2EA3 PUSH2 0x2B8D JUMP JUMPDEST PUSH20 0xFFFFFFFFFFFFFFFFFFFFFFFFFFFFFFFFFFFFFFFF AND DUP3 PUSH20 0xFFFFFFFFFFFFFFFFFFFFFFFFFFFFFFFFFFFFFFFF AND DUP5 PUSH32 0xF6391F5C32D9C69D2A47EA670B442974B53935D1EDC7FD64EB21E047A839171B PUSH1 0x40 MLOAD PUSH1 0x40 MLOAD DUP1 SWAP2 SUB SWAP1 LOG4 PUSH1 0x1 SWAP1 POP PUSH2 0x2F0A JUMP JUMPDEST PUSH0 SWAP1 POP JUMPDEST SWAP3 SWAP2 POP POP JUMP JUMPDEST PUSH1 0x2 PUSH1 0x5 SLOAD SUB PUSH2 0x2F4C JUMPI PUSH1 0x40 MLOAD PUSH32 0x3EE5AEB500000000000000000000000000000000000000000000000000000000 DUP2 MSTORE PUSH1 0x4 ADD PUSH1 0x40 MLOAD DUP1 SWAP2 SUB SWAP1 REVERT JUMPDEST PUSH1 0x2 PUSH1 0x5 DUP2 SWAP1 SSTORE POP JUMP JUMPDEST PUSH1 0x1 PUSH1 0x5 DUP2 SWAP1 SSTORE POP JUMP JUMPDEST PUSH2 0x2F68 PUSH2 0x14BB JUMP JUMPDEST ISZERO PUSH2 0x2F9F JUMPI PUSH1 0x40 MLOAD PUSH32 0xD93C066500000000000000000000000000000000000000000000000000000000 DUP2 MSTORE PUSH1 0x4 ADD PUSH1 0x40 MLOAD DUP1 SWAP2 SUB SWAP1 REVERT JUMPDEST JUMP JUMPDEST PUSH0 PUSH20 0xFFFFFFFFFFFFFFFFFFFFFFFFFFFFFFFFFFFFFFFF AND DUP3 PUSH20 0xFFFFFFFFFFFFFFFFFFFFFFFFFFFFFFFFFFFFFFFF AND SUB PUSH2 0x3011 JUMPI PUSH0 PUSH1 0x40 MLOAD PUSH32 0xEC442F0500000000000000000000000000000000000000000000000000000000 DUP2 MSTORE PUSH1 0x4 ADD PUSH2 0x3008 SWAP2 SWAP1 PUSH2 0x43CB JUMP JUMPDEST PUSH1 0x40 MLOAD DUP1 SWAP2 SUB SWAP1 REVERT JUMPDEST PUSH2 0x301C PUSH0 DUP4 DUP4 PUSH2 0x3C1F JUMP JUMPDEST POP POP JUMP JUMPDEST PUSH1 0x18 PUSH0 DUP3 PUSH20 0xFFFFFFFFFFFFFFFFFFFFFFFFFFFFFFFFFFFFFFFF AND PUSH20 0xFFFFFFFFFFFFFFFFFFFFFFFFFFFFFFFFFFFFFFFF AND DUP2 MSTORE PUSH1 0x20 ADD SWAP1 DUP2 MSTORE PUSH1 0x20 ADD PUSH0 KECCAK256 PUSH0 SWAP1 SLOAD SWAP1 PUSH2 0x100 EXP SWAP1 DIV PUSH1 0xFF AND PUSH2 0x30DD JUMPI PUSH1 0x13 PUSH0 ADD PUSH0 DUP2 SLOAD DUP1 SWAP3 SWAP2 SWAP1 PUSH2 0x3082 SWAP1 PUSH2 0x4F21 JUMP JUMPDEST SWAP2 SWAP1 POP SSTORE POP PUSH1 0x1 PUSH1 0x18 PUSH0 DUP4 PUSH20 0xFFFFFFFFFFFFFFFFFFFFFFFFFFFFFFFFFFFFFFFF AND PUSH20 0xFFFFFFFFFFFFFFFFFFFFFFFFFFFFFFFFFFFFFFFF AND DUP2 MSTORE PUSH1 0x20 ADD SWAP1 DUP2 MSTORE PUSH1 0x20 ADD PUSH0 KECCAK256 PUSH0 PUSH2 0x100 EXP DUP2 SLOAD DUP2 PUSH1 0xFF MUL NOT AND SWAP1 DUP4 ISZERO ISZERO MUL OR SWAP1 SSTORE POP JUMPDEST PUSH1 0x13 PUSH1 0x1 ADD PUSH0 DUP2 SLOAD DUP1 SWAP3 SWAP2 SWAP1 PUSH2 0x30F2 SWAP1 PUSH2 0x4F21 JUMP JUMPDEST SWAP2 SWAP1 POP SSTORE POP PUSH0 PUSH1 0x19 PUSH0 DUP4 PUSH20 0xFFFFFFFFFFFFFFFFFFFFFFFFFFFFFFFFFFFFFFFF AND PUSH20 0xFFFFFFFFFFFFFFFFFFFFFFFFFFFFFFFFFFFFFFFF AND DUP2 MSTORE PUSH1 0x20 ADD SWAP1 DUP2 MSTORE PUSH1 0x20 ADD PUSH0 KECCAK256 SLOAD TIMESTAMP PUSH2 0x3141 SWAP2 SWAP1 PUSH2 0x4701 JUMP JUMPDEST SWAP1 POP PUSH3 0x15180 DUP2 LT ISZERO PUSH2 0x316B JUMPI PUSH1 0xA PUSH1 0x13 PUSH1 0x2 ADD PUSH0 DUP3 DUP3 SLOAD PUSH2 0x3163 SWAP2 SWAP1 PUSH2 0x4630 JUMP JUMPDEST SWAP3 POP POP DUP2 SWAP1 SSTORE POP JUMPDEST TIMESTAMP PUSH1 0x19 PUSH0 DUP5 PUSH20 0xFFFFFFFFFFFFFFFFFFFFFFFFFFFFFFFFFFFFFFFF AND PUSH20 0xFFFFFFFFFFFFFFFFFFFFFFFFFFFFFFFFFFFFFFFF AND DUP2 MSTORE PUSH1 0x20 ADD SWAP1 DUP2 MSTORE PUSH1 0x20 ADD PUSH0 KECCAK256 DUP2 SWAP1 SSTORE POP TIMESTAMP PUSH1 0x13 PUSH1 0x4 ADD DUP2 SWAP1 SSTORE POP POP POP JUMP JUMPDEST PUSH1 0xE PUSH0 SWAP1 SLOAD SWAP1 PUSH2 0x100 EXP SWAP1 DIV PUSH1 0xFF AND ISZERO PUSH2 0x320A JUMPI PUSH1 0x40 MLOAD PUSH32 0x8C379A000000000000000000000000000000000000000000000000000000000 DUP2 MSTORE PUSH1 0x4 ADD PUSH2 0x3201 SWAP1 PUSH2 0x50B7 JUMP JUMPDEST PUSH1 0x40 MLOAD DUP1 SWAP2 SUB SWAP1 REVERT JUMPDEST PUSH12 0x50221445E1CC6C4CE0000000 PUSH2 0x321F PUSH2 0xF1A JUMP JUMPDEST LT ISZERO PUSH2 0x3260 JUMPI PUSH1 0x40 MLOAD PUSH32 0x8C379A000000000000000000000000000000000000000000000000000000000 DUP2 MSTORE PUSH1 0x4 ADD PUSH2 0x3257 SWAP1 PUSH2 0x511F JUMP JUMPDEST PUSH1 0x40 MLOAD DUP1 SWAP2 SUB SWAP1 REVERT JUMPDEST PUSH0 PUSH1 0xA SLOAD GT PUSH2 0x32A4 JUMPI PUSH1 0x40 MLOAD PUSH32 0x8C379A000000000000000000000000000000000000000000000000000000000 DUP2 MSTORE PUSH1 0x4 ADD PUSH2 0x329B SWAP1 PUSH2 0x5187 JUMP JUMPDEST PUSH1 0x40 MLOAD DUP1 SWAP2 SUB SWAP1 REVERT JUMPDEST PUSH1 0x1 PUSH1 0xE PUSH0 PUSH2 0x100 EXP DUP2 SLOAD DUP2 PUSH1 0xFF MUL NOT AND SWAP1 DUP4 ISZERO ISZERO MUL OR SWAP1 SSTORE POP PUSH0 PUSH8 0x214E8348C4F0000 SELFBALANCE PUSH2 0x32D3 SWAP2 SWAP1 PUSH2 0x4701 JUMP JUMPDEST SWAP1 POP PUSH0 PUSH8 0xDE0B6B3A7640000 SWAP1 POP PUSH0 PUSH1 0xA SLOAD DUP3 PUSH1 0xB SLOAD PUSH2 0x32F3 SWAP2 SWAP1 PUSH2 0x4663 JUMP JUMPDEST PUSH2 0x32FD SWAP2 SWAP1 PUSH2 0x46D1 JUMP JUMPDEST SWAP1 POP PUSH0 DUP2 GT PUSH2 0x3341 JUMPI PUSH1 0x40 MLOAD PUSH32 0x8C379A000000000000000000000000000000000000000000000000000000000 DUP2 MSTORE PUSH1 0x4 ADD PUSH2 0x3338 SWAP1 PUSH2 0x51EF JUMP JUMPDEST PUSH1 0x40 MLOAD DUP1 SWAP2 SUB SWAP1 REVERT JUMPDEST PUSH0 DUP2 DUP4 DUP6 PUSH2 0x334F SWAP2 SWAP1 PUSH2 0x4663 JUMP JUMPDEST PUSH2 0x3359 SWAP2 SWAP1 PUSH2 0x46D1 JUMP JUMPDEST SWAP1 POP PUSH0 DUP2 GT PUSH2 0x339D JUMPI PUSH1 0x40 MLOAD PUSH32 0x8C379A000000000000000000000000000000000000000000000000000000000 DUP2 MSTORE PUSH1 0x4 ADD PUSH2 0x3394 SWAP1 PUSH2 0x5257 JUMP JUMPDEST PUSH1 0x40 MLOAD DUP1 SWAP2 SUB SWAP1 REVERT JUMPDEST PUSH0 DUP2 PUSH2 0x33A7 PUSH2 0xF1A JUMP JUMPDEST PUSH12 0x642A99575A3F876018000000 PUSH2 0x33BE SWAP2 SWAP1 PUSH2 0x4701 JUMP JUMPDEST PUSH2 0x33C8 SWAP2 SWAP1 PUSH2 0x4701 JUMP JUMPDEST SWAP1 POP PUSH2 0x33D4 ADDRESS DUP4 PUSH2 0x2FA1 JUMP JUMPDEST PUSH2 0x33DE ADDRESS DUP3 PUSH2 0x3890 JUMP JUMPDEST PUSH2 0x3409 ADDRESS PUSH32 0x0 DUP5 PUSH2 0x2B94 JUMP JUMPDEST PUSH0 ADDRESS PUSH20 0xFFFFFFFFFFFFFFFFFFFFFFFFFFFFFFFFFFFFFFFF AND PUSH4 0x70A08231 ADDRESS PUSH1 0x40 MLOAD DUP3 PUSH4 0xFFFFFFFF AND PUSH1 0xE0 SHL DUP2 MSTORE PUSH1 0x4 ADD PUSH2 0x3443 SWAP2 SWAP1 PUSH2 0x43CB JUMP JUMPDEST PUSH1 0x20 PUSH1 0x40 MLOAD DUP1 DUP4 SUB DUP2 DUP7 GAS STATICCALL ISZERO DUP1 ISZERO PUSH2 0x345E JUMPI RETURNDATASIZE PUSH0 DUP1 RETURNDATACOPY RETURNDATASIZE PUSH0 REVERT JUMPDEST POP POP POP POP PUSH1 0x40 MLOAD RETURNDATASIZE PUSH1 0x1F NOT PUSH1 0x1F DUP3 ADD AND DUP3 ADD DUP1 PUSH1 0x40 MSTORE POP DUP2 ADD SWAP1 PUSH2 0x3482 SWAP2 SWAP1 PUSH2 0x5289 JUMP JUMPDEST SWAP1 POP PUSH32 0x0 PUSH20 0xFFFFFFFFFFFFFFFFFFFFFFFFFFFFFFFFFFFFFFFF AND PUSH4 0xF305D719 DUP8 ADDRESS DUP7 DUP8 DUP12 CALLER TIMESTAMP PUSH1 0x40 MLOAD DUP9 PUSH4 0xFFFFFFFF AND PUSH1 0xE0 SHL DUP2 MSTORE PUSH1 0x4 ADD PUSH2 0x34E8 SWAP7 SWAP6 SWAP5 SWAP4 SWAP3 SWAP2 SWAP1 PUSH2 0x52B4 JUMP JUMPDEST PUSH1 0x60 PUSH1 0x40 MLOAD DUP1 DUP4 SUB DUP2 DUP6 DUP9 GAS CALL SWAP4 POP POP POP POP DUP1 ISZERO PUSH2 0x3524 JUMPI POP PUSH1 0x40 MLOAD RETURNDATASIZE PUSH1 0x1F NOT PUSH1 0x1F DUP3 ADD AND DUP3 ADD DUP1 PUSH1 0x40 MSTORE POP DUP2 ADD SWAP1 PUSH2 0x3521 SWAP2 SWAP1 PUSH2 0x5313 JUMP JUMPDEST PUSH1 0x1 JUMPDEST PUSH2 0x3563 JUMPI PUSH1 0x40 MLOAD PUSH32 0x8C379A000000000000000000000000000000000000000000000000000000000 DUP2 MSTORE PUSH1 0x4 ADD PUSH2 0x355A SWAP1 PUSH2 0x53AD JUMP JUMPDEST PUSH1 0x40 MLOAD DUP1 SWAP2 SUB SWAP1 REVERT JUMPDEST DUP4 ADDRESS PUSH20 0xFFFFFFFFFFFFFFFFFFFFFFFFFFFFFFFFFFFFFFFF AND PUSH4 0x70A08231 ADDRESS PUSH1 0x40 MLOAD DUP3 PUSH4 0xFFFFFFFF AND PUSH1 0xE0 SHL DUP2 MSTORE PUSH1 0x4 ADD PUSH2 0x359D SWAP2 SWAP1 PUSH2 0x43CB JUMP JUMPDEST PUSH1 0x20 PUSH1 0x40 MLOAD DUP1 DUP4 SUB DUP2 DUP7 GAS STATICCALL ISZERO DUP1 ISZERO PUSH2 0x35B8 JUMPI RETURNDATASIZE PUSH0 DUP1 RETURNDATACOPY RETURNDATASIZE PUSH0 REVERT JUMPDEST POP POP POP POP PUSH1 0x40 MLOAD RETURNDATASIZE PUSH1 0x1F NOT PUSH1 0x1F DUP3 ADD AND DUP3 ADD DUP1 PUSH1 0x40 MSTORE POP DUP2 ADD SWAP1 PUSH2 0x35DC SWAP2 SWAP1 PUSH2 0x5289 JUMP JUMPDEST GT ISZERO PUSH2 0x361D JUMPI PUSH1 0x40 MLOAD PUSH32 0x8C379A000000000000000000000000000000000000000000000000000000000 DUP2 MSTORE PUSH1 0x4 ADD PUSH2 0x3614 SWAP1 PUSH2 0x5415 JUMP JUMPDEST PUSH1 0x40 MLOAD DUP1 SWAP2 SUB SWAP1 REVERT JUMPDEST PUSH0 PUSH32 0x0 PUSH20 0xFFFFFFFFFFFFFFFFFFFFFFFFFFFFFFFFFFFFFFFF AND PUSH4 0xE6A43905 ADDRESS PUSH32 0x0 PUSH20 0xFFFFFFFFFFFFFFFFFFFFFFFFFFFFFFFFFFFFFFFF AND PUSH4 0xAD5C4648 PUSH1 0x40 MLOAD DUP2 PUSH4 0xFFFFFFFF AND PUSH1 0xE0 SHL DUP2 MSTORE PUSH1 0x4 ADD PUSH1 0x20 PUSH1 0x40 MLOAD DUP1 DUP4 SUB DUP2 DUP7 GAS STATICCALL ISZERO DUP1 ISZERO PUSH2 0x36C4 JUMPI RETURNDATASIZE PUSH0 DUP1 RETURNDATACOPY RETURNDATASIZE PUSH0 REVERT JUMPDEST POP POP POP POP PUSH1 0x40 MLOAD RETURNDATASIZE PUSH1 0x1F NOT PUSH1 0x1F DUP3 ADD AND DUP3 ADD DUP1 PUSH1 0x40 MSTORE POP DUP2 ADD SWAP1 PUSH2 0x36E8 SWAP2 SWAP1 PUSH2 0x5447 JUMP JUMPDEST PUSH1 0x40 MLOAD DUP4 PUSH4 0xFFFFFFFF AND PUSH1 0xE0 SHL DUP2 MSTORE PUSH1 0x4 ADD PUSH2 0x3705 SWAP3 SWAP2 SWAP1 PUSH2 0x5472 JUMP JUMPDEST PUSH1 0x20 PUSH1 0x40 MLOAD DUP1 DUP4 SUB DUP2 DUP7 GAS STATICCALL ISZERO DUP1 ISZERO PUSH2 0x3720 JUMPI RETURNDATASIZE PUSH0 DUP1 RETURNDATACOPY RETURNDATASIZE PUSH0 REVERT JUMPDEST POP POP POP POP PUSH1 0x40 MLOAD RETURNDATASIZE PUSH1 0x1F NOT PUSH1 0x1F DUP3 ADD AND DUP3 ADD DUP1 PUSH1 0x40 MSTORE POP DUP2 ADD SWAP1 PUSH2 0x3744 SWAP2 SWAP1 PUSH2 0x5447 JUMP JUMPDEST SWAP1 POP DUP1 PUSH1 0x1B PUSH0 PUSH2 0x100 EXP DUP2 SLOAD DUP2 PUSH20 0xFFFFFFFFFFFFFFFFFFFFFFFFFFFFFFFFFFFFFFFF MUL NOT AND SWAP1 DUP4 PUSH20 0xFFFFFFFFFFFFFFFFFFFFFFFFFFFFFFFFFFFFFFFF AND MUL OR SWAP1 SSTORE POP PUSH32 0xAC424901BD1F8E5385FE5A264B1567E68253B82CA4BA36C2A82B6C439EC94B12 DUP4 DUP6 DUP4 PUSH1 0x40 MLOAD PUSH2 0x37B9 SWAP4 SWAP3 SWAP2 SWAP1 PUSH2 0x5499 JUMP JUMPDEST PUSH1 0x40 MLOAD DUP1 SWAP2 SUB SWAP1 LOG1 POP POP POP POP POP POP POP POP POP POP JUMP JUMPDEST PUSH2 0x37D5 PUSH2 0x2F60 JUMP JUMPDEST PUSH1 0x1 PUSH1 0x6 PUSH0 PUSH2 0x100 EXP DUP2 SLOAD DUP2 PUSH1 0xFF MUL NOT AND SWAP1 DUP4 ISZERO ISZERO MUL OR SWAP1 SSTORE POP PUSH32 0x62E78CEA01BEE320CD4E420270B5EA74000D11B0C9F74754EBDBFC544B05A258 PUSH2 0x3818 PUSH2 0x2B8D JUMP JUMPDEST PUSH1 0x40 MLOAD PUSH2 0x3825 SWAP2 SWAP1 PUSH2 0x43CB JUMP JUMPDEST PUSH1 0x40 MLOAD DUP1 SWAP2 SUB SWAP1 LOG1 JUMP JUMPDEST PUSH2 0x3837 PUSH2 0x3C88 JUMP JUMPDEST PUSH0 PUSH1 0x6 PUSH0 PUSH2 0x100 EXP DUP2 SLOAD DUP2 PUSH1 0xFF MUL NOT AND SWAP1 DUP4 ISZERO ISZERO MUL OR SWAP1 SSTORE POP PUSH32 0x5DB9EE0A495BF2E6FF9C91A7834C1BA4FDD244A5E8AA4E537BD38AEAE4B073AA PUSH2 0x3879 PUSH2 0x2B8D JUMP JUMPDEST PUSH1 0x40 MLOAD PUSH2 0x3886 SWAP2 SWAP1 PUSH2 0x43CB JUMP JUMPDEST PUSH1 0x40 MLOAD DUP1 SWAP2 SUB SWAP1 LOG1 JUMP JUMPDEST PUSH0 PUSH20 0xFFFFFFFFFFFFFFFFFFFFFFFFFFFFFFFFFFFFFFFF AND DUP3 PUSH20 0xFFFFFFFFFFFFFFFFFFFFFFFFFFFFFFFFFFFFFFFF AND SUB PUSH2 0x3900 JUMPI PUSH0 PUSH1 0x40 MLOAD PUSH32 0x96C6FD1E00000000000000000000000000000000000000000000000000000000 DUP2 MSTORE PUSH1 0x4 ADD PUSH2 0x38F7 SWAP2 SWAP1 PUSH2 0x43CB JUMP JUMPDEST PUSH1 0x40 MLOAD DUP1 SWAP2 SUB SWAP1 REVERT JUMPDEST PUSH2 0x390B DUP3 PUSH0 DUP4 PUSH2 0x3C1F JUMP JUMPDEST POP POP JUMP JUMPDEST PUSH0 PUSH20 0xFFFFFFFFFFFFFFFFFFFFFFFFFFFFFFFFFFFFFFFF AND DUP3 PUSH20 0xFFFFFFFFFFFFFFFFFFFFFFFFFFFFFFFFFFFFFFFF AND SUB PUSH2 0x3974 JUMPI PUSH1 0x40 MLOAD PUSH32 0xE6C4247B00000000000000000000000000000000000000000000000000000000 DUP2 MSTORE PUSH1 0x4 ADD PUSH1 0x40 MLOAD DUP1 SWAP2 SUB SWAP1 REVERT JUMPDEST DUP1 PUSH1 0x9 PUSH0 DUP5 PUSH20 0xFFFFFFFFFFFFFFFFFFFFFFFFFFFFFFFFFFFFFFFF AND PUSH20 0xFFFFFFFFFFFFFFFFFFFFFFFFFFFFFFFFFFFFFFFF AND DUP2 MSTORE PUSH1 0x20 ADD SWAP1 DUP2 MSTORE PUSH1 0x20 ADD PUSH0 KECCAK256 SLOAD PUSH2 0x39BD SWAP2 SWAP1 PUSH2 0x4630 JUMP JUMPDEST PUSH1 0x9 PUSH0 DUP5 PUSH20 0xFFFFFFFFFFFFFFFFFFFFFFFFFFFFFFFFFFFFFFFF AND PUSH20 0xFFFFFFFFFFFFFFFFFFFFFFFFFFFFFFFFFFFFFFFF AND DUP2 MSTORE PUSH1 0x20 ADD SWAP1 DUP2 MSTORE PUSH1 0x20 ADD PUSH0 KECCAK256 DUP2 SWAP1 SSTORE POP DUP2 PUSH20 0xFFFFFFFFFFFFFFFFFFFFFFFFFFFFFFFFFFFFFFFF AND PUSH32 0x1EAC8A3FAC20CBC0AB386E1C2F193255A774CEA3C8B271D31509BF1EC731618D DUP3 PUSH1 0x40 MLOAD PUSH2 0x3A44 SWAP2 SWAP1 PUSH2 0x3FB0 JUMP JUMPDEST PUSH1 0x40 MLOAD DUP1 SWAP2 SUB SWAP1 LOG2 POP POP JUMP JUMPDEST PUSH0 PUSH20 0xFFFFFFFFFFFFFFFFFFFFFFFFFFFFFFFFFFFFFFFF AND DUP5 PUSH20 0xFFFFFFFFFFFFFFFFFFFFFFFFFFFFFFFFFFFFFFFF AND SUB PUSH2 0x3AC0 JUMPI PUSH0 PUSH1 0x40 MLOAD PUSH32 0xE602DF0500000000000000000000000000000000000000000000000000000000 DUP2 MSTORE PUSH1 0x4 ADD PUSH2 0x3AB7 SWAP2 SWAP1 PUSH2 0x43CB JUMP JUMPDEST PUSH1 0x40 MLOAD DUP1 SWAP2 SUB SWAP1 REVERT JUMPDEST PUSH0 PUSH20 0xFFFFFFFFFFFFFFFFFFFFFFFFFFFFFFFFFFFFFFFF AND DUP4 PUSH20 0xFFFFFFFFFFFFFFFFFFFFFFFFFFFFFFFFFFFFFFFF AND SUB PUSH2 0x3B30 JUMPI PUSH0 PUSH1 0x40 MLOAD PUSH32 0x94280D6200000000000000000000000000000000000000000000000000000000 DUP2 MSTORE PUSH1 0x4 ADD PUSH2 0x3B27 SWAP2 SWAP1 PUSH2 0x43CB JUMP JUMPDEST PUSH1 0x40 MLOAD DUP1 SWAP2 SUB SWAP1 REVERT JUMPDEST DUP2 PUSH1 0x1 PUSH0 DUP7 PUSH20 0xFFFFFFFFFFFFFFFFFFFFFFFFFFFFFFFFFFFFFFFF AND PUSH20 0xFFFFFFFFFFFFFFFFFFFFFFFFFFFFFFFFFFFFFFFF AND DUP2 MSTORE PUSH1 0x20 ADD SWAP1 DUP2 MSTORE PUSH1 0x20 ADD PUSH0 KECCAK256 PUSH0 DUP6 PUSH20 0xFFFFFFFFFFFFFFFFFFFFFFFFFFFFFFFFFFFFFFFF AND PUSH20 0xFFFFFFFFFFFFFFFFFFFFFFFFFFFFFFFFFFFFFFFF AND DUP2 MSTORE PUSH1 0x20 ADD SWAP1 DUP2 MSTORE PUSH1 0x20 ADD PUSH0 KECCAK256 DUP2 SWAP1 SSTORE POP DUP1 ISZERO PUSH2 0x3C19 JUMPI DUP3 PUSH20 0xFFFFFFFFFFFFFFFFFFFFFFFFFFFFFFFFFFFFFFFF AND DUP5 PUSH20 0xFFFFFFFFFFFFFFFFFFFFFFFFFFFFFFFFFFFFFFFF AND PUSH32 0x8C5BE1E5EBEC7D5BD14F71427D1E84F3DD0314C0F7B2291E5B200AC8C7C3B925 DUP5 PUSH1 0x40 MLOAD PUSH2 0x3C10 SWAP2 SWAP1 PUSH2 0x3FB0 JUMP JUMPDEST PUSH1 0x40 MLOAD DUP1 SWAP2 SUB SWAP1 LOG3 JUMPDEST POP POP POP POP JUMP JUMPDEST PUSH2 0x3C27 PUSH2 0x2F60 JUMP JUMPDEST PUSH2 0x3C32 DUP4 DUP4 DUP4 PUSH2 0x3CC8 JUMP JUMPDEST POP POP POP JUMP JUMPDEST PUSH2 0x3C41 DUP3 DUP3 PUSH2 0x1A14 JUMP JUMPDEST PUSH2 0x3C84 JUMPI DUP1 DUP3 PUSH1 0x40 MLOAD PUSH32 0xE2517D3F00000000000000000000000000000000000000000000000000000000 DUP2 MSTORE PUSH1 0x4 ADD PUSH2 0x3C7B SWAP3 SWAP2 SWAP1 PUSH2 0x54CE JUMP JUMPDEST PUSH1 0x40 MLOAD DUP1 SWAP2 SUB SWAP1 REVERT JUMPDEST POP POP JUMP JUMPDEST PUSH2 0x3C90 PUSH2 0x14BB JUMP JUMPDEST PUSH2 0x3CC6 JUMPI PUSH1 0x40 MLOAD PUSH32 0x8DFC202B00000000000000000000000000000000000000000000000000000000 DUP2 MSTORE PUSH1 0x4 ADD PUSH1 0x40 MLOAD DUP1 SWAP2 SUB SWAP1 REVERT JUMPDEST JUMP JUMPDEST PUSH0 PUSH20 0xFFFFFFFFFFFFFFFFFFFFFFFFFFFFFFFFFFFFFFFF AND DUP4 PUSH20 0xFFFFFFFFFFFFFFFFFFFFFFFFFFFFFFFFFFFFFFFF AND SUB PUSH2 0x3D18 JUMPI DUP1 PUSH1 0x2 PUSH0 DUP3 DUP3 SLOAD PUSH2 0x3D0C SWAP2 SWAP1 PUSH2 0x4630 JUMP JUMPDEST SWAP3 POP POP DUP2 SWAP1 SSTORE POP PUSH2 0x3DE6 JUMP JUMPDEST PUSH0 DUP1 PUSH0 DUP6 PUSH20 0xFFFFFFFFFFFFFFFFFFFFFFFFFFFFFFFFFFFFFFFF AND PUSH20 0xFFFFFFFFFFFFFFFFFFFFFFFFFFFFFFFFFFFFFFFF AND DUP2 MSTORE PUSH1 0x20 ADD SWAP1 DUP2 MSTORE PUSH1 0x20 ADD PUSH0 KECCAK256 SLOAD SWAP1 POP DUP2 DUP2 LT ISZERO PUSH2 0x3DA1 JUMPI DUP4 DUP2 DUP4 PUSH1 0x40 MLOAD PUSH32 0xE450D38C00000000000000000000000000000000000000000000000000000000 DUP2 MSTORE PUSH1 0x4 ADD PUSH2 0x3D98 SWAP4 SWAP3 SWAP2 SWAP1 PUSH2 0x5038 JUMP JUMPDEST PUSH1 0x40 MLOAD DUP1 SWAP2 SUB SWAP1 REVERT JUMPDEST DUP2 DUP2 SUB PUSH0 DUP1 DUP7 PUSH20 0xFFFFFFFFFFFFFFFFFFFFFFFFFFFFFFFFFFFFFFFF AND PUSH20 0xFFFFFFFFFFFFFFFFFFFFFFFFFFFFFFFFFFFFFFFF AND DUP2 MSTORE PUSH1 0x20 ADD SWAP1 DUP2 MSTORE PUSH1 0x20 ADD PUSH0 KECCAK256 DUP2 SWAP1 SSTORE POP POP JUMPDEST PUSH0 PUSH20 0xFFFFFFFFFFFFFFFFFFFFFFFFFFFFFFFFFFFFFFFF AND DUP3 PUSH20 0xFFFFFFFFFFFFFFFFFFFFFFFFFFFFFFFFFFFFFFFF AND SUB PUSH2 0x3E2D JUMPI DUP1 PUSH1 0x2 PUSH0 DUP3 DUP3 SLOAD SUB SWAP3 POP POP DUP2 SWAP1 SSTORE POP PUSH2 0x3E77 JUMP JUMPDEST DUP1 PUSH0 DUP1 DUP5 PUSH20 0xFFFFFFFFFFFFFFFFFFFFFFFFFFFFFFFFFFFFFFFF AND PUSH20 0xFFFFFFFFFFFFFFFFFFFFFFFFFFFFFFFFFFFFFFFF AND DUP2 MSTORE PUSH1 0x20 ADD SWAP1 DUP2 MSTORE PUSH1 0x20 ADD PUSH0 KECCAK256 PUSH0 DUP3 DUP3 SLOAD ADD SWAP3 POP POP DUP2 SWAP1 SSTORE POP JUMPDEST DUP2 PUSH20 0xFFFFFFFFFFFFFFFFFFFFFFFFFFFFFFFFFFFFFFFF AND DUP4 PUSH20 0xFFFFFFFFFFFFFFFFFFFFFFFFFFFFFFFFFFFFFFFF AND PUSH32 0xDDF252AD1BE2C89B69C2B068FC378DAA952BA7F163C4A11628F55A4DF523B3EF DUP4 PUSH1 0x40 MLOAD PUSH2 0x3ED4 SWAP2 SWAP1 PUSH2 0x3FB0 JUMP JUMPDEST PUSH1 0x40 MLOAD DUP1 SWAP2 SUB SWAP1 LOG3 POP POP POP JUMP JUMPDEST PUSH0 DUP1 REVERT JUMPDEST PUSH0 PUSH32 0xFFFFFFFF00000000000000000000000000000000000000000000000000000000 DUP3 AND SWAP1 POP SWAP2 SWAP1 POP JUMP JUMPDEST PUSH2 0x3F19 DUP2 PUSH2 0x3EE5 JUMP JUMPDEST DUP2 EQ PUSH2 0x3F23 JUMPI PUSH0 DUP1 REVERT JUMPDEST POP JUMP JUMPDEST PUSH0 DUP2 CALLDATALOAD SWAP1 POP PUSH2 0x3F34 DUP2 PUSH2 0x3F10 JUMP JUMPDEST SWAP3 SWAP2 POP POP JUMP JUMPDEST PUSH0 PUSH1 0x20 DUP3 DUP5 SUB SLT ISZERO PUSH2 0x3F4F JUMPI PUSH2 0x3F4E PUSH2 0x3EE1 JUMP JUMPDEST JUMPDEST PUSH0 PUSH2 0x3F5C DUP5 DUP3 DUP6 ADD PUSH2 0x3F26 JUMP JUMPDEST SWAP2 POP POP SWAP3 SWAP2 POP POP JUMP JUMPDEST PUSH0 DUP2 ISZERO ISZERO SWAP1 POP SWAP2 SWAP1 POP JUMP JUMPDEST PUSH2 0x3F79 DUP2 PUSH2 0x3F65 JUMP JUMPDEST DUP3 MSTORE POP POP JUMP JUMPDEST PUSH0 PUSH1 0x20 DUP3 ADD SWAP1 POP PUSH2 0x3F92 PUSH0 DUP4 ADD DUP5 PUSH2 0x3F70 JUMP JUMPDEST SWAP3 SWAP2 POP POP JUMP JUMPDEST PUSH0 DUP2 SWAP1 POP SWAP2 SWAP1 POP JUMP JUMPDEST PUSH2 0x3FAA DUP2 PUSH2 0x3F98 JUMP JUMPDEST DUP3 MSTORE POP POP JUMP JUMPDEST PUSH0 PUSH1 0x20 DUP3 ADD SWAP1 POP PUSH2 0x3FC3 PUSH0 DUP4 ADD DUP5 PUSH2 0x3FA1 JUMP JUMPDEST SWAP3 SWAP2 POP POP JUMP JUMPDEST PUSH0 DUP2 MLOAD SWAP1 POP SWAP2 SWAP1 POP JUMP JUMPDEST PUSH0 DUP3 DUP3 MSTORE PUSH1 0x20 DUP3 ADD SWAP1 POP SWAP3 SWAP2 POP POP JUMP JUMPDEST DUP3 DUP2 DUP4 MCOPY PUSH0 DUP4 DUP4 ADD MSTORE POP POP POP JUMP JUMPDEST PUSH0 PUSH1 0x1F NOT PUSH1 0x1F DUP4 ADD AND SWAP1 POP SWAP2 SWAP1 POP JUMP JUMPDEST PUSH0 PUSH2 0x400B DUP3 PUSH2 0x3FC9 JUMP JUMPDEST PUSH2 0x4015 DUP2 DUP6 PUSH2 0x3FD3 JUMP JUMPDEST SWAP4 POP PUSH2 0x4025 DUP2 DUP6 PUSH1 0x20 DUP7 ADD PUSH2 0x3FE3 JUMP JUMPDEST PUSH2 0x402E DUP2 PUSH2 0x3FF1 JUMP JUMPDEST DUP5 ADD SWAP2 POP POP SWAP3 SWAP2 POP POP JUMP JUMPDEST PUSH0 PUSH1 0x20 DUP3 ADD SWAP1 POP DUP2 DUP2 SUB PUSH0 DUP4 ADD MSTORE PUSH2 0x4051 DUP2 DUP5 PUSH2 0x4001 JUMP JUMPDEST SWAP1 POP SWAP3 SWAP2 POP POP JUMP JUMPDEST PUSH0 PUSH20 0xFFFFFFFFFFFFFFFFFFFFFFFFFFFFFFFFFFFFFFFF DUP3 AND SWAP1 POP SWAP2 SWAP1 POP JUMP JUMPDEST PUSH0 PUSH2 0x4082 DUP3 PUSH2 0x4059 JUMP JUMPDEST SWAP1 POP SWAP2 SWAP1 POP JUMP JUMPDEST PUSH2 0x4092 DUP2 PUSH2 0x4078 JUMP JUMPDEST DUP2 EQ PUSH2 0x409C JUMPI PUSH0 DUP1 REVERT JUMPDEST POP JUMP JUMPDEST PUSH0 DUP2 CALLDATALOAD SWAP1 POP PUSH2 0x40AD DUP2 PUSH2 0x4089 JUMP JUMPDEST SWAP3 SWAP2 POP POP JUMP JUMPDEST PUSH2 0x40BC DUP2 PUSH2 0x3F98 JUMP JUMPDEST DUP2 EQ PUSH2 0x40C6 JUMPI PUSH0 DUP1 REVERT JUMPDEST POP JUMP JUMPDEST PUSH0 DUP2 CALLDATALOAD SWAP1 POP PUSH2 0x40D7 DUP2 PUSH2 0x40B3 JUMP JUMPDEST SWAP3 SWAP2 POP POP JUMP JUMPDEST PUSH0 DUP1 PUSH1 0x40 DUP4 DUP6 SUB SLT ISZERO PUSH2 0x40F3 JUMPI PUSH2 0x40F2 PUSH2 0x3EE1 JUMP JUMPDEST JUMPDEST PUSH0 PUSH2 0x4100 DUP6 DUP3 DUP7 ADD PUSH2 0x409F JUMP JUMPDEST SWAP3 POP POP PUSH1 0x20 PUSH2 0x4111 DUP6 DUP3 DUP7 ADD PUSH2 0x40C9 JUMP JUMPDEST SWAP2 POP POP SWAP3 POP SWAP3 SWAP1 POP JUMP JUMPDEST PUSH0 DUP1 PUSH0 PUSH1 0x60 DUP5 DUP7 SUB SLT ISZERO PUSH2 0x4132 JUMPI PUSH2 0x4131 PUSH2 0x3EE1 JUMP JUMPDEST JUMPDEST PUSH0 PUSH2 0x413F DUP7 DUP3 DUP8 ADD PUSH2 0x409F JUMP JUMPDEST SWAP4 POP POP PUSH1 0x20 PUSH2 0x4150 DUP7 DUP3 DUP8 ADD PUSH2 0x409F JUMP JUMPDEST SWAP3 POP POP PUSH1 0x40 PUSH2 0x4161 DUP7 DUP3 DUP8 ADD PUSH2 0x40C9 JUMP JUMPDEST SWAP2 POP POP SWAP3 POP SWAP3 POP SWAP3 JUMP JUMPDEST PUSH0 DUP2 SWAP1 POP SWAP2 SWAP1 POP JUMP JUMPDEST PUSH2 0x417D DUP2 PUSH2 0x416B JUMP JUMPDEST DUP2 EQ PUSH2 0x4187 JUMPI PUSH0 DUP1 REVERT JUMPDEST POP JUMP JUMPDEST PUSH0 DUP2 CALLDATALOAD SWAP1 POP PUSH2 0x4198 DUP2 PUSH2 0x4174 JUMP JUMPDEST SWAP3 SWAP2 POP POP JUMP JUMPDEST PUSH0 PUSH1 0x20 DUP3 DUP5 SUB SLT ISZERO PUSH2 0x41B3 JUMPI PUSH2 0x41B2 PUSH2 0x3EE1 JUMP JUMPDEST JUMPDEST PUSH0 PUSH2 0x41C0 DUP5 DUP3 DUP6 ADD PUSH2 0x418A JUMP JUMPDEST SWAP2 POP POP SWAP3 SWAP2 POP POP JUMP JUMPDEST PUSH2 0x41D2 DUP2 PUSH2 0x416B JUMP JUMPDEST DUP3 MSTORE POP POP JUMP JUMPDEST PUSH0 PUSH1 0x20 DUP3 ADD SWAP1 POP PUSH2 0x41EB PUSH0 DUP4 ADD DUP5 PUSH2 0x41C9 JUMP JUMPDEST SWAP3 SWAP2 POP POP JUMP JUMPDEST PUSH0 PUSH1 0x20 DUP3 DUP5 SUB SLT ISZERO PUSH2 0x4206 JUMPI PUSH2 0x4205 PUSH2 0x3EE1 JUMP JUMPDEST JUMPDEST PUSH0 PUSH2 0x4213 DUP5 DUP3 DUP6 ADD PUSH2 0x409F JUMP JUMPDEST SWAP2 POP POP SWAP3 SWAP2 POP POP JUMP JUMPDEST PUSH0 DUP1 PUSH1 0x40 DUP4 DUP6 SUB SLT ISZERO PUSH2 0x4232 JUMPI PUSH2 0x4231 PUSH2 0x3EE1 JUMP JUMPDEST JUMPDEST PUSH0 PUSH2 0x423F DUP6 DUP3 DUP7 ADD PUSH2 0x418A JUMP JUMPDEST SWAP3 POP POP PUSH1 0x20 PUSH2 0x4250 DUP6 DUP3 DUP7 ADD PUSH2 0x409F JUMP JUMPDEST SWAP2 POP POP SWAP3 POP SWAP3 SWAP1 POP JUMP JUMPDEST PUSH0 PUSH1 0xFF DUP3 AND SWAP1 POP SWAP2 SWAP1 POP JUMP JUMPDEST PUSH2 0x426F DUP2 PUSH2 0x425A JUMP JUMPDEST DUP3 MSTORE POP POP JUMP JUMPDEST PUSH0 PUSH1 0x20 DUP3 ADD SWAP1 POP PUSH2 0x4288 PUSH0 DUP4 ADD DUP5 PUSH2 0x4266 JUMP JUMPDEST SWAP3 SWAP2 POP POP JUMP JUMPDEST PUSH0 PUSH1 0x20 DUP3 DUP5 SUB SLT ISZERO PUSH2 0x42A3 JUMPI PUSH2 0x42A2 PUSH2 0x3EE1 JUMP JUMPDEST JUMPDEST PUSH0 PUSH2 0x42B0 DUP5 DUP3 DUP6 ADD PUSH2 0x40C9 JUMP JUMPDEST SWAP2 POP POP SWAP3 SWAP2 POP POP JUMP JUMPDEST PUSH0 PUSH1 0xA0 DUP3 ADD SWAP1 POP PUSH2 0x42CC PUSH0 DUP4 ADD DUP9 PUSH2 0x3FA1 JUMP JUMPDEST PUSH2 0x42D9 PUSH1 0x20 DUP4 ADD DUP8 PUSH2 0x3FA1 JUMP JUMPDEST PUSH2 0x42E6 PUSH1 0x40 DUP4 ADD DUP7 PUSH2 0x3FA1 JUMP JUMPDEST PUSH2 0x42F3 PUSH1 0x60 DUP4 ADD DUP6 PUSH2 0x3FA1 JUMP JUMPDEST PUSH2 0x4300 PUSH1 0x80 DUP4 ADD DUP5 PUSH2 0x3FA1 JUMP JUMPDEST SWAP7 SWAP6 POP POP POP POP POP POP JUMP JUMPDEST PUSH0 DUP2 SWAP1 POP SWAP2 SWAP1 POP JUMP JUMPDEST PUSH0 PUSH2 0x432D PUSH2 0x4328 PUSH2 0x4323 DUP5 PUSH2 0x4059 JUMP JUMPDEST PUSH2 0x430A JUMP JUMPDEST PUSH2 0x4059 JUMP JUMPDEST SWAP1 POP SWAP2 SWAP1 POP JUMP JUMPDEST PUSH0 PUSH2 0x433E DUP3 PUSH2 0x4313 JUMP JUMPDEST SWAP1 POP SWAP2 SWAP1 POP JUMP JUMPDEST PUSH0 PUSH2 0x434F DUP3 PUSH2 0x4334 JUMP JUMPDEST SWAP1 POP SWAP2 SWAP1 POP JUMP JUMPDEST PUSH2 0x435F DUP2 PUSH2 0x4345 JUMP JUMPDEST DUP3 MSTORE POP POP JUMP JUMPDEST PUSH0 PUSH1 0x20 DUP3 ADD SWAP1 POP PUSH2 0x4378 PUSH0 DUP4 ADD DUP5 PUSH2 0x4356 JUMP JUMPDEST SWAP3 SWAP2 POP POP JUMP JUMPDEST PUSH0 DUP1 PUSH1 0x40 DUP4 DUP6 SUB SLT ISZERO PUSH2 0x4394 JUMPI PUSH2 0x4393 PUSH2 0x3EE1 JUMP JUMPDEST JUMPDEST PUSH0 PUSH2 0x43A1 DUP6 DUP3 DUP7 ADD PUSH2 0x40C9 JUMP JUMPDEST SWAP3 POP POP PUSH1 0x20 PUSH2 0x43B2 DUP6 DUP3 DUP7 ADD PUSH2 0x40C9 JUMP JUMPDEST SWAP2 POP POP SWAP3 POP SWAP3 SWAP1 POP JUMP JUMPDEST PUSH2 0x43C5 DUP2 PUSH2 0x4078 JUMP JUMPDEST DUP3 MSTORE POP POP JUMP JUMPDEST PUSH0 PUSH1 0x20 DUP3 ADD SWAP1 POP PUSH2 0x43DE PUSH0 DUP4 ADD DUP5 PUSH2 0x43BC JUMP JUMPDEST SWAP3 SWAP2 POP POP JUMP JUMPDEST PUSH0 PUSH2 0x43EE DUP3 PUSH2 0x4334 JUMP JUMPDEST SWAP1 POP SWAP2 SWAP1 POP JUMP JUMPDEST PUSH2 0x43FE DUP2 PUSH2 0x43E4 JUMP JUMPDEST DUP3 MSTORE POP POP JUMP JUMPDEST PUSH0 PUSH1 0x20 DUP3 ADD SWAP1 POP PUSH2 0x4417 PUSH0 DUP4 ADD DUP5 PUSH2 0x43F5 JUMP JUMPDEST SWAP3 SWAP2 POP POP JUMP JUMPDEST PUSH2 0x4426 DUP2 PUSH2 0x3F65 JUMP JUMPDEST DUP2 EQ PUSH2 0x4430 JUMPI PUSH0 DUP1 REVERT JUMPDEST POP JUMP JUMPDEST PUSH0 DUP2 CALLDATALOAD SWAP1 POP PUSH2 0x4441 DUP2 PUSH2 0x441D JUMP JUMPDEST SWAP3 SWAP2 POP POP JUMP JUMPDEST PUSH0 PUSH1 0x20 DUP3 DUP5 SUB SLT ISZERO PUSH2 0x445C JUMPI PUSH2 0x445B PUSH2 0x3EE1 JUMP JUMPDEST JUMPDEST PUSH0 PUSH2 0x4469 DUP5 DUP3 DUP6 ADD PUSH2 0x4433 JUMP JUMPDEST SWAP2 POP POP SWAP3 SWAP2 POP POP JUMP JUMPDEST PUSH0 DUP1 PUSH1 0x40 DUP4 DUP6 SUB SLT ISZERO PUSH2 0x4488 JUMPI PUSH2 0x4487 PUSH2 0x3EE1 JUMP JUMPDEST JUMPDEST PUSH0 PUSH2 0x4495 DUP6 DUP3 DUP7 ADD PUSH2 0x409F JUMP JUMPDEST SWAP3 POP POP PUSH1 0x20 PUSH2 0x44A6 DUP6 DUP3 DUP7 ADD PUSH2 0x409F JUMP JUMPDEST SWAP2 POP POP SWAP3 POP SWAP3 SWAP1 POP JUMP JUMPDEST PUSH32 0x4E487B7100000000000000000000000000000000000000000000000000000000 PUSH0 MSTORE PUSH1 0x22 PUSH1 0x4 MSTORE PUSH1 0x24 PUSH0 REVERT JUMPDEST PUSH0 PUSH1 0x2 DUP3 DIV SWAP1 POP PUSH1 0x1 DUP3 AND DUP1 PUSH2 0x44F4 JUMPI PUSH1 0x7F DUP3 AND SWAP2 POP JUMPDEST PUSH1 0x20 DUP3 LT DUP2 SUB PUSH2 0x4507 JUMPI PUSH2 0x4506 PUSH2 0x44B0 JUMP JUMPDEST JUMPDEST POP SWAP2 SWAP1 POP JUMP JUMPDEST PUSH32 0x45544820616D6F756E74206D7573742062652067726561746572207468616E20 PUSH0 DUP3 ADD MSTORE PUSH32 0x7A65726F00000000000000000000000000000000000000000000000000000000 PUSH1 0x20 DUP3 ADD MSTORE POP JUMP JUMPDEST PUSH0 PUSH2 0x4567 PUSH1 0x24 DUP4 PUSH2 0x3FD3 JUMP JUMPDEST SWAP2 POP PUSH2 0x4572 DUP3 PUSH2 0x450D JUMP JUMPDEST PUSH1 0x40 DUP3 ADD SWAP1 POP SWAP2 SWAP1 POP JUMP JUMPDEST PUSH0 PUSH1 0x20 DUP3 ADD SWAP1 POP DUP2 DUP2 SUB PUSH0 DUP4 ADD MSTORE PUSH2 0x4594 DUP2 PUSH2 0x455B JUMP JUMPDEST SWAP1 POP SWAP2 SWAP1 POP JUMP JUMPDEST PUSH32 0x496E73756666696369656E7420746F6B656E2072657365727665000000000000 PUSH0 DUP3 ADD MSTORE POP JUMP JUMPDEST PUSH0 PUSH2 0x45CF PUSH1 0x1A DUP4 PUSH2 0x3FD3 JUMP JUMPDEST SWAP2 POP PUSH2 0x45DA DUP3 PUSH2 0x459B JUMP JUMPDEST PUSH1 0x20 DUP3 ADD SWAP1 POP SWAP2 SWAP1 POP JUMP JUMPDEST PUSH0 PUSH1 0x20 DUP3 ADD SWAP1 POP DUP2 DUP2 SUB PUSH0 DUP4 ADD MSTORE PUSH2 0x45FC DUP2 PUSH2 0x45C3 JUMP JUMPDEST SWAP1 POP SWAP2 SWAP1 POP JUMP JUMPDEST PUSH32 0x4E487B7100000000000000000000000000000000000000000000000000000000 PUSH0 MSTORE PUSH1 0x11 PUSH1 0x4 MSTORE PUSH1 0x24 PUSH0 REVERT JUMPDEST PUSH0 PUSH2 0x463A DUP3 PUSH2 0x3F98 JUMP JUMPDEST SWAP2 POP PUSH2 0x4645 DUP4 PUSH2 0x3F98 JUMP JUMPDEST SWAP3 POP DUP3 DUP3 ADD SWAP1 POP DUP1 DUP3 GT ISZERO PUSH2 0x465D JUMPI PUSH2 0x465C PUSH2 0x4603 JUMP JUMPDEST JUMPDEST SWAP3 SWAP2 POP POP JUMP JUMPDEST PUSH0 PUSH2 0x466D DUP3 PUSH2 0x3F98 JUMP JUMPDEST SWAP2 POP PUSH2 0x4678 DUP4 PUSH2 0x3F98 JUMP JUMPDEST SWAP3 POP DUP3 DUP3 MUL PUSH2 0x4686 DUP2 PUSH2 0x3F98 JUMP JUMPDEST SWAP2 POP DUP3 DUP3 DIV DUP5 EQ DUP4 ISZERO OR PUSH2 0x469D JUMPI PUSH2 0x469C PUSH2 0x4603 JUMP JUMPDEST JUMPDEST POP SWAP3 SWAP2 POP POP JUMP JUMPDEST PUSH32 0x4E487B7100000000000000000000000000000000000000000000000000000000 PUSH0 MSTORE PUSH1 0x12 PUSH1 0x4 MSTORE PUSH1 0x24 PUSH0 REVERT JUMPDEST PUSH0 PUSH2 0x46DB DUP3 PUSH2 0x3F98 JUMP JUMPDEST SWAP2 POP PUSH2 0x46E6 DUP4 PUSH2 0x3F98 JUMP JUMPDEST SWAP3 POP DUP3 PUSH2 0x46F6 JUMPI PUSH2 0x46F5 PUSH2 0x46A4 JUMP JUMPDEST JUMPDEST DUP3 DUP3 DIV SWAP1 POP SWAP3 SWAP2 POP POP JUMP JUMPDEST PUSH0 PUSH2 0x470B DUP3 PUSH2 0x3F98 JUMP JUMPDEST SWAP2 POP PUSH2 0x4716 DUP4 PUSH2 0x3F98 JUMP JUMPDEST SWAP3 POP DUP3 DUP3 SUB SWAP1 POP DUP2 DUP2 GT ISZERO PUSH2 0x472E JUMPI PUSH2 0x472D PUSH2 0x4603 JUMP JUMPDEST JUMPDEST SWAP3 SWAP2 POP POP JUMP JUMPDEST PUSH32 0x546F6B656E20707572636861736520616D6F756E7420746F6F206C6F77000000 PUSH0 DUP3 ADD MSTORE POP JUMP JUMPDEST PUSH0 PUSH2 0x4768 PUSH1 0x1D DUP4 PUSH2 0x3FD3 JUMP JUMPDEST SWAP2 POP PUSH2 0x4773 DUP3 PUSH2 0x4734 JUMP JUMPDEST PUSH1 0x20 DUP3 ADD SWAP1 POP SWAP2 SWAP1 POP JUMP JUMPDEST PUSH0 PUSH1 0x20 DUP3 ADD SWAP1 POP DUP2 DUP2 SUB PUSH0 DUP4 ADD MSTORE PUSH2 0x4795 DUP2 PUSH2 0x475C JUMP JUMPDEST SWAP1 POP SWAP2 SWAP1 POP JUMP JUMPDEST PUSH32 0x4E6F7420656E6F75676820746F6B656E7320696E207265736572766500000000 PUSH0 DUP3 ADD MSTORE POP JUMP JUMPDEST PUSH0 PUSH2 0x47D0 PUSH1 0x1C DUP4 PUSH2 0x3FD3 JUMP JUMPDEST SWAP2 POP PUSH2 0x47DB DUP3 PUSH2 0x479C JUMP JUMPDEST PUSH1 0x20 DUP3 ADD SWAP1 POP SWAP2 SWAP1 POP JUMP JUMPDEST PUSH0 PUSH1 0x20 DUP3 ADD SWAP1 POP DUP2 DUP2 SUB PUSH0 DUP4 ADD MSTORE PUSH2 0x47FD DUP2 PUSH2 0x47C4 JUMP JUMPDEST SWAP1 POP SWAP2 SWAP1 POP JUMP JUMPDEST PUSH32 0x4E6F744D69677261746564000000000000000000000000000000000000000000 PUSH0 DUP3 ADD MSTORE POP JUMP JUMPDEST PUSH0 PUSH2 0x4838 PUSH1 0xB DUP4 PUSH2 0x3FD3 JUMP JUMPDEST SWAP2 POP PUSH2 0x4843 DUP3 PUSH2 0x4804 JUMP JUMPDEST PUSH1 0x20 DUP3 ADD SWAP1 POP SWAP2 SWAP1 POP JUMP JUMPDEST PUSH0 PUSH1 0x20 DUP3 ADD SWAP1 POP DUP2 DUP2 SUB PUSH0 DUP4 ADD MSTORE PUSH2 0x4865 DUP2 PUSH2 0x482C JUMP JUMPDEST SWAP1 POP SWAP2 SWAP1 POP JUMP JUMPDEST PUSH32 0x496E73756666696369656E7442616C616E636500000000000000000000000000 PUSH0 DUP3 ADD MSTORE POP JUMP JUMPDEST PUSH0 PUSH2 0x48A0 PUSH1 0x13 DUP4 PUSH2 0x3FD3 JUMP JUMPDEST SWAP2 POP PUSH2 0x48AB DUP3 PUSH2 0x486C JUMP JUMPDEST PUSH1 0x20 DUP3 ADD SWAP1 POP SWAP2 SWAP1 POP JUMP JUMPDEST PUSH0 PUSH1 0x20 DUP3 ADD SWAP1 POP DUP2 DUP2 SUB PUSH0 DUP4 ADD MSTORE PUSH2 0x48CD DUP2 PUSH2 0x4894 JUMP JUMPDEST SWAP1 POP SWAP2 SWAP1 POP JUMP JUMPDEST PUSH0 DUP2 SWAP1 POP SWAP3 SWAP2 POP POP JUMP JUMPDEST POP JUMP JUMPDEST PUSH0 PUSH2 0x48EC PUSH0 DUP4 PUSH2 0x48D4 JUMP JUMPDEST SWAP2 POP PUSH2 0x48F7 DUP3 PUSH2 0x48DE JUMP JUMPDEST PUSH0 DUP3 ADD SWAP1 POP SWAP2 SWAP1 POP JUMP JUMPDEST PUSH0 PUSH2 0x490B DUP3 PUSH2 0x48E1 JUMP JUMPDEST SWAP2 POP DUP2 SWAP1 POP SWAP2 SWAP1 POP JUMP JUMPDEST PUSH32 0x5472616E736665724661696C6564000000000000000000000000000000000000 PUSH0 DUP3 ADD MSTORE POP JUMP JUMPDEST PUSH0 PUSH2 0x4949 PUSH1 0xE DUP4 PUSH2 0x3FD3 JUMP JUMPDEST SWAP2 POP PUSH2 0x4954 DUP3 PUSH2 0x4915 JUMP JUMPDEST PUSH1 0x20 DUP3 ADD SWAP1 POP SWAP2 SWAP1 POP JUMP JUMPDEST PUSH0 PUSH1 0x20 DUP3 ADD SWAP1 POP DUP2 DUP2 SUB PUSH0 DUP4 ADD MSTORE PUSH2 0x4976 DUP2 PUSH2 0x493D JUMP JUMPDEST SWAP1 POP SWAP2 SWAP1 POP JUMP JUMPDEST PUSH32 0x53636F726520746F6F2068696768000000000000000000000000000000000000 PUSH0 DUP3 ADD MSTORE POP JUMP JUMPDEST PUSH0 PUSH2 0x49B1 PUSH1 0xE DUP4 PUSH2 0x3FD3 JUMP JUMPDEST SWAP2 POP PUSH2 0x49BC DUP3 PUSH2 0x497D JUMP JUMPDEST PUSH1 0x20 DUP3 ADD SWAP1 POP SWAP2 SWAP1 POP JUMP JUMPDEST PUSH0 PUSH1 0x20 DUP3 ADD SWAP1 POP DUP2 DUP2 SUB PUSH0 DUP4 ADD MSTORE PUSH2 0x49DE DUP2 PUSH2 0x49A5 JUMP JUMPDEST SWAP1 POP SWAP2 SWAP1 POP JUMP JUMPDEST PUSH0 PUSH1 0x40 DUP3 ADD SWAP1 POP PUSH2 0x49F8 PUSH0 DUP4 ADD DUP6 PUSH2 0x3FA1 JUMP JUMPDEST PUSH2 0x4A05 PUSH1 0x20 DUP4 ADD DUP5 PUSH2 0x3FA1 JUMP JUMPDEST SWAP4 SWAP3 POP POP POP JUMP JUMPDEST PUSH32 0x496E76616C6964416D6F756E7400000000000000000000000000000000000000 PUSH0 DUP3 ADD MSTORE POP JUMP JUMPDEST PUSH0 PUSH2 0x4A40 PUSH1 0xD DUP4 PUSH2 0x3FD3 JUMP JUMPDEST SWAP2 POP PUSH2 0x4A4B DUP3 PUSH2 0x4A0C JUMP JUMPDEST PUSH1 0x20 DUP3 ADD SWAP1 POP SWAP2 SWAP1 POP JUMP JUMPDEST PUSH0 PUSH1 0x20 DUP3 ADD SWAP1 POP DUP2 DUP2 SUB PUSH0 DUP4 ADD MSTORE PUSH2 0x4A6D DUP2 PUSH2 0x4A34 JUMP JUMPDEST SWAP1 POP SWAP2 SWAP1 POP JUMP JUMPDEST PUSH32 0x4E6F7420414920636F6E74726F6C6C6572000000000000000000000000000000 PUSH0 DUP3 ADD MSTORE POP JUMP JUMPDEST PUSH0 PUSH2 0x4AA8 PUSH1 0x11 DUP4 PUSH2 0x3FD3 JUMP JUMPDEST SWAP2 POP PUSH2 0x4AB3 DUP3 PUSH2 0x4A74 JUMP JUMPDEST PUSH1 0x20 DUP3 ADD SWAP1 POP SWAP2 SWAP1 POP JUMP JUMPDEST PUSH0 PUSH1 0x20 DUP3 ADD SWAP1 POP DUP2 DUP2 SUB PUSH0 DUP4 ADD MSTORE PUSH2 0x4AD5 DUP2 PUSH2 0x4A9C JUMP JUMPDEST SWAP1 POP SWAP2 SWAP1 POP JUMP JUMPDEST PUSH32 0x507269636520696D7061637420746F6F20686967680000000000000000000000 PUSH0 DUP3 ADD MSTORE POP JUMP JUMPDEST PUSH0 PUSH2 0x4B10 PUSH1 0x15 DUP4 PUSH2 0x3FD3 JUMP JUMPDEST SWAP2 POP PUSH2 0x4B1B DUP3 PUSH2 0x4ADC JUMP JUMPDEST PUSH1 0x20 DUP3 ADD SWAP1 POP SWAP2 SWAP1 POP JUMP JUMPDEST PUSH0 PUSH1 0x20 DUP3 ADD SWAP1 POP DUP2 DUP2 SUB PUSH0 DUP4 ADD MSTORE PUSH2 0x4B3D DUP2 PUSH2 0x4B04 JUMP JUMPDEST SWAP1 POP SWAP2 SWAP1 POP JUMP JUMPDEST PUSH0 PUSH1 0x60 DUP3 ADD SWAP1 POP PUSH2 0x4B57 PUSH0 DUP4 ADD DUP7 PUSH2 0x3FA1 JUMP JUMPDEST PUSH2 0x4B64 PUSH1 0x20 DUP4 ADD DUP6 PUSH2 0x3FA1 JUMP JUMPDEST PUSH2 0x4B71 PUSH1 0x40 DUP4 ADD DUP5 PUSH2 0x3FA1 JUMP JUMPDEST SWAP5 SWAP4 POP POP POP POP JUMP JUMPDEST PUSH32 0x496E73756666696369656E7420636F6E74726163742062616C616E6365000000 PUSH0 DUP3 ADD MSTORE POP JUMP JUMPDEST PUSH0 PUSH2 0x4BAD PUSH1 0x1D DUP4 PUSH2 0x3FD3 JUMP JUMPDEST SWAP2 POP PUSH2 0x4BB8 DUP3 PUSH2 0x4B79 JUMP JUMPDEST PUSH1 0x20 DUP3 ADD SWAP1 POP SWAP2 SWAP1 POP JUMP JUMPDEST PUSH0 PUSH1 0x20 DUP3 ADD SWAP1 POP DUP2 DUP2 SUB PUSH0 DUP4 ADD MSTORE PUSH2 0x4BDA DUP2 PUSH2 0x4BA1 JUMP JUMPDEST SWAP1 POP SWAP2 SWAP1 POP JUMP JUMPDEST PUSH32 0x416C72656164794D696772617465640000000000000000000000000000000000 PUSH0 DUP3 ADD MSTORE POP JUMP JUMPDEST PUSH0 PUSH2 0x4C15 PUSH1 0xF DUP4 PUSH2 0x3FD3 JUMP JUMPDEST SWAP2 POP PUSH2 0x4C20 DUP3 PUSH2 0x4BE1 JUMP JUMPDEST PUSH1 0x20 DUP3 ADD SWAP1 POP SWAP2 SWAP1 POP JUMP JUMPDEST PUSH0 PUSH1 0x20 DUP3 ADD SWAP1 POP DUP2 DUP2 SUB PUSH0 DUP4 ADD MSTORE PUSH2 0x4C42 DUP2 PUSH2 0x4C09 JUMP JUMPDEST SWAP1 POP SWAP2 SWAP1 POP JUMP JUMPDEST PUSH32 0x4578636565646564526174654C696D6974000000000000000000000000000000 PUSH0 DUP3 ADD MSTORE POP JUMP JUMPDEST PUSH0 PUSH2 0x4C7D PUSH1 0x11 DUP4 PUSH2 0x3FD3 JUMP JUMPDEST SWAP2 POP PUSH2 0x4C88 DUP3 PUSH2 0x4C49 JUMP JUMPDEST PUSH1 0x20 DUP3 ADD SWAP1 POP SWAP2 SWAP1 POP JUMP JUMPDEST PUSH0 PUSH1 0x20 DUP3 ADD SWAP1 POP DUP2 DUP2 SUB PUSH0 DUP4 ADD MSTORE PUSH2 0x4CAA DUP2 PUSH2 0x4C71 JUMP JUMPDEST SWAP1 POP SWAP2 SWAP1 POP JUMP JUMPDEST PUSH32 0x416D6F756E7420746F6F204C6F77000000000000000000000000000000000000 PUSH0 DUP3 ADD MSTORE POP JUMP JUMPDEST PUSH0 PUSH2 0x4CE5 PUSH1 0xE DUP4 PUSH2 0x3FD3 JUMP JUMPDEST SWAP2 POP PUSH2 0x4CF0 DUP3 PUSH2 0x4CB1 JUMP JUMPDEST PUSH1 0x20 DUP3 ADD SWAP1 POP SWAP2 SWAP1 POP JUMP JUMPDEST PUSH0 PUSH1 0x20 DUP3 ADD SWAP1 POP DUP2 DUP2 SUB PUSH0 DUP4 ADD MSTORE PUSH2 0x4D12 DUP2 PUSH2 0x4CD9 JUMP JUMPDEST SWAP1 POP SWAP2 SWAP1 POP JUMP JUMPDEST PUSH32 0x416D6F756E742065786365656473206C696D6974000000000000000000000000 PUSH0 DUP3 ADD MSTORE POP JUMP JUMPDEST PUSH0 PUSH2 0x4D4D PUSH1 0x14 DUP4 PUSH2 0x3FD3 JUMP JUMPDEST SWAP2 POP PUSH2 0x4D58 DUP3 PUSH2 0x4D19 JUMP JUMPDEST PUSH1 0x20 DUP3 ADD SWAP1 POP SWAP2 SWAP1 POP JUMP JUMPDEST PUSH0 PUSH1 0x20 DUP3 ADD SWAP1 POP DUP2 DUP2 SUB PUSH0 DUP4 ADD MSTORE PUSH2 0x4D7A DUP2 PUSH2 0x4D41 JUMP JUMPDEST SWAP1 POP SWAP2 SWAP1 POP JUMP JUMPDEST PUSH32 0x4D61782075736572732072656163686564000000000000000000000000000000 PUSH0 DUP3 ADD MSTORE POP JUMP JUMPDEST PUSH0 PUSH2 0x4DB5 PUSH1 0x11 DUP4 PUSH2 0x3FD3 JUMP JUMPDEST SWAP2 POP PUSH2 0x4DC0 DUP3 PUSH2 0x4D81 JUMP JUMPDEST PUSH1 0x20 DUP3 ADD SWAP1 POP SWAP2 SWAP1 POP JUMP JUMPDEST PUSH0 PUSH1 0x20 DUP3 ADD SWAP1 POP DUP2 DUP2 SUB PUSH0 DUP4 ADD MSTORE PUSH2 0x4DE2 DUP2 PUSH2 0x4DA9 JUMP JUMPDEST SWAP1 POP SWAP2 SWAP1 POP JUMP JUMPDEST PUSH32 0x5075726368617365206578636565647320616C6C6F776564206C696D69740000 PUSH0 DUP3 ADD MSTORE POP JUMP JUMPDEST PUSH0 PUSH2 0x4E1D PUSH1 0x1E DUP4 PUSH2 0x3FD3 JUMP JUMPDEST SWAP2 POP PUSH2 0x4E28 DUP3 PUSH2 0x4DE9 JUMP JUMPDEST PUSH1 0x20 DUP3 ADD SWAP1 POP SWAP2 SWAP1 POP JUMP JUMPDEST PUSH0 PUSH1 0x20 DUP3 ADD SWAP1 POP DUP2 DUP2 SUB PUSH0 DUP4 ADD MSTORE PUSH2 0x4E4A DUP2 PUSH2 0x4E11 JUMP JUMPDEST SWAP1 POP SWAP2 SWAP1 POP JUMP JUMPDEST PUSH32 0x416D6F756E74206578636565647320746F74616C737570706C79000000000000 PUSH0 DUP3 ADD MSTORE POP JUMP JUMPDEST PUSH0 PUSH2 0x4E85 PUSH1 0x1A DUP4 PUSH2 0x3FD3 JUMP JUMPDEST SWAP2 POP PUSH2 0x4E90 DUP3 PUSH2 0x4E51 JUMP JUMPDEST PUSH1 0x20 DUP3 ADD SWAP1 POP SWAP2 SWAP1 POP JUMP JUMPDEST PUSH0 PUSH1 0x20 DUP3 ADD SWAP1 POP DUP2 DUP2 SUB PUSH0 DUP4 ADD MSTORE PUSH2 0x4EB2 DUP2 PUSH2 0x4E79 JUMP JUMPDEST SWAP1 POP SWAP2 SWAP1 POP JUMP JUMPDEST PUSH32 0x416D6F756E74206578636565647320707269636520496D706163740000000000 PUSH0 DUP3 ADD MSTORE POP JUMP JUMPDEST PUSH0 PUSH2 0x4EED PUSH1 0x1B DUP4 PUSH2 0x3FD3 JUMP JUMPDEST SWAP2 POP PUSH2 0x4EF8 DUP3 PUSH2 0x4EB9 JUMP JUMPDEST PUSH1 0x20 DUP3 ADD SWAP1 POP SWAP2 SWAP1 POP JUMP JUMPDEST PUSH0 PUSH1 0x20 DUP3 ADD SWAP1 POP DUP2 DUP2 SUB PUSH0 DUP4 ADD MSTORE PUSH2 0x4F1A DUP2 PUSH2 0x4EE1 JUMP JUMPDEST SWAP1 POP SWAP2 SWAP1 POP JUMP JUMPDEST PUSH0 PUSH2 0x4F2B DUP3 PUSH2 0x3F98 JUMP JUMPDEST SWAP2 POP PUSH32 0xFFFFFFFFFFFFFFFFFFFFFFFFFFFFFFFFFFFFFFFFFFFFFFFFFFFFFFFFFFFFFFFF DUP3 SUB PUSH2 0x4F5D JUMPI PUSH2 0x4F5C PUSH2 0x4603 JUMP JUMPDEST JUMPDEST PUSH1 0x1 DUP3 ADD SWAP1 POP SWAP2 SWAP1 POP JUMP JUMPDEST PUSH32 0x456D657267656E6379206D6F6465206E6F742061637469766500000000000000 PUSH0 DUP3 ADD MSTORE POP JUMP JUMPDEST PUSH0 PUSH2 0x4F9C PUSH1 0x19 DUP4 PUSH2 0x3FD3 JUMP JUMPDEST SWAP2 POP PUSH2 0x4FA7 DUP3 PUSH2 0x4F68 JUMP JUMPDEST PUSH1 0x20 DUP3 ADD SWAP1 POP SWAP2 SWAP1 POP JUMP JUMPDEST PUSH0 PUSH1 0x20 DUP3 ADD SWAP1 POP DUP2 DUP2 SUB PUSH0 DUP4 ADD MSTORE PUSH2 0x4FC9 DUP2 PUSH2 0x4F90 JUMP JUMPDEST SWAP1 POP SWAP2 SWAP1 POP JUMP JUMPDEST PUSH32 0x4E6F2045544820746F2077697468647261770000000000000000000000000000 PUSH0 DUP3 ADD MSTORE POP JUMP JUMPDEST PUSH0 PUSH2 0x5004 PUSH1 0x12 DUP4 PUSH2 0x3FD3 JUMP JUMPDEST SWAP2 POP PUSH2 0x500F DUP3 PUSH2 0x4FD0 JUMP JUMPDEST PUSH1 0x20 DUP3 ADD SWAP1 POP SWAP2 SWAP1 POP JUMP JUMPDEST PUSH0 PUSH1 0x20 DUP3 ADD SWAP1 POP DUP2 DUP2 SUB PUSH0 DUP4 ADD MSTORE PUSH2 0x5031 DUP2 PUSH2 0x4FF8 JUMP JUMPDEST SWAP1 POP SWAP2 SWAP1 POP JUMP JUMPDEST PUSH0 PUSH1 0x60 DUP3 ADD SWAP1 POP PUSH2 0x504B PUSH0 DUP4 ADD DUP7 PUSH2 0x43BC JUMP JUMPDEST PUSH2 0x5058 PUSH1 0x20 DUP4 ADD DUP6 PUSH2 0x3FA1 JUMP JUMPDEST PUSH2 0x5065 PUSH1 0x40 DUP4 ADD DUP5 PUSH2 0x3FA1 JUMP JUMPDEST SWAP5 SWAP4 POP POP POP POP JUMP JUMPDEST PUSH32 0x416C72656164794D696772617465642829000000000000000000000000000000 PUSH0 DUP3 ADD MSTORE POP JUMP JUMPDEST PUSH0 PUSH2 0x50A1 PUSH1 0x11 DUP4 PUSH2 0x3FD3 JUMP JUMPDEST SWAP2 POP PUSH2 0x50AC DUP3 PUSH2 0x506D JUMP JUMPDEST PUSH1 0x20 DUP3 ADD SWAP1 POP SWAP2 SWAP1 POP JUMP JUMPDEST PUSH0 PUSH1 0x20 DUP3 ADD SWAP1 POP DUP2 DUP2 SUB PUSH0 DUP4 ADD MSTORE PUSH2 0x50CE DUP2 PUSH2 0x5095 JUMP JUMPDEST SWAP1 POP SWAP2 SWAP1 POP JUMP JUMPDEST PUSH32 0x4D6967726174696F6E546872657368486F6C644E6F744D657428290000000000 PUSH0 DUP3 ADD MSTORE POP JUMP JUMPDEST PUSH0 PUSH2 0x5109 PUSH1 0x1B DUP4 PUSH2 0x3FD3 JUMP JUMPDEST SWAP2 POP PUSH2 0x5114 DUP3 PUSH2 0x50D5 JUMP JUMPDEST PUSH1 0x20 DUP3 ADD SWAP1 POP SWAP2 SWAP1 POP JUMP JUMPDEST PUSH0 PUSH1 0x20 DUP3 ADD SWAP1 POP DUP2 DUP2 SUB PUSH0 DUP4 ADD MSTORE PUSH2 0x5136 DUP2 PUSH2 0x50FD JUMP JUMPDEST SWAP1 POP SWAP2 SWAP1 POP JUMP JUMPDEST PUSH32 0x5A65726F20746F6B656E20726573657276650000000000000000000000000000 PUSH0 DUP3 ADD MSTORE POP JUMP JUMPDEST PUSH0 PUSH2 0x5171 PUSH1 0x12 DUP4 PUSH2 0x3FD3 JUMP JUMPDEST SWAP2 POP PUSH2 0x517C DUP3 PUSH2 0x513D JUMP JUMPDEST PUSH1 0x20 DUP3 ADD SWAP1 POP SWAP2 SWAP1 POP JUMP JUMPDEST PUSH0 PUSH1 0x20 DUP3 ADD SWAP1 POP DUP2 DUP2 SUB PUSH0 DUP4 ADD MSTORE PUSH2 0x519E DUP2 PUSH2 0x5165 JUMP JUMPDEST SWAP1 POP SWAP2 SWAP1 POP JUMP JUMPDEST PUSH32 0x496E76616C696420707269636500000000000000000000000000000000000000 PUSH0 DUP3 ADD MSTORE POP JUMP JUMPDEST PUSH0 PUSH2 0x51D9 PUSH1 0xD DUP4 PUSH2 0x3FD3 JUMP JUMPDEST SWAP2 POP PUSH2 0x51E4 DUP3 PUSH2 0x51A5 JUMP JUMPDEST PUSH1 0x20 DUP3 ADD SWAP1 POP SWAP2 SWAP1 POP JUMP JUMPDEST PUSH0 PUSH1 0x20 DUP3 ADD SWAP1 POP DUP2 DUP2 SUB PUSH0 DUP4 ADD MSTORE PUSH2 0x5206 DUP2 PUSH2 0x51CD JUMP JUMPDEST SWAP1 POP SWAP2 SWAP1 POP JUMP JUMPDEST PUSH32 0x496E76616C6964206D6967726174696F6E20616D6F756E740000000000000000 PUSH0 DUP3 ADD MSTORE POP JUMP JUMPDEST PUSH0 PUSH2 0x5241 PUSH1 0x18 DUP4 PUSH2 0x3FD3 JUMP JUMPDEST SWAP2 POP PUSH2 0x524C DUP3 PUSH2 0x520D JUMP JUMPDEST PUSH1 0x20 DUP3 ADD SWAP1 POP SWAP2 SWAP1 POP JUMP JUMPDEST PUSH0 PUSH1 0x20 DUP3 ADD SWAP1 POP DUP2 DUP2 SUB PUSH0 DUP4 ADD MSTORE PUSH2 0x526E DUP2 PUSH2 0x5235 JUMP JUMPDEST SWAP1 POP SWAP2 SWAP1 POP JUMP JUMPDEST PUSH0 DUP2 MLOAD SWAP1 POP PUSH2 0x5283 DUP2 PUSH2 0x40B3 JUMP JUMPDEST SWAP3 SWAP2 POP POP JUMP JUMPDEST PUSH0 PUSH1 0x20 DUP3 DUP5 SUB SLT ISZERO PUSH2 0x529E JUMPI PUSH2 0x529D PUSH2 0x3EE1 JUMP JUMPDEST JUMPDEST PUSH0 PUSH2 0x52AB DUP5 DUP3 DUP6 ADD PUSH2 0x5275 JUMP JUMPDEST SWAP2 POP POP SWAP3 SWAP2 POP POP JUMP JUMPDEST PUSH0 PUSH1 0xC0 DUP3 ADD SWAP1 POP PUSH2 0x52C7 PUSH0 DUP4 ADD DUP10 PUSH2 0x43BC JUMP JUMPDEST PUSH2 0x52D4 PUSH1 0x20 DUP4 ADD DUP9 PUSH2 0x3FA1 JUMP JUMPDEST PUSH2 0x52E1 PUSH1 0x40 DUP4 ADD DUP8 PUSH2 0x3FA1 JUMP JUMPDEST PUSH2 0x52EE PUSH1 0x60 DUP4 ADD DUP7 PUSH2 0x3FA1 JUMP JUMPDEST PUSH2 0x52FB PUSH1 0x80 DUP4 ADD DUP6 PUSH2 0x43BC JUMP JUMPDEST PUSH2 0x5308 PUSH1 0xA0 DUP4 ADD DUP5 PUSH2 0x3FA1 JUMP JUMPDEST SWAP8 SWAP7 POP POP POP POP POP POP POP JUMP JUMPDEST PUSH0 DUP1 PUSH0 PUSH1 0x60 DUP5 DUP7 SUB SLT ISZERO PUSH2 0x532A JUMPI PUSH2 0x5329 PUSH2 0x3EE1 JUMP JUMPDEST JUMPDEST PUSH0 PUSH2 0x5337 DUP7 DUP3 DUP8 ADD PUSH2 0x5275 JUMP JUMPDEST SWAP4 POP POP PUSH1 0x20 PUSH2 0x5348 DUP7 DUP3 DUP8 ADD PUSH2 0x5275 JUMP JUMPDEST SWAP3 POP POP PUSH1 0x40 PUSH2 0x5359 DUP7 DUP3 DUP8 ADD PUSH2 0x5275 JUMP JUMPDEST SWAP2 POP POP SWAP3 POP SWAP3 POP SWAP3 JUMP JUMPDEST PUSH32 0x4D6967726174696F6E206661696C656400000000000000000000000000000000 PUSH0 DUP3 ADD MSTORE POP JUMP JUMPDEST PUSH0 PUSH2 0x5397 PUSH1 0x10 DUP4 PUSH2 0x3FD3 JUMP JUMPDEST SWAP2 POP PUSH2 0x53A2 DUP3 PUSH2 0x5363 JUMP JUMPDEST PUSH1 0x20 DUP3 ADD SWAP1 POP SWAP2 SWAP1 POP JUMP JUMPDEST PUSH0 PUSH1 0x20 DUP3 ADD SWAP1 POP DUP2 DUP2 SUB PUSH0 DUP4 ADD MSTORE PUSH2 0x53C4 DUP2 PUSH2 0x538B JUMP JUMPDEST SWAP1 POP SWAP2 SWAP1 POP JUMP JUMPDEST PUSH32 0x546F6B656E2062616C616E6365206D616E6970756C6174656400000000000000 PUSH0 DUP3 ADD MSTORE POP JUMP JUMPDEST PUSH0 PUSH2 0x53FF PUSH1 0x19 DUP4 PUSH2 0x3FD3 JUMP JUMPDEST SWAP2 POP PUSH2 0x540A DUP3 PUSH2 0x53CB JUMP JUMPDEST PUSH1 0x20 DUP3 ADD SWAP1 POP SWAP2 SWAP1 POP JUMP JUMPDEST PUSH0 PUSH1 0x20 DUP3 ADD SWAP1 POP DUP2 DUP2 SUB PUSH0 DUP4 ADD MSTORE PUSH2 0x542C DUP2 PUSH2 0x53F3 JUMP JUMPDEST SWAP1 POP SWAP2 SWAP1 POP JUMP JUMPDEST PUSH0 DUP2 MLOAD SWAP1 POP PUSH2 0x5441 DUP2 PUSH2 0x4089 JUMP JUMPDEST SWAP3 SWAP2 POP POP JUMP JUMPDEST PUSH0 PUSH1 0x20 DUP3 DUP5 SUB SLT ISZERO PUSH2 0x545C JUMPI PUSH2 0x545B PUSH2 0x3EE1 JUMP JUMPDEST JUMPDEST PUSH0 PUSH2 0x5469 DUP5 DUP3 DUP6 ADD PUSH2 0x5433 JUMP JUMPDEST SWAP2 POP POP SWAP3 SWAP2 POP POP JUMP JUMPDEST PUSH0 PUSH1 0x40 DUP3 ADD SWAP1 POP PUSH2 0x5485 PUSH0 DUP4 ADD DUP6 PUSH2 0x43BC JUMP JUMPDEST PUSH2 0x5492 PUSH1 0x20 DUP4 ADD DUP5 PUSH2 0x43BC JUMP JUMPDEST SWAP4 SWAP3 POP POP POP JUMP JUMPDEST PUSH0 PUSH1 0x60 DUP3 ADD SWAP1 POP PUSH2 0x54AC PUSH0 DUP4 ADD DUP7 PUSH2 0x3FA1 JUMP JUMPDEST PUSH2 0x54B9 PUSH1 0x20 DUP4 ADD DUP6 PUSH2 0x3FA1 JUMP JUMPDEST PUSH2 0x54C6 PUSH1 0x40 DUP4 ADD DUP5 PUSH2 0x43BC JUMP JUMPDEST SWAP5 SWAP4 POP POP POP POP JUMP JUMPDEST PUSH0 PUSH1 0x40 DUP3 ADD SWAP1 POP PUSH2 0x54E1 PUSH0 DUP4 ADD DUP6 PUSH2 0x43BC JUMP JUMPDEST PUSH2 0x54EE PUSH1 0x20 DUP4 ADD DUP5 PUSH2 0x41C9 JUMP JUMPDEST SWAP4 SWAP3 POP POP POP JUMP INVALID LOG2 PUSH5 0x6970667358 0x22 SLT KECCAK256 PUSH28 0x9AF225F4C0A5E9235731EA9F5909CC0AF9B9A939812C9A4AEBF0AE40 MSIZE 0xCE RETURN PUSH5 0x736F6C6343 STOP ADDMOD BYTE STOP CALLER "
		},
		"gasEstimates": {
			"creation": {
				"codeDepositCost": "4360600",
				"executionCost": "infinite",
				"totalCost": "infinite"
			},
			"external": {
				"ADMIN_ROLE()": "393",
				"DEFAULT_ADMIN_ROLE()": "441",
				"INITIAL_VIRTUAL_ETH_RESERVE()": "417",
				"INITIAL_VIRTUAL_TOKEN_RESERVE()": "437",
				"MAX_ACTIONS_IN_INTERVAL()": "414",
				"MAX_CONCURRENT_USERS()": "459",
				"MAX_PURCHASE()": "394",
				"MIGRATION_FEE()": "393",
				"MIGRATION_THRESHOLD()": "438",
				"MIN_PURCHASE()": "458",
				"OPERATOR_ROLE()": "435",
				"PRICE_IMPACT_LIMIT()": "2558",
				"RATE_LIMIT_INTERVAL()": "394",
				"TOTAL_SUPPLY()": "437",
				"actionCounter(address)": "2869",
				"activeUserCount()": "2516",
				"aiController()": "2620",
				"allowance(address,address)": "infinite",
				"approve(address,uint256)": "infinite",
				"balanceOf(address)": "2940",
				"buy()": "infinite",
				"calculatePriceImpact(uint256,uint256)": "infinite",
				"calculatePurchaseReturn(uint256)": "infinite",
				"calculateSaleReturn(uint256)": "infinite",
				"decimals()": "407",
				"emergencyMode()": "2586",
				"emergencyWithdraw()": "infinite",
				"getGrowthMetrics()": "infinite",
				"getRoleAdmin(bytes32)": "infinite",
				"grantRole(bytes32,address)": "infinite",
				"growthMetrics()": "infinite",
				"hasRole(bytes32,address)": "3189",
				"isActiveUser(address)": "2923",
				"lastActionTime(address)": "2870",
				"lastActionTimestamp()": "2491",
				"migrated()": "2556",
				"name()": "infinite",
				"paused()": "2585",
				"pendingWithdrawals(address)": "2917",
				"renounceRole(bytes32,address)": "infinite",
				"revokeRole(bytes32,address)": "infinite",
				"sell(uint256)": "infinite",
				"setEmergencyMode(bool)": "infinite",
				"supportsInterface(bytes4)": "787",
				"symbol()": "infinite",
				"totalCollectedETH()": "2559",
				"totalSupply()": "2567",
				"transfer(address,uint256)": "infinite",
				"transferFrom(address,address,uint256)": "infinite",
				"uniswapFactory()": "infinite",
				"uniswapPair()": "2619",
				"uniswapRouter()": "infinite",
				"updateAIParameters(uint256,uint256)": "infinite",
				"updateSocialImpactScore(uint256)": "infinite",
				"virtualEthReserve()": "2515",
				"virtualTokenReserve()": "2538",
				"withdrawFees()": "infinite",
				"withdrawPendingPayments()": "infinite"
			},
			"internal": {
				"_queueWithdrawal(address,uint256)": "infinite",
				"_update(address,address,uint256)": "infinite",
				"_updateGrowthMetrics(address)": "infinite",
				"logBase2(uint256)": "infinite",
				"migrateToUniswap()": "infinite"
			}
		},
		"methodIdentifiers": {
			"ADMIN_ROLE()": "75b238fc",
			"DEFAULT_ADMIN_ROLE()": "a217fddf",
			"INITIAL_VIRTUAL_ETH_RESERVE()": "027fb5b1",
			"INITIAL_VIRTUAL_TOKEN_RESERVE()": "b6628a4d",
			"MAX_ACTIONS_IN_INTERVAL()": "c2d0c2ff",
			"MAX_CONCURRENT_USERS()": "2fc52849",
			"MAX_PURCHASE()": "7146bd08",
			"MIGRATION_FEE()": "a82b4d43",
			"MIGRATION_THRESHOLD()": "150ee883",
			"MIN_PURCHASE()": "d439390c",
			"OPERATOR_ROLE()": "f5b541a6",
			"PRICE_IMPACT_LIMIT()": "70db45d7",
			"RATE_LIMIT_INTERVAL()": "200e0ac8",
			"TOTAL_SUPPLY()": "902d55a5",
			"actionCounter(address)": "5d279f70",
			"activeUserCount()": "728e9ecc",
			"aiController()": "764a75c3",
			"allowance(address,address)": "dd62ed3e",
			"approve(address,uint256)": "095ea7b3",
			"balanceOf(address)": "70a08231",
			"buy()": "a6f2ae3a",
			"calculatePriceImpact(uint256,uint256)": "8e81c731",
			"calculatePurchaseReturn(uint256)": "322d2100",
			"calculateSaleReturn(uint256)": "69fcd4ac",
			"decimals()": "313ce567",
			"emergencyMode()": "0905f560",
			"emergencyWithdraw()": "db2e21bc",
			"getGrowthMetrics()": "48f617f1",
			"getRoleAdmin(bytes32)": "248a9ca3",
			"grantRole(bytes32,address)": "2f2ff15d",
			"growthMetrics()": "feefc720",
			"hasRole(bytes32,address)": "91d14854",
			"isActiveUser(address)": "4202d214",
			"lastActionTime(address)": "27f0bfd6",
			"lastActionTimestamp()": "eac697c9",
			"migrated()": "2c678c64",
			"name()": "06fdde03",
			"paused()": "5c975abb",
			"pendingWithdrawals(address)": "f3f43703",
			"renounceRole(bytes32,address)": "36568abe",
			"revokeRole(bytes32,address)": "d547741f",
			"sell(uint256)": "e4849b32",
			"setEmergencyMode(bool)": "be32b3f8",
			"supportsInterface(bytes4)": "01ffc9a7",
			"symbol()": "95d89b41",
			"totalCollectedETH()": "5d202249",
			"totalSupply()": "18160ddd",
			"transfer(address,uint256)": "a9059cbb",
			"transferFrom(address,address,uint256)": "23b872dd",
			"uniswapFactory()": "8bdb2afa",
			"uniswapPair()": "c816841b",
			"uniswapRouter()": "735de9f7",
			"updateAIParameters(uint256,uint256)": "76222663",
			"updateSocialImpactScore(uint256)": "49c1ca42",
			"virtualEthReserve()": "52b86d2b",
			"virtualTokenReserve()": "343ee3b7",
			"withdrawFees()": "476343ee",
			"withdrawPendingPayments()": "7850d118"
		}
	},
	"abi": [
		{
			"inputs": [
				{
					"internalType": "address",
					"name": "_router",
					"type": "address"
				},
				{
					"internalType": "address",
					"name": "_factory",
					"type": "address"
				},
				{
					"internalType": "address",
					"name": "_admin",
					"type": "address"
				}
			],
			"stateMutability": "payable",
			"type": "constructor"
		},
		{
			"inputs": [],
			"name": "AccessControlBadConfirmation",
			"type": "error"
		},
		{
			"inputs": [
				{
					"internalType": "address",
					"name": "account",
					"type": "address"
				},
				{
					"internalType": "bytes32",
					"name": "neededRole",
					"type": "bytes32"
				}
			],
			"name": "AccessControlUnauthorizedAccount",
			"type": "error"
		},
		{
			"inputs": [],
			"name": "AlreadyMigrated",
			"type": "error"
		},
		{
			"inputs": [
				{
					"internalType": "address",
					"name": "spender",
					"type": "address"
				},
				{
					"internalType": "uint256",
					"name": "allowance",
					"type": "uint256"
				},
				{
					"internalType": "uint256",
					"name": "needed",
					"type": "uint256"
				}
			],
			"name": "ERC20InsufficientAllowance",
			"type": "error"
		},
		{
			"inputs": [
				{
					"internalType": "address",
					"name": "sender",
					"type": "address"
				},
				{
					"internalType": "uint256",
					"name": "balance",
					"type": "uint256"
				},
				{
					"internalType": "uint256",
					"name": "needed",
					"type": "uint256"
				}
			],
			"name": "ERC20InsufficientBalance",
			"type": "error"
		},
		{
			"inputs": [
				{
					"internalType": "address",
					"name": "approver",
					"type": "address"
				}
			],
			"name": "ERC20InvalidApprover",
			"type": "error"
		},
		{
			"inputs": [
				{
					"internalType": "address",
					"name": "receiver",
					"type": "address"
				}
			],
			"name": "ERC20InvalidReceiver",
			"type": "error"
		},
		{
			"inputs": [
				{
					"internalType": "address",
					"name": "sender",
					"type": "address"
				}
			],
			"name": "ERC20InvalidSender",
			"type": "error"
		},
		{
			"inputs": [
				{
					"internalType": "address",
					"name": "spender",
					"type": "address"
				}
			],
			"name": "ERC20InvalidSpender",
			"type": "error"
		},
		{
			"inputs": [],
			"name": "EnforcedPause",
			"type": "error"
		},
		{
			"inputs": [],
			"name": "ExceededRateLimit",
			"type": "error"
		},
		{
			"inputs": [],
			"name": "ExceedsPriceImpact",
			"type": "error"
		},
		{
			"inputs": [],
			"name": "ExceedsTotalSupply",
			"type": "error"
		},
		{
			"inputs": [],
			"name": "ExpectedPause",
			"type": "error"
		},
		{
			"inputs": [],
			"name": "InsufficientBalance",
			"type": "error"
		},
		{
			"inputs": [],
			"name": "InvalidAddress",
			"type": "error"
		},
		{
			"inputs": [],
			"name": "InvalidAmount",
			"type": "error"
		},
		{
			"inputs": [],
			"name": "MigrationThreshHoldNotMet",
			"type": "error"
		},
		{
			"inputs": [],
			"name": "NoPendingPayments",
			"type": "error"
		},
		{
			"inputs": [],
			"name": "NotAuthorized",
			"type": "error"
		},
		{
			"inputs": [],
			"name": "NotMigrated",
			"type": "error"
		},
		{
			"inputs": [],
			"name": "ReentrancyGuardReentrantCall",
			"type": "error"
		},
		{
			"inputs": [],
			"name": "TransferFailed",
			"type": "error"
		},
		{
			"anonymous": false,
			"inputs": [
				{
					"indexed": false,
					"internalType": "uint256",
					"name": "timestamp",
					"type": "uint256"
				},
				{
					"indexed": false,
					"internalType": "uint256",
					"name": "newPriceImpact",
					"type": "uint256"
				},
				{
					"indexed": false,
					"internalType": "uint256",
					"name": "newBondingCurveFactor",
					"type": "uint256"
				}
			],
			"name": "AIParametersUpdated",
			"type": "event"
		},
		{
			"anonymous": false,
			"inputs": [
				{
					"indexed": true,
					"internalType": "address",
					"name": "owner",
					"type": "address"
				},
				{
					"indexed": true,
					"internalType": "address",
					"name": "spender",
					"type": "address"
				},
				{
					"indexed": false,
					"internalType": "uint256",
					"name": "value",
					"type": "uint256"
				}
			],
			"name": "Approval",
			"type": "event"
		},
		{
			"anonymous": false,
			"inputs": [
				{
					"indexed": true,
					"internalType": "address",
					"name": "caller",
					"type": "address"
				},
				{
					"indexed": false,
					"internalType": "uint256",
					"name": "ethAmount",
					"type": "uint256"
				}
			],
			"name": "EmergencyWithdraw",
			"type": "event"
		},
		{
			"anonymous": false,
			"inputs": [
				{
					"indexed": false,
					"internalType": "uint256",
					"name": "ethAmount",
					"type": "uint256"
				},
				{
					"indexed": false,
					"internalType": "uint256",
					"name": "tokenAmount",
					"type": "uint256"
				},
				{
					"indexed": false,
					"internalType": "address",
					"name": "uniswapPair",
					"type": "address"
				}
			],
			"name": "MigrationExecuted",
			"type": "event"
		},
		{
			"anonymous": false,
			"inputs": [
				{
					"indexed": false,
					"internalType": "address",
					"name": "account",
					"type": "address"
				}
			],
			"name": "Paused",
			"type": "event"
		},
		{
			"anonymous": false,
			"inputs": [
				{
					"indexed": true,
					"internalType": "bytes32",
					"name": "role",
					"type": "bytes32"
				},
				{
					"indexed": true,
					"internalType": "bytes32",
					"name": "previousAdminRole",
					"type": "bytes32"
				},
				{
					"indexed": true,
					"internalType": "bytes32",
					"name": "newAdminRole",
					"type": "bytes32"
				}
			],
			"name": "RoleAdminChanged",
			"type": "event"
		},
		{
			"anonymous": false,
			"inputs": [
				{
					"indexed": true,
					"internalType": "bytes32",
					"name": "role",
					"type": "bytes32"
				},
				{
					"indexed": true,
					"internalType": "address",
					"name": "account",
					"type": "address"
				},
				{
					"indexed": true,
					"internalType": "address",
					"name": "sender",
					"type": "address"
				}
			],
			"name": "RoleGranted",
			"type": "event"
		},
		{
			"anonymous": false,
			"inputs": [
				{
					"indexed": true,
					"internalType": "bytes32",
					"name": "role",
					"type": "bytes32"
				},
				{
					"indexed": true,
					"internalType": "address",
					"name": "account",
					"type": "address"
				},
				{
					"indexed": true,
					"internalType": "address",
					"name": "sender",
					"type": "address"
				}
			],
			"name": "RoleRevoked",
			"type": "event"
		},
		{
			"anonymous": false,
			"inputs": [
				{
					"indexed": false,
					"internalType": "uint256",
					"name": "timestamp",
					"type": "uint256"
				},
				{
					"indexed": false,
					"internalType": "uint256",
					"name": "newScore",
					"type": "uint256"
				}
			],
			"name": "SocialImpactUpdated",
			"type": "event"
		},
		{
			"anonymous": false,
			"inputs": [
				{
					"indexed": true,
					"internalType": "address",
					"name": "buyer",
					"type": "address"
				},
				{
					"indexed": false,
					"internalType": "uint256",
					"name": "ethAmount",
					"type": "uint256"
				},
				{
					"indexed": false,
					"internalType": "uint256",
					"name": "tokenAmount",
					"type": "uint256"
				}
			],
			"name": "TokensPurchased",
			"type": "event"
		},
		{
			"anonymous": false,
			"inputs": [
				{
					"indexed": true,
					"internalType": "address",
					"name": "seller",
					"type": "address"
				},
				{
					"indexed": false,
					"internalType": "uint256",
					"name": "tokenAmount",
					"type": "uint256"
				},
				{
					"indexed": false,
					"internalType": "uint256",
					"name": "ethAmount",
					"type": "uint256"
				}
			],
			"name": "TokensSold",
			"type": "event"
		},
		{
			"anonymous": false,
			"inputs": [
				{
					"indexed": true,
					"internalType": "address",
					"name": "from",
					"type": "address"
				},
				{
					"indexed": true,
					"internalType": "address",
					"name": "to",
					"type": "address"
				},
				{
					"indexed": false,
					"internalType": "uint256",
					"name": "value",
					"type": "uint256"
				}
			],
			"name": "Transfer",
			"type": "event"
		},
		{
			"anonymous": false,
			"inputs": [
				{
					"indexed": false,
					"internalType": "address",
					"name": "account",
					"type": "address"
				}
			],
			"name": "Unpaused",
			"type": "event"
		},
		{
			"anonymous": false,
			"inputs": [
				{
					"indexed": false,
					"internalType": "uint256",
					"name": "virtualTokenReserve",
					"type": "uint256"
				},
				{
					"indexed": false,
					"internalType": "uint256",
					"name": "virtualEthReserve",
					"type": "uint256"
				}
			],
			"name": "VirtualReservesUpdated",
			"type": "event"
		},
		{
			"anonymous": false,
			"inputs": [
				{
					"indexed": true,
					"internalType": "address",
					"name": "payee",
					"type": "address"
				},
				{
					"indexed": false,
					"internalType": "uint256",
					"name": "amount",
					"type": "uint256"
				}
			],
			"name": "WithdrawalQueued",
			"type": "event"
		},
		{
			"anonymous": false,
			"inputs": [
				{
					"indexed": true,
					"internalType": "address",
					"name": "payee",
					"type": "address"
				},
				{
					"indexed": false,
					"internalType": "uint256",
					"name": "amount",
					"type": "uint256"
				}
			],
			"name": "Withdrawn",
			"type": "event"
		},
		{
			"inputs": [],
			"name": "ADMIN_ROLE",
			"outputs": [
				{
					"internalType": "bytes32",
					"name": "",
					"type": "bytes32"
				}
			],
			"stateMutability": "view",
			"type": "function"
		},
		{
			"inputs": [],
			"name": "DEFAULT_ADMIN_ROLE",
			"outputs": [
				{
					"internalType": "bytes32",
					"name": "",
					"type": "bytes32"
				}
			],
			"stateMutability": "view",
			"type": "function"
		},
		{
			"inputs": [],
			"name": "INITIAL_VIRTUAL_ETH_RESERVE",
			"outputs": [
				{
					"internalType": "uint256",
					"name": "",
					"type": "uint256"
				}
			],
			"stateMutability": "view",
			"type": "function"
		},
		{
			"inputs": [],
			"name": "INITIAL_VIRTUAL_TOKEN_RESERVE",
			"outputs": [
				{
					"internalType": "uint256",
					"name": "",
					"type": "uint256"
				}
			],
			"stateMutability": "view",
			"type": "function"
		},
		{
			"inputs": [],
			"name": "MAX_ACTIONS_IN_INTERVAL",
			"outputs": [
				{
					"internalType": "uint256",
					"name": "",
					"type": "uint256"
				}
			],
			"stateMutability": "view",
			"type": "function"
		},
		{
			"inputs": [],
			"name": "MAX_CONCURRENT_USERS",
			"outputs": [
				{
					"internalType": "uint256",
					"name": "",
					"type": "uint256"
				}
			],
			"stateMutability": "view",
			"type": "function"
		},
		{
			"inputs": [],
			"name": "MAX_PURCHASE",
			"outputs": [
				{
					"internalType": "uint256",
					"name": "",
					"type": "uint256"
				}
			],
			"stateMutability": "view",
			"type": "function"
		},
		{
			"inputs": [],
			"name": "MIGRATION_FEE",
			"outputs": [
				{
					"internalType": "uint256",
					"name": "",
					"type": "uint256"
				}
			],
			"stateMutability": "view",
			"type": "function"
		},
		{
			"inputs": [],
			"name": "MIGRATION_THRESHOLD",
			"outputs": [
				{
					"internalType": "uint256",
					"name": "",
					"type": "uint256"
				}
			],
			"stateMutability": "view",
			"type": "function"
		},
		{
			"inputs": [],
			"name": "MIN_PURCHASE",
			"outputs": [
				{
					"internalType": "uint256",
					"name": "",
					"type": "uint256"
				}
			],
			"stateMutability": "view",
			"type": "function"
		},
		{
			"inputs": [],
			"name": "OPERATOR_ROLE",
			"outputs": [
				{
					"internalType": "bytes32",
					"name": "",
					"type": "bytes32"
				}
			],
			"stateMutability": "view",
			"type": "function"
		},
		{
			"inputs": [],
			"name": "PRICE_IMPACT_LIMIT",
			"outputs": [
				{
					"internalType": "uint256",
					"name": "",
					"type": "uint256"
				}
			],
			"stateMutability": "view",
			"type": "function"
		},
		{
			"inputs": [],
			"name": "RATE_LIMIT_INTERVAL",
			"outputs": [
				{
					"internalType": "uint256",
					"name": "",
					"type": "uint256"
				}
			],
			"stateMutability": "view",
			"type": "function"
		},
		{
			"inputs": [],
			"name": "TOTAL_SUPPLY",
			"outputs": [
				{
					"internalType": "uint256",
					"name": "",
					"type": "uint256"
				}
			],
			"stateMutability": "view",
			"type": "function"
		},
		{
			"inputs": [
				{
					"internalType": "address",
					"name": "",
					"type": "address"
				}
			],
			"name": "actionCounter",
			"outputs": [
				{
					"internalType": "uint256",
					"name": "",
					"type": "uint256"
				}
			],
			"stateMutability": "view",
			"type": "function"
		},
		{
			"inputs": [],
			"name": "activeUserCount",
			"outputs": [
				{
					"internalType": "uint256",
					"name": "",
					"type": "uint256"
				}
			],
			"stateMutability": "view",
			"type": "function"
		},
		{
			"inputs": [],
			"name": "aiController",
			"outputs": [
				{
					"internalType": "address",
					"name": "",
					"type": "address"
				}
			],
			"stateMutability": "view",
			"type": "function"
		},
		{
			"inputs": [
				{
					"internalType": "address",
					"name": "owner",
					"type": "address"
				},
				{
					"internalType": "address",
					"name": "spender",
					"type": "address"
				}
			],
			"name": "allowance",
			"outputs": [
				{
					"internalType": "uint256",
					"name": "",
					"type": "uint256"
				}
			],
			"stateMutability": "view",
			"type": "function"
		},
		{
			"inputs": [
				{
					"internalType": "address",
					"name": "spender",
					"type": "address"
				},
				{
					"internalType": "uint256",
					"name": "value",
					"type": "uint256"
				}
			],
			"name": "approve",
			"outputs": [
				{
					"internalType": "bool",
					"name": "",
					"type": "bool"
				}
			],
			"stateMutability": "nonpayable",
			"type": "function"
		},
		{
			"inputs": [
				{
					"internalType": "address",
					"name": "account",
					"type": "address"
				}
			],
			"name": "balanceOf",
			"outputs": [
				{
					"internalType": "uint256",
					"name": "",
					"type": "uint256"
				}
			],
			"stateMutability": "view",
			"type": "function"
		},
		{
			"inputs": [],
			"name": "buy",
			"outputs": [],
			"stateMutability": "payable",
			"type": "function"
		},
		{
			"inputs": [
				{
					"internalType": "uint256",
					"name": "tradeSize",
					"type": "uint256"
				},
				{
					"internalType": "uint256",
					"name": "currentReserve",
					"type": "uint256"
				}
			],
			"name": "calculatePriceImpact",
			"outputs": [
				{
					"internalType": "uint256",
					"name": "",
					"type": "uint256"
				}
			],
			"stateMutability": "pure",
			"type": "function"
		},
		{
			"inputs": [
				{
					"internalType": "uint256",
					"name": "ethAmount",
					"type": "uint256"
				}
			],
			"name": "calculatePurchaseReturn",
			"outputs": [
				{
					"internalType": "uint256",
					"name": "",
					"type": "uint256"
				}
			],
			"stateMutability": "view",
			"type": "function"
		},
		{
			"inputs": [
				{
					"internalType": "uint256",
					"name": "tokenAmount",
					"type": "uint256"
				}
			],
			"name": "calculateSaleReturn",
			"outputs": [
				{
					"internalType": "uint256",
					"name": "",
					"type": "uint256"
				}
			],
			"stateMutability": "view",
			"type": "function"
		},
		{
			"inputs": [],
			"name": "decimals",
			"outputs": [
				{
					"internalType": "uint8",
					"name": "",
					"type": "uint8"
				}
			],
			"stateMutability": "view",
			"type": "function"
		},
		{
			"inputs": [],
			"name": "emergencyMode",
			"outputs": [
				{
					"internalType": "bool",
					"name": "",
					"type": "bool"
				}
			],
			"stateMutability": "view",
			"type": "function"
		},
		{
			"inputs": [],
			"name": "emergencyWithdraw",
			"outputs": [],
			"stateMutability": "nonpayable",
			"type": "function"
		},
		{
			"inputs": [],
			"name": "getGrowthMetrics",
			"outputs": [
				{
					"internalType": "uint256",
					"name": "uniqueHolders",
					"type": "uint256"
				},
				{
					"internalType": "uint256",
					"name": "totalTransactions",
					"type": "uint256"
				},
				{
					"internalType": "uint256",
					"name": "communityEngagementScore",
					"type": "uint256"
				},
				{
					"internalType": "uint256",
					"name": "socialImpactScore",
					"type": "uint256"
				},
				{
					"internalType": "uint256",
					"name": "lastUpdateTimestamp",
					"type": "uint256"
				}
			],
			"stateMutability": "view",
			"type": "function"
		},
		{
			"inputs": [
				{
					"internalType": "bytes32",
					"name": "role",
					"type": "bytes32"
				}
			],
			"name": "getRoleAdmin",
			"outputs": [
				{
					"internalType": "bytes32",
					"name": "",
					"type": "bytes32"
				}
			],
			"stateMutability": "view",
			"type": "function"
		},
		{
			"inputs": [
				{
					"internalType": "bytes32",
					"name": "role",
					"type": "bytes32"
				},
				{
					"internalType": "address",
					"name": "account",
					"type": "address"
				}
			],
			"name": "grantRole",
			"outputs": [],
			"stateMutability": "nonpayable",
			"type": "function"
		},
		{
			"inputs": [],
			"name": "growthMetrics",
			"outputs": [
				{
					"internalType": "uint256",
					"name": "uniqueHolders",
					"type": "uint256"
				},
				{
					"internalType": "uint256",
					"name": "totalTransactions",
					"type": "uint256"
				},
				{
					"internalType": "uint256",
					"name": "communityEngagementScore",
					"type": "uint256"
				},
				{
					"internalType": "uint256",
					"name": "socialImpactScore",
					"type": "uint256"
				},
				{
					"internalType": "uint256",
					"name": "lastUpdateTimestamp",
					"type": "uint256"
				}
			],
			"stateMutability": "view",
			"type": "function"
		},
		{
			"inputs": [
				{
					"internalType": "bytes32",
					"name": "role",
					"type": "bytes32"
				},
				{
					"internalType": "address",
					"name": "account",
					"type": "address"
				}
			],
			"name": "hasRole",
			"outputs": [
				{
					"internalType": "bool",
					"name": "",
					"type": "bool"
				}
			],
			"stateMutability": "view",
			"type": "function"
		},
		{
			"inputs": [
				{
					"internalType": "address",
					"name": "",
					"type": "address"
				}
			],
			"name": "isActiveUser",
			"outputs": [
				{
					"internalType": "bool",
					"name": "",
					"type": "bool"
				}
			],
			"stateMutability": "view",
			"type": "function"
		},
		{
			"inputs": [
				{
					"internalType": "address",
					"name": "",
					"type": "address"
				}
			],
			"name": "lastActionTime",
			"outputs": [
				{
					"internalType": "uint256",
					"name": "",
					"type": "uint256"
				}
			],
			"stateMutability": "view",
			"type": "function"
		},
		{
			"inputs": [],
			"name": "lastActionTimestamp",
			"outputs": [
				{
					"internalType": "uint256",
					"name": "",
					"type": "uint256"
				}
			],
			"stateMutability": "view",
			"type": "function"
		},
		{
			"inputs": [],
			"name": "migrated",
			"outputs": [
				{
					"internalType": "bool",
					"name": "",
					"type": "bool"
				}
			],
			"stateMutability": "view",
			"type": "function"
		},
		{
			"inputs": [],
			"name": "name",
			"outputs": [
				{
					"internalType": "string",
					"name": "",
					"type": "string"
				}
			],
			"stateMutability": "view",
			"type": "function"
		},
		{
			"inputs": [],
			"name": "paused",
			"outputs": [
				{
					"internalType": "bool",
					"name": "",
					"type": "bool"
				}
			],
			"stateMutability": "view",
			"type": "function"
		},
		{
			"inputs": [
				{
					"internalType": "address",
					"name": "payee",
					"type": "address"
				}
			],
			"name": "pendingWithdrawals",
			"outputs": [
				{
					"internalType": "uint256",
					"name": "",
					"type": "uint256"
				}
			],
			"stateMutability": "view",
			"type": "function"
		},
		{
			"inputs": [
				{
					"internalType": "bytes32",
					"name": "role",
					"type": "bytes32"
				},
				{
					"internalType": "address",
					"name": "callerConfirmation",
					"type": "address"
				}
			],
			"name": "renounceRole",
			"outputs": [],
			"stateMutability": "nonpayable",
			"type": "function"
		},
		{
			"inputs": [
				{
					"internalType": "bytes32",
					"name": "role",
					"type": "bytes32"
				},
				{
					"internalType": "address",
					"name": "account",
					"type": "address"
				}
			],
			"name": "revokeRole",
			"outputs": [],
			"stateMutability": "nonpayable",
			"type": "function"
		},
		{
			"inputs": [
				{
					"internalType": "uint256",
					"name": "tokenAmount",
					"type": "uint256"
				}
			],
			"name": "sell",
			"outputs": [],
			"stateMutability": "nonpayable",
			"type": "function"
		},
		{
			"inputs": [
				{
					"internalType": "bool",
					"name": "_emergencyMode",
					"type": "bool"
				}
			],
			"name": "setEmergencyMode",
			"outputs": [],
			"stateMutability": "nonpayable",
			"type": "function"
		},
		{
			"inputs": [
				{
					"internalType": "bytes4",
					"name": "interfaceId",
					"type": "bytes4"
				}
			],
			"name": "supportsInterface",
			"outputs": [
				{
					"internalType": "bool",
					"name": "",
					"type": "bool"
				}
			],
			"stateMutability": "view",
			"type": "function"
		},
		{
			"inputs": [],
			"name": "symbol",
			"outputs": [
				{
					"internalType": "string",
					"name": "",
					"type": "string"
				}
			],
			"stateMutability": "view",
			"type": "function"
		},
		{
			"inputs": [],
			"name": "totalCollectedETH",
			"outputs": [
				{
					"internalType": "uint256",
					"name": "",
					"type": "uint256"
				}
			],
			"stateMutability": "view",
			"type": "function"
		},
		{
			"inputs": [],
			"name": "totalSupply",
			"outputs": [
				{
					"internalType": "uint256",
					"name": "",
					"type": "uint256"
				}
			],
			"stateMutability": "view",
			"type": "function"
		},
		{
			"inputs": [
				{
					"internalType": "address",
					"name": "to",
					"type": "address"
				},
				{
					"internalType": "uint256",
					"name": "value",
					"type": "uint256"
				}
			],
			"name": "transfer",
			"outputs": [
				{
					"internalType": "bool",
					"name": "",
					"type": "bool"
				}
			],
			"stateMutability": "nonpayable",
			"type": "function"
		},
		{
			"inputs": [
				{
					"internalType": "address",
					"name": "from",
					"type": "address"
				},
				{
					"internalType": "address",
					"name": "to",
					"type": "address"
				},
				{
					"internalType": "uint256",
					"name": "value",
					"type": "uint256"
				}
			],
			"name": "transferFrom",
			"outputs": [
				{
					"internalType": "bool",
					"name": "",
					"type": "bool"
				}
			],
			"stateMutability": "nonpayable",
			"type": "function"
		},
		{
			"inputs": [],
			"name": "uniswapFactory",
			"outputs": [
				{
					"internalType": "contract IUniswapV2Factory",
					"name": "",
					"type": "address"
				}
			],
			"stateMutability": "view",
			"type": "function"
		},
		{
			"inputs": [],
			"name": "uniswapPair",
			"outputs": [
				{
					"internalType": "address",
					"name": "",
					"type": "address"
				}
			],
			"stateMutability": "view",
			"type": "function"
		},
		{
			"inputs": [],
			"name": "uniswapRouter",
			"outputs": [
				{
					"internalType": "contract IUniswapV2Router02",
					"name": "",
					"type": "address"
				}
			],
			"stateMutability": "view",
			"type": "function"
		},
		{
			"inputs": [
				{
					"internalType": "uint256",
					"name": "newPriceImpact",
					"type": "uint256"
				},
				{
					"internalType": "uint256",
					"name": "newBondingCurveFactor",
					"type": "uint256"
				}
			],
			"name": "updateAIParameters",
			"outputs": [],
			"stateMutability": "nonpayable",
			"type": "function"
		},
		{
			"inputs": [
				{
					"internalType": "uint256",
					"name": "newScore",
					"type": "uint256"
				}
			],
			"name": "updateSocialImpactScore",
			"outputs": [],
			"stateMutability": "nonpayable",
			"type": "function"
		},
		{
			"inputs": [],
			"name": "virtualEthReserve",
			"outputs": [
				{
					"internalType": "uint256",
					"name": "",
					"type": "uint256"
				}
			],
			"stateMutability": "view",
			"type": "function"
		},
		{
			"inputs": [],
			"name": "virtualTokenReserve",
			"outputs": [
				{
					"internalType": "uint256",
					"name": "",
					"type": "uint256"
				}
			],
			"stateMutability": "view",
			"type": "function"
		},
		{
			"inputs": [],
			"name": "withdrawFees",
			"outputs": [],
			"stateMutability": "nonpayable",
			"type": "function"
		},
		{
			"inputs": [],
			"name": "withdrawPendingPayments",
			"outputs": [],
			"stateMutability": "nonpayable",
			"type": "function"
		},
		{
			"stateMutability": "payable",
			"type": "receive"
		}
	]
}