{
  "_format": "hh-sol-artifact-1",
  "contractName": "BearedMintTimelock",
  "sourceName": "contracts/BearedMintTimeLock.sol",
  "abi": [
    {
      "inputs": [
        {
          "internalType": "address",
          "name": "admin_",
          "type": "address"
        },
        {
          "internalType": "uint256",
          "name": "delay_",
          "type": "uint256"
        }
      ],
      "stateMutability": "nonpayable",
      "type": "constructor"
    },
    {
      "anonymous": false,
      "inputs": [
        {
          "indexed": true,
          "internalType": "bytes32",
          "name": "txHash",
          "type": "bytes32"
        },
        {
          "indexed": true,
          "internalType": "address",
          "name": "target",
          "type": "address"
        },
        {
          "indexed": false,
          "internalType": "uint256",
          "name": "value",
          "type": "uint256"
        },
        {
          "indexed": false,
          "internalType": "string",
          "name": "signature",
          "type": "string"
        },
        {
          "indexed": false,
          "internalType": "bytes",
          "name": "data",
          "type": "bytes"
        },
        {
          "indexed": false,
          "internalType": "uint256",
          "name": "eta",
          "type": "uint256"
        }
      ],
      "name": "CancelTransaction",
      "type": "event"
    },
    {
      "anonymous": false,
      "inputs": [
        {
          "indexed": true,
          "internalType": "bytes32",
          "name": "txHash",
          "type": "bytes32"
        },
        {
          "indexed": true,
          "internalType": "address",
          "name": "target",
          "type": "address"
        },
        {
          "indexed": false,
          "internalType": "uint256",
          "name": "value",
          "type": "uint256"
        },
        {
          "indexed": false,
          "internalType": "string",
          "name": "signature",
          "type": "string"
        },
        {
          "indexed": false,
          "internalType": "bytes",
          "name": "data",
          "type": "bytes"
        },
        {
          "indexed": false,
          "internalType": "uint256",
          "name": "eta",
          "type": "uint256"
        }
      ],
      "name": "ExecuteTransaction",
      "type": "event"
    },
    {
      "anonymous": false,
      "inputs": [
        {
          "indexed": true,
          "internalType": "bytes32",
          "name": "txHash",
          "type": "bytes32"
        },
        {
          "indexed": true,
          "internalType": "address",
          "name": "target",
          "type": "address"
        },
        {
          "indexed": false,
          "internalType": "uint256",
          "name": "value",
          "type": "uint256"
        },
        {
          "indexed": false,
          "internalType": "string",
          "name": "signature",
          "type": "string"
        },
        {
          "indexed": false,
          "internalType": "bytes",
          "name": "data",
          "type": "bytes"
        },
        {
          "indexed": false,
          "internalType": "uint256",
          "name": "eta",
          "type": "uint256"
        }
      ],
      "name": "QueueTransaction",
      "type": "event"
    },
    {
      "inputs": [],
      "name": "GRACE_PERIOD",
      "outputs": [
        {
          "internalType": "uint256",
          "name": "",
          "type": "uint256"
        }
      ],
      "stateMutability": "view",
      "type": "function"
    },
    {
      "inputs": [],
      "name": "MAXIMUM_DELAY",
      "outputs": [
        {
          "internalType": "uint256",
          "name": "",
          "type": "uint256"
        }
      ],
      "stateMutability": "view",
      "type": "function"
    },
    {
      "inputs": [],
      "name": "MINIMUM_DELAY",
      "outputs": [
        {
          "internalType": "uint256",
          "name": "",
          "type": "uint256"
        }
      ],
      "stateMutability": "view",
      "type": "function"
    },
    {
      "inputs": [],
      "name": "admin",
      "outputs": [
        {
          "internalType": "address",
          "name": "",
          "type": "address"
        }
      ],
      "stateMutability": "view",
      "type": "function"
    },
    {
      "inputs": [
        {
          "internalType": "address",
          "name": "target",
          "type": "address"
        },
        {
          "internalType": "uint256",
          "name": "value",
          "type": "uint256"
        },
        {
          "internalType": "string",
          "name": "signature",
          "type": "string"
        },
        {
          "internalType": "bytes",
          "name": "data",
          "type": "bytes"
        },
        {
          "internalType": "uint256",
          "name": "eta",
          "type": "uint256"
        }
      ],
      "name": "cancelTransaction",
      "outputs": [],
      "stateMutability": "nonpayable",
      "type": "function"
    },
    {
      "inputs": [],
      "name": "delay",
      "outputs": [
        {
          "internalType": "uint256",
          "name": "",
          "type": "uint256"
        }
      ],
      "stateMutability": "view",
      "type": "function"
    },
    {
      "inputs": [
        {
          "internalType": "address",
          "name": "target",
          "type": "address"
        },
        {
          "internalType": "uint256",
          "name": "value",
          "type": "uint256"
        },
        {
          "internalType": "string",
          "name": "signature",
          "type": "string"
        },
        {
          "internalType": "bytes",
          "name": "data",
          "type": "bytes"
        },
        {
          "internalType": "uint256",
          "name": "eta",
          "type": "uint256"
        }
      ],
      "name": "executeTransaction",
      "outputs": [
        {
          "internalType": "bytes",
          "name": "",
          "type": "bytes"
        }
      ],
      "stateMutability": "payable",
      "type": "function"
    },
    {
      "inputs": [
        {
          "internalType": "address",
          "name": "target",
          "type": "address"
        },
        {
          "internalType": "uint256",
          "name": "value",
          "type": "uint256"
        },
        {
          "internalType": "string",
          "name": "signature",
          "type": "string"
        },
        {
          "internalType": "bytes",
          "name": "data",
          "type": "bytes"
        },
        {
          "internalType": "uint256",
          "name": "eta",
          "type": "uint256"
        }
      ],
      "name": "queueTransaction",
      "outputs": [
        {
          "internalType": "bytes32",
          "name": "",
          "type": "bytes32"
        }
      ],
      "stateMutability": "nonpayable",
      "type": "function"
    },
    {
      "inputs": [
        {
          "internalType": "bytes32",
          "name": "",
          "type": "bytes32"
        }
      ],
      "name": "queuedTransactions",
      "outputs": [
        {
          "internalType": "bool",
          "name": "",
          "type": "bool"
        }
      ],
      "stateMutability": "view",
      "type": "function"
    }
  ],
  "bytecode": "0x608060405234801561001057600080fd5b50604051610bed380380610bed83398101604081905261002f91610165565b6202a3008110156100875760405162461bcd60e51b815260206004820152601f60248201527f44656c6179206d75737420657863656564206d696e696d756d2064656c61790060448201526064015b60405180910390fd5b62278d008111156100e65760405162461bcd60e51b815260206004820152602360248201527f44656c6179206d757374206e6f7420657863656564206d6178696d756d2064656044820152626c617960e81b606482015260840161007e565b6001600160a01b03821661013c5760405162461bcd60e51b815260206004820152601560248201527f496e76616c69642061646d696e20616464726573730000000000000000000000604482015260640161007e565b600080546001600160a01b0319166001600160a01b03939093169290921790915560015561019f565b6000806040838503121561017857600080fd5b82516001600160a01b038116811461018f57600080fd5b6020939093015192949293505050565b610a3f806101ae6000396000f3fe6080604052600436106100965760003560e01c80637d645fab11610069578063c1a287e21161004e578063c1a287e214610158578063f2b065371461016f578063f851a440146101af57600080fd5b80637d645fab1461012a578063b1b43ae51461014157600080fd5b80630825f38f1461009b5780633a66f901146100c4578063591fcdfe146100f25780636a42b8f814610114575b600080fd5b6100ae6100a93660046107cc565b6101e7565b6040516100bb91906108c7565b60405180910390f35b3480156100d057600080fd5b506100e46100df3660046107cc565b6104e1565b6040519081526020016100bb565b3480156100fe57600080fd5b5061011261010d3660046107cc565b61062e565b005b34801561012057600080fd5b506100e460015481565b34801561013657600080fd5b506100e462278d0081565b34801561014d57600080fd5b506100e46202a30081565b34801561016457600080fd5b506100e46212750081565b34801561017b57600080fd5b5061019f61018a3660046108da565b60026020526000908152604090205460ff1681565b60405190151581526020016100bb565b3480156101bb57600080fd5b506000546101cf906001600160a01b031681565b6040516001600160a01b0390911681526020016100bb565b6000546060906001600160a01b031633146102405760405162461bcd60e51b815260206004820152601460248201527321b0b63632b91036bab9ba1031329030b236b4b760611b60448201526064015b60405180910390fd5b6000868686868660405160200161025b9594939291906108f3565b60408051601f1981840301815291815281516020928301206000818152600290935291205490915060ff166102d25760405162461bcd60e51b815260206004820152601660248201527f5472616e73616374696f6e206e6f7420717565756564000000000000000000006044820152606401610237565b8242101561032d5760405162461bcd60e51b815260206004820152602260248201527f5472616e73616374696f6e206861736e2774207375727061737365642064656c604482015261617960f01b6064820152608401610237565b61033a6212750084610940565b4211156103895760405162461bcd60e51b815260206004820152601460248201527f5472616e73616374696f6e206973207374616c650000000000000000000000006044820152606401610237565b6000818152600260205260408120805460ff191690558551606091036103b05750836103dc565b8580519060200120856040516020016103ca929190610967565b60405160208183030381529060405290505b600080896001600160a01b031689846040516103f891906109b0565b60006040518083038185875af1925050503d8060008114610435576040519150601f19603f3d011682016040523d82523d6000602084013e61043a565b606091505b50915091508161048c5760405162461bcd60e51b815260206004820152601e60248201527f5472616e73616374696f6e20657865637574696f6e20726576657274656400006044820152606401610237565b896001600160a01b0316847fa560e3198060a2f10670c1ec5b403077ea6ae93ca8de1c32b451dc1a943cd6e78b8b8b8b6040516104cc94939291906109cc565b60405180910390a39998505050505050505050565b600080546001600160a01b031633146105335760405162461bcd60e51b815260206004820152601460248201527321b0b63632b91036bab9ba1031329030b236b4b760611b6044820152606401610237565b6001546105409042610940565b82101561058f5760405162461bcd60e51b815260206004820152601360248201527f4d757374207761697420666f722064656c6179000000000000000000000000006044820152606401610237565b600086868686866040516020016105aa9594939291906108f3565b60408051601f19818403018152828252805160209182012060008181526002909252919020805460ff1916600117905591506001600160a01b0388169082907f76e2796dc3a81d57b0e8504b647febcbeeb5f4af818e164f11eef8131a6a763f9061061c908a908a908a908a906109cc565b60405180910390a39695505050505050565b6000546001600160a01b0316331461067f5760405162461bcd60e51b815260206004820152601460248201527321b0b63632b91036bab9ba1031329030b236b4b760611b6044820152606401610237565b6000858585858560405160200161069a9594939291906108f3565b60408051601f19818403018152828252805160209182012060008181526002909252919020805460ff1916905591506001600160a01b0387169082907f2fffc091a501fd91bfbff27141450d3acb40fb8e6d8382b243ec7a812a3aaf87906107099089908990899089906109cc565b60405180910390a3505050505050565b634e487b7160e01b600052604160045260246000fd5b600067ffffffffffffffff8084111561074a5761074a610719565b604051601f8501601f19908116603f0116810190828211818310171561077257610772610719565b8160405280935085815286868601111561078b57600080fd5b858560208301376000602087830101525050509392505050565b600082601f8301126107b657600080fd5b6107c58383356020850161072f565b9392505050565b600080600080600060a086880312156107e457600080fd5b85356001600160a01b03811681146107fb57600080fd5b945060208601359350604086013567ffffffffffffffff8082111561081f57600080fd5b818801915088601f83011261083357600080fd5b6108428983356020850161072f565b9450606088013591508082111561085857600080fd5b50610865888289016107a5565b95989497509295608001359392505050565b60005b8381101561089257818101518382015260200161087a565b50506000910152565b600081518084526108b3816020860160208601610877565b601f01601f19169290920160200192915050565b6020815260006107c5602083018461089b565b6000602082840312156108ec57600080fd5b5035919050565b6001600160a01b038616815284602082015260a06040820152600061091b60a083018661089b565b828103606084015261092d818661089b565b9150508260808301529695505050505050565b8082018082111561096157634e487b7160e01b600052601160045260246000fd5b92915050565b7fffffffff000000000000000000000000000000000000000000000000000000008316815281516000906109a2816004850160208701610877565b919091016004019392505050565b600082516109c2818460208701610877565b9190910192915050565b8481526080602082015260006109e5608083018661089b565b82810360408401526109f7818661089b565b9150508260608301529594505050505056fea26469706673582212208e831e577d945f67c7031a6010fcb31487a407b20d8251c5e8c823642e439f0a64736f6c63430008180033",
  "linkReferences": {},
  "deployedLinkReferences": {}
}