{
  "_format": "hh-sol-artifact-1",
  "contractName": "BearedMintLiquidityLock",
  "sourceName": "contracts/BearedMintLiquidityLock.sol",
  "abi": [
    {
      "inputs": [],
      "stateMutability": "nonpayable",
      "type": "constructor"
    },
    {
      "inputs": [],
      "name": "AccessControlBadConfirmation",
      "type": "error"
    },
    {
      "inputs": [
        {
          "internalType": "address",
          "name": "account",
          "type": "address"
        },
        {
          "internalType": "bytes32",
          "name": "neededRole",
          "type": "bytes32"
        }
      ],
      "name": "AccessControlUnauthorizedAccount",
      "type": "error"
    },
    {
      "anonymous": false,
      "inputs": [
        {
          "indexed": true,
          "internalType": "address",
          "name": "token",
          "type": "address"
        },
        {
          "indexed": true,
          "internalType": "uint256",
          "name": "lockId",
          "type": "uint256"
        },
        {
          "indexed": true,
          "internalType": "address",
          "name": "owner",
          "type": "address"
        },
        {
          "indexed": false,
          "internalType": "uint256",
          "name": "amount",
          "type": "uint256"
        },
        {
          "indexed": false,
          "internalType": "uint256",
          "name": "unlockTime",
          "type": "uint256"
        }
      ],
      "name": "LiquidityLocked",
      "type": "event"
    },
    {
      "anonymous": false,
      "inputs": [
        {
          "indexed": true,
          "internalType": "address",
          "name": "token",
          "type": "address"
        },
        {
          "indexed": true,
          "internalType": "uint256",
          "name": "lockId",
          "type": "uint256"
        },
        {
          "indexed": true,
          "internalType": "address",
          "name": "owner",
          "type": "address"
        },
        {
          "indexed": false,
          "internalType": "uint256",
          "name": "amount",
          "type": "uint256"
        }
      ],
      "name": "LiquidityUnlocked",
      "type": "event"
    },
    {
      "anonymous": false,
      "inputs": [
        {
          "indexed": true,
          "internalType": "bytes32",
          "name": "role",
          "type": "bytes32"
        },
        {
          "indexed": true,
          "internalType": "bytes32",
          "name": "previousAdminRole",
          "type": "bytes32"
        },
        {
          "indexed": true,
          "internalType": "bytes32",
          "name": "newAdminRole",
          "type": "bytes32"
        }
      ],
      "name": "RoleAdminChanged",
      "type": "event"
    },
    {
      "anonymous": false,
      "inputs": [
        {
          "indexed": true,
          "internalType": "bytes32",
          "name": "role",
          "type": "bytes32"
        },
        {
          "indexed": true,
          "internalType": "address",
          "name": "account",
          "type": "address"
        },
        {
          "indexed": true,
          "internalType": "address",
          "name": "sender",
          "type": "address"
        }
      ],
      "name": "RoleGranted",
      "type": "event"
    },
    {
      "anonymous": false,
      "inputs": [
        {
          "indexed": true,
          "internalType": "bytes32",
          "name": "role",
          "type": "bytes32"
        },
        {
          "indexed": true,
          "internalType": "address",
          "name": "account",
          "type": "address"
        },
        {
          "indexed": true,
          "internalType": "address",
          "name": "sender",
          "type": "address"
        }
      ],
      "name": "RoleRevoked",
      "type": "event"
    },
    {
      "inputs": [],
      "name": "DEFAULT_ADMIN_ROLE",
      "outputs": [
        {
          "internalType": "bytes32",
          "name": "",
          "type": "bytes32"
        }
      ],
      "stateMutability": "view",
      "type": "function"
    },
    {
      "inputs": [
        {
          "internalType": "bytes32",
          "name": "role",
          "type": "bytes32"
        }
      ],
      "name": "getRoleAdmin",
      "outputs": [
        {
          "internalType": "bytes32",
          "name": "",
          "type": "bytes32"
        }
      ],
      "stateMutability": "view",
      "type": "function"
    },
    {
      "inputs": [
        {
          "internalType": "bytes32",
          "name": "role",
          "type": "bytes32"
        },
        {
          "internalType": "address",
          "name": "account",
          "type": "address"
        }
      ],
      "name": "grantRole",
      "outputs": [],
      "stateMutability": "nonpayable",
      "type": "function"
    },
    {
      "inputs": [
        {
          "internalType": "bytes32",
          "name": "role",
          "type": "bytes32"
        },
        {
          "internalType": "address",
          "name": "account",
          "type": "address"
        }
      ],
      "name": "hasRole",
      "outputs": [
        {
          "internalType": "bool",
          "name": "",
          "type": "bool"
        }
      ],
      "stateMutability": "view",
      "type": "function"
    },
    {
      "inputs": [
        {
          "internalType": "address",
          "name": "",
          "type": "address"
        },
        {
          "internalType": "uint256",
          "name": "",
          "type": "uint256"
        }
      ],
      "name": "lockInfo",
      "outputs": [
        {
          "internalType": "uint256",
          "name": "amount",
          "type": "uint256"
        },
        {
          "internalType": "uint256",
          "name": "unlockTime",
          "type": "uint256"
        },
        {
          "internalType": "bool",
          "name": "isUnlocked",
          "type": "bool"
        },
        {
          "internalType": "address",
          "name": "owner",
          "type": "address"
        },
        {
          "internalType": "uint256",
          "name": "lockId",
          "type": "uint256"
        }
      ],
      "stateMutability": "view",
      "type": "function"
    },
    {
      "inputs": [
        {
          "internalType": "address",
          "name": "token",
          "type": "address"
        },
        {
          "internalType": "uint256",
          "name": "amount",
          "type": "uint256"
        },
        {
          "internalType": "uint256",
          "name": "duration",
          "type": "uint256"
        }
      ],
      "name": "lockLiquidity",
      "outputs": [
        {
          "internalType": "uint256",
          "name": "lockId",
          "type": "uint256"
        }
      ],
      "stateMutability": "nonpayable",
      "type": "function"
    },
    {
      "inputs": [
        {
          "internalType": "bytes32",
          "name": "role",
          "type": "bytes32"
        },
        {
          "internalType": "address",
          "name": "callerConfirmation",
          "type": "address"
        }
      ],
      "name": "renounceRole",
      "outputs": [],
      "stateMutability": "nonpayable",
      "type": "function"
    },
    {
      "inputs": [
        {
          "internalType": "bytes32",
          "name": "role",
          "type": "bytes32"
        },
        {
          "internalType": "address",
          "name": "account",
          "type": "address"
        }
      ],
      "name": "revokeRole",
      "outputs": [],
      "stateMutability": "nonpayable",
      "type": "function"
    },
    {
      "inputs": [
        {
          "internalType": "bytes4",
          "name": "interfaceId",
          "type": "bytes4"
        }
      ],
      "name": "supportsInterface",
      "outputs": [
        {
          "internalType": "bool",
          "name": "",
          "type": "bool"
        }
      ],
      "stateMutability": "view",
      "type": "function"
    },
    {
      "inputs": [
        {
          "internalType": "address",
          "name": "",
          "type": "address"
        }
      ],
      "name": "tokenLockCount",
      "outputs": [
        {
          "internalType": "uint256",
          "name": "",
          "type": "uint256"
        }
      ],
      "stateMutability": "view",
      "type": "function"
    },
    {
      "inputs": [
        {
          "internalType": "address",
          "name": "token",
          "type": "address"
        },
        {
          "internalType": "uint256",
          "name": "lockId",
          "type": "uint256"
        }
      ],
      "name": "unlockLiquidity",
      "outputs": [],
      "stateMutability": "nonpayable",
      "type": "function"
    }
  ],
  "bytecode": "0x608060405234801561001057600080fd5b5061001c600033610022565b506100ce565b6000828152602081815260408083206001600160a01b038516845290915281205460ff166100c4576000838152602081815260408083206001600160a01b03861684529091529020805460ff1916600117905561007c3390565b6001600160a01b0316826001600160a01b0316847f2f8788117e7eff1d82e926ec794901d17c78024a50270940304540a733656f0d60405160405180910390a45060016100c8565b5060005b92915050565b610c04806100dd6000396000f3fe608060405234801561001057600080fd5b50600436106100c95760003560e01c80639f69521f11610081578063be8796c11161005b578063be8796c114610236578063ce144e0a14610249578063d547741f1461025c57600080fd5b80639f69521f14610186578063a217fddf146101a6578063b2520a7c146101ae57600080fd5b80632f2ff15d116100b25780632f2ff15d1461012757806336568abe1461013c57806391d148541461014f57600080fd5b806301ffc9a7146100ce578063248a9ca3146100f6575b600080fd5b6100e16100dc366004610a60565b61026f565b60405190151581526020015b60405180910390f35b610119610104366004610a91565b60009081526020819052604090206001015490565b6040519081526020016100ed565b61013a610135366004610ac6565b6102a6565b005b61013a61014a366004610ac6565b6102d1565b6100e161015d366004610ac6565b6000918252602082815260408084206001600160a01b0393909316845291905290205460ff1690565b610119610194366004610af2565b60026020526000908152604090205481565b610119600081565b6102006101bc366004610b0d565b600160208181526000938452604080852090915291835291208054918101546002820154600390920154909160ff8116916101009091046001600160a01b03169085565b604080519586526020860194909452911515928401929092526001600160a01b039091166060830152608082015260a0016100ed565b61013a610244366004610b0d565b610309565b610119610257366004610b37565b6105ae565b61013a61026a366004610ac6565b6108aa565b60006001600160e01b03198216637965db0b60e01b14806102a057506301ffc9a760e01b6001600160e01b03198316145b92915050565b6000828152602081905260409020600101546102c1816108cf565b6102cb83836108dc565b50505050565b6001600160a01b03811633146102fa5760405163334bd91960e11b815260040160405180910390fd5b6103048282610986565b505050565b6001600160a01b03821660009081526001602090815260408083208484529091529020805461037f5760405162461bcd60e51b815260206004820152601360248201527f4c6f636b20646f6573206e6f742065786973740000000000000000000000000060448201526064015b60405180910390fd5b600281015460ff16156103d45760405162461bcd60e51b815260206004820152601060248201527f416c726561647920756e6c6f636b6564000000000000000000000000000000006044820152606401610376565b80600101544210156104285760405162461bcd60e51b815260206004820152600c60248201527f5374696c6c206c6f636b656400000000000000000000000000000000000000006044820152606401610376565b600281015461010090046001600160a01b031633146104895760405162461bcd60e51b815260206004820152601260248201527f4e6f7420746865206c6f636b206f776e657200000000000000000000000000006044820152606401610376565b805460028201805460ff1981166001179091556000835560405163a9059cbb60e01b81526001600160a01b03610100909204821660048201819052602482018490529186169063a9059cbb906044016020604051808303816000875af11580156104f7573d6000803e3d6000fd5b505050506040513d601f19601f8201168201806040525081019061051b9190610b6a565b6105595760405162461bcd60e51b815260206004820152600f60248201526e151c985b9cd9995c8819985a5b1959608a1b6044820152606401610376565b806001600160a01b031684866001600160a01b03167fdb4771eceb4cf7d0988585b7c06fdb5918b634a747245e69f2b148322d0023a88560405161059f91815260200190565b60405180910390a45050505050565b60006001600160a01b0384166106065760405162461bcd60e51b815260206004820152601560248201527f496e76616c696420746f6b656e206164647265737300000000000000000000006044820152606401610376565b600083116106565760405162461bcd60e51b815260206004820152600e60248201527f496e76616c696420616d6f756e740000000000000000000000000000000000006044820152606401610376565b62278d008210156106a95760405162461bcd60e51b815260206004820152601060248201527f4d696e2033302064617973206c6f636b000000000000000000000000000000006044820152606401610376565b6001600160a01b03841660009081526002602052604081208054916106cd83610ba2565b90915550905060006106df8342610bbb565b6040805160a081018252868152602080820184815260008385018181523360608601818152608087018b81526001600160a01b038f81168087526001808a528b88208f8952909952958a902098518955955196880196909655915160028701805493517fffffffffffffffffffffff0000000000000000000000000000000000000000009094169115157fffffffffffffffffffffff0000000000000000000000000000000000000000ff16919091176101009390951692909202939093179055915160039093019290925591516323b872dd60e01b8152600481019190915230602482015260448101879052919250906323b872dd906064016020604051808303816000875af11580156107f8573d6000803e3d6000fd5b505050506040513d601f19601f8201168201806040525081019061081c9190610b6a565b61085a5760405162461bcd60e51b815260206004820152600f60248201526e151c985b9cd9995c8819985a5b1959608a1b6044820152606401610376565b6040805185815260208101839052339184916001600160a01b038916917f7355a77f9a907240135ce2b108c299774683e159f7870011aa06890d98929a77910160405180910390a4509392505050565b6000828152602081905260409020600101546108c5816108cf565b6102cb8383610986565b6108d98133610a09565b50565b6000828152602081815260408083206001600160a01b038516845290915281205460ff1661097e576000838152602081815260408083206001600160a01b03861684529091529020805460ff191660011790556109363390565b6001600160a01b0316826001600160a01b0316847f2f8788117e7eff1d82e926ec794901d17c78024a50270940304540a733656f0d60405160405180910390a45060016102a0565b5060006102a0565b6000828152602081815260408083206001600160a01b038516845290915281205460ff161561097e576000838152602081815260408083206001600160a01b0386168085529252808320805460ff1916905551339286917ff6391f5c32d9c69d2a47ea670b442974b53935d1edc7fd64eb21e047a839171b9190a45060016102a0565b6000828152602081815260408083206001600160a01b038516845290915290205460ff16610a5c5760405163e2517d3f60e01b81526001600160a01b038216600482015260248101839052604401610376565b5050565b600060208284031215610a7257600080fd5b81356001600160e01b031981168114610a8a57600080fd5b9392505050565b600060208284031215610aa357600080fd5b5035919050565b80356001600160a01b0381168114610ac157600080fd5b919050565b60008060408385031215610ad957600080fd5b82359150610ae960208401610aaa565b90509250929050565b600060208284031215610b0457600080fd5b610a8a82610aaa565b60008060408385031215610b2057600080fd5b610b2983610aaa565b946020939093013593505050565b600080600060608486031215610b4c57600080fd5b610b5584610aaa565b95602085013595506040909401359392505050565b600060208284031215610b7c57600080fd5b81518015158114610a8a57600080fd5b634e487b7160e01b600052601160045260246000fd5b600060018201610bb457610bb4610b8c565b5060010190565b808201808211156102a0576102a0610b8c56fea2646970667358221220bc73ab638b46ad95fae57fa5a549805836f9bffee1ca4499d436747dc6222fe664736f6c63430008180033",
  "linkReferences": {},
  "deployedLinkReferences": {}
}